{
  "abi": [
    {
      "anonymous": false,
      "inputs": [
        {
          "indexed": false,
          "internalType": "uint8",
          "name": "version",
          "type": "uint8"
        }
      ],
      "name": "Initialized",
      "type": "event"
    },
    {
      "anonymous": false,
      "inputs": [
        {
          "indexed": true,
          "internalType": "address",
          "name": "previousOwner",
          "type": "address"
        },
        {
          "indexed": true,
          "internalType": "address",
          "name": "newOwner",
          "type": "address"
        }
      ],
      "name": "OwnershipTransferred",
      "type": "event"
    },
    {
      "anonymous": false,
      "inputs": [
        {
          "indexed": true,
          "internalType": "address",
          "name": "_owner",
          "type": "address"
        },
        {
          "indexed": false,
          "internalType": "string",
          "name": "_role",
          "type": "string"
        }
      ],
      "name": "RoleAdded",
      "type": "event"
    },
    {
      "anonymous": false,
      "inputs": [
        {
          "indexed": true,
          "internalType": "address",
          "name": "_owner",
          "type": "address"
        },
        {
          "indexed": false,
          "internalType": "string",
          "name": "_role",
          "type": "string"
        }
      ],
      "name": "RoleRemoved",
      "type": "event"
    },
    {
      "inputs": [
        {
          "internalType": "address",
          "name": "_owner",
          "type": "address"
        }
      ],
      "name": "addClaimRegistryManager",
      "outputs": [],
      "stateMutability": "nonpayable",
      "type": "function"
    },
    {
      "inputs": [
        {
          "internalType": "address",
          "name": "_owner",
          "type": "address"
        }
      ],
      "name": "addComplianceSetter",
      "outputs": [],
      "stateMutability": "nonpayable",
      "type": "function"
    },
    {
      "inputs": [
        {
          "internalType": "address",
          "name": "_owner",
          "type": "address"
        }
      ],
      "name": "addIssuersRegistryManager",
      "outputs": [],
      "stateMutability": "nonpayable",
      "type": "function"
    },
    {
      "inputs": [
        {
          "internalType": "address",
          "name": "_owner",
          "type": "address"
        }
      ],
      "name": "addOwnerAdmin",
      "outputs": [],
      "stateMutability": "nonpayable",
      "type": "function"
    },
    {
      "inputs": [
        {
          "internalType": "address",
          "name": "_owner",
          "type": "address"
        }
      ],
      "name": "addRegistryAddressSetter",
      "outputs": [],
      "stateMutability": "nonpayable",
      "type": "function"
    },
    {
      "inputs": [
        {
          "internalType": "address",
          "name": "_owner",
          "type": "address"
        }
      ],
      "name": "addTokenInfoManager",
      "outputs": [],
      "stateMutability": "nonpayable",
      "type": "function"
    },
    {
      "inputs": [
        {
          "internalType": "address",
          "name": "_owner",
          "type": "address"
        }
      ],
      "name": "isClaimRegistryManager",
      "outputs": [
        {
          "internalType": "bool",
          "name": "",
          "type": "bool"
        }
      ],
      "stateMutability": "view",
      "type": "function"
    },
    {
      "inputs": [
        {
          "internalType": "address",
          "name": "_owner",
          "type": "address"
        }
      ],
      "name": "isComplianceSetter",
      "outputs": [
        {
          "internalType": "bool",
          "name": "",
          "type": "bool"
        }
      ],
      "stateMutability": "view",
      "type": "function"
    },
    {
      "inputs": [
        {
          "internalType": "address",
          "name": "_owner",
          "type": "address"
        }
      ],
      "name": "isIssuersRegistryManager",
      "outputs": [
        {
          "internalType": "bool",
          "name": "",
          "type": "bool"
        }
      ],
      "stateMutability": "view",
      "type": "function"
    },
    {
      "inputs": [
        {
          "internalType": "address",
          "name": "_owner",
          "type": "address"
        }
      ],
      "name": "isOwnerAdmin",
      "outputs": [
        {
          "internalType": "bool",
          "name": "",
          "type": "bool"
        }
      ],
      "stateMutability": "view",
      "type": "function"
    },
    {
      "inputs": [
        {
          "internalType": "address",
          "name": "_owner",
          "type": "address"
        }
      ],
      "name": "isRegistryAddressSetter",
      "outputs": [
        {
          "internalType": "bool",
          "name": "",
          "type": "bool"
        }
      ],
      "stateMutability": "view",
      "type": "function"
    },
    {
      "inputs": [
        {
          "internalType": "address",
          "name": "_owner",
          "type": "address"
        }
      ],
      "name": "isTokenInfoManager",
      "outputs": [
        {
          "internalType": "bool",
          "name": "",
          "type": "bool"
        }
      ],
      "stateMutability": "view",
      "type": "function"
    },
    {
      "inputs": [],
      "name": "owner",
      "outputs": [
        {
          "internalType": "address",
          "name": "",
          "type": "address"
        }
      ],
      "stateMutability": "view",
      "type": "function"
    },
    {
      "inputs": [
        {
          "internalType": "address",
          "name": "_owner",
          "type": "address"
        }
      ],
      "name": "removeClaimRegistryManager",
      "outputs": [],
      "stateMutability": "nonpayable",
      "type": "function"
    },
    {
      "inputs": [
        {
          "internalType": "address",
          "name": "_owner",
          "type": "address"
        }
      ],
      "name": "removeComplianceSetter",
      "outputs": [],
      "stateMutability": "nonpayable",
      "type": "function"
    },
    {
      "inputs": [
        {
          "internalType": "address",
          "name": "_owner",
          "type": "address"
        }
      ],
      "name": "removeIssuersRegistryManager",
      "outputs": [],
      "stateMutability": "nonpayable",
      "type": "function"
    },
    {
      "inputs": [
        {
          "internalType": "address",
          "name": "_owner",
          "type": "address"
        }
      ],
      "name": "removeOwnerAdmin",
      "outputs": [],
      "stateMutability": "nonpayable",
      "type": "function"
    },
    {
      "inputs": [
        {
          "internalType": "address",
          "name": "_owner",
          "type": "address"
        }
      ],
      "name": "removeRegistryAddressSetter",
      "outputs": [],
      "stateMutability": "nonpayable",
      "type": "function"
    },
    {
      "inputs": [
        {
          "internalType": "address",
          "name": "_owner",
          "type": "address"
        }
      ],
      "name": "removeTokenInfoManager",
      "outputs": [],
      "stateMutability": "nonpayable",
      "type": "function"
    },
    {
      "inputs": [],
      "name": "renounceOwnership",
      "outputs": [],
      "stateMutability": "nonpayable",
      "type": "function"
    },
    {
      "inputs": [
        {
          "internalType": "address",
          "name": "newOwner",
          "type": "address"
        }
      ],
      "name": "transferOwnership",
      "outputs": [],
      "stateMutability": "nonpayable",
      "type": "function"
    }
  ],
  "bytecode": {
    "object": "0x608060405234801561001057600080fd5b50610f1c806100206000396000f3fe608060405234801561001057600080fd5b50600436106101375760003560e01c8063882fc6ca116100b8578063ae5aaa3b1161007c578063ae5aaa3b1461026d578063ce4bdac714610280578063e110255b14610293578063f2fde38b146102a6578063faed696a146102b9578063ff806311146102cc57600080fd5b8063882fc6ca146102065780638da5cb5b14610219578063934b2da41461023457806394e69f1b14610247578063ac95fc911461025a57600080fd5b806354b9797f116100ff57806354b9797f146101b257806362cdd482146101c55780636ff7bff7146101d8578063715018a6146101eb57806382870937146101f357600080fd5b8063039ec2cd1461013c5780632447e50b146101515780633ba7c75e146101795780633c734ce81461018c578063405225541461019f575b600080fd5b61014f61014a366004610dea565b6102df565b005b61016461015f366004610dea565b61039a565b60405190151581526020015b60405180910390f35b610164610187366004610dea565b6103ad565b61016461019a366004610dea565b6103ba565b61014f6101ad366004610dea565b6103c7565b61014f6101c0366004610dea565b610468565b6101646101d3366004610dea565b610503565b61014f6101e6366004610dea565b610510565b61014f6105b7565b610164610201366004610dea565b61061d565b61014f610214366004610dea565b61062a565b6033546040516001600160a01b039091168152602001610170565b61014f610242366004610dea565b6106cb565b61014f610255366004610dea565b610766565b61014f610268366004610dea565b610807565b61014f61027b366004610dea565b6108ae565b61014f61028e366004610dea565b610954565b61014f6102a1366004610dea565b6109f5565b61014f6102b4366004610dea565b610a9a565b61014f6102c7366004610dea565b610b65565b6101646102da366004610dea565b610c0a565b336102f26033546001600160a01b031690565b6001600160a01b0316148061030b575061030b33610503565b6103305760405162461bcd60e51b815260040161032790610e1a565b60405180910390fd5b61033b606682610c17565b60408051808201825260158152742932b3b4b9ba393ca0b2323932b9b9a9b2ba3a32b960591b602082015290516001600160a01b03831690600080516020610ea78339815191529061038e908490610e51565b60405180910390a25050565b60006103a7606a83610c99565b92915050565b60006103a7606783610c99565b60006103a7606883610c99565b336103da6033546001600160a01b031690565b6001600160a01b031614806103f357506103f333610503565b61040f5760405162461bcd60e51b815260040161032790610e1a565b61041a606782610c17565b604080518082018252601081526f21b7b6b83634b0b731b2a9b2ba3a32b960811b602082015290516001600160a01b03831690600080516020610ea78339815191529061038e908490610e51565b3361047b6033546001600160a01b031690565b6001600160a01b03161480610494575061049433610503565b6104b05760405162461bcd60e51b815260040161032790610e1a565b6104bb606582610c17565b604080518082018252600a81526927bbb732b920b236b4b760b11b602082015290516001600160a01b03831690600080516020610ea78339815191529061038e908490610e51565b60006103a7606583610c99565b336105236033546001600160a01b031690565b6001600160a01b0316148061053c575061053c33610503565b6105585760405162461bcd60e51b815260040161032790610e1a565b610563606982610c17565b604080518082018252601681527524b9b9bab2b939a932b3b4b9ba393ca6b0b730b3b2b960511b602082015290516001600160a01b03831690600080516020610ea78339815191529061038e908490610e51565b6033546001600160a01b031633146106115760405162461bcd60e51b815260206004820181905260248201527f4f776e61626c653a2063616c6c6572206973206e6f7420746865206f776e65726044820152606401610327565b61061b6000610d1c565b565b60006103a7606683610c99565b3361063d6033546001600160a01b031690565b6001600160a01b03161480610656575061065633610503565b6106725760405162461bcd60e51b815260040161032790610e1a565b61067d606a82610c17565b604080518082018252601081526f2a37b5b2b724b73337a6b0b730b3b2b960811b602082015290516001600160a01b03831690600080516020610ea78339815191529061038e908490610e51565b336106de6033546001600160a01b031690565b6001600160a01b031614806106f757506106f733610503565b6107135760405162461bcd60e51b815260040161032790610e1a565b61071e606582610d6e565b604080518082018252600a81526927bbb732b920b236b4b760b11b602082015290516001600160a01b03831690600080516020610ec78339815191529061038e908490610e51565b336107796033546001600160a01b031690565b6001600160a01b03161480610792575061079233610503565b6107ae5760405162461bcd60e51b815260040161032790610e1a565b6107b9606a82610d6e565b604080518082018252601081526f2a37b5b2b724b73337a6b0b730b3b2b960811b602082015290516001600160a01b03831690600080516020610ec78339815191529061038e908490610e51565b3361081a6033546001600160a01b031690565b6001600160a01b03161480610833575061083333610503565b61084f5760405162461bcd60e51b815260040161032790610e1a565b61085a606982610d6e565b604080518082018252601681527524b9b9bab2b939a932b3b4b9ba393ca6b0b730b3b2b960511b602082015290516001600160a01b03831690600080516020610ec78339815191529061038e908490610e51565b336108c16033546001600160a01b031690565b6001600160a01b031614806108da57506108da33610503565b6108f65760405162461bcd60e51b815260040161032790610e1a565b610901606682610d6e565b60408051808201825260158152742932b3b4b9ba393ca0b2323932b9b9a9b2ba3a32b960591b602082015290516001600160a01b03831690600080516020610ec78339815191529061038e908490610e51565b336109676033546001600160a01b031690565b6001600160a01b03161480610980575061098033610503565b61099c5760405162461bcd60e51b815260040161032790610e1a565b6109a7606782610d6e565b604080518082018252601081526f21b7b6b83634b0b731b2a9b2ba3a32b960811b602082015290516001600160a01b03831690600080516020610ec78339815191529061038e908490610e51565b33610a086033546001600160a01b031690565b6001600160a01b03161480610a215750610a2133610503565b610a3d5760405162461bcd60e51b815260040161032790610e1a565b610a48606882610c17565b604080518082018252601481527321b630b4b6a932b3b4b9ba393ca6b0b730b3b2b960611b602082015290516001600160a01b03831690600080516020610ea78339815191529061038e908490610e51565b6033546001600160a01b03163314610af45760405162461bcd60e51b815260206004820181905260248201527f4f776e61626c653a2063616c6c6572206973206e6f7420746865206f776e65726044820152606401610327565b6001600160a01b038116610b595760405162461bcd60e51b815260206004820152602660248201527f4f776e61626c653a206e6577206f776e657220697320746865207a65726f206160448201526564647265737360d01b6064820152608401610327565b610b6281610d1c565b50565b33610b786033546001600160a01b031690565b6001600160a01b03161480610b915750610b9133610503565b610bad5760405162461bcd60e51b815260040161032790610e1a565b610bb8606882610d6e565b604080518082018252601481527321b630b4b6a932b3b4b9ba393ca6b0b730b3b2b960611b602082015290516001600160a01b03831690600080516020610ec78339815191529061038e908490610e51565b60006103a7606983610c99565b610c218282610c99565b610c775760405162461bcd60e51b815260206004820152602160248201527f526f6c65733a206163636f756e7420646f6573206e6f74206861766520726f6c6044820152606560f81b6064820152608401610327565b6001600160a01b0316600090815260209190915260409020805460ff19169055565b60006001600160a01b038216610cfc5760405162461bcd60e51b815260206004820152602260248201527f526f6c65733a206163636f756e7420697320746865207a65726f206164647265604482015261737360f01b6064820152608401610327565b506001600160a01b03166000908152602091909152604090205460ff1690565b603380546001600160a01b038381166001600160a01b0319831681179093556040519116919082907f8be0079c531659141344cd1fd0a4f28419497f9722a3daafe3b4186f6b6457e090600090a35050565b610d788282610c99565b15610dc55760405162461bcd60e51b815260206004820152601f60248201527f526f6c65733a206163636f756e7420616c72656164792068617320726f6c65006044820152606401610327565b6001600160a01b0316600090815260209190915260409020805460ff19166001179055565b600060208284031215610dfc57600080fd5b81356001600160a01b0381168114610e1357600080fd5b9392505050565b60208082526019908201527f526f6c653a2053656e646572206973204e4f542041646d696e00000000000000604082015260600190565b600060208083528351808285015260005b81811015610e7e57858101830151858201604001528201610e62565b81811115610e90576000604083870101525b50601f01601f191692909201604001939250505056fed211483f91fc6eff862467f8de606587a30c8fc9981056f051b897a418df803abfec83d64eaa953f2708271a023ab9ee82057f8f3578d548c1a4ba0b5b700489a2646970667358221220920f3a35f84c0c40d15c6e6406901d2de90f4d48250d80769d979ffd5ebd681364736f6c634300080e0033",
    "linkReferences": {}
  },
  "methodIdentifiers": {
    "addClaimRegistryManager(address)": "faed696a",
    "addComplianceSetter(address)": "ce4bdac7",
    "addIssuersRegistryManager(address)": "ac95fc91",
    "addOwnerAdmin(address)": "934b2da4",
    "addRegistryAddressSetter(address)": "ae5aaa3b",
    "addTokenInfoManager(address)": "94e69f1b",
    "isClaimRegistryManager(address)": "3c734ce8",
    "isComplianceSetter(address)": "3ba7c75e",
    "isIssuersRegistryManager(address)": "ff806311",
    "isOwnerAdmin(address)": "62cdd482",
    "isRegistryAddressSetter(address)": "82870937",
    "isTokenInfoManager(address)": "2447e50b",
    "owner()": "8da5cb5b",
    "removeClaimRegistryManager(address)": "e110255b",
    "removeComplianceSetter(address)": "40522554",
    "removeIssuersRegistryManager(address)": "6ff7bff7",
    "removeOwnerAdmin(address)": "54b9797f",
    "removeRegistryAddressSetter(address)": "039ec2cd",
    "removeTokenInfoManager(address)": "882fc6ca",
    "renounceOwnership()": "715018a6",
    "transferOwnership(address)": "f2fde38b"
  },
  "id": 23
}