{
  "abi": [
    {
      "anonymous": false,
      "inputs": [
        {
          "indexed": true,
          "internalType": "uint256",
          "name": "claimTopic",
          "type": "uint256"
        }
      ],
      "name": "ClaimTopicAdded",
      "type": "event"
    },
    {
      "anonymous": false,
      "inputs": [
        {
          "indexed": true,
          "internalType": "uint256",
          "name": "claimTopic",
          "type": "uint256"
        }
      ],
      "name": "ClaimTopicRemoved",
      "type": "event"
    },
    {
      "anonymous": false,
      "inputs": [
        {
          "indexed": true,
          "internalType": "address",
          "name": "previousOwner",
          "type": "address"
        },
        {
          "indexed": true,
          "internalType": "address",
          "name": "newOwner",
          "type": "address"
        }
      ],
      "name": "OwnershipTransferred",
      "type": "event"
    },
    {
      "inputs": [
        {
          "internalType": "uint256",
          "name": "_claimTopic",
          "type": "uint256"
        }
      ],
      "name": "addClaimTopic",
      "outputs": [],
      "stateMutability": "nonpayable",
      "type": "function"
    },
    {
      "inputs": [],
      "name": "getClaimTopics",
      "outputs": [
        {
          "internalType": "uint256[]",
          "name": "",
          "type": "uint256[]"
        }
      ],
      "stateMutability": "view",
      "type": "function"
    },
    {
      "inputs": [],
      "name": "owner",
      "outputs": [
        {
          "internalType": "address",
          "name": "",
          "type": "address"
        }
      ],
      "stateMutability": "view",
      "type": "function"
    },
    {
      "inputs": [
        {
          "internalType": "uint256",
          "name": "_claimTopic",
          "type": "uint256"
        }
      ],
      "name": "removeClaimTopic",
      "outputs": [],
      "stateMutability": "nonpayable",
      "type": "function"
    },
    {
      "inputs": [],
      "name": "renounceOwnership",
      "outputs": [],
      "stateMutability": "nonpayable",
      "type": "function"
    },
    {
      "inputs": [
        {
          "internalType": "address",
          "name": "newOwner",
          "type": "address"
        }
      ],
      "name": "transferOwnership",
      "outputs": [],
      "stateMutability": "nonpayable",
      "type": "function"
    },
    {
      "inputs": [
        {
          "internalType": "address",
          "name": "_newOwner",
          "type": "address"
        }
      ],
      "name": "transferOwnershipOnClaimTopicsRegistryContract",
      "outputs": [],
      "stateMutability": "nonpayable",
      "type": "function"
    }
  ],
  "bytecode": {
    "object": "0x608060405234801561001057600080fd5b5061001a3361001f565b61006f565b600080546001600160a01b038381166001600160a01b0319831681178455604051919092169283917f8be0079c531659141344cd1fd0a4f28419497f9722a3daafe3b4186f6b6457e09190a35050565b6106508061007e6000396000f3fe608060405234801561001057600080fd5b506004361061007d5760003560e01c8063c7b225511161005b578063c7b22551146100bf578063d5144472146100d2578063df09d604146100e5578063f2fde38b146100fa57600080fd5b80630829784614610082578063715018a6146100975780638da5cb5b1461009f575b600080fd5b6100956100903660046104e6565b61010d565b005b610095610228565b6000546040516001600160a01b0390911681526020015b60405180910390f35b6100956100cd3660046104e6565b61025e565b6100956100e03660046104ff565b610374565b6100ed6103aa565b6040516100b6919061052f565b6100956101083660046104ff565b610402565b6000546001600160a01b031633146101405760405162461bcd60e51b815260040161013790610573565b60405180910390fd5b60015460005b81811015610223578260018281548110610162576101626105a8565b90600052602060002001540361021157600161017e81846105d4565b8154811061018e5761018e6105a8565b9060005260206000200154600182815481106101ac576101ac6105a8565b60009182526020909120015560018054806101c9576101c96105eb565b60019003818190600052602060002001600090559055827f0b1381093c776453c1bbe54fd68be1b235c65db61d099cb50d194b2991e0eec560405160405180910390a2505050565b8061021b81610601565b915050610146565b505050565b6000546001600160a01b031633146102525760405162461bcd60e51b815260040161013790610573565b61025c6000610496565b565b6000546001600160a01b031633146102885760405162461bcd60e51b815260040161013790610573565b60015460005b818110156103145782600182815481106102aa576102aa6105a8565b9060005260206000200154036103025760405162461bcd60e51b815260206004820152601960248201527f636c61696d546f70696320616c726561647920657869737473000000000000006044820152606401610137565b8061030c81610601565b91505061028e565b5060018054808201825560009182527fb10e2d527612073b26eecdfd717e6a320cf44b4afac2b0732d9fcbe2b7fa0cf60183905560405183917f01c928b7f7ade2949e92366aa9454dbef3a416b731cf6ec786ba9595bbd814d691a25050565b6000546001600160a01b0316331461039e5760405162461bcd60e51b815260040161013790610573565b6103a781610402565b50565b606060018054806020026020016040519081016040528092919081815260200182805480156103f857602002820191906000526020600020905b8154815260200190600101908083116103e4575b5050505050905090565b6000546001600160a01b0316331461042c5760405162461bcd60e51b815260040161013790610573565b6001600160a01b0381166104915760405162461bcd60e51b815260206004820152602660248201527f4f776e61626c653a206e6577206f776e657220697320746865207a65726f206160448201526564647265737360d01b6064820152608401610137565b6103a7815b600080546001600160a01b038381166001600160a01b0319831681178455604051919092169283917f8be0079c531659141344cd1fd0a4f28419497f9722a3daafe3b4186f6b6457e09190a35050565b6000602082840312156104f857600080fd5b5035919050565b60006020828403121561051157600080fd5b81356001600160a01b038116811461052857600080fd5b9392505050565b6020808252825182820181905260009190848201906040850190845b818110156105675783518352928401929184019160010161054b565b50909695505050505050565b6020808252818101527f4f776e61626c653a2063616c6c6572206973206e6f7420746865206f776e6572604082015260600190565b634e487b7160e01b600052603260045260246000fd5b634e487b7160e01b600052601160045260246000fd5b6000828210156105e6576105e66105be565b500390565b634e487b7160e01b600052603160045260246000fd5b600060018201610613576106136105be565b506001019056fea2646970667358221220deab3e9e86ec2a4d8cadd4397caa152eed021a15084c5f715e0de259a586d25164736f6c634300080e0033",
    "linkReferences": {}
  },
  "methodIdentifiers": {
    "addClaimTopic(uint256)": "c7b22551",
    "getClaimTopics()": "df09d604",
    "owner()": "8da5cb5b",
    "removeClaimTopic(uint256)": "08297846",
    "renounceOwnership()": "715018a6",
    "transferOwnership(address)": "f2fde38b",
    "transferOwnershipOnClaimTopicsRegistryContract(address)": "d5144472"
  },
  "id": 12
}