{
  "abi": [
    {
      "inputs": [
        {
          "internalType": "address",
          "name": "_token",
          "type": "address"
        }
      ],
      "stateMutability": "nonpayable",
      "type": "constructor"
    },
    {
      "anonymous": false,
      "inputs": [
        {
          "indexed": true,
          "internalType": "address",
          "name": "target",
          "type": "address"
        },
        {
          "indexed": false,
          "internalType": "bytes4",
          "name": "selector",
          "type": "bytes4"
        }
      ],
      "name": "ComplianceInteraction",
      "type": "event"
    },
    {
      "anonymous": false,
      "inputs": [
        {
          "indexed": true,
          "internalType": "address",
          "name": "previousOwner",
          "type": "address"
        },
        {
          "indexed": true,
          "internalType": "address",
          "name": "newOwner",
          "type": "address"
        }
      ],
      "name": "OwnershipTransferred",
      "type": "event"
    },
    {
      "anonymous": false,
      "inputs": [
        {
          "indexed": true,
          "internalType": "address",
          "name": "_owner",
          "type": "address"
        },
        {
          "indexed": false,
          "internalType": "string",
          "name": "_role",
          "type": "string"
        }
      ],
      "name": "RoleAdded",
      "type": "event"
    },
    {
      "anonymous": false,
      "inputs": [
        {
          "indexed": true,
          "internalType": "address",
          "name": "_owner",
          "type": "address"
        },
        {
          "indexed": false,
          "internalType": "string",
          "name": "_role",
          "type": "string"
        }
      ],
      "name": "RoleRemoved",
      "type": "event"
    },
    {
      "inputs": [
        {
          "internalType": "address",
          "name": "_owner",
          "type": "address"
        }
      ],
      "name": "addClaimRegistryManager",
      "outputs": [],
      "stateMutability": "nonpayable",
      "type": "function"
    },
    {
      "inputs": [
        {
          "internalType": "address",
          "name": "_owner",
          "type": "address"
        }
      ],
      "name": "addComplianceManager",
      "outputs": [],
      "stateMutability": "nonpayable",
      "type": "function"
    },
    {
      "inputs": [
        {
          "internalType": "address",
          "name": "_owner",
          "type": "address"
        }
      ],
      "name": "addComplianceSetter",
      "outputs": [],
      "stateMutability": "nonpayable",
      "type": "function"
    },
    {
      "inputs": [
        {
          "internalType": "address",
          "name": "_owner",
          "type": "address"
        }
      ],
      "name": "addIssuersRegistryManager",
      "outputs": [],
      "stateMutability": "nonpayable",
      "type": "function"
    },
    {
      "inputs": [
        {
          "internalType": "address",
          "name": "_owner",
          "type": "address"
        }
      ],
      "name": "addOwnerAdmin",
      "outputs": [],
      "stateMutability": "nonpayable",
      "type": "function"
    },
    {
      "inputs": [
        {
          "internalType": "address",
          "name": "_owner",
          "type": "address"
        }
      ],
      "name": "addRegistryAddressSetter",
      "outputs": [],
      "stateMutability": "nonpayable",
      "type": "function"
    },
    {
      "inputs": [
        {
          "internalType": "address",
          "name": "_owner",
          "type": "address"
        }
      ],
      "name": "addTokenInfoManager",
      "outputs": [],
      "stateMutability": "nonpayable",
      "type": "function"
    },
    {
      "inputs": [
        {
          "internalType": "address",
          "name": "_agent",
          "type": "address"
        }
      ],
      "name": "callAddAgentOnIdentityRegistryContract",
      "outputs": [],
      "stateMutability": "nonpayable",
      "type": "function"
    },
    {
      "inputs": [
        {
          "internalType": "address",
          "name": "_agent",
          "type": "address"
        }
      ],
      "name": "callAddAgentOnTokenContract",
      "outputs": [],
      "stateMutability": "nonpayable",
      "type": "function"
    },
    {
      "inputs": [
        {
          "internalType": "uint256",
          "name": "_claimTopic",
          "type": "uint256"
        },
        {
          "internalType": "contract IIdentity",
          "name": "_onchainID",
          "type": "address"
        }
      ],
      "name": "callAddClaimTopic",
      "outputs": [],
      "stateMutability": "nonpayable",
      "type": "function"
    },
    {
      "inputs": [
        {
          "internalType": "contract IClaimIssuer",
          "name": "_trustedIssuer",
          "type": "address"
        },
        {
          "internalType": "uint256[]",
          "name": "_claimTopics",
          "type": "uint256[]"
        },
        {
          "internalType": "contract IIdentity",
          "name": "_onchainID",
          "type": "address"
        }
      ],
      "name": "callAddTrustedIssuer",
      "outputs": [],
      "stateMutability": "nonpayable",
      "type": "function"
    },
    {
      "inputs": [
        {
          "internalType": "bytes",
          "name": "callData",
          "type": "bytes"
        },
        {
          "internalType": "contract IIdentity",
          "name": "_onchainID",
          "type": "address"
        }
      ],
      "name": "callComplianceFunction",
      "outputs": [],
      "stateMutability": "nonpayable",
      "type": "function"
    },
    {
      "inputs": [
        {
          "internalType": "address",
          "name": "_agent",
          "type": "address"
        }
      ],
      "name": "callRemoveAgentOnIdentityRegistryContract",
      "outputs": [],
      "stateMutability": "nonpayable",
      "type": "function"
    },
    {
      "inputs": [
        {
          "internalType": "address",
          "name": "_agent",
          "type": "address"
        }
      ],
      "name": "callRemoveAgentOnTokenContract",
      "outputs": [],
      "stateMutability": "nonpayable",
      "type": "function"
    },
    {
      "inputs": [
        {
          "internalType": "uint256",
          "name": "_claimTopic",
          "type": "uint256"
        },
        {
          "internalType": "contract IIdentity",
          "name": "_onchainID",
          "type": "address"
        }
      ],
      "name": "callRemoveClaimTopic",
      "outputs": [],
      "stateMutability": "nonpayable",
      "type": "function"
    },
    {
      "inputs": [
        {
          "internalType": "contract IClaimIssuer",
          "name": "_trustedIssuer",
          "type": "address"
        },
        {
          "internalType": "contract IIdentity",
          "name": "_onchainID",
          "type": "address"
        }
      ],
      "name": "callRemoveTrustedIssuer",
      "outputs": [],
      "stateMutability": "nonpayable",
      "type": "function"
    },
    {
      "inputs": [
        {
          "internalType": "address",
          "name": "_claimTopicsRegistry",
          "type": "address"
        },
        {
          "internalType": "contract IIdentity",
          "name": "_onchainID",
          "type": "address"
        }
      ],
      "name": "callSetClaimTopicsRegistry",
      "outputs": [],
      "stateMutability": "nonpayable",
      "type": "function"
    },
    {
      "inputs": [
        {
          "internalType": "address",
          "name": "_compliance",
          "type": "address"
        },
        {
          "internalType": "contract IIdentity",
          "name": "_onchainID",
          "type": "address"
        }
      ],
      "name": "callSetCompliance",
      "outputs": [],
      "stateMutability": "nonpayable",
      "type": "function"
    },
    {
      "inputs": [
        {
          "internalType": "address",
          "name": "_identityRegistry",
          "type": "address"
        },
        {
          "internalType": "contract IIdentity",
          "name": "_onchainID",
          "type": "address"
        }
      ],
      "name": "callSetIdentityRegistry",
      "outputs": [],
      "stateMutability": "nonpayable",
      "type": "function"
    },
    {
      "inputs": [
        {
          "internalType": "string",
          "name": "_name",
          "type": "string"
        },
        {
          "internalType": "contract IIdentity",
          "name": "_onchainID",
          "type": "address"
        }
      ],
      "name": "callSetTokenName",
      "outputs": [],
      "stateMutability": "nonpayable",
      "type": "function"
    },
    {
      "inputs": [
        {
          "internalType": "address",
          "name": "_tokenOnchainID",
          "type": "address"
        },
        {
          "internalType": "contract IIdentity",
          "name": "_onchainID",
          "type": "address"
        }
      ],
      "name": "callSetTokenOnchainID",
      "outputs": [],
      "stateMutability": "nonpayable",
      "type": "function"
    },
    {
      "inputs": [
        {
          "internalType": "string",
          "name": "_symbol",
          "type": "string"
        },
        {
          "internalType": "contract IIdentity",
          "name": "_onchainID",
          "type": "address"
        }
      ],
      "name": "callSetTokenSymbol",
      "outputs": [],
      "stateMutability": "nonpayable",
      "type": "function"
    },
    {
      "inputs": [
        {
          "internalType": "address",
          "name": "_trustedIssuersRegistry",
          "type": "address"
        },
        {
          "internalType": "contract IIdentity",
          "name": "_onchainID",
          "type": "address"
        }
      ],
      "name": "callSetTrustedIssuersRegistry",
      "outputs": [],
      "stateMutability": "nonpayable",
      "type": "function"
    },
    {
      "inputs": [
        {
          "internalType": "address",
          "name": "_newOwner",
          "type": "address"
        }
      ],
      "name": "callTransferOwnershipOnClaimTopicsRegistryContract",
      "outputs": [],
      "stateMutability": "nonpayable",
      "type": "function"
    },
    {
      "inputs": [
        {
          "internalType": "address",
          "name": "_newOwner",
          "type": "address"
        }
      ],
      "name": "callTransferOwnershipOnComplianceContract",
      "outputs": [],
      "stateMutability": "nonpayable",
      "type": "function"
    },
    {
      "inputs": [
        {
          "internalType": "address",
          "name": "_newOwner",
          "type": "address"
        }
      ],
      "name": "callTransferOwnershipOnIdentityRegistryContract",
      "outputs": [],
      "stateMutability": "nonpayable",
      "type": "function"
    },
    {
      "inputs": [
        {
          "internalType": "address",
          "name": "_newOwner",
          "type": "address"
        }
      ],
      "name": "callTransferOwnershipOnIssuersRegistryContract",
      "outputs": [],
      "stateMutability": "nonpayable",
      "type": "function"
    },
    {
      "inputs": [
        {
          "internalType": "address",
          "name": "_newOwner",
          "type": "address"
        }
      ],
      "name": "callTransferOwnershipOnTokenContract",
      "outputs": [],
      "stateMutability": "nonpayable",
      "type": "function"
    },
    {
      "inputs": [
        {
          "internalType": "contract IClaimIssuer",
          "name": "_trustedIssuer",
          "type": "address"
        },
        {
          "internalType": "uint256[]",
          "name": "_claimTopics",
          "type": "uint256[]"
        },
        {
          "internalType": "contract IIdentity",
          "name": "_onchainID",
          "type": "address"
        }
      ],
      "name": "callUpdateIssuerClaimTopics",
      "outputs": [],
      "stateMutability": "nonpayable",
      "type": "function"
    },
    {
      "inputs": [
        {
          "internalType": "address",
          "name": "_owner",
          "type": "address"
        }
      ],
      "name": "isClaimRegistryManager",
      "outputs": [
        {
          "internalType": "bool",
          "name": "",
          "type": "bool"
        }
      ],
      "stateMutability": "view",
      "type": "function"
    },
    {
      "inputs": [
        {
          "internalType": "address",
          "name": "_owner",
          "type": "address"
        }
      ],
      "name": "isComplianceManager",
      "outputs": [
        {
          "internalType": "bool",
          "name": "",
          "type": "bool"
        }
      ],
      "stateMutability": "view",
      "type": "function"
    },
    {
      "inputs": [
        {
          "internalType": "address",
          "name": "_owner",
          "type": "address"
        }
      ],
      "name": "isComplianceSetter",
      "outputs": [
        {
          "internalType": "bool",
          "name": "",
          "type": "bool"
        }
      ],
      "stateMutability": "view",
      "type": "function"
    },
    {
      "inputs": [
        {
          "internalType": "address",
          "name": "_owner",
          "type": "address"
        }
      ],
      "name": "isIssuersRegistryManager",
      "outputs": [
        {
          "internalType": "bool",
          "name": "",
          "type": "bool"
        }
      ],
      "stateMutability": "view",
      "type": "function"
    },
    {
      "inputs": [
        {
          "internalType": "address",
          "name": "_owner",
          "type": "address"
        }
      ],
      "name": "isOwnerAdmin",
      "outputs": [
        {
          "internalType": "bool",
          "name": "",
          "type": "bool"
        }
      ],
      "stateMutability": "view",
      "type": "function"
    },
    {
      "inputs": [
        {
          "internalType": "address",
          "name": "_owner",
          "type": "address"
        }
      ],
      "name": "isRegistryAddressSetter",
      "outputs": [
        {
          "internalType": "bool",
          "name": "",
          "type": "bool"
        }
      ],
      "stateMutability": "view",
      "type": "function"
    },
    {
      "inputs": [
        {
          "internalType": "address",
          "name": "_owner",
          "type": "address"
        }
      ],
      "name": "isTokenInfoManager",
      "outputs": [
        {
          "internalType": "bool",
          "name": "",
          "type": "bool"
        }
      ],
      "stateMutability": "view",
      "type": "function"
    },
    {
      "inputs": [],
      "name": "owner",
      "outputs": [
        {
          "internalType": "address",
          "name": "",
          "type": "address"
        }
      ],
      "stateMutability": "view",
      "type": "function"
    },
    {
      "inputs": [
        {
          "internalType": "address",
          "name": "_owner",
          "type": "address"
        }
      ],
      "name": "removeClaimRegistryManager",
      "outputs": [],
      "stateMutability": "nonpayable",
      "type": "function"
    },
    {
      "inputs": [
        {
          "internalType": "address",
          "name": "_owner",
          "type": "address"
        }
      ],
      "name": "removeComplianceManager",
      "outputs": [],
      "stateMutability": "nonpayable",
      "type": "function"
    },
    {
      "inputs": [
        {
          "internalType": "address",
          "name": "_owner",
          "type": "address"
        }
      ],
      "name": "removeComplianceSetter",
      "outputs": [],
      "stateMutability": "nonpayable",
      "type": "function"
    },
    {
      "inputs": [
        {
          "internalType": "address",
          "name": "_owner",
          "type": "address"
        }
      ],
      "name": "removeIssuersRegistryManager",
      "outputs": [],
      "stateMutability": "nonpayable",
      "type": "function"
    },
    {
      "inputs": [
        {
          "internalType": "address",
          "name": "_owner",
          "type": "address"
        }
      ],
      "name": "removeOwnerAdmin",
      "outputs": [],
      "stateMutability": "nonpayable",
      "type": "function"
    },
    {
      "inputs": [
        {
          "internalType": "address",
          "name": "_owner",
          "type": "address"
        }
      ],
      "name": "removeRegistryAddressSetter",
      "outputs": [],
      "stateMutability": "nonpayable",
      "type": "function"
    },
    {
      "inputs": [
        {
          "internalType": "address",
          "name": "_owner",
          "type": "address"
        }
      ],
      "name": "removeTokenInfoManager",
      "outputs": [],
      "stateMutability": "nonpayable",
      "type": "function"
    },
    {
      "inputs": [],
      "name": "renounceOwnership",
      "outputs": [],
      "stateMutability": "nonpayable",
      "type": "function"
    },
    {
      "inputs": [],
      "name": "token",
      "outputs": [
        {
          "internalType": "contract IToken",
          "name": "",
          "type": "address"
        }
      ],
      "stateMutability": "view",
      "type": "function"
    },
    {
      "inputs": [
        {
          "internalType": "address",
          "name": "newOwner",
          "type": "address"
        }
      ],
      "name": "transferOwnership",
      "outputs": [],
      "stateMutability": "nonpayable",
      "type": "function"
    }
  ],
  "bytecode": {
    "object": "0x60806040523480156200001157600080fd5b5060405162003395380380620033958339810160408190526200003491620000b5565b6200003f3362000065565b600880546001600160a01b0319166001600160a01b0392909216919091179055620000e7565b600080546001600160a01b038381166001600160a01b0319831681178455604051919092169283917f8be0079c531659141344cd1fd0a4f28419497f9722a3daafe3b4186f6b6457e09190a35050565b600060208284031215620000c857600080fd5b81516001600160a01b0381168114620000e057600080fd5b9392505050565b61329e80620000f76000396000f3fe608060405234801561001057600080fd5b50600436106102955760003560e01c806387cc060c11610167578063ae5aaa3b116100ce578063f087249c11610087578063f087249c146105c3578063f2fde38b146105d6578063faed696a146105e9578063fc0c546a146105fc578063fc6de4b51461060f578063ff8063111461062257600080fd5b8063ae5aaa3b14610551578063ce4bdac714610564578063dd39042b14610577578063e110255b1461058a578063e38123181461059d578063eeac6fe6146105b057600080fd5b806399884aab1161012057806399884aab146104df5780639ce2d88e146104f25780639d6de3bc14610505578063a66bcc1c14610518578063aa1cef561461052b578063ac95fc911461053e57600080fd5b806387cc060c1461045b578063882fc6ca1461046e5780638da5cb5b14610481578063934b2da4146104a657806394e69f1b146104b9578063951af88d146104cc57600080fd5b8063405225541161020b5780636ff7bff7116101c45780636ff7bff7146103f4578063715018a614610407578063757d467f1461040f578063818ab8bd14610422578063828709371461043557806385cef6081461044857600080fd5b8063405225541461038257806346b686f8146103955780634837b797146103a857806354b9797f146103bb5780635c5f2047146103ce57806362cdd482146103e157600080fd5b806328d7be341161025d57806328d7be34146103105780632af70c30146103235780632f56d91b14610336578063309ff3d1146103495780633ba7c75e1461035c5780633c734ce81461036f57600080fd5b8063039ec2cd1461029a57806303ff5014146102af5780631096a7ec146102d75780632447e50b146102ea578063256ccc07146102fd575b600080fd5b6102ad6102a8366004612dfa565b610635565b005b6102c26102bd366004612dfa565b6106f0565b60405190151581526020015b60405180910390f35b6102ad6102e5366004612dfa565b610703565b6102c26102f8366004612dfa565b610823565b6102ad61030b366004612dfa565b610830565b6102ad61031e366004612dfa565b6108aa565b6102ad610331366004612e67565b610924565b6102ad610344366004612ebe565b610a4f565b6102ad610357366004612e67565b610c4c565b6102c261036a366004612dfa565b610d40565b6102c261037d366004612dfa565b610d4d565b6102ad610390366004612dfa565b610d5a565b6102ad6103a3366004612dfa565b610dfb565b6102ad6103b6366004612eee565b610e9d565b6102ad6103c9366004612dfa565b61109e565b6102ad6103dc366004612e67565b611139565b6102c26103ef366004612dfa565b611321565b6102ad610402366004612dfa565b61132e565b6102ad6113d5565b6102ad61041d366004612dfa565b61143b565b6102ad610430366004612dfa565b61152a565b6102c2610443366004612dfa565b61167a565b6102ad610456366004612dfa565b611687565b6102ad610469366004612f89565b611776565b6102ad61047c366004612dfa565b61186a565b6000546001600160a01b03165b6040516001600160a01b0390911681526020016102ce565b6102ad6104b4366004612dfa565b61190b565b6102ad6104c7366004612dfa565b6119a6565b6102ad6104da366004612f89565b611a47565b6102ad6104ed366004612dfa565b611b79565b6102ad610500366004612f89565b611cc9565b6102ad610513366004612f89565b611e93565b6102ad610526366004612dfa565b611f87565b6102ad610539366004612dfa565b612029565b6102ad61054c366004612dfa565b6120a3565b6102ad61055f366004612dfa565b61214a565b6102ad610572366004612dfa565b6121f0565b6102ad610585366004612ebe565b612291565b6102ad610598366004612dfa565b612458565b6102ad6105ab366004612dfa565b6124fd565b6102ad6105be366004612f89565b6125ec565b6102ad6105d1366004612f89565b612755565b6102ad6105e4366004612dfa565b6128be565b6102ad6105f7366004612dfa565b612989565b60085461048e906001600160a01b031681565b6102ad61061d366004612eee565b612a2e565b6102c2610630366004612dfa565b612bf7565b336106486000546001600160a01b031690565b6001600160a01b03161480610661575061066133611321565b6106865760405162461bcd60e51b815260040161067d90612fb7565b60405180910390fd5b610691600282612c04565b60408051808201825260158152742932b3b4b9ba393ca0b2323932b9b9a9b2ba3a32b960591b602082015290516001600160a01b03831690600080516020613229833981519152906106e4908490612fee565b60405180910390a25050565b60006106fd600483612c86565b92915050565b336107166000546001600160a01b031690565b6001600160a01b0316148061072f575061072f33611321565b61074b5760405162461bcd60e51b815260040161067d90612fb7565b600860009054906101000a90046001600160a01b03166001600160a01b0316636290865d6040518163ffffffff1660e01b8152600401602060405180830381865afa15801561079e573d6000803e3d6000fd5b505050506040513d601f19601f820116820180604052508101906107c29190613043565b604051637bcf048760e01b81526001600160a01b0383811660048301529190911690637bcf0487906024015b600060405180830381600087803b15801561080857600080fd5b505af115801561081c573d6000803e3d6000fd5b5050505050565b60006106fd600783612c86565b336108436000546001600160a01b031690565b6001600160a01b0316148061085c575061085c33611321565b6108785760405162461bcd60e51b815260040161067d90612fb7565b600854604051630b422d8360e41b81526001600160a01b0383811660048301529091169063b422d830906024016107ee565b336108bd6000546001600160a01b031690565b6001600160a01b031614806108d657506108d633611321565b6108f25760405162461bcd60e51b815260040161067d90612fb7565b600854604051635dc7a3cb60e01b81526001600160a01b03838116600483015290911690635dc7a3cb906024016107ee565b61092d81610823565b80156109ca5750604080513360208201526001600160a01b0383169163d202158d910160408051601f198184030181529082905280516020909101206001600160e01b031960e084901b168252600482015260026024820152604401602060405180830381865afa1580156109a6573d6000803e3d6000fd5b505050506040513d601f19601f820116820180604052508101906109ca9190613060565b6109e65760405162461bcd60e51b815260040161067d90613082565b600854604051635c26412360e11b81526001600160a01b039091169063b84c824690610a1890869086906004016130cf565b600060405180830381600087803b158015610a3257600080fd5b505af1158015610a46573d6000803e3d6000fd5b50505050505050565b610a5881610d4d565b8015610af55750604080513360208201526001600160a01b0383169163d202158d910160408051601f198184030181529082905280516020909101206001600160e01b031960e084901b168252600482015260026024820152604401602060405180830381865afa158015610ad1573d6000803e3d6000fd5b505050506040513d601f19601f82011682018060405250810190610af59190613060565b610b115760405162461bcd60e51b815260040161067d906130fe565b600860009054906101000a90046001600160a01b03166001600160a01b031663134e18f46040518163ffffffff1660e01b8152600401602060405180830381865afa158015610b64573d6000803e3d6000fd5b505050506040513d601f19601f82011682018060405250810190610b889190613043565b6001600160a01b0316633b3e12f46040518163ffffffff1660e01b8152600401602060405180830381865afa158015610bc5573d6000803e3d6000fd5b505050506040513d601f19601f82011682018060405250810190610be99190613043565b6001600160a01b03166308297846836040518263ffffffff1660e01b8152600401610c1691815260200190565b600060405180830381600087803b158015610c3057600080fd5b505af1158015610c44573d6000803e3d6000fd5b505050505050565b610c5581610823565b8015610cf25750604080513360208201526001600160a01b0383169163d202158d910160408051601f198184030181529082905280516020909101206001600160e01b031960e084901b168252600482015260026024820152604401602060405180830381865afa158015610cce573d6000803e3d6000fd5b505050506040513d601f19601f82011682018060405250810190610cf29190613060565b610d0e5760405162461bcd60e51b815260040161067d90613082565b60085460405163c47f002760e01b81526001600160a01b039091169063c47f002790610a1890869086906004016130cf565b60006106fd600383612c86565b60006106fd600583612c86565b33610d6d6000546001600160a01b031690565b6001600160a01b03161480610d865750610d8633611321565b610da25760405162461bcd60e51b815260040161067d90612fb7565b610dad600382612c04565b604080518082018252601081526f21b7b6b83634b0b731b2a9b2ba3a32b960811b602082015290516001600160a01b03831690600080516020613229833981519152906106e4908490612fee565b33610e0e6000546001600160a01b031690565b6001600160a01b03161480610e275750610e2733611321565b610e435760405162461bcd60e51b815260040161067d90612fb7565b610e4e600482612c04565b604080518082018252601181527021b7b6b83634b0b731b2a6b0b730b3b2b960791b602082015290516001600160a01b03831690600080516020613229833981519152906106e4908490612fee565b610ea681612bf7565b8015610f435750604080513360208201526001600160a01b0383169163d202158d910160408051601f198184030181529082905280516020909101206001600160e01b031960e084901b168252600482015260026024820152604401602060405180830381865afa158015610f1f573d6000803e3d6000fd5b505050506040513d601f19601f82011682018060405250810190610f439190613060565b610f5f5760405162461bcd60e51b815260040161067d90613146565b600860009054906101000a90046001600160a01b03166001600160a01b031663134e18f46040518163ffffffff1660e01b8152600401602060405180830381865afa158015610fb2573d6000803e3d6000fd5b505050506040513d601f19601f82011682018060405250810190610fd69190613043565b6001600160a01b031663b4f3fcb76040518163ffffffff1660e01b8152600401602060405180830381865afa158015611013573d6000803e3d6000fd5b505050506040513d601f19601f820116820180604052508101906110379190613043565b6001600160a01b03166304bc7e848585856040518463ffffffff1660e01b815260040161106693929190613190565b600060405180830381600087803b15801561108057600080fd5b505af1158015611094573d6000803e3d6000fd5b5050505050505050565b336110b16000546001600160a01b031690565b6001600160a01b031614806110ca57506110ca33611321565b6110e65760405162461bcd60e51b815260040161067d90612fb7565b6110f1600182612c04565b604080518082018252600a81526927bbb732b920b236b4b760b11b602082015290516001600160a01b03831690600080516020613229833981519152906106e4908490612fee565b611142816106f0565b80156111df5750604080513360208201526001600160a01b0383169163d202158d910160408051601f198184030181529082905280516020909101206001600160e01b031960e084901b168252600482015260026024820152604401602060405180830381865afa1580156111bb573d6000803e3d6000fd5b505050506040513d601f19601f820116820180604052508101906111df9190613060565b61123a5760405162461bcd60e51b815260206004820152602660248201527f526f6c653a2053656e646572206973204e4f5420436f6d706c69616e6365204d60448201526530b730b3b2b960d11b606482015260840161067d565b60085460408051636290865d60e01b815290516000926001600160a01b031691636290865d9160048083019260209291908290030181865afa158015611284573d6000803e3d6000fd5b505050506040513d601f19601f820116820180604052508101906112a89190613043565b90506040518385823760008085836000865af16112c9573d6000803e3d6000fd5b50806001600160a01b03167f5779a24d18a4639b1d59461e68c00fb0cd02533a4c5a6ff3ca6363e23e2fff566112ff8686612d09565b6040516001600160e01b0319909116815260200160405180910390a250505050565b60006106fd600183612c86565b336113416000546001600160a01b031690565b6001600160a01b0316148061135a575061135a33611321565b6113765760405162461bcd60e51b815260040161067d90612fb7565b611381600682612c04565b604080518082018252601681527524b9b9bab2b939a932b3b4b9ba393ca6b0b730b3b2b960511b602082015290516001600160a01b03831690600080516020613229833981519152906106e4908490612fee565b6000546001600160a01b0316331461142f5760405162461bcd60e51b815260206004820181905260248201527f4f776e61626c653a2063616c6c6572206973206e6f7420746865206f776e6572604482015260640161067d565b6114396000612d19565b565b3361144e6000546001600160a01b031690565b6001600160a01b03161480611467575061146733611321565b6114835760405162461bcd60e51b815260040161067d90612fb7565b600860009054906101000a90046001600160a01b03166001600160a01b031663134e18f46040518163ffffffff1660e01b8152600401602060405180830381865afa1580156114d6573d6000803e3d6000fd5b505050506040513d601f19601f820116820180604052508101906114fa9190613043565b604051635e5741f360e01b81526001600160a01b0383811660048301529190911690635e5741f3906024016107ee565b3361153d6000546001600160a01b031690565b6001600160a01b03161480611556575061155633611321565b6115725760405162461bcd60e51b815260040161067d90612fb7565b600860009054906101000a90046001600160a01b03166001600160a01b031663134e18f46040518163ffffffff1660e01b8152600401602060405180830381865afa1580156115c5573d6000803e3d6000fd5b505050506040513d601f19601f820116820180604052508101906115e99190613043565b6001600160a01b0316633b3e12f46040518163ffffffff1660e01b8152600401602060405180830381865afa158015611626573d6000803e3d6000fd5b505050506040513d601f19601f8201168201806040525081019061164a9190613043565b604051636a8a223960e11b81526001600160a01b038381166004830152919091169063d5144472906024016107ee565b60006106fd600283612c86565b3361169a6000546001600160a01b031690565b6001600160a01b031614806116b357506116b333611321565b6116cf5760405162461bcd60e51b815260040161067d90612fb7565b600860009054906101000a90046001600160a01b03166001600160a01b031663134e18f46040518163ffffffff1660e01b8152600401602060405180830381865afa158015611722573d6000803e3d6000fd5b505050506040513d601f19601f820116820180604052508101906117469190613043565b60405163285e3ded60e11b81526001600160a01b03838116600483015291909116906350bc7bda906024016107ee565b61177f81610823565b801561181c5750604080513360208201526001600160a01b0383169163d202158d910160408051601f198184030181529082905280516020909101206001600160e01b031960e084901b168252600482015260026024820152604401602060405180830381865afa1580156117f8573d6000803e3d6000fd5b505050506040513d601f19601f8201168201806040525081019061181c9190613060565b6118385760405162461bcd60e51b815260040161067d90613082565b600854604051633d1ddc5b60e01b81526001600160a01b03848116600483015290911690633d1ddc5b90602401610c16565b3361187d6000546001600160a01b031690565b6001600160a01b03161480611896575061189633611321565b6118b25760405162461bcd60e51b815260040161067d90612fb7565b6118bd600782612c04565b604080518082018252601081526f2a37b5b2b724b73337a6b0b730b3b2b960811b602082015290516001600160a01b03831690600080516020613229833981519152906106e4908490612fee565b3361191e6000546001600160a01b031690565b6001600160a01b03161480611937575061193733611321565b6119535760405162461bcd60e51b815260040161067d90612fb7565b61195e600182612d69565b604080518082018252600a81526927bbb732b920b236b4b760b11b602082015290516001600160a01b03831690600080516020613249833981519152906106e4908490612fee565b336119b96000546001600160a01b031690565b6001600160a01b031614806119d257506119d233611321565b6119ee5760405162461bcd60e51b815260040161067d90612fb7565b6119f9600782612d69565b604080518082018252601081526f2a37b5b2b724b73337a6b0b730b3b2b960811b602082015290516001600160a01b03831690600080516020613249833981519152906106e4908490612fee565b611a5081610d40565b8015611aed5750604080513360208201526001600160a01b0383169163d202158d910160408051601f198184030181529082905280516020909101206001600160e01b031960e084901b168252600482015260026024820152604401602060405180830381865afa158015611ac9573d6000803e3d6000fd5b505050506040513d601f19601f82011682018060405250810190611aed9190613060565b611b475760405162461bcd60e51b815260206004820152602560248201527f526f6c653a2053656e646572206973204e4f5420436f6d706c69616e6365205360448201526432ba3a32b960d91b606482015260840161067d565b60085460405163f898178960e01b81526001600160a01b0384811660048301529091169063f898178990602401610c16565b33611b8c6000546001600160a01b031690565b6001600160a01b03161480611ba55750611ba533611321565b611bc15760405162461bcd60e51b815260040161067d90612fb7565b600860009054906101000a90046001600160a01b03166001600160a01b031663134e18f46040518163ffffffff1660e01b8152600401602060405180830381865afa158015611c14573d6000803e3d6000fd5b505050506040513d601f19601f82011682018060405250810190611c389190613043565b6001600160a01b031663b4f3fcb76040518163ffffffff1660e01b8152600401602060405180830381865afa158015611c75573d6000803e3d6000fd5b505050506040513d601f19601f82011682018060405250810190611c999190613043565b604051631c6db9c560e31b81526001600160a01b038381166004830152919091169063e36dce28906024016107ee565b611cd281612bf7565b8015611d6f5750604080513360208201526001600160a01b0383169163d202158d910160408051601f198184030181529082905280516020909101206001600160e01b031960e084901b168252600482015260026024820152604401602060405180830381865afa158015611d4b573d6000803e3d6000fd5b505050506040513d601f19601f82011682018060405250810190611d6f9190613060565b611d8b5760405162461bcd60e51b815260040161067d90613146565b600860009054906101000a90046001600160a01b03166001600160a01b031663134e18f46040518163ffffffff1660e01b8152600401602060405180830381865afa158015611dde573d6000803e3d6000fd5b505050506040513d601f19601f82011682018060405250810190611e029190613043565b6001600160a01b031663b4f3fcb76040518163ffffffff1660e01b8152600401602060405180830381865afa158015611e3f573d6000803e3d6000fd5b505050506040513d601f19601f82011682018060405250810190611e639190613043565b60405163b93d28eb60e01b81526001600160a01b038481166004830152919091169063b93d28eb90602401610c16565b611e9c8161167a565b8015611f395750604080513360208201526001600160a01b0383169163d202158d910160408051601f198184030181529082905280516020909101206001600160e01b031960e084901b168252600482015260026024820152604401602060405180830381865afa158015611f15573d6000803e3d6000fd5b505050506040513d601f19601f82011682018060405250810190611f399190613060565b611f555760405162461bcd60e51b815260040161067d906131dd565b60085460405163cbf3f86160e01b81526001600160a01b0384811660048301529091169063cbf3f86190602401610c16565b33611f9a6000546001600160a01b031690565b6001600160a01b03161480611fb35750611fb333611321565b611fcf5760405162461bcd60e51b815260040161067d90612fb7565b611fda600482612d69565b604080518082018252601181527021b7b6b83634b0b731b2a6b0b730b3b2b960791b602082015290516001600160a01b03831690600080516020613249833981519152906106e4908490612fee565b3361203c6000546001600160a01b031690565b6001600160a01b03161480612055575061205533611321565b6120715760405162461bcd60e51b815260040161067d90612fb7565b6008546040516351411b3360e01b81526001600160a01b038381166004830152909116906351411b33906024016107ee565b336120b66000546001600160a01b031690565b6001600160a01b031614806120cf57506120cf33611321565b6120eb5760405162461bcd60e51b815260040161067d90612fb7565b6120f6600682612d69565b604080518082018252601681527524b9b9bab2b939a932b3b4b9ba393ca6b0b730b3b2b960511b602082015290516001600160a01b03831690600080516020613249833981519152906106e4908490612fee565b3361215d6000546001600160a01b031690565b6001600160a01b03161480612176575061217633611321565b6121925760405162461bcd60e51b815260040161067d90612fb7565b61219d600282612d69565b60408051808201825260158152742932b3b4b9ba393ca0b2323932b9b9a9b2ba3a32b960591b602082015290516001600160a01b03831690600080516020613249833981519152906106e4908490612fee565b336122036000546001600160a01b031690565b6001600160a01b0316148061221c575061221c33611321565b6122385760405162461bcd60e51b815260040161067d90612fb7565b612243600382612d69565b604080518082018252601081526f21b7b6b83634b0b731b2a9b2ba3a32b960811b602082015290516001600160a01b03831690600080516020613249833981519152906106e4908490612fee565b61229a81610d4d565b80156123375750604080513360208201526001600160a01b0383169163d202158d910160408051601f198184030181529082905280516020909101206001600160e01b031960e084901b168252600482015260026024820152604401602060405180830381865afa158015612313573d6000803e3d6000fd5b505050506040513d601f19601f820116820180604052508101906123379190613060565b6123535760405162461bcd60e51b815260040161067d906130fe565b600860009054906101000a90046001600160a01b03166001600160a01b031663134e18f46040518163ffffffff1660e01b8152600401602060405180830381865afa1580156123a6573d6000803e3d6000fd5b505050506040513d601f19601f820116820180604052508101906123ca9190613043565b6001600160a01b0316633b3e12f46040518163ffffffff1660e01b8152600401602060405180830381865afa158015612407573d6000803e3d6000fd5b505050506040513d601f19601f8201168201806040525081019061242b9190613043565b6001600160a01b031663c7b22551836040518263ffffffff1660e01b8152600401610c1691815260200190565b3361246b6000546001600160a01b031690565b6001600160a01b03161480612484575061248433611321565b6124a05760405162461bcd60e51b815260040161067d90612fb7565b6124ab600582612c04565b604080518082018252601481527321b630b4b6a932b3b4b9ba393ca6b0b730b3b2b960611b602082015290516001600160a01b03831690600080516020613229833981519152906106e4908490612fee565b336125106000546001600160a01b031690565b6001600160a01b03161480612529575061252933611321565b6125455760405162461bcd60e51b815260040161067d90612fb7565b600860009054906101000a90046001600160a01b03166001600160a01b031663134e18f46040518163ffffffff1660e01b8152600401602060405180830381865afa158015612598573d6000803e3d6000fd5b505050506040513d601f19601f820116820180604052508101906125bc9190613043565b604051633389036760e21b81526001600160a01b038381166004830152919091169063ce240d9c906024016107ee565b6125f58161167a565b80156126925750604080513360208201526001600160a01b0383169163d202158d910160408051601f198184030181529082905280516020909101206001600160e01b031960e084901b168252600482015260026024820152604401602060405180830381865afa15801561266e573d6000803e3d6000fd5b505050506040513d601f19601f820116820180604052508101906126929190613060565b6126ae5760405162461bcd60e51b815260040161067d906131dd565b600860009054906101000a90046001600160a01b03166001600160a01b031663134e18f46040518163ffffffff1660e01b8152600401602060405180830381865afa158015612701573d6000803e3d6000fd5b505050506040513d601f19601f820116820180604052508101906127259190613043565b60405163670af6a960e01b81526001600160a01b038481166004830152919091169063670af6a990602401610c16565b61275e8161167a565b80156127fb5750604080513360208201526001600160a01b0383169163d202158d910160408051601f198184030181529082905280516020909101206001600160e01b031960e084901b168252600482015260026024820152604401602060405180830381865afa1580156127d7573d6000803e3d6000fd5b505050506040513d601f19601f820116820180604052508101906127fb9190613060565b6128175760405162461bcd60e51b815260040161067d906131dd565b600860009054906101000a90046001600160a01b03166001600160a01b031663134e18f46040518163ffffffff1660e01b8152600401602060405180830381865afa15801561286a573d6000803e3d6000fd5b505050506040513d601f19601f8201168201806040525081019061288e9190613043565b60405163e744d78960e01b81526001600160a01b038481166004830152919091169063e744d78990602401610c16565b6000546001600160a01b031633146129185760405162461bcd60e51b815260206004820181905260248201527f4f776e61626c653a2063616c6c6572206973206e6f7420746865206f776e6572604482015260640161067d565b6001600160a01b03811661297d5760405162461bcd60e51b815260206004820152602660248201527f4f776e61626c653a206e6577206f776e657220697320746865207a65726f206160448201526564647265737360d01b606482015260840161067d565b61298681612d19565b50565b3361299c6000546001600160a01b031690565b6001600160a01b031614806129b557506129b533611321565b6129d15760405162461bcd60e51b815260040161067d90612fb7565b6129dc600582612d69565b604080518082018252601481527321b630b4b6a932b3b4b9ba393ca6b0b730b3b2b960611b602082015290516001600160a01b03831690600080516020613249833981519152906106e4908490612fee565b612a3781612bf7565b8015612ad45750604080513360208201526001600160a01b0383169163d202158d910160408051601f198184030181529082905280516020909101206001600160e01b031960e084901b168252600482015260026024820152604401602060405180830381865afa158015612ab0573d6000803e3d6000fd5b505050506040513d601f19601f82011682018060405250810190612ad49190613060565b612af05760405162461bcd60e51b815260040161067d90613146565b600860009054906101000a90046001600160a01b03166001600160a01b031663134e18f46040518163ffffffff1660e01b8152600401602060405180830381865afa158015612b43573d6000803e3d6000fd5b505050506040513d601f19601f82011682018060405250810190612b679190613043565b6001600160a01b031663b4f3fcb76040518163ffffffff1660e01b8152600401602060405180830381865afa158015612ba4573d6000803e3d6000fd5b505050506040513d601f19601f82011682018060405250810190612bc89190613043565b6001600160a01b0316639f63ea988585856040518463ffffffff1660e01b815260040161106693929190613190565b60006106fd600683612c86565b612c0e8282612c86565b612c645760405162461bcd60e51b815260206004820152602160248201527f526f6c65733a206163636f756e7420646f6573206e6f74206861766520726f6c6044820152606560f81b606482015260840161067d565b6001600160a01b0316600090815260209190915260409020805460ff19169055565b60006001600160a01b038216612ce95760405162461bcd60e51b815260206004820152602260248201527f526f6c65733a206163636f756e7420697320746865207a65726f206164647265604482015261737360f01b606482015260840161067d565b506001600160a01b03166000908152602091909152604090205460ff1690565b6000600482106106fd5750503590565b600080546001600160a01b038381166001600160a01b0319831681178455604051919092169283917f8be0079c531659141344cd1fd0a4f28419497f9722a3daafe3b4186f6b6457e09190a35050565b612d738282612c86565b15612dc05760405162461bcd60e51b815260206004820152601f60248201527f526f6c65733a206163636f756e7420616c72656164792068617320726f6c6500604482015260640161067d565b6001600160a01b0316600090815260209190915260409020805460ff19166001179055565b6001600160a01b038116811461298657600080fd5b600060208284031215612e0c57600080fd5b8135612e1781612de5565b9392505050565b60008083601f840112612e3057600080fd5b50813567ffffffffffffffff811115612e4857600080fd5b602083019150836020828501011115612e6057600080fd5b9250929050565b600080600060408486031215612e7c57600080fd5b833567ffffffffffffffff811115612e9357600080fd5b612e9f86828701612e1e565b9094509250506020840135612eb381612de5565b809150509250925092565b60008060408385031215612ed157600080fd5b823591506020830135612ee381612de5565b809150509250929050565b60008060008060608587031215612f0457600080fd5b8435612f0f81612de5565b9350602085013567ffffffffffffffff80821115612f2c57600080fd5b818701915087601f830112612f4057600080fd5b813581811115612f4f57600080fd5b8860208260051b8501011115612f6457600080fd5b6020830195508094505050506040850135612f7e81612de5565b939692955090935050565b60008060408385031215612f9c57600080fd5b8235612fa781612de5565b91506020830135612ee381612de5565b60208082526019908201527f526f6c653a2053656e646572206973204e4f542041646d696e00000000000000604082015260600190565b600060208083528351808285015260005b8181101561301b57858101830151858201604001528201612fff565b8181111561302d576000604083870101525b50601f01601f1916929092016040019392505050565b60006020828403121561305557600080fd5b8151612e1781612de5565b60006020828403121561307257600080fd5b81518015158114612e1757600080fd5b6020808252602d908201527f526f6c653a2053656e646572206973204e4f5420546f6b656e20496e666f726d60408201526c30ba34b7b71026b0b730b3b2b960991b606082015260800190565b60208152816020820152818360408301376000818301604090810191909152601f909201601f19160101919050565b60208082526028908201527f526f6c653a2053656e646572206973204e4f5420436c61696d526567697374726040820152673ca6b0b730b3b2b960c11b606082015260800190565b6020808252602a908201527f526f6c653a2053656e646572206973204e4f54204973737565727352656769736040820152693a393ca6b0b730b3b2b960b11b606082015260800190565b6001600160a01b0384168152604060208201819052810182905260006001600160fb1b038311156131c057600080fd5b8260051b8085606085013760009201606001918252509392505050565b6020808252602b908201527f526f6c653a2053656e646572206973204e4f542052656769737472792041646460408201526a3932b9b99029b2ba3a32b960a91b60608201526080019056fed211483f91fc6eff862467f8de606587a30c8fc9981056f051b897a418df803abfec83d64eaa953f2708271a023ab9ee82057f8f3578d548c1a4ba0b5b700489a2646970667358221220cb840812d56b0dfc109205d8c998c96e3376312c8c1f17d03219ec7f90139df564736f6c634300080e0033",
    "linkReferences": {}
  },
  "methodIdentifiers": {
    "addClaimRegistryManager(address)": "faed696a",
    "addComplianceManager(address)": "a66bcc1c",
    "addComplianceSetter(address)": "ce4bdac7",
    "addIssuersRegistryManager(address)": "ac95fc91",
    "addOwnerAdmin(address)": "934b2da4",
    "addRegistryAddressSetter(address)": "ae5aaa3b",
    "addTokenInfoManager(address)": "94e69f1b",
    "callAddAgentOnIdentityRegistryContract(address)": "85cef608",
    "callAddAgentOnTokenContract(address)": "256ccc07",
    "callAddClaimTopic(uint256,address)": "dd39042b",
    "callAddTrustedIssuer(address,uint256[],address)": "fc6de4b5",
    "callComplianceFunction(bytes,address)": "5c5f2047",
    "callRemoveAgentOnIdentityRegistryContract(address)": "757d467f",
    "callRemoveAgentOnTokenContract(address)": "28d7be34",
    "callRemoveClaimTopic(uint256,address)": "2f56d91b",
    "callRemoveTrustedIssuer(address,address)": "9ce2d88e",
    "callSetClaimTopicsRegistry(address,address)": "eeac6fe6",
    "callSetCompliance(address,address)": "951af88d",
    "callSetIdentityRegistry(address,address)": "9d6de3bc",
    "callSetTokenName(string,address)": "309ff3d1",
    "callSetTokenOnchainID(address,address)": "87cc060c",
    "callSetTokenSymbol(string,address)": "2af70c30",
    "callSetTrustedIssuersRegistry(address,address)": "f087249c",
    "callTransferOwnershipOnClaimTopicsRegistryContract(address)": "818ab8bd",
    "callTransferOwnershipOnComplianceContract(address)": "1096a7ec",
    "callTransferOwnershipOnIdentityRegistryContract(address)": "e3812318",
    "callTransferOwnershipOnIssuersRegistryContract(address)": "99884aab",
    "callTransferOwnershipOnTokenContract(address)": "aa1cef56",
    "callUpdateIssuerClaimTopics(address,uint256[],address)": "4837b797",
    "isClaimRegistryManager(address)": "3c734ce8",
    "isComplianceManager(address)": "03ff5014",
    "isComplianceSetter(address)": "3ba7c75e",
    "isIssuersRegistryManager(address)": "ff806311",
    "isOwnerAdmin(address)": "62cdd482",
    "isRegistryAddressSetter(address)": "82870937",
    "isTokenInfoManager(address)": "2447e50b",
    "owner()": "8da5cb5b",
    "removeClaimRegistryManager(address)": "e110255b",
    "removeComplianceManager(address)": "46b686f8",
    "removeComplianceSetter(address)": "40522554",
    "removeIssuersRegistryManager(address)": "6ff7bff7",
    "removeOwnerAdmin(address)": "54b9797f",
    "removeRegistryAddressSetter(address)": "039ec2cd",
    "removeTokenInfoManager(address)": "882fc6ca",
    "renounceOwnership()": "715018a6",
    "token()": "fc0c546a",
    "transferOwnership(address)": "f2fde38b"
  },
  "id": 21
}