{
  "abi": [
    {
      "anonymous": false,
      "inputs": [
        {
          "indexed": true,
          "internalType": "address",
          "name": "previousOwner",
          "type": "address"
        },
        {
          "indexed": true,
          "internalType": "address",
          "name": "newOwner",
          "type": "address"
        }
      ],
      "name": "OwnershipTransferred",
      "type": "event"
    },
    {
      "anonymous": false,
      "inputs": [
        {
          "indexed": true,
          "internalType": "address",
          "name": "_owner",
          "type": "address"
        },
        {
          "indexed": false,
          "internalType": "string",
          "name": "_role",
          "type": "string"
        }
      ],
      "name": "RoleAdded",
      "type": "event"
    },
    {
      "anonymous": false,
      "inputs": [
        {
          "indexed": true,
          "internalType": "address",
          "name": "_owner",
          "type": "address"
        },
        {
          "indexed": false,
          "internalType": "string",
          "name": "_role",
          "type": "string"
        }
      ],
      "name": "RoleRemoved",
      "type": "event"
    },
    {
      "inputs": [
        {
          "internalType": "address",
          "name": "_owner",
          "type": "address"
        }
      ],
      "name": "addClaimRegistryManager",
      "outputs": [],
      "stateMutability": "nonpayable",
      "type": "function"
    },
    {
      "inputs": [
        {
          "internalType": "address",
          "name": "_owner",
          "type": "address"
        }
      ],
      "name": "addComplianceManager",
      "outputs": [],
      "stateMutability": "nonpayable",
      "type": "function"
    },
    {
      "inputs": [
        {
          "internalType": "address",
          "name": "_owner",
          "type": "address"
        }
      ],
      "name": "addComplianceSetter",
      "outputs": [],
      "stateMutability": "nonpayable",
      "type": "function"
    },
    {
      "inputs": [
        {
          "internalType": "address",
          "name": "_owner",
          "type": "address"
        }
      ],
      "name": "addIssuersRegistryManager",
      "outputs": [],
      "stateMutability": "nonpayable",
      "type": "function"
    },
    {
      "inputs": [
        {
          "internalType": "address",
          "name": "_owner",
          "type": "address"
        }
      ],
      "name": "addOwnerAdmin",
      "outputs": [],
      "stateMutability": "nonpayable",
      "type": "function"
    },
    {
      "inputs": [
        {
          "internalType": "address",
          "name": "_owner",
          "type": "address"
        }
      ],
      "name": "addRegistryAddressSetter",
      "outputs": [],
      "stateMutability": "nonpayable",
      "type": "function"
    },
    {
      "inputs": [
        {
          "internalType": "address",
          "name": "_owner",
          "type": "address"
        }
      ],
      "name": "addTokenInfoManager",
      "outputs": [],
      "stateMutability": "nonpayable",
      "type": "function"
    },
    {
      "inputs": [
        {
          "internalType": "address",
          "name": "_owner",
          "type": "address"
        }
      ],
      "name": "isClaimRegistryManager",
      "outputs": [
        {
          "internalType": "bool",
          "name": "",
          "type": "bool"
        }
      ],
      "stateMutability": "view",
      "type": "function"
    },
    {
      "inputs": [
        {
          "internalType": "address",
          "name": "_owner",
          "type": "address"
        }
      ],
      "name": "isComplianceManager",
      "outputs": [
        {
          "internalType": "bool",
          "name": "",
          "type": "bool"
        }
      ],
      "stateMutability": "view",
      "type": "function"
    },
    {
      "inputs": [
        {
          "internalType": "address",
          "name": "_owner",
          "type": "address"
        }
      ],
      "name": "isComplianceSetter",
      "outputs": [
        {
          "internalType": "bool",
          "name": "",
          "type": "bool"
        }
      ],
      "stateMutability": "view",
      "type": "function"
    },
    {
      "inputs": [
        {
          "internalType": "address",
          "name": "_owner",
          "type": "address"
        }
      ],
      "name": "isIssuersRegistryManager",
      "outputs": [
        {
          "internalType": "bool",
          "name": "",
          "type": "bool"
        }
      ],
      "stateMutability": "view",
      "type": "function"
    },
    {
      "inputs": [
        {
          "internalType": "address",
          "name": "_owner",
          "type": "address"
        }
      ],
      "name": "isOwnerAdmin",
      "outputs": [
        {
          "internalType": "bool",
          "name": "",
          "type": "bool"
        }
      ],
      "stateMutability": "view",
      "type": "function"
    },
    {
      "inputs": [
        {
          "internalType": "address",
          "name": "_owner",
          "type": "address"
        }
      ],
      "name": "isRegistryAddressSetter",
      "outputs": [
        {
          "internalType": "bool",
          "name": "",
          "type": "bool"
        }
      ],
      "stateMutability": "view",
      "type": "function"
    },
    {
      "inputs": [
        {
          "internalType": "address",
          "name": "_owner",
          "type": "address"
        }
      ],
      "name": "isTokenInfoManager",
      "outputs": [
        {
          "internalType": "bool",
          "name": "",
          "type": "bool"
        }
      ],
      "stateMutability": "view",
      "type": "function"
    },
    {
      "inputs": [],
      "name": "owner",
      "outputs": [
        {
          "internalType": "address",
          "name": "",
          "type": "address"
        }
      ],
      "stateMutability": "view",
      "type": "function"
    },
    {
      "inputs": [
        {
          "internalType": "address",
          "name": "_owner",
          "type": "address"
        }
      ],
      "name": "removeClaimRegistryManager",
      "outputs": [],
      "stateMutability": "nonpayable",
      "type": "function"
    },
    {
      "inputs": [
        {
          "internalType": "address",
          "name": "_owner",
          "type": "address"
        }
      ],
      "name": "removeComplianceManager",
      "outputs": [],
      "stateMutability": "nonpayable",
      "type": "function"
    },
    {
      "inputs": [
        {
          "internalType": "address",
          "name": "_owner",
          "type": "address"
        }
      ],
      "name": "removeComplianceSetter",
      "outputs": [],
      "stateMutability": "nonpayable",
      "type": "function"
    },
    {
      "inputs": [
        {
          "internalType": "address",
          "name": "_owner",
          "type": "address"
        }
      ],
      "name": "removeIssuersRegistryManager",
      "outputs": [],
      "stateMutability": "nonpayable",
      "type": "function"
    },
    {
      "inputs": [
        {
          "internalType": "address",
          "name": "_owner",
          "type": "address"
        }
      ],
      "name": "removeOwnerAdmin",
      "outputs": [],
      "stateMutability": "nonpayable",
      "type": "function"
    },
    {
      "inputs": [
        {
          "internalType": "address",
          "name": "_owner",
          "type": "address"
        }
      ],
      "name": "removeRegistryAddressSetter",
      "outputs": [],
      "stateMutability": "nonpayable",
      "type": "function"
    },
    {
      "inputs": [
        {
          "internalType": "address",
          "name": "_owner",
          "type": "address"
        }
      ],
      "name": "removeTokenInfoManager",
      "outputs": [],
      "stateMutability": "nonpayable",
      "type": "function"
    },
    {
      "inputs": [],
      "name": "renounceOwnership",
      "outputs": [],
      "stateMutability": "nonpayable",
      "type": "function"
    },
    {
      "inputs": [
        {
          "internalType": "address",
          "name": "newOwner",
          "type": "address"
        }
      ],
      "name": "transferOwnership",
      "outputs": [],
      "stateMutability": "nonpayable",
      "type": "function"
    }
  ],
  "bytecode": {
    "object": "0x608060405234801561001057600080fd5b5061001a3361001f565b61006f565b600080546001600160a01b038381166001600160a01b0319831681178455604051919092169283917f8be0079c531659141344cd1fd0a4f28419497f9722a3daafe3b4186f6b6457e09190a35050565b6110c58061007e6000396000f3fe608060405234801561001057600080fd5b50600436106101585760003560e01c8063882fc6ca116100c3578063ae5aaa3b1161007c578063ae5aaa3b146102c7578063ce4bdac7146102da578063e110255b146102ed578063f2fde38b14610300578063faed696a14610313578063ff8063111461032657600080fd5b8063882fc6ca1461024d5780638da5cb5b14610260578063934b2da41461027b57806394e69f1b1461028e578063a66bcc1c146102a1578063ac95fc91146102b457600080fd5b806346b686f81161011557806346b686f8146101e657806354b9797f146101f957806362cdd4821461020c5780636ff7bff71461021f578063715018a614610232578063828709371461023a57600080fd5b8063039ec2cd1461015d57806303ff5014146101725780632447e50b1461019a5780633ba7c75e146101ad5780633c734ce8146101c057806340522554146101d3575b600080fd5b61017061016b366004610f93565b610339565b005b610185610180366004610f93565b6103f4565b60405190151581526020015b60405180910390f35b6101856101a8366004610f93565b610407565b6101856101bb366004610f93565b610414565b6101856101ce366004610f93565b610421565b6101706101e1366004610f93565b61042e565b6101706101f4366004610f93565b6104cf565b610170610207366004610f93565b610571565b61018561021a366004610f93565b61060c565b61017061022d366004610f93565b610619565b6101706106c0565b610185610248366004610f93565b610726565b61017061025b366004610f93565b610733565b6000546040516001600160a01b039091168152602001610191565b610170610289366004610f93565b6107d4565b61017061029c366004610f93565b61086f565b6101706102af366004610f93565b610910565b6101706102c2366004610f93565b6109b2565b6101706102d5366004610f93565b610a59565b6101706102e8366004610f93565b610aff565b6101706102fb366004610f93565b610ba0565b61017061030e366004610f93565b610c45565b610170610321366004610f93565b610d10565b610185610334366004610f93565b610db5565b3361034c6000546001600160a01b031690565b6001600160a01b0316148061036557506103653361060c565b61038a5760405162461bcd60e51b815260040161038190610fc3565b60405180910390fd5b610395600282610dc2565b60408051808201825260158152742932b3b4b9ba393ca0b2323932b9b9a9b2ba3a32b960591b602082015290516001600160a01b03831690600080516020611050833981519152906103e8908490610ffa565b60405180910390a25050565b6000610401600483610e44565b92915050565b6000610401600783610e44565b6000610401600383610e44565b6000610401600583610e44565b336104416000546001600160a01b031690565b6001600160a01b0316148061045a575061045a3361060c565b6104765760405162461bcd60e51b815260040161038190610fc3565b610481600382610dc2565b604080518082018252601081526f21b7b6b83634b0b731b2a9b2ba3a32b960811b602082015290516001600160a01b03831690600080516020611050833981519152906103e8908490610ffa565b336104e26000546001600160a01b031690565b6001600160a01b031614806104fb57506104fb3361060c565b6105175760405162461bcd60e51b815260040161038190610fc3565b610522600482610dc2565b604080518082018252601181527021b7b6b83634b0b731b2a6b0b730b3b2b960791b602082015290516001600160a01b03831690600080516020611050833981519152906103e8908490610ffa565b336105846000546001600160a01b031690565b6001600160a01b0316148061059d575061059d3361060c565b6105b95760405162461bcd60e51b815260040161038190610fc3565b6105c4600182610dc2565b604080518082018252600a81526927bbb732b920b236b4b760b11b602082015290516001600160a01b03831690600080516020611050833981519152906103e8908490610ffa565b6000610401600183610e44565b3361062c6000546001600160a01b031690565b6001600160a01b0316148061064557506106453361060c565b6106615760405162461bcd60e51b815260040161038190610fc3565b61066c600682610dc2565b604080518082018252601681527524b9b9bab2b939a932b3b4b9ba393ca6b0b730b3b2b960511b602082015290516001600160a01b03831690600080516020611050833981519152906103e8908490610ffa565b6000546001600160a01b0316331461071a5760405162461bcd60e51b815260206004820181905260248201527f4f776e61626c653a2063616c6c6572206973206e6f7420746865206f776e65726044820152606401610381565b6107246000610ec7565b565b6000610401600283610e44565b336107466000546001600160a01b031690565b6001600160a01b0316148061075f575061075f3361060c565b61077b5760405162461bcd60e51b815260040161038190610fc3565b610786600782610dc2565b604080518082018252601081526f2a37b5b2b724b73337a6b0b730b3b2b960811b602082015290516001600160a01b03831690600080516020611050833981519152906103e8908490610ffa565b336107e76000546001600160a01b031690565b6001600160a01b0316148061080057506108003361060c565b61081c5760405162461bcd60e51b815260040161038190610fc3565b610827600182610f17565b604080518082018252600a81526927bbb732b920b236b4b760b11b602082015290516001600160a01b03831690600080516020611070833981519152906103e8908490610ffa565b336108826000546001600160a01b031690565b6001600160a01b0316148061089b575061089b3361060c565b6108b75760405162461bcd60e51b815260040161038190610fc3565b6108c2600782610f17565b604080518082018252601081526f2a37b5b2b724b73337a6b0b730b3b2b960811b602082015290516001600160a01b03831690600080516020611070833981519152906103e8908490610ffa565b336109236000546001600160a01b031690565b6001600160a01b0316148061093c575061093c3361060c565b6109585760405162461bcd60e51b815260040161038190610fc3565b610963600482610f17565b604080518082018252601181527021b7b6b83634b0b731b2a6b0b730b3b2b960791b602082015290516001600160a01b03831690600080516020611070833981519152906103e8908490610ffa565b336109c56000546001600160a01b031690565b6001600160a01b031614806109de57506109de3361060c565b6109fa5760405162461bcd60e51b815260040161038190610fc3565b610a05600682610f17565b604080518082018252601681527524b9b9bab2b939a932b3b4b9ba393ca6b0b730b3b2b960511b602082015290516001600160a01b03831690600080516020611070833981519152906103e8908490610ffa565b33610a6c6000546001600160a01b031690565b6001600160a01b03161480610a855750610a853361060c565b610aa15760405162461bcd60e51b815260040161038190610fc3565b610aac600282610f17565b60408051808201825260158152742932b3b4b9ba393ca0b2323932b9b9a9b2ba3a32b960591b602082015290516001600160a01b03831690600080516020611070833981519152906103e8908490610ffa565b33610b126000546001600160a01b031690565b6001600160a01b03161480610b2b5750610b2b3361060c565b610b475760405162461bcd60e51b815260040161038190610fc3565b610b52600382610f17565b604080518082018252601081526f21b7b6b83634b0b731b2a9b2ba3a32b960811b602082015290516001600160a01b03831690600080516020611070833981519152906103e8908490610ffa565b33610bb36000546001600160a01b031690565b6001600160a01b03161480610bcc5750610bcc3361060c565b610be85760405162461bcd60e51b815260040161038190610fc3565b610bf3600582610dc2565b604080518082018252601481527321b630b4b6a932b3b4b9ba393ca6b0b730b3b2b960611b602082015290516001600160a01b03831690600080516020611050833981519152906103e8908490610ffa565b6000546001600160a01b03163314610c9f5760405162461bcd60e51b815260206004820181905260248201527f4f776e61626c653a2063616c6c6572206973206e6f7420746865206f776e65726044820152606401610381565b6001600160a01b038116610d045760405162461bcd60e51b815260206004820152602660248201527f4f776e61626c653a206e6577206f776e657220697320746865207a65726f206160448201526564647265737360d01b6064820152608401610381565b610d0d81610ec7565b50565b33610d236000546001600160a01b031690565b6001600160a01b03161480610d3c5750610d3c3361060c565b610d585760405162461bcd60e51b815260040161038190610fc3565b610d63600582610f17565b604080518082018252601481527321b630b4b6a932b3b4b9ba393ca6b0b730b3b2b960611b602082015290516001600160a01b03831690600080516020611070833981519152906103e8908490610ffa565b6000610401600683610e44565b610dcc8282610e44565b610e225760405162461bcd60e51b815260206004820152602160248201527f526f6c65733a206163636f756e7420646f6573206e6f74206861766520726f6c6044820152606560f81b6064820152608401610381565b6001600160a01b0316600090815260209190915260409020805460ff19169055565b60006001600160a01b038216610ea75760405162461bcd60e51b815260206004820152602260248201527f526f6c65733a206163636f756e7420697320746865207a65726f206164647265604482015261737360f01b6064820152608401610381565b506001600160a01b03166000908152602091909152604090205460ff1690565b600080546001600160a01b038381166001600160a01b0319831681178455604051919092169283917f8be0079c531659141344cd1fd0a4f28419497f9722a3daafe3b4186f6b6457e09190a35050565b610f218282610e44565b15610f6e5760405162461bcd60e51b815260206004820152601f60248201527f526f6c65733a206163636f756e7420616c72656164792068617320726f6c65006044820152606401610381565b6001600160a01b0316600090815260209190915260409020805460ff19166001179055565b600060208284031215610fa557600080fd5b81356001600160a01b0381168114610fbc57600080fd5b9392505050565b60208082526019908201527f526f6c653a2053656e646572206973204e4f542041646d696e00000000000000604082015260600190565b600060208083528351808285015260005b818110156110275785810183015185820160400152820161100b565b81811115611039576000604083870101525b50601f01601f191692909201604001939250505056fed211483f91fc6eff862467f8de606587a30c8fc9981056f051b897a418df803abfec83d64eaa953f2708271a023ab9ee82057f8f3578d548c1a4ba0b5b700489a2646970667358221220580f8c08d6ab1d5be5daf149271a71d878497975da8b40ffeec1e0007fbd461a64736f6c634300080e0033",
    "linkReferences": {}
  },
  "methodIdentifiers": {
    "addClaimRegistryManager(address)": "faed696a",
    "addComplianceManager(address)": "a66bcc1c",
    "addComplianceSetter(address)": "ce4bdac7",
    "addIssuersRegistryManager(address)": "ac95fc91",
    "addOwnerAdmin(address)": "934b2da4",
    "addRegistryAddressSetter(address)": "ae5aaa3b",
    "addTokenInfoManager(address)": "94e69f1b",
    "isClaimRegistryManager(address)": "3c734ce8",
    "isComplianceManager(address)": "03ff5014",
    "isComplianceSetter(address)": "3ba7c75e",
    "isIssuersRegistryManager(address)": "ff806311",
    "isOwnerAdmin(address)": "62cdd482",
    "isRegistryAddressSetter(address)": "82870937",
    "isTokenInfoManager(address)": "2447e50b",
    "owner()": "8da5cb5b",
    "removeClaimRegistryManager(address)": "e110255b",
    "removeComplianceManager(address)": "46b686f8",
    "removeComplianceSetter(address)": "40522554",
    "removeIssuersRegistryManager(address)": "6ff7bff7",
    "removeOwnerAdmin(address)": "54b9797f",
    "removeRegistryAddressSetter(address)": "039ec2cd",
    "removeTokenInfoManager(address)": "882fc6ca",
    "renounceOwnership()": "715018a6",
    "transferOwnership(address)": "f2fde38b"
  },
  "id": 22
}