{
  "abi": [
    {
      "inputs": [
        {
          "internalType": "string",
          "name": "uri_",
          "type": "string"
        },
        {
          "internalType": "address",
          "name": "complianceClaimsRequired_",
          "type": "address"
        },
        {
          "internalType": "address",
          "name": "complianceLimitHolder_",
          "type": "address"
        },
        {
          "internalType": "address",
          "name": "identityRegistry_",
          "type": "address"
        }
      ],
      "stateMutability": "nonpayable",
      "type": "constructor"
    },
    {
      "anonymous": false,
      "inputs": [
        {
          "indexed": true,
          "internalType": "address",
          "name": "account",
          "type": "address"
        },
        {
          "indexed": true,
          "internalType": "bool",
          "name": "isFrozen",
          "type": "bool"
        },
        {
          "indexed": true,
          "internalType": "address",
          "name": "owner",
          "type": "address"
        }
      ],
      "name": "AddressFrozen",
      "type": "event"
    },
    {
      "anonymous": false,
      "inputs": [
        {
          "indexed": true,
          "internalType": "address",
          "name": "account",
          "type": "address"
        },
        {
          "indexed": true,
          "internalType": "address",
          "name": "operator",
          "type": "address"
        },
        {
          "indexed": false,
          "internalType": "bool",
          "name": "approved",
          "type": "bool"
        }
      ],
      "name": "ApprovalForAll",
      "type": "event"
    },
    {
      "anonymous": false,
      "inputs": [
        {
          "indexed": true,
          "internalType": "address",
          "name": "complianceClaimsRequired",
          "type": "address"
        }
      ],
      "name": "ComplianceClaimsRequiredAdded",
      "type": "event"
    },
    {
      "anonymous": false,
      "inputs": [
        {
          "indexed": true,
          "internalType": "address",
          "name": "complianceHolderLimit",
          "type": "address"
        }
      ],
      "name": "ComplianceLimitHolderAdded",
      "type": "event"
    },
    {
      "anonymous": false,
      "inputs": [
        {
          "indexed": true,
          "internalType": "address",
          "name": "identityRegistry",
          "type": "address"
        }
      ],
      "name": "IdentityRegistryAdded",
      "type": "event"
    },
    {
      "anonymous": false,
      "inputs": [
        {
          "indexed": true,
          "internalType": "address",
          "name": "previousOwner",
          "type": "address"
        },
        {
          "indexed": true,
          "internalType": "address",
          "name": "newOwner",
          "type": "address"
        }
      ],
      "name": "OwnershipTransferred",
      "type": "event"
    },
    {
      "anonymous": false,
      "inputs": [
        {
          "indexed": false,
          "internalType": "address",
          "name": "account",
          "type": "address"
        },
        {
          "indexed": false,
          "internalType": "uint256",
          "name": "id",
          "type": "uint256"
        }
      ],
      "name": "Paused",
      "type": "event"
    },
    {
      "anonymous": false,
      "inputs": [
        {
          "indexed": false,
          "internalType": "address",
          "name": "lostWallet",
          "type": "address"
        },
        {
          "indexed": false,
          "internalType": "address",
          "name": "newWallet",
          "type": "address"
        },
        {
          "indexed": false,
          "internalType": "address",
          "name": "holderIdentity",
          "type": "address"
        }
      ],
      "name": "RecoverySuccess",
      "type": "event"
    },
    {
      "anonymous": false,
      "inputs": [
        {
          "indexed": true,
          "internalType": "address",
          "name": "account",
          "type": "address"
        },
        {
          "indexed": false,
          "internalType": "uint256",
          "name": "amount",
          "type": "uint256"
        }
      ],
      "name": "TokensFrozen",
      "type": "event"
    },
    {
      "anonymous": false,
      "inputs": [
        {
          "indexed": true,
          "internalType": "address",
          "name": "account",
          "type": "address"
        },
        {
          "indexed": false,
          "internalType": "uint256",
          "name": "amount",
          "type": "uint256"
        }
      ],
      "name": "TokensUnfrozen",
      "type": "event"
    },
    {
      "anonymous": false,
      "inputs": [
        {
          "indexed": true,
          "internalType": "address",
          "name": "operator",
          "type": "address"
        },
        {
          "indexed": true,
          "internalType": "address",
          "name": "from",
          "type": "address"
        },
        {
          "indexed": true,
          "internalType": "address",
          "name": "to",
          "type": "address"
        },
        {
          "indexed": false,
          "internalType": "uint256[]",
          "name": "ids",
          "type": "uint256[]"
        },
        {
          "indexed": false,
          "internalType": "uint256[]",
          "name": "values",
          "type": "uint256[]"
        }
      ],
      "name": "TransferBatch",
      "type": "event"
    },
    {
      "anonymous": false,
      "inputs": [
        {
          "indexed": true,
          "internalType": "address",
          "name": "operator",
          "type": "address"
        },
        {
          "indexed": true,
          "internalType": "address",
          "name": "from",
          "type": "address"
        },
        {
          "indexed": true,
          "internalType": "address",
          "name": "to",
          "type": "address"
        },
        {
          "indexed": false,
          "internalType": "uint256",
          "name": "id",
          "type": "uint256"
        },
        {
          "indexed": false,
          "internalType": "uint256",
          "name": "value",
          "type": "uint256"
        }
      ],
      "name": "TransferSingle",
      "type": "event"
    },
    {
      "anonymous": false,
      "inputs": [
        {
          "indexed": false,
          "internalType": "string",
          "name": "value",
          "type": "string"
        },
        {
          "indexed": true,
          "internalType": "uint256",
          "name": "id",
          "type": "uint256"
        }
      ],
      "name": "URI",
      "type": "event"
    },
    {
      "anonymous": false,
      "inputs": [
        {
          "indexed": false,
          "internalType": "address",
          "name": "account",
          "type": "address"
        },
        {
          "indexed": false,
          "internalType": "uint256",
          "name": "id",
          "type": "uint256"
        }
      ],
      "name": "Unpaused",
      "type": "event"
    },
    {
      "inputs": [
        {
          "internalType": "address",
          "name": "account",
          "type": "address"
        },
        {
          "internalType": "uint256",
          "name": "id",
          "type": "uint256"
        }
      ],
      "name": "balanceOf",
      "outputs": [
        {
          "internalType": "uint256",
          "name": "",
          "type": "uint256"
        }
      ],
      "stateMutability": "view",
      "type": "function"
    },
    {
      "inputs": [
        {
          "internalType": "address[]",
          "name": "accounts",
          "type": "address[]"
        },
        {
          "internalType": "uint256[]",
          "name": "ids",
          "type": "uint256[]"
        }
      ],
      "name": "balanceOfBatch",
      "outputs": [
        {
          "internalType": "uint256[]",
          "name": "",
          "type": "uint256[]"
        }
      ],
      "stateMutability": "view",
      "type": "function"
    },
    {
      "inputs": [
        {
          "internalType": "address[]",
          "name": "fromList",
          "type": "address[]"
        },
        {
          "internalType": "address[]",
          "name": "toList",
          "type": "address[]"
        },
        {
          "internalType": "uint256[]",
          "name": "ids",
          "type": "uint256[]"
        },
        {
          "internalType": "uint256[]",
          "name": "amounts",
          "type": "uint256[]"
        },
        {
          "internalType": "bytes[]",
          "name": "dataList",
          "type": "bytes[]"
        }
      ],
      "name": "batchForcedTransfer",
      "outputs": [],
      "stateMutability": "nonpayable",
      "type": "function"
    },
    {
      "inputs": [
        {
          "internalType": "address[]",
          "name": "accounts",
          "type": "address[]"
        },
        {
          "internalType": "uint256[]",
          "name": "ids",
          "type": "uint256[]"
        },
        {
          "internalType": "uint256[]",
          "name": "amounts",
          "type": "uint256[]"
        }
      ],
      "name": "batchFreezePartialTokens",
      "outputs": [],
      "stateMutability": "nonpayable",
      "type": "function"
    },
    {
      "inputs": [
        {
          "internalType": "address[]",
          "name": "accounts",
          "type": "address[]"
        },
        {
          "internalType": "uint256[]",
          "name": "ids",
          "type": "uint256[]"
        },
        {
          "internalType": "bool[]",
          "name": "freeze",
          "type": "bool[]"
        }
      ],
      "name": "batchSetAddressFrozen",
      "outputs": [],
      "stateMutability": "nonpayable",
      "type": "function"
    },
    {
      "inputs": [
        {
          "internalType": "address[]",
          "name": "accounts",
          "type": "address[]"
        },
        {
          "internalType": "uint256[]",
          "name": "ids",
          "type": "uint256[]"
        },
        {
          "internalType": "uint256[]",
          "name": "amounts",
          "type": "uint256[]"
        }
      ],
      "name": "batchUnfreezePartialTokens",
      "outputs": [],
      "stateMutability": "nonpayable",
      "type": "function"
    },
    {
      "inputs": [
        {
          "internalType": "address",
          "name": "from",
          "type": "address"
        },
        {
          "internalType": "uint256",
          "name": "id",
          "type": "uint256"
        },
        {
          "internalType": "uint256",
          "name": "amount",
          "type": "uint256"
        }
      ],
      "name": "burn",
      "outputs": [],
      "stateMutability": "nonpayable",
      "type": "function"
    },
    {
      "inputs": [
        {
          "internalType": "address[]",
          "name": "accounts",
          "type": "address[]"
        },
        {
          "internalType": "uint256",
          "name": "id",
          "type": "uint256"
        },
        {
          "internalType": "uint256[]",
          "name": "amounts",
          "type": "uint256[]"
        }
      ],
      "name": "burnBatch",
      "outputs": [],
      "stateMutability": "nonpayable",
      "type": "function"
    },
    {
      "inputs": [],
      "name": "complianceClaimsRequired",
      "outputs": [
        {
          "internalType": "contract IComplianceClaimsRequired",
          "name": "",
          "type": "address"
        }
      ],
      "stateMutability": "view",
      "type": "function"
    },
    {
      "inputs": [],
      "name": "complianceLimitHolder",
      "outputs": [
        {
          "internalType": "contract IComplianceLimitHolder",
          "name": "",
          "type": "address"
        }
      ],
      "stateMutability": "view",
      "type": "function"
    },
    {
      "inputs": [
        {
          "internalType": "address",
          "name": "from",
          "type": "address"
        },
        {
          "internalType": "address",
          "name": "to",
          "type": "address"
        },
        {
          "internalType": "uint256",
          "name": "id",
          "type": "uint256"
        },
        {
          "internalType": "uint256",
          "name": "amount",
          "type": "uint256"
        },
        {
          "internalType": "bytes",
          "name": "data",
          "type": "bytes"
        }
      ],
      "name": "forcedTransfer",
      "outputs": [
        {
          "internalType": "bool",
          "name": "",
          "type": "bool"
        }
      ],
      "stateMutability": "nonpayable",
      "type": "function"
    },
    {
      "inputs": [
        {
          "internalType": "address",
          "name": "account",
          "type": "address"
        },
        {
          "internalType": "uint256",
          "name": "id",
          "type": "uint256"
        },
        {
          "internalType": "uint256",
          "name": "amount",
          "type": "uint256"
        }
      ],
      "name": "freezePartialTokens",
      "outputs": [],
      "stateMutability": "nonpayable",
      "type": "function"
    },
    {
      "inputs": [
        {
          "internalType": "address",
          "name": "account",
          "type": "address"
        },
        {
          "internalType": "uint256",
          "name": "id",
          "type": "uint256"
        }
      ],
      "name": "getFrozenTokens",
      "outputs": [
        {
          "internalType": "uint256",
          "name": "",
          "type": "uint256"
        }
      ],
      "stateMutability": "view",
      "type": "function"
    },
    {
      "inputs": [],
      "name": "identityRegistry",
      "outputs": [
        {
          "internalType": "contract IIdentityRegistry",
          "name": "",
          "type": "address"
        }
      ],
      "stateMutability": "view",
      "type": "function"
    },
    {
      "inputs": [
        {
          "internalType": "address",
          "name": "account",
          "type": "address"
        },
        {
          "internalType": "address",
          "name": "operator",
          "type": "address"
        }
      ],
      "name": "isApprovedForAll",
      "outputs": [
        {
          "internalType": "bool",
          "name": "",
          "type": "bool"
        }
      ],
      "stateMutability": "view",
      "type": "function"
    },
    {
      "inputs": [
        {
          "internalType": "address",
          "name": "account",
          "type": "address"
        },
        {
          "internalType": "uint256",
          "name": "id",
          "type": "uint256"
        }
      ],
      "name": "isFrozen",
      "outputs": [
        {
          "internalType": "bool",
          "name": "",
          "type": "bool"
        }
      ],
      "stateMutability": "view",
      "type": "function"
    },
    {
      "inputs": [
        {
          "internalType": "uint256",
          "name": "id",
          "type": "uint256"
        }
      ],
      "name": "issuer",
      "outputs": [
        {
          "internalType": "address",
          "name": "",
          "type": "address"
        }
      ],
      "stateMutability": "view",
      "type": "function"
    },
    {
      "inputs": [
        {
          "internalType": "address",
          "name": "to",
          "type": "address"
        },
        {
          "internalType": "uint256",
          "name": "id",
          "type": "uint256"
        },
        {
          "internalType": "uint256",
          "name": "amount",
          "type": "uint256"
        },
        {
          "internalType": "bytes",
          "name": "data",
          "type": "bytes"
        }
      ],
      "name": "mint",
      "outputs": [],
      "stateMutability": "nonpayable",
      "type": "function"
    },
    {
      "inputs": [
        {
          "internalType": "address[]",
          "name": "accounts",
          "type": "address[]"
        },
        {
          "internalType": "uint256",
          "name": "id",
          "type": "uint256"
        },
        {
          "internalType": "uint256[]",
          "name": "amounts",
          "type": "uint256[]"
        },
        {
          "internalType": "bytes",
          "name": "data",
          "type": "bytes"
        }
      ],
      "name": "mintBatch",
      "outputs": [],
      "stateMutability": "nonpayable",
      "type": "function"
    },
    {
      "inputs": [],
      "name": "owner",
      "outputs": [
        {
          "internalType": "address",
          "name": "",
          "type": "address"
        }
      ],
      "stateMutability": "view",
      "type": "function"
    },
    {
      "inputs": [
        {
          "internalType": "uint256",
          "name": "id",
          "type": "uint256"
        }
      ],
      "name": "pause",
      "outputs": [],
      "stateMutability": "nonpayable",
      "type": "function"
    },
    {
      "inputs": [
        {
          "internalType": "uint256",
          "name": "id",
          "type": "uint256"
        }
      ],
      "name": "paused",
      "outputs": [
        {
          "internalType": "bool",
          "name": "",
          "type": "bool"
        }
      ],
      "stateMutability": "view",
      "type": "function"
    },
    {
      "inputs": [
        {
          "internalType": "address",
          "name": "lostWallet",
          "type": "address"
        },
        {
          "internalType": "address",
          "name": "newWallet",
          "type": "address"
        },
        {
          "internalType": "uint256",
          "name": "id",
          "type": "uint256"
        },
        {
          "internalType": "address",
          "name": "account",
          "type": "address"
        },
        {
          "internalType": "bytes",
          "name": "data",
          "type": "bytes"
        }
      ],
      "name": "recoveryAddress",
      "outputs": [
        {
          "internalType": "bool",
          "name": "",
          "type": "bool"
        }
      ],
      "stateMutability": "nonpayable",
      "type": "function"
    },
    {
      "inputs": [],
      "name": "renounceOwnership",
      "outputs": [],
      "stateMutability": "nonpayable",
      "type": "function"
    },
    {
      "inputs": [
        {
          "internalType": "address",
          "name": "from",
          "type": "address"
        },
        {
          "internalType": "address",
          "name": "to",
          "type": "address"
        },
        {
          "internalType": "uint256[]",
          "name": "ids",
          "type": "uint256[]"
        },
        {
          "internalType": "uint256[]",
          "name": "amounts",
          "type": "uint256[]"
        },
        {
          "internalType": "bytes",
          "name": "data",
          "type": "bytes"
        }
      ],
      "name": "safeBatchTransferFrom",
      "outputs": [],
      "stateMutability": "nonpayable",
      "type": "function"
    },
    {
      "inputs": [
        {
          "internalType": "address",
          "name": "from",
          "type": "address"
        },
        {
          "internalType": "address",
          "name": "to",
          "type": "address"
        },
        {
          "internalType": "uint256",
          "name": "id",
          "type": "uint256"
        },
        {
          "internalType": "uint256",
          "name": "amount",
          "type": "uint256"
        },
        {
          "internalType": "bytes",
          "name": "data",
          "type": "bytes"
        }
      ],
      "name": "safeTransferFrom",
      "outputs": [],
      "stateMutability": "nonpayable",
      "type": "function"
    },
    {
      "inputs": [
        {
          "internalType": "address",
          "name": "account",
          "type": "address"
        },
        {
          "internalType": "uint256",
          "name": "id",
          "type": "uint256"
        },
        {
          "internalType": "bool",
          "name": "freeze",
          "type": "bool"
        }
      ],
      "name": "setAddressFrozen",
      "outputs": [],
      "stateMutability": "nonpayable",
      "type": "function"
    },
    {
      "inputs": [
        {
          "internalType": "address",
          "name": "operator",
          "type": "address"
        },
        {
          "internalType": "bool",
          "name": "approved",
          "type": "bool"
        }
      ],
      "name": "setApprovalForAll",
      "outputs": [],
      "stateMutability": "nonpayable",
      "type": "function"
    },
    {
      "inputs": [
        {
          "internalType": "address",
          "name": "complianceClaimsRequired_",
          "type": "address"
        }
      ],
      "name": "setComplianceClaimsRequired",
      "outputs": [],
      "stateMutability": "nonpayable",
      "type": "function"
    },
    {
      "inputs": [
        {
          "internalType": "address",
          "name": "complianceLimitHolder_",
          "type": "address"
        }
      ],
      "name": "setComplianceLimitHolder",
      "outputs": [],
      "stateMutability": "nonpayable",
      "type": "function"
    },
    {
      "inputs": [
        {
          "internalType": "uint256",
          "name": "id",
          "type": "uint256"
        },
        {
          "internalType": "address",
          "name": "Identity",
          "type": "address"
        }
      ],
      "name": "setIdentity",
      "outputs": [],
      "stateMutability": "nonpayable",
      "type": "function"
    },
    {
      "inputs": [
        {
          "internalType": "address",
          "name": "identityRegistry_",
          "type": "address"
        }
      ],
      "name": "setIdentityRegistry",
      "outputs": [],
      "stateMutability": "nonpayable",
      "type": "function"
    },
    {
      "inputs": [
        {
          "internalType": "string",
          "name": "uri_",
          "type": "string"
        }
      ],
      "name": "setURI",
      "outputs": [],
      "stateMutability": "nonpayable",
      "type": "function"
    },
    {
      "inputs": [
        {
          "internalType": "bytes4",
          "name": "interfaceId",
          "type": "bytes4"
        }
      ],
      "name": "supportsInterface",
      "outputs": [
        {
          "internalType": "bool",
          "name": "",
          "type": "bool"
        }
      ],
      "stateMutability": "view",
      "type": "function"
    },
    {
      "inputs": [
        {
          "internalType": "uint256",
          "name": "id",
          "type": "uint256"
        }
      ],
      "name": "totalSupply",
      "outputs": [
        {
          "internalType": "uint256",
          "name": "",
          "type": "uint256"
        }
      ],
      "stateMutability": "view",
      "type": "function"
    },
    {
      "inputs": [
        {
          "internalType": "address",
          "name": "newOwner",
          "type": "address"
        }
      ],
      "name": "transferOwnership",
      "outputs": [],
      "stateMutability": "nonpayable",
      "type": "function"
    },
    {
      "inputs": [
        {
          "internalType": "address",
          "name": "newOwner",
          "type": "address"
        }
      ],
      "name": "transferOwnershipOnTokenContract",
      "outputs": [],
      "stateMutability": "nonpayable",
      "type": "function"
    },
    {
      "inputs": [
        {
          "internalType": "address",
          "name": "account",
          "type": "address"
        },
        {
          "internalType": "uint256",
          "name": "id",
          "type": "uint256"
        },
        {
          "internalType": "uint256",
          "name": "amount",
          "type": "uint256"
        }
      ],
      "name": "unfreezePartialTokens",
      "outputs": [],
      "stateMutability": "nonpayable",
      "type": "function"
    },
    {
      "inputs": [
        {
          "internalType": "uint256",
          "name": "id",
          "type": "uint256"
        }
      ],
      "name": "unpause",
      "outputs": [],
      "stateMutability": "nonpayable",
      "type": "function"
    },
    {
      "inputs": [
        {
          "internalType": "uint256",
          "name": "",
          "type": "uint256"
        }
      ],
      "name": "uri",
      "outputs": [
        {
          "internalType": "string",
          "name": "",
          "type": "string"
        }
      ],
      "stateMutability": "view",
      "type": "function"
    }
  ],
  "bytecode": {
    "object": "0x60806040523480156200001157600080fd5b5060405162003f1e38038062003f1e833981016040819052620000349162000254565b6200003f336200012b565b8351620000549060059060208701906200017b565b50600c80546001600160a01b038086166001600160a01b03199283168117909355600b8054868316908416179055600d8054918516919092161790556040517f107fe1d81050874c8d4f74f20572c6e6156417a1e0d83a617298b9aca6e7b34e90600090a26040516001600160a01b038316907fd9fc53390f73bad51b63dbf9961b13b8da7d08d02ef4da7c9b87b9b93112915a90600090a26040516001600160a01b038216907fd2be862d755bca7e0d39772b2cab3a5578da9c285f69199f4c063c2294a7f36c90600090a250505050620003a6565b600080546001600160a01b038381166001600160a01b0319831681178455604051919092169283917f8be0079c531659141344cd1fd0a4f28419497f9722a3daafe3b4186f6b6457e09190a35050565b82805462000189906200036a565b90600052602060002090601f016020900481019282620001ad5760008555620001f8565b82601f10620001c857805160ff1916838001178555620001f8565b82800160010185558215620001f8579182015b82811115620001f8578251825591602001919060010190620001db565b50620002069291506200020a565b5090565b5b808211156200020657600081556001016200020b565b634e487b7160e01b600052604160045260246000fd5b80516001600160a01b03811681146200024f57600080fd5b919050565b600080600080608085870312156200026b57600080fd5b84516001600160401b03808211156200028357600080fd5b818701915087601f8301126200029857600080fd5b815181811115620002ad57620002ad62000221565b604051601f8201601f19908116603f01168101908382118183101715620002d857620002d862000221565b81604052828152602093508a84848701011115620002f557600080fd5b600091505b82821015620003195784820184015181830185015290830190620002fa565b828211156200032b5760008484830101525b97506200033d91505087820162000237565b945050506200034f6040860162000237565b91506200035f6060860162000237565b905092959194509250565b600181811c908216806200037f57607f821691505b602082108103620003a057634e487b7160e01b600052602260045260246000fd5b50919050565b613b6880620003b66000396000f3fe608060405234801561001057600080fd5b50600436106102455760003560e01c8063731133e91161013b578063bd85b039116100b8578063f242432a1161007c578063f242432a146105d1578063f2fde38b146105e4578063f5298aca146105f7578063fabc1cbc1461060a578063ff6e708c1461061d57600080fd5b8063bd85b0391461053e578063cbf3f8611461055e578063def4a3d014610571578063e985e9c514610584578063f1d18c33146105c057600080fd5b80639b520ce3116100ff5780639b520ce3146104ba578063a22cb465146104cd578063b29f9a61146104e0578063b34c92aa14610518578063b695fe0a1461052b57600080fd5b8063731133e9146104345780637b6e515a146104475780637c2dd619146104835780637ec1eddc146104965780638da5cb5b146104a957600080fd5b80632eb2c2d6116101c957806351411b331161018d57806351411b33146103e057806352aa700d146103f357806360ae1540146104065780636750580a14610419578063715018a61461042c57600080fd5b80632eb2c2d614610376578063319260951461038957806347082dbd1461039c5780634a6dc5d9146103ad5780634e1273f4146103c057600080fd5b80630e0a73d8116102105780630e0a73d81461030c5780630e89341c1461031f578063134e18f41461033f578063136439dd146103505780631838cb5b1461036357600080fd5b806268fe8b1461024a578062dde10e14610290578062fdd58e146102c357806301ffc9a7146102e457806302fe5305146102f7575b600080fd5b610273610258366004612cf8565b6000908152600160205260409020546001600160a01b031690565b6040516001600160a01b0390911681526020015b60405180910390f35b6102b361029e366004612cf8565b6000908152600a602052604090205460ff1690565b6040519015158152602001610287565b6102d66102d1366004612d2d565b610652565b604051908152602001610287565b6102b36102f2366004612d6d565b6106eb565b61030a610305366004612e30565b61073d565b005b61030a61031a36600461302b565b61077e565b61033261032d366004612cf8565b61084e565b6040516102879190613149565b600d546001600160a01b0316610273565b61030a61035e366004612cf8565b6108e2565b61030a61037136600461315c565b6109de565b61030a61038436600461318f565b610b09565b61030a61039736600461322b565b610eed565b600b546001600160a01b0316610273565b61030a6103bb36600461315c565b610f61565b6103d36103ce366004613246565b6110c3565b60405161028791906132e4565b61030a6103ee36600461322b565b6111ec565b61030a610401366004613305565b611222565b61030a6104143660046133f6565b61129c565b61030a610427366004613487565b6112fd565b61030a6113a0565b61030a6104423660046134c7565b6113d6565b61030a61045536600461351b565b60009182526001602052604090912080546001600160a01b0319166001600160a01b03909216919091179055565b6102b3610491366004613547565b61161a565b6102b36104a43660046135ab565b61187d565b6000546001600160a01b0316610273565b61030a6104c836600461360a565b611c38565b61030a6104db366004613676565b611c91565b6102b36104ee366004612d2d565b60009081526007602090815260408083206001600160a01b03949094168352929052205460ff1690565b61030a61052636600461322b565b611c9c565b61030a6105393660046136ad565b611d10565b6102d661054c366004612cf8565b60009081526006602052604090205490565b61030a61056c36600461322b565b611db2565b61030a61057f3660046136ad565b611e26565b6102b361059236600461371d565b6001600160a01b03918216600090815260026020908152604080832093909416825291909152205460ff1690565b600c546001600160a01b0316610273565b61030a6105df366004613547565b611ec8565b61030a6105f236600461322b565b6121c3565b61030a61060536600461315c565b61225b565b61030a610618366004612cf8565b6123c0565b6102d661062b366004612d2d565b60009081526008602090815260408083206001600160a01b03949094168352929052205490565b60006001600160a01b0383166106c35760405162461bcd60e51b815260206004820152602b60248201527f455243313135353a2062616c616e636520717565727920666f7220746865207a60448201526a65726f206164647265737360a81b60648201526084015b60405180910390fd5b5060009081526003602090815260408083206001600160a01b03949094168352929052205490565b60006001600160e01b03198216636cdb3d1360e11b148061071c57506001600160e01b031982166303a24d0760e21b145b8061073757506301ffc9a760e01b6001600160e01b03198316145b92915050565b6000546001600160a01b031633146107675760405162461bcd60e51b81526004016106ba90613747565b805161077a906005906020840190612c5f565b5050565b60005b855181101561084657600086828151811061079e5761079e61377c565b6020026020010151905060008683815181106107bc576107bc61377c565b6020026020010151905060008684815181106107da576107da61377c565b6020026020010151905060008685815181106107f8576107f861377c565b6020026020010151905060008686815181106108165761081661377c565b6020026020010151905061082d858585858561161a565b505050505050808061083e906137a8565b915050610781565b505050505050565b60606005805461085d906137c1565b80601f0160208091040260200160405190810160405280929190818152602001828054610889906137c1565b80156108d65780601f106108ab576101008083540402835291602001916108d6565b820191906000526020600020905b8154815290600101906020018083116108b957829003601f168201915b50505050509050919050565b60008181526001602052604090205481906001600160a01b0316336001600160a01b0316146109235760405162461bcd60e51b81526004016106ba906137fb565b6000828152600a6020526040902054829060ff16156109775760405162461bcd60e51b815260206004820152601060248201526f14185d5cd8589b194e881c185d5cd95960821b60448201526064016106ba565b6000838152600a60205260409020805460ff191660011790557fab40a374bc51de372200a8bc981af8c9ecdc08dfdaef0bb6e09f88f3c616ef3d6109b83390565b604080516001600160a01b039092168252602082018690520160405180910390a1505050565b60008281526001602052604090205482906001600160a01b0316336001600160a01b031614610a1f5760405162461bcd60e51b81526004016106ba906137fb565b60008381526008602090815260408083206001600160a01b0388168452909152902054821115610aae5760405162461bcd60e51b815260206004820152603460248201527f416d6f756e742073686f756c64206265206c657373207468616e206f7220657160448201527375616c20746f2066726f7a656e20746f6b656e7360601b60648201526084016106ba565b60008381526008602090815260408083206001600160a01b0388168452909152902054610adc908390613843565b60009384526008602090815260408086206001600160a01b03909716865295905293909220929092555050565b6001600160a01b038516331480610b255750610b258533610592565b610b415760405162461bcd60e51b81526004016106ba9061385a565b81518351339114610ba55760405162461bcd60e51b815260206004820152602860248201527f455243313135353a2069647320616e6420616d6f756e7473206c656e677468206044820152670dad2e6dac2e8c6d60c31b60648201526084016106ba565b60005b8451811015610e87576000858281518110610bc557610bc561377c565b602002602001015190506000858381518110610be357610be361377c565b60209081029190910181015160008481526007835260408082206001600160a01b038d168352909352919091205490915060ff16158015610c47575060008281526007602090815260408083206001600160a01b038d16845290915290205460ff16155b610c865760405162461bcd60e51b815260206004820152601060248201526f3bb0b63632ba1034b990333937bd32b760811b60448201526064016106ba565b60008281526008602090815260408083206001600160a01b038d168452909152902054610cb38a84610652565b610cbd9190613843565b811115610d035760405162461bcd60e51b8152602060048201526014602482015273496e73756666696369656e742042616c616e636560601b60448201526064016106ba565b600c54604051630d104bbb60e11b81526001600160a01b038a811660048301526024820185905290911690631a20977690604401602060405180830381865afa158015610d54573d6000803e3d6000fd5b505050506040513d601f19601f82011682018060405250810190610d7891906138ac565b8015610df45750600b5460405163d45e09c160e01b81526001600160a01b038a81166004830152602482018590529091169063d45e09c190604401602060405180830381865afa158015610dd0573d6000803e3d6000fd5b505050506040513d601f19601f82011682018060405250810190610df491906138ac565b15610e7457600b546040516322ebca6d60e21b81526001600160a01b038b811660048301528a811660248301526044820185905290911690638baf29b490606401600060405180830381600087803b158015610e4f57600080fd5b505af1158015610e63573d6000803e3d6000fd5b50505050610e748989848489611ec8565b505080610e80906137a8565b9050610ba8565b50846001600160a01b0316866001600160a01b0316826001600160a01b03167f4a39dc06d4c0dbc64b70af90fd698a233a518aa5d07e595d983b8c0526c8f7fb8787604051610ed79291906138c9565b60405180910390a4610846818787878787612495565b6000546001600160a01b03163314610f175760405162461bcd60e51b81526004016106ba90613747565b600b80546001600160a01b0319166001600160a01b0383169081179091556040517fd9fc53390f73bad51b63dbf9961b13b8da7d08d02ef4da7c9b87b9b93112915a90600090a250565b60008281526001602052604090205482906001600160a01b0316336001600160a01b031614610fa25760405162461bcd60e51b81526004016106ba906137fb565b6000610fae8585610652565b60008581526008602090815260408083206001600160a01b038a168452909152902054909150610fdf9084906138f7565b81101561102e5760405162461bcd60e51b815260206004820181905260248201527f416d6f756e74206578636565647320617661696c61626c652062616c616e636560448201526064016106ba565b60008481526008602090815260408083206001600160a01b038916845290915290205461105c9084906138f7565b60008581526008602090815260408083206001600160a01b038a1680855292529182902092909255517fa065e63c631c86f1b9f66a4a2f63f2093bf1c2168d23290259dbd969e0222a45906110b49086815260200190565b60405180910390a25050505050565b606081518351146111285760405162461bcd60e51b815260206004820152602960248201527f455243313135353a206163636f756e747320616e6420696473206c656e677468604482015268040dad2e6dac2e8c6d60bb1b60648201526084016106ba565b600083516001600160401b0381111561114357611143612d91565b60405190808252806020026020018201604052801561116c578160200160208202803683370190505b50905060005b84518110156111e4576111b78582815181106111905761119061377c565b60200260200101518583815181106111aa576111aa61377c565b6020026020010151610652565b8282815181106111c9576111c961377c565b60209081029190910101526111dd816137a8565b9050611172565b509392505050565b6000546001600160a01b031633146112165760405162461bcd60e51b81526004016106ba90613747565b61121f816121c3565b50565b60005b8351811015611296576112848482815181106112435761124361377c565b602002602001015184838151811061125d5761125d61377c565b60200260200101518484815181106112775761127761377c565b60200260200101516112fd565b8061128e816137a8565b915050611225565b50505050565b60005b84518110156112f6576112e68582815181106112bd576112bd61377c565b6020026020010151858584815181106112d8576112d861377c565b6020026020010151856113d6565b6112ef816137a8565b905061129f565b5050505050565b60008281526001602052604090205482906001600160a01b0316336001600160a01b03161461133e5760405162461bcd60e51b81526004016106ba906137fb565b60008381526007602090815260408083206001600160a01b0388168085529252808320805460ff1916861515908117909155905133939192917f7fa523c84ab8d7fc5b72f08b9e46dbbf10c39e119a075b3e317002d14bc9f43691a450505050565b6000546001600160a01b031633146113ca5760405162461bcd60e51b81526004016106ba90613747565b6113d460006125f9565b565b60008381526001602052604090205483906001600160a01b0316336001600160a01b0316146114175760405162461bcd60e51b81526004016106ba906137fb565b600c54604051630d104bbb60e11b81526001600160a01b0387811660048301526024820187905290911690631a20977690604401602060405180830381865afa158015611468573d6000803e3d6000fd5b505050506040513d601f19601f8201168201806040525081019061148c91906138ac565b6114d85760405162461bcd60e51b815260206004820152601960248201527f4964656e74697479206973206e6f742076657269666965642e0000000000000060448201526064016106ba565b600b5460405163d45e09c160e01b81526001600160a01b038781166004830152602482018790529091169063d45e09c190604401602060405180830381865afa158015611529573d6000803e3d6000fd5b505050506040513d601f19601f8201168201806040525081019061154d91906138ac565b6115995760405162461bcd60e51b815260206004820152601760248201527f436f6d706c69616e6365206e6f7420666f6c6c6f77656400000000000000000060448201526064016106ba565b6115a585858585612649565b600b5460405163278d761960e21b81526001600160a01b038781166004830152602482018790526044820186905290911690639e35d864906064015b600060405180830381600087803b1580156115fb57600080fd5b505af115801561160f573d6000803e3d6000fd5b505050505050505050565b60008381526001602052604081205484906001600160a01b0316336001600160a01b03161461165b5760405162461bcd60e51b81526004016106ba906137fb565b60008581526008602090815260408083206001600160a01b038b1684529091528120546116888988610652565b6116929190613843565b90508085111561173b5760006116a88287613843565b60008881526008602090815260408083206001600160a01b038e1684529091529020549091506116d9908290613843565b60008881526008602090815260408083206001600160a01b038e1680855292529182902092909255517f9bed35cb62ad0dba04f9d5bfee4b5bc91443e77da8a65c4c84834c51bb08b0d6906117319084815260200190565b60405180910390a2505b600c54604051630d104bbb60e11b81526001600160a01b0389811660048301526024820189905290911690631a20977690604401602060405180830381865afa15801561178c573d6000803e3d6000fd5b505050506040513d601f19601f820116820180604052508101906117b091906138ac565b6117f45760405162461bcd60e51b81526020600482015260156024820152745472616e73666572206e6f7420706f737369626c6560581b60448201526064016106ba565b600b546040516322ebca6d60e21b81526001600160a01b038a8116600483015289811660248301526044820189905290911690638baf29b490606401600060405180830381600087803b15801561184a57600080fd5b505af115801561185e573d6000803e3d6000fd5b5050505061186f8888888888611ec8565b506001979650505050505050565b60008381526001602052604081205484906001600160a01b0316336001600160a01b0316146118be5760405162461bcd60e51b81526004016106ba906137fb565b6118c88786610652565b60000361190e5760405162461bcd60e51b81526020600482015260146024820152733737903a37b5b2b739903a37903932b1b7bb32b960611b60448201526064016106ba565b604080516001600160a01b03888116602083015286169163d202158d910160408051601f198184030181529082905280516020909101206001600160e01b031960e084901b168252600482015260016024820152604401602060405180830381865afa158015611982573d6000803e3d6000fd5b505050506040513d601f19601f820116820180604052508101906119a691906138ac565b6119f25760405162461bcd60e51b815260206004820152601c60248201527f6b657920646f6573206e6f742068617665207065726d697373696f6e0000000060448201526064016106ba565b600d5460405163e7ffc16760e01b81526001600160a01b0389811660048301529091169063454a03e09088908790849063e7ffc16790602401602060405180830381865afa158015611a48573d6000803e3d6000fd5b505050506040513d601f19601f82011682018060405250810190611a6c919061390f565b6040516001600160e01b031960e086901b1681526001600160a01b03938416600482015292909116602483015261ffff166044820152606401600060405180830381600087803b158015611abf57600080fd5b505af1158015611ad3573d6000803e3d6000fd5b5050600d5460405163a8d29d1d60e01b81526001600160a01b038b81166004830152909116925063a8d29d1d9150602401600060405180830381600087803b158015611b1e57600080fd5b505af1158015611b32573d6000803e3d6000fd5b50505050611b4c878787611b468b8a610652565b8761161a565b5060008581526008602090815260408083206001600160a01b038b16845290915290205415611ba55760008581526008602090815260408083206001600160a01b038b168452909152902054611ba59087908790610f61565b60008581526007602090815260408083206001600160a01b038b16845290915290205460ff161515600103611be057611be0868660016112fd565b604080516001600160a01b038981168252888116602083015286168183015290517ff0c9129a94f30f1caaceb63e44b9811d0a3edf1d6c23757f346093af5553fed09181900360600190a15060019695505050505050565b60005b835181101561129657611c81848281518110611c5957611c5961377c565b602002602001015184848481518110611c7457611c7461377c565b602002602001015161225b565b611c8a816137a8565b9050611c3b565b61077a338383612756565b6000546001600160a01b03163314611cc65760405162461bcd60e51b81526004016106ba90613747565b600c80546001600160a01b0319166001600160a01b0383169081179091556040517f107fe1d81050874c8d4f74f20572c6e6156417a1e0d83a617298b9aca6e7b34e90600090a250565b81518351148015611d22575080518251145b611d3e5760405162461bcd60e51b81526004016106ba90613933565b60005b835181101561129657611da0848281518110611d5f57611d5f61377c565b6020026020010151848381518110611d7957611d7961377c565b6020026020010151848481518110611d9357611d9361377c565b60200260200101516109de565b80611daa816137a8565b915050611d41565b6000546001600160a01b03163314611ddc5760405162461bcd60e51b81526004016106ba90613747565b600d80546001600160a01b0319166001600160a01b0383169081179091556040517fd2be862d755bca7e0d39772b2cab3a5578da9c285f69199f4c063c2294a7f36c90600090a250565b81518351148015611e38575080518251145b611e545760405162461bcd60e51b81526004016106ba90613933565b60005b835181101561129657611eb6848281518110611e7557611e7561377c565b6020026020010151848381518110611e8f57611e8f61377c565b6020026020010151848481518110611ea957611ea961377c565b6020026020010151610f61565b80611ec0816137a8565b915050611e57565b6001600160a01b038516331480611ee45750611ee48533610592565b611f005760405162461bcd60e51b81526004016106ba9061385a565b60008381526007602090815260408083206001600160a01b038816845290915290205460ff16158015611f56575060008381526007602090815260408083206001600160a01b038916845290915290205460ff16155b611f955760405162461bcd60e51b815260206004820152601060248201526f3bb0b63632ba1034b990333937bd32b760811b60448201526064016106ba565b60008381526008602090815260408083206001600160a01b0389168452909152902054611fc28685610652565b611fcc9190613843565b8211156120125760405162461bcd60e51b8152602060048201526014602482015273496e73756666696369656e742042616c616e636560601b60448201526064016106ba565b600c54604051630d104bbb60e11b81526001600160a01b0386811660048301526024820186905290911690631a20977690604401602060405180830381865afa158015612063573d6000803e3d6000fd5b505050506040513d601f19601f8201168201806040525081019061208791906138ac565b80156121035750600b5460405163d45e09c160e01b81526001600160a01b038681166004830152602482018690529091169063d45e09c190604401602060405180830381865afa1580156120df573d6000803e3d6000fd5b505050506040513d601f19601f8201168201806040525081019061210391906138ac565b1561218357600b546040516322ebca6d60e21b81526001600160a01b03878116600483015286811660248301526044820186905290911690638baf29b490606401600060405180830381600087803b15801561215e57600080fd5b505af1158015612172573d6000803e3d6000fd5b505050506121838585858585612836565b60405162461bcd60e51b81526020600482015260156024820152745472616e73666572206e6f7420706f737369626c6560581b60448201526064016106ba565b6000546001600160a01b031633146121ed5760405162461bcd60e51b81526004016106ba90613747565b6001600160a01b0381166122525760405162461bcd60e51b815260206004820152602660248201527f4f776e61626c653a206e6577206f776e657220697320746865207a65726f206160448201526564647265737360d01b60648201526084016106ba565b61121f816125f9565b60008281526001602052604090205482906001600160a01b0316336001600160a01b03161461229c5760405162461bcd60e51b81526004016106ba906137fb565b60008381526008602090815260408083206001600160a01b03881684529091528120546122c98686610652565b6122d39190613843565b90508083111561237c5760006122e98285613843565b60008681526008602090815260408083206001600160a01b038b16845290915290205490915061231a908290613843565b60008681526008602090815260408083206001600160a01b038b1680855292529182902092909255517f9bed35cb62ad0dba04f9d5bfee4b5bc91443e77da8a65c4c84834c51bb08b0d6906123729084815260200190565b60405180910390a2505b6123878585856129da565b600b5460405163469753b960e11b81526001600160a01b0387811660048301526024820187905290911690638d2ea772906044016115e1565b60008181526001602052604090205481906001600160a01b0316336001600160a01b0316146124015760405162461bcd60e51b81526004016106ba906137fb565b6000828152600a6020526040902054829060ff166124585760405162461bcd60e51b815260206004820152601460248201527314185d5cd8589b194e881b9bdd081c185d5cd95960621b60448201526064016106ba565b6000838152600a60205260409020805460ff191690557f3582d1828e26bf56bd801502bc021ac0bc8afb57c826e4986b45593c8fad389c336109b8565b6001600160a01b0384163b156108465760405163bc197c8160e01b81526001600160a01b0385169063bc197c81906124d99089908990889088908890600401613985565b6020604051808303816000875af1925050508015612514575060408051601f3d908101601f19168201909252612511918101906139e3565b60015b6125c057612520613a00565b806308c379a0036125595750612534613a1c565b8061253f575061255b565b8060405162461bcd60e51b81526004016106ba9190613149565b505b60405162461bcd60e51b815260206004820152603460248201527f455243313135353a207472616e7366657220746f206e6f6e20455243313135356044820152732932b1b2b4bb32b91034b6b83632b6b2b73a32b960611b60648201526084016106ba565b6001600160e01b0319811663bc197c8160e01b146125f05760405162461bcd60e51b81526004016106ba90613aa5565b50505050505050565b600080546001600160a01b038381166001600160a01b0319831681178455604051919092169283917f8be0079c531659141344cd1fd0a4f28419497f9722a3daafe3b4186f6b6457e09190a35050565b6001600160a01b0384166126a95760405162461bcd60e51b815260206004820152602160248201527f455243313135353a206d696e7420746f20746865207a65726f206164647265736044820152607360f81b60648201526084016106ba565b3360006126b585612b59565b905060006126c285612b59565b905060008681526003602090815260408083206001600160a01b038b168452909152812080548792906126f69084906138f7565b909155505060408051878152602081018790526001600160a01b03808a1692600092918716917fc3d58168c5ae7397731d063d5bbf3d657854427343f4c083240f7aacaa2d0f62910160405180910390a46125f083600089898989612ba4565b816001600160a01b0316836001600160a01b0316036127c95760405162461bcd60e51b815260206004820152602960248201527f455243313135353a2073657474696e6720617070726f76616c20737461747573604482015268103337b91039b2b63360b91b60648201526084016106ba565b6001600160a01b03838116600081815260026020908152604080832094871680845294825291829020805460ff191686151590811790915591519182527f17307eab39ab6107e8899845ad3d59bd9653f200f220920489ca2b5937696c31910160405180910390a3505050565b6001600160a01b03841661289a5760405162461bcd60e51b815260206004820152602560248201527f455243313135353a207472616e7366657220746f20746865207a65726f206164604482015264647265737360d81b60648201526084016106ba565b3360006128a685612b59565b905060006128b385612b59565b905060008681526003602090815260408083206001600160a01b038c1684529091529020548581101561293b5760405162461bcd60e51b815260206004820152602a60248201527f455243313135353a20696e73756666696369656e742062616c616e636520666f60448201526939103a3930b739b332b960b11b60648201526084016106ba565b60008781526003602090815260408083206001600160a01b038d8116855292528083208985039055908a1682528120805488929061297a9084906138f7565b909155505060408051888152602081018890526001600160a01b03808b16928c821692918816917fc3d58168c5ae7397731d063d5bbf3d657854427343f4c083240f7aacaa2d0f62910160405180910390a461160f848a8a8a8a8a612ba4565b6001600160a01b038316612a3c5760405162461bcd60e51b815260206004820152602360248201527f455243313135353a206275726e2066726f6d20746865207a65726f206164647260448201526265737360e81b60648201526084016106ba565b336000612a4884612b59565b90506000612a5584612b59565b6040805160208082018352600091829052888252600381528282206001600160a01b038b1683529052205490915084811015612adf5760405162461bcd60e51b8152602060048201526024808201527f455243313135353a206275726e20616d6f756e7420657863656564732062616c604482015263616e636560e01b60648201526084016106ba565b60008681526003602090815260408083206001600160a01b038b81168086529184528285208a8703905582518b81529384018a90529092908816917fc3d58168c5ae7397731d063d5bbf3d657854427343f4c083240f7aacaa2d0f62910160405180910390a46040805160208101909152600090526125f0565b60408051600180825281830190925260609160009190602080830190803683370190505090508281600081518110612b9357612b9361377c565b602090810291909101015292915050565b6001600160a01b0384163b156108465760405163f23a6e6160e01b81526001600160a01b0385169063f23a6e6190612be89089908990889088908890600401613aed565b6020604051808303816000875af1925050508015612c23575060408051601f3d908101601f19168201909252612c20918101906139e3565b60015b612c2f57612520613a00565b6001600160e01b0319811663f23a6e6160e01b146125f05760405162461bcd60e51b81526004016106ba90613aa5565b828054612c6b906137c1565b90600052602060002090601f016020900481019282612c8d5760008555612cd3565b82601f10612ca657805160ff1916838001178555612cd3565b82800160010185558215612cd3579182015b82811115612cd3578251825591602001919060010190612cb8565b50612cdf929150612ce3565b5090565b5b80821115612cdf5760008155600101612ce4565b600060208284031215612d0a57600080fd5b5035919050565b80356001600160a01b0381168114612d2857600080fd5b919050565b60008060408385031215612d4057600080fd5b612d4983612d11565b946020939093013593505050565b6001600160e01b03198116811461121f57600080fd5b600060208284031215612d7f57600080fd5b8135612d8a81612d57565b9392505050565b634e487b7160e01b600052604160045260246000fd5b601f8201601f191681016001600160401b0381118282101715612dcc57612dcc612d91565b6040525050565b60006001600160401b03831115612dec57612dec612d91565b604051612e03601f8501601f191660200182612da7565b809150838152848484011115612e1857600080fd5b83836020830137600060208583010152509392505050565b600060208284031215612e4257600080fd5b81356001600160401b03811115612e5857600080fd5b8201601f81018413612e6957600080fd5b612e7884823560208401612dd3565b949350505050565b60006001600160401b03821115612e9957612e99612d91565b5060051b60200190565b600082601f830112612eb457600080fd5b81356020612ec182612e80565b604051612ece8282612da7565b83815260059390931b8501820192828101915086841115612eee57600080fd5b8286015b84811015612f1057612f0381612d11565b8352918301918301612ef2565b509695505050505050565b600082601f830112612f2c57600080fd5b81356020612f3982612e80565b604051612f468282612da7565b83815260059390931b8501820192828101915086841115612f6657600080fd5b8286015b84811015612f105780358352918301918301612f6a565b600082601f830112612f9257600080fd5b612d8a83833560208501612dd3565b600082601f830112612fb257600080fd5b81356020612fbf82612e80565b604051612fcc8282612da7565b83815260059390931b8501820192828101915086841115612fec57600080fd5b8286015b84811015612f105780356001600160401b0381111561300f5760008081fd5b61301d8986838b0101612f81565b845250918301918301612ff0565b600080600080600060a0868803121561304357600080fd5b85356001600160401b038082111561305a57600080fd5b61306689838a01612ea3565b9650602088013591508082111561307c57600080fd5b61308889838a01612ea3565b9550604088013591508082111561309e57600080fd5b6130aa89838a01612f1b565b945060608801359150808211156130c057600080fd5b6130cc89838a01612f1b565b935060808801359150808211156130e257600080fd5b506130ef88828901612fa1565b9150509295509295909350565b6000815180845260005b8181101561312257602081850181015186830182015201613106565b81811115613134576000602083870101525b50601f01601f19169290920160200192915050565b602081526000612d8a60208301846130fc565b60008060006060848603121561317157600080fd5b61317a84612d11565b95602085013595506040909401359392505050565b600080600080600060a086880312156131a757600080fd5b6131b086612d11565b94506131be60208701612d11565b935060408601356001600160401b03808211156131da57600080fd5b6131e689838a01612f1b565b945060608801359150808211156131fc57600080fd5b61320889838a01612f1b565b9350608088013591508082111561321e57600080fd5b506130ef88828901612f81565b60006020828403121561323d57600080fd5b612d8a82612d11565b6000806040838503121561325957600080fd5b82356001600160401b038082111561327057600080fd5b61327c86838701612ea3565b9350602085013591508082111561329257600080fd5b5061329f85828601612f1b565b9150509250929050565b600081518084526020808501945080840160005b838110156132d9578151875295820195908201906001016132bd565b509495945050505050565b602081526000612d8a60208301846132a9565b801515811461121f57600080fd5b60008060006060848603121561331a57600080fd5b83356001600160401b038082111561333157600080fd5b61333d87838801612ea3565b945060209150818601358181111561335457600080fd5b61336088828901612f1b565b94505060408601358181111561337557600080fd5b86019050601f8101871361338857600080fd5b803561339381612e80565b6040516133a08282612da7565b82815260059290921b83018401918481019150898311156133c057600080fd5b928401925b828410156133e75783356133d8816132f7565b825292840192908401906133c5565b80955050505050509250925092565b6000806000806080858703121561340c57600080fd5b84356001600160401b038082111561342357600080fd5b61342f88838901612ea3565b955060208701359450604087013591508082111561344c57600080fd5b61345888838901612f1b565b9350606087013591508082111561346e57600080fd5b5061347b87828801612f81565b91505092959194509250565b60008060006060848603121561349c57600080fd5b6134a584612d11565b92506020840135915060408401356134bc816132f7565b809150509250925092565b600080600080608085870312156134dd57600080fd5b6134e685612d11565b9350602085013592506040850135915060608501356001600160401b0381111561350f57600080fd5b61347b87828801612f81565b6000806040838503121561352e57600080fd5b8235915061353e60208401612d11565b90509250929050565b600080600080600060a0868803121561355f57600080fd5b61356886612d11565b945061357660208701612d11565b9350604086013592506060860135915060808601356001600160401b0381111561359f57600080fd5b6130ef88828901612f81565b600080600080600060a086880312156135c357600080fd5b6135cc86612d11565b94506135da60208701612d11565b9350604086013592506135ef60608701612d11565b915060808601356001600160401b0381111561359f57600080fd5b60008060006060848603121561361f57600080fd5b83356001600160401b038082111561363657600080fd5b61364287838801612ea3565b945060208601359350604086013591508082111561365f57600080fd5b5061366c86828701612f1b565b9150509250925092565b6000806040838503121561368957600080fd5b61369283612d11565b915060208301356136a2816132f7565b809150509250929050565b6000806000606084860312156136c257600080fd5b83356001600160401b03808211156136d957600080fd5b6136e587838801612ea3565b945060208601359150808211156136fb57600080fd5b61370787838801612f1b565b9350604086013591508082111561365f57600080fd5b6000806040838503121561373057600080fd5b61373983612d11565b915061353e60208401612d11565b6020808252818101527f4f776e61626c653a2063616c6c6572206973206e6f7420746865206f776e6572604082015260600190565b634e487b7160e01b600052603260045260246000fd5b634e487b7160e01b600052601160045260246000fd5b6000600182016137ba576137ba613792565b5060010190565b600181811c908216806137d557607f821691505b6020821081036137f557634e487b7160e01b600052602260045260246000fd5b50919050565b60208082526028908201527f4f6e6c7920746f6b656e206973737565722063616e2063616c6c207468697320604082015267333ab731ba34b7b760c11b606082015260800190565b60008282101561385557613855613792565b500390565b60208082526032908201527f455243313135353a207472616e736665722063616c6c6572206973206e6f74206040820152711bdddb995c881b9bdc88185c1c1c9bdd995960721b606082015260800190565b6000602082840312156138be57600080fd5b8151612d8a816132f7565b6040815260006138dc60408301856132a9565b82810360208401526138ee81856132a9565b95945050505050565b6000821982111561390a5761390a613792565b500190565b60006020828403121561392157600080fd5b815161ffff81168114612d8a57600080fd5b60208082526032908201527f455243313135353a206163636f756e74732c2069647320616e6420616d6f756e6040820152710e8e640d8cadccee8d040dad2e6dac2e8c6d60731b606082015260800190565b6001600160a01b0386811682528516602082015260a0604082018190526000906139b1908301866132a9565b82810360608401526139c381866132a9565b905082810360808401526139d781856130fc565b98975050505050505050565b6000602082840312156139f557600080fd5b8151612d8a81612d57565b600060033d1115613a195760046000803e5060005160e01c5b90565b600060443d1015613a2a5790565b6040516003193d81016004833e81513d6001600160401b038160248401118184111715613a5957505050505090565b8285019150815181811115613a715750505050505090565b843d8701016020828501011115613a8b5750505050505090565b613a9a60208286010187612da7565b509095945050505050565b60208082526028908201527f455243313135353a204552433131353552656365697665722072656a656374656040820152676420746f6b656e7360c01b606082015260800190565b6001600160a01b03868116825285166020820152604081018490526060810183905260a060808201819052600090613b27908301846130fc565b97965050505050505056fea26469706673582212202023e2b83e75b6dc4870f59ac1ca91d4bb9fe2691d6ef6a6063b8670327b7aad64736f6c634300080e0033",
    "linkReferences": {}
  },
  "methodIdentifiers": {
    "balanceOf(address,uint256)": "00fdd58e",
    "balanceOfBatch(address[],uint256[])": "4e1273f4",
    "batchForcedTransfer(address[],address[],uint256[],uint256[],bytes[])": "0e0a73d8",
    "batchFreezePartialTokens(address[],uint256[],uint256[])": "def4a3d0",
    "batchSetAddressFrozen(address[],uint256[],bool[])": "52aa700d",
    "batchUnfreezePartialTokens(address[],uint256[],uint256[])": "b695fe0a",
    "burn(address,uint256,uint256)": "f5298aca",
    "burnBatch(address[],uint256,uint256[])": "9b520ce3",
    "complianceClaimsRequired()": "f1d18c33",
    "complianceLimitHolder()": "47082dbd",
    "forcedTransfer(address,address,uint256,uint256,bytes)": "7c2dd619",
    "freezePartialTokens(address,uint256,uint256)": "4a6dc5d9",
    "getFrozenTokens(address,uint256)": "ff6e708c",
    "identityRegistry()": "134e18f4",
    "isApprovedForAll(address,address)": "e985e9c5",
    "isFrozen(address,uint256)": "b29f9a61",
    "issuer(uint256)": "0068fe8b",
    "mint(address,uint256,uint256,bytes)": "731133e9",
    "mintBatch(address[],uint256,uint256[],bytes)": "60ae1540",
    "owner()": "8da5cb5b",
    "pause(uint256)": "136439dd",
    "paused(uint256)": "00dde10e",
    "recoveryAddress(address,address,uint256,address,bytes)": "7ec1eddc",
    "renounceOwnership()": "715018a6",
    "safeBatchTransferFrom(address,address,uint256[],uint256[],bytes)": "2eb2c2d6",
    "safeTransferFrom(address,address,uint256,uint256,bytes)": "f242432a",
    "setAddressFrozen(address,uint256,bool)": "6750580a",
    "setApprovalForAll(address,bool)": "a22cb465",
    "setComplianceClaimsRequired(address)": "b34c92aa",
    "setComplianceLimitHolder(address)": "31926095",
    "setIdentity(uint256,address)": "7b6e515a",
    "setIdentityRegistry(address)": "cbf3f861",
    "setURI(string)": "02fe5305",
    "supportsInterface(bytes4)": "01ffc9a7",
    "totalSupply(uint256)": "bd85b039",
    "transferOwnership(address)": "f2fde38b",
    "transferOwnershipOnTokenContract(address)": "51411b33",
    "unfreezePartialTokens(address,uint256,uint256)": "1838cb5b",
    "unpause(uint256)": "fabc1cbc",
    "uri(uint256)": "0e89341c"
  },
  "id": 9
}