{
  "abi": [
    {
      "inputs": [
        {
          "internalType": "address",
          "name": "_implementationAuthority",
          "type": "address"
        },
        {
          "internalType": "address",
          "name": "initialManagementKey",
          "type": "address"
        }
      ],
      "stateMutability": "nonpayable",
      "type": "constructor"
    },
    {
      "stateMutability": "payable",
      "type": "fallback"
    },
    {
      "inputs": [],
      "name": "implementationAuthority",
      "outputs": [
        {
          "internalType": "address",
          "name": "",
          "type": "address"
        }
      ],
      "stateMutability": "view",
      "type": "function"
    }
  ],
  "bytecode": {
    "object": "0x608060405234801561001057600080fd5b506040516103bb3803806103bb83398101604081905261002f916101b9565b600080546001600160a01b0319166001600160a01b03841690811782556040805163557887a160e11b8152905163aaf10f42916004808201926020929091908290030181865afa158015610087573d6000803e3d6000fd5b505050506040513d601f19601f820116820180604052508101906100ab91906101ec565b6040516001600160a01b03848116602483015291925060009183169060440160408051601f198184030181529181526020820180516001600160e01b031663189acdbd60e31b179052516100ff919061020e565b600060405180830381855af49150503d806000811461013a576040519150601f19603f3d011682016040523d82523d6000602084013e61013f565b606091505b50509050806101945760405162461bcd60e51b815260206004820152601660248201527f496e697469616c697a6174696f6e206661696c65642e00000000000000000000604482015260640160405180910390fd5b50505050610249565b80516001600160a01b03811681146101b457600080fd5b919050565b600080604083850312156101cc57600080fd5b6101d58361019d565b91506101e36020840161019d565b90509250929050565b6000602082840312156101fe57600080fd5b6102078261019d565b9392505050565b6000825160005b8181101561022f5760208186018101518583015201610215565b8181111561023e576000828501525b509190910192915050565b610163806102586000396000f3fe60806040526004361061001e5760003560e01c80632307f882146100c1575b60008060009054906101000a90046001600160a01b03166001600160a01b031663aaf10f426040518163ffffffff1660e01b8152600401602060405180830381865afa158015610072573d6000803e3d6000fd5b505050506040513d601f19601f8201168201806040525081019061009691906100fd565b90503660008037600080366000846127105a03f43d806000803e8180156100bc57816000f35b816000fd5b3480156100cd57600080fd5b506000546100e1906001600160a01b031681565b6040516001600160a01b03909116815260200160405180910390f35b60006020828403121561010f57600080fd5b81516001600160a01b038116811461012657600080fd5b939250505056fea2646970667358221220a708eea58470320f65e0c81497c67213970ed0eff71ae0ef860cbeb5aba8397564736f6c634300080e0033",
    "linkReferences": {}
  },
  "methodIdentifiers": {
    "implementationAuthority()": "2307f882"
  },
  "id": 47
}