{
  "abi": [
    {
      "inputs": [
        {
          "internalType": "address",
          "name": "initialManagementKey",
          "type": "address"
        }
      ],
      "stateMutability": "nonpayable",
      "type": "constructor"
    },
    {
      "anonymous": false,
      "inputs": [
        {
          "indexed": true,
          "internalType": "uint256",
          "name": "executionId",
          "type": "uint256"
        },
        {
          "indexed": false,
          "internalType": "bool",
          "name": "approved",
          "type": "bool"
        }
      ],
      "name": "Approved",
      "type": "event"
    },
    {
      "anonymous": false,
      "inputs": [
        {
          "indexed": true,
          "internalType": "bytes32",
          "name": "claimId",
          "type": "bytes32"
        },
        {
          "indexed": true,
          "internalType": "uint256",
          "name": "topic",
          "type": "uint256"
        },
        {
          "indexed": false,
          "internalType": "uint256",
          "name": "scheme",
          "type": "uint256"
        },
        {
          "indexed": true,
          "internalType": "address",
          "name": "issuer",
          "type": "address"
        },
        {
          "indexed": false,
          "internalType": "bytes",
          "name": "signature",
          "type": "bytes"
        },
        {
          "indexed": false,
          "internalType": "bytes",
          "name": "data",
          "type": "bytes"
        },
        {
          "indexed": false,
          "internalType": "string",
          "name": "uri",
          "type": "string"
        }
      ],
      "name": "ClaimAdded",
      "type": "event"
    },
    {
      "anonymous": false,
      "inputs": [
        {
          "indexed": true,
          "internalType": "bytes32",
          "name": "claimId",
          "type": "bytes32"
        },
        {
          "indexed": true,
          "internalType": "uint256",
          "name": "topic",
          "type": "uint256"
        },
        {
          "indexed": false,
          "internalType": "uint256",
          "name": "scheme",
          "type": "uint256"
        },
        {
          "indexed": true,
          "internalType": "address",
          "name": "issuer",
          "type": "address"
        },
        {
          "indexed": false,
          "internalType": "bytes",
          "name": "signature",
          "type": "bytes"
        },
        {
          "indexed": false,
          "internalType": "bytes",
          "name": "data",
          "type": "bytes"
        },
        {
          "indexed": false,
          "internalType": "string",
          "name": "uri",
          "type": "string"
        }
      ],
      "name": "ClaimChanged",
      "type": "event"
    },
    {
      "anonymous": false,
      "inputs": [
        {
          "indexed": true,
          "internalType": "bytes32",
          "name": "claimId",
          "type": "bytes32"
        },
        {
          "indexed": true,
          "internalType": "uint256",
          "name": "topic",
          "type": "uint256"
        },
        {
          "indexed": false,
          "internalType": "uint256",
          "name": "scheme",
          "type": "uint256"
        },
        {
          "indexed": true,
          "internalType": "address",
          "name": "issuer",
          "type": "address"
        },
        {
          "indexed": false,
          "internalType": "bytes",
          "name": "signature",
          "type": "bytes"
        },
        {
          "indexed": false,
          "internalType": "bytes",
          "name": "data",
          "type": "bytes"
        },
        {
          "indexed": false,
          "internalType": "string",
          "name": "uri",
          "type": "string"
        }
      ],
      "name": "ClaimRemoved",
      "type": "event"
    },
    {
      "anonymous": false,
      "inputs": [
        {
          "indexed": true,
          "internalType": "uint256",
          "name": "claimRequestId",
          "type": "uint256"
        },
        {
          "indexed": true,
          "internalType": "uint256",
          "name": "topic",
          "type": "uint256"
        },
        {
          "indexed": false,
          "internalType": "uint256",
          "name": "scheme",
          "type": "uint256"
        },
        {
          "indexed": true,
          "internalType": "address",
          "name": "issuer",
          "type": "address"
        },
        {
          "indexed": false,
          "internalType": "bytes",
          "name": "signature",
          "type": "bytes"
        },
        {
          "indexed": false,
          "internalType": "bytes",
          "name": "data",
          "type": "bytes"
        },
        {
          "indexed": false,
          "internalType": "string",
          "name": "uri",
          "type": "string"
        }
      ],
      "name": "ClaimRequested",
      "type": "event"
    },
    {
      "anonymous": false,
      "inputs": [
        {
          "indexed": true,
          "internalType": "uint256",
          "name": "executionId",
          "type": "uint256"
        },
        {
          "indexed": true,
          "internalType": "address",
          "name": "to",
          "type": "address"
        },
        {
          "indexed": true,
          "internalType": "uint256",
          "name": "value",
          "type": "uint256"
        },
        {
          "indexed": false,
          "internalType": "bytes",
          "name": "data",
          "type": "bytes"
        }
      ],
      "name": "Executed",
      "type": "event"
    },
    {
      "anonymous": false,
      "inputs": [
        {
          "indexed": true,
          "internalType": "uint256",
          "name": "executionId",
          "type": "uint256"
        },
        {
          "indexed": true,
          "internalType": "address",
          "name": "to",
          "type": "address"
        },
        {
          "indexed": true,
          "internalType": "uint256",
          "name": "value",
          "type": "uint256"
        },
        {
          "indexed": false,
          "internalType": "bytes",
          "name": "data",
          "type": "bytes"
        }
      ],
      "name": "ExecutionFailed",
      "type": "event"
    },
    {
      "anonymous": false,
      "inputs": [
        {
          "indexed": true,
          "internalType": "uint256",
          "name": "executionId",
          "type": "uint256"
        },
        {
          "indexed": true,
          "internalType": "address",
          "name": "to",
          "type": "address"
        },
        {
          "indexed": true,
          "internalType": "uint256",
          "name": "value",
          "type": "uint256"
        },
        {
          "indexed": false,
          "internalType": "bytes",
          "name": "data",
          "type": "bytes"
        }
      ],
      "name": "ExecutionRequested",
      "type": "event"
    },
    {
      "anonymous": false,
      "inputs": [
        {
          "indexed": true,
          "internalType": "bytes32",
          "name": "key",
          "type": "bytes32"
        },
        {
          "indexed": true,
          "internalType": "uint256",
          "name": "purpose",
          "type": "uint256"
        },
        {
          "indexed": true,
          "internalType": "uint256",
          "name": "keyType",
          "type": "uint256"
        }
      ],
      "name": "KeyAdded",
      "type": "event"
    },
    {
      "anonymous": false,
      "inputs": [
        {
          "indexed": true,
          "internalType": "bytes32",
          "name": "key",
          "type": "bytes32"
        },
        {
          "indexed": true,
          "internalType": "uint256",
          "name": "purpose",
          "type": "uint256"
        },
        {
          "indexed": true,
          "internalType": "uint256",
          "name": "keyType",
          "type": "uint256"
        }
      ],
      "name": "KeyRemoved",
      "type": "event"
    },
    {
      "anonymous": false,
      "inputs": [
        {
          "indexed": false,
          "internalType": "uint256",
          "name": "purpose",
          "type": "uint256"
        },
        {
          "indexed": false,
          "internalType": "uint256",
          "name": "number",
          "type": "uint256"
        }
      ],
      "name": "KeysRequiredChanged",
      "type": "event"
    },
    {
      "inputs": [
        {
          "internalType": "uint256",
          "name": "_topic",
          "type": "uint256"
        },
        {
          "internalType": "uint256",
          "name": "_scheme",
          "type": "uint256"
        },
        {
          "internalType": "address",
          "name": "_issuer",
          "type": "address"
        },
        {
          "internalType": "bytes",
          "name": "_signature",
          "type": "bytes"
        },
        {
          "internalType": "bytes",
          "name": "_data",
          "type": "bytes"
        },
        {
          "internalType": "string",
          "name": "_uri",
          "type": "string"
        }
      ],
      "name": "addClaim",
      "outputs": [
        {
          "internalType": "bytes32",
          "name": "claimRequestId",
          "type": "bytes32"
        }
      ],
      "stateMutability": "nonpayable",
      "type": "function"
    },
    {
      "inputs": [
        {
          "internalType": "bytes32",
          "name": "_key",
          "type": "bytes32"
        },
        {
          "internalType": "uint256",
          "name": "_purpose",
          "type": "uint256"
        },
        {
          "internalType": "uint256",
          "name": "_type",
          "type": "uint256"
        }
      ],
      "name": "addKey",
      "outputs": [
        {
          "internalType": "bool",
          "name": "success",
          "type": "bool"
        }
      ],
      "stateMutability": "nonpayable",
      "type": "function"
    },
    {
      "inputs": [
        {
          "internalType": "uint256",
          "name": "_id",
          "type": "uint256"
        },
        {
          "internalType": "bool",
          "name": "_approve",
          "type": "bool"
        }
      ],
      "name": "approve",
      "outputs": [
        {
          "internalType": "bool",
          "name": "success",
          "type": "bool"
        }
      ],
      "stateMutability": "nonpayable",
      "type": "function"
    },
    {
      "inputs": [
        {
          "internalType": "address",
          "name": "_to",
          "type": "address"
        },
        {
          "internalType": "uint256",
          "name": "_value",
          "type": "uint256"
        },
        {
          "internalType": "bytes",
          "name": "_data",
          "type": "bytes"
        }
      ],
      "name": "execute",
      "outputs": [
        {
          "internalType": "uint256",
          "name": "executionId",
          "type": "uint256"
        }
      ],
      "stateMutability": "payable",
      "type": "function"
    },
    {
      "inputs": [
        {
          "internalType": "bytes32",
          "name": "_claimId",
          "type": "bytes32"
        }
      ],
      "name": "getClaim",
      "outputs": [
        {
          "internalType": "uint256",
          "name": "topic",
          "type": "uint256"
        },
        {
          "internalType": "uint256",
          "name": "scheme",
          "type": "uint256"
        },
        {
          "internalType": "address",
          "name": "issuer",
          "type": "address"
        },
        {
          "internalType": "bytes",
          "name": "signature",
          "type": "bytes"
        },
        {
          "internalType": "bytes",
          "name": "data",
          "type": "bytes"
        },
        {
          "internalType": "string",
          "name": "uri",
          "type": "string"
        }
      ],
      "stateMutability": "view",
      "type": "function"
    },
    {
      "inputs": [
        {
          "internalType": "uint256",
          "name": "_topic",
          "type": "uint256"
        }
      ],
      "name": "getClaimIdsByTopic",
      "outputs": [
        {
          "internalType": "bytes32[]",
          "name": "claimIds",
          "type": "bytes32[]"
        }
      ],
      "stateMutability": "view",
      "type": "function"
    },
    {
      "inputs": [
        {
          "internalType": "bytes32",
          "name": "_key",
          "type": "bytes32"
        }
      ],
      "name": "getKey",
      "outputs": [
        {
          "internalType": "uint256[]",
          "name": "purposes",
          "type": "uint256[]"
        },
        {
          "internalType": "uint256",
          "name": "keyType",
          "type": "uint256"
        },
        {
          "internalType": "bytes32",
          "name": "key",
          "type": "bytes32"
        }
      ],
      "stateMutability": "view",
      "type": "function"
    },
    {
      "inputs": [
        {
          "internalType": "bytes32",
          "name": "_key",
          "type": "bytes32"
        }
      ],
      "name": "getKeyPurposes",
      "outputs": [
        {
          "internalType": "uint256[]",
          "name": "_purposes",
          "type": "uint256[]"
        }
      ],
      "stateMutability": "view",
      "type": "function"
    },
    {
      "inputs": [
        {
          "internalType": "uint256",
          "name": "_purpose",
          "type": "uint256"
        }
      ],
      "name": "getKeysByPurpose",
      "outputs": [
        {
          "internalType": "bytes32[]",
          "name": "_keys",
          "type": "bytes32[]"
        }
      ],
      "stateMutability": "view",
      "type": "function"
    },
    {
      "inputs": [
        {
          "internalType": "bytes",
          "name": "sig",
          "type": "bytes"
        },
        {
          "internalType": "bytes32",
          "name": "dataHash",
          "type": "bytes32"
        }
      ],
      "name": "getRecoveredAddress",
      "outputs": [
        {
          "internalType": "address",
          "name": "addr",
          "type": "address"
        }
      ],
      "stateMutability": "pure",
      "type": "function"
    },
    {
      "inputs": [
        {
          "internalType": "address",
          "name": "initialManagementKey",
          "type": "address"
        }
      ],
      "name": "initialize",
      "outputs": [],
      "stateMutability": "nonpayable",
      "type": "function"
    },
    {
      "inputs": [
        {
          "internalType": "bytes",
          "name": "_sig",
          "type": "bytes"
        }
      ],
      "name": "isClaimRevoked",
      "outputs": [
        {
          "internalType": "bool",
          "name": "",
          "type": "bool"
        }
      ],
      "stateMutability": "view",
      "type": "function"
    },
    {
      "inputs": [
        {
          "internalType": "contract IIdentity",
          "name": "_identity",
          "type": "address"
        },
        {
          "internalType": "uint256",
          "name": "claimTopic",
          "type": "uint256"
        },
        {
          "internalType": "bytes",
          "name": "sig",
          "type": "bytes"
        },
        {
          "internalType": "bytes",
          "name": "data",
          "type": "bytes"
        }
      ],
      "name": "isClaimValid",
      "outputs": [
        {
          "internalType": "bool",
          "name": "claimValid",
          "type": "bool"
        }
      ],
      "stateMutability": "view",
      "type": "function"
    },
    {
      "inputs": [
        {
          "internalType": "bytes32",
          "name": "_key",
          "type": "bytes32"
        },
        {
          "internalType": "uint256",
          "name": "_purpose",
          "type": "uint256"
        }
      ],
      "name": "keyHasPurpose",
      "outputs": [
        {
          "internalType": "bool",
          "name": "result",
          "type": "bool"
        }
      ],
      "stateMutability": "view",
      "type": "function"
    },
    {
      "inputs": [
        {
          "internalType": "bytes32",
          "name": "_claimId",
          "type": "bytes32"
        }
      ],
      "name": "removeClaim",
      "outputs": [
        {
          "internalType": "bool",
          "name": "success",
          "type": "bool"
        }
      ],
      "stateMutability": "nonpayable",
      "type": "function"
    },
    {
      "inputs": [
        {
          "internalType": "bytes32",
          "name": "_key",
          "type": "bytes32"
        },
        {
          "internalType": "uint256",
          "name": "_purpose",
          "type": "uint256"
        }
      ],
      "name": "removeKey",
      "outputs": [
        {
          "internalType": "bool",
          "name": "success",
          "type": "bool"
        }
      ],
      "stateMutability": "nonpayable",
      "type": "function"
    },
    {
      "inputs": [
        {
          "internalType": "bytes32",
          "name": "_claimId",
          "type": "bytes32"
        },
        {
          "internalType": "address",
          "name": "_identity",
          "type": "address"
        }
      ],
      "name": "revokeClaim",
      "outputs": [
        {
          "internalType": "bool",
          "name": "",
          "type": "bool"
        }
      ],
      "stateMutability": "nonpayable",
      "type": "function"
    },
    {
      "inputs": [
        {
          "internalType": "bytes",
          "name": "",
          "type": "bytes"
        }
      ],
      "name": "revokedClaims",
      "outputs": [
        {
          "internalType": "bool",
          "name": "",
          "type": "bool"
        }
      ],
      "stateMutability": "view",
      "type": "function"
    },
    {
      "inputs": [],
      "name": "version",
      "outputs": [
        {
          "internalType": "string",
          "name": "",
          "type": "string"
        }
      ],
      "stateMutability": "pure",
      "type": "function"
    }
  ],
  "bytecode": {
    "object": "0x60806040526006805461ffff19166101001790553480156200002057600080fd5b5060405162002b2838038062002b28833981016040819052620000439162000268565b6006805461ff001916610100908117918290558291600091900460ff1615620000775762000071826200008e565b62000085565b6006805460ff191660011790555b5050506200029a565b60065460ff161580620000a05750303b155b620000f15760405162461bcd60e51b815260206004820152601e60248201527f496e697469616c206b65792077617320616c72656164792073657475702e0000604482015260640160405180910390fd5b6006805461ffff1916610101179055604080516001600160a01b03831660208201526000910160408051601f198184030181528282528051602091820120600081815260018084528482206002810184905586850190955280865290829052918290529350620001629290620001fc565b506000818152600160208181526040808420830183905560029091527fe90b7bceb6e7df5418fb78d8ee546e97c83a08bbccc01a0644d599ccd2a7c2e0805480840182559084527f7fef4bf8f63cf9dd467136c679c02b5c17fcf6322d9562512bf5eb952cf7cc5301849055519091829184917f480000bb1edad8ca1470381cc334b1917fbd51c6531f3a623ea8e0ec7e38a6e991a45050565b8280548282559060005260206000209081019282156200023f579160200282015b828111156200023f578251829060ff169055916020019190600101906200021d565b506200024d92915062000251565b5090565b5b808211156200024d576000815560010162000252565b6000602082840312156200027b57600080fd5b81516001600160a01b03811681146200029357600080fd5b9392505050565b61287e80620002aa6000396000f3fe6080604052600436106101145760003560e01c80639010f726116100a0578063c4d66de811610064578063c4d66de81461033b578063c9100bcb1461035d578063d202158d1461038f578063d2345249146103af578063fb307b34146103ea57600080fd5b80639010f72614610282578063b1a34e0d146102a2578063b61d27f6146102d0578063c0969a6e146102e3578063c3b129e31461030357600080fd5b806353d413c5116100e757806353d413c5146101c157806354fd4d50146101e157806373c3370814610215578063747442d31461023557806380e9e9e11461025557600080fd5b806312aaac70146101195780631d381240146101515780632646b264146101815780634eee424a146101a1575b600080fd5b34801561012557600080fd5b50610139610134366004611e89565b610417565b60405161014893929190611edd565b60405180910390f35b34801561015d57600080fd5b5061017161016c366004611f02565b610490565b6040519015158152602001610148565b34801561018d57600080fd5b5061017161019c366004611ffb565b6106b0565b3480156101ad57600080fd5b506101716101bc366004611e89565b6106ea565b3480156101cd57600080fd5b506101716101dc366004612030565b610a02565b3480156101ed57600080fd5b5060408051808201825260058152640312e342e360dc1b6020820152905161014891906120ae565b34801561022157600080fd5b506101716102303660046120d6565b610d97565b34801561024157600080fd5b50610171610250366004612106565b610ec3565b34801561026157600080fd5b50610275610270366004611e89565b611165565b6040516101489190612130565b34801561028e57600080fd5b5061027561029d366004611e89565b6111c7565b3480156102ae57600080fd5b506102c26102bd366004612174565b611227565b604051908152602001610148565b6102c26102de366004612235565b61151e565b3480156102ef57600080fd5b506101716102fe36600461228e565b611696565b34801561030f57600080fd5b5061032361031e36600461230e565b611799565b6040516001600160a01b039091168152602001610148565b34801561034757600080fd5b5061035b610356366004612353565b61184a565b005b34801561036957600080fd5b5061037d610378366004611e89565b611856565b60405161014896959493929190612370565b34801561039b57600080fd5b506101716103aa366004612030565b611a57565b3480156103bb57600080fd5b506101716103ca366004611ffb565b805160208183018101805160078252928201919093012091525460ff1681565b3480156103f657600080fd5b5061040a610405366004611e89565b611b58565b60405161014891906123d0565b60008181526001602081815260408084209283015460028401548454835181860281018601909452808452606096958695909491859183018282801561047c57602002820191906000526020600020905b815481526020019060010190808311610468575b505050505092509250925092509193909250565b60065460009060ff6101009091041615156001146104c95760405162461bcd60e51b81526004016104c0906123e3565b60405180910390fd5b33301461051957604080513360208201526104fd91015b604051602081830303815290604052805190602001206001611a57565b6105195760405162461bcd60e51b81526004016104c090612436565b60008481526001602052604090206002015484900361060a5760005b6000858152600160205260409020548110156105e457600085815260016020526040812080548390811061056b5761056b612486565b906000526020600020015490508481036105d15760405162461bcd60e51b815260206004820152602160248201527f436f6e666c6963743a204b657920616c72656164792068617320707572706f736044820152606560f81b60648201526084016104c0565b50806105dc816124b2565b915050610535565b506000848152600160208181526040832080549283018155835290912001839055610656565b6000848152600160208181526040808420600281018990558151808401909252878252938890529082905261063f9291611d1e565b506000848152600160208190526040909120018290555b60008381526002602090815260408083208054600181018255908452918320909101869055518391859187917f480000bb1edad8ca1470381cc334b1917fbd51c6531f3a623ea8e0ec7e38a6e991a45060015b9392505050565b60006007826040516106c291906124cb565b9081526040519081900360200190205460ff16156106e257506001919050565b506000919050565b60065460009060ff61010090910416151560011461071a5760405162461bcd60e51b81526004016104c0906123e3565b3330146107ae576040805133602082015261074e91015b604051602081830303815290604052805190602001206003611a57565b6107ae5760405162461bcd60e51b815260206004820152602b60248201527f5065726d697373696f6e733a2053656e64657220646f6573206e6f742068617660448201526a6520434c41494d206b657960a81b60648201526084016104c0565b600082815260046020526040812054900361081f5760405162461bcd60e51b815260206004820152602b60248201527f4e6f6e4578697374696e673a205468657265206973206e6f20636c61696d207760448201526a1a5d1a081d1a1a5cc8125160aa1b60648201526084016104c0565b60005b60008381526004602090815260408083205483526005909152902080548491908390811061085257610852612486565b906000526020600020015414610874578061086c816124b2565b915050610822565b600083815260046020908152604080832054835260059091529020805461089d906001906124e7565b815481106108ad576108ad612486565b6000918252602080832090910154858352600482526040808420548452600590925291208054839081106108e3576108e3612486565b6000918252602080832090910192909255848152600482526040808220548252600590925220805480610918576109186124fe565b60008281526020808220830160001990810183905590920190925584825260049081905260409182902060028101548154600183015494516001600160a01b0390921694909388937f3cf57863a89432c61c4a27073c6ee39e8a764bff5a05aebfbcdcdc80b2e6130a9361099b93926003830192908101916005909101906125ee565b60405180910390a46000838152600460205260408120818155600181018290556002810180546001600160a01b0319169055906109db6003830182611d69565b6109e9600483016000611d69565b6109f7600583016000611d69565b506001949350505050565b60065460009060ff610100909104161515600114610a325760405162461bcd60e51b81526004016104c0906123e3565b6000838152600160205260409020600201548314610a9c5760405162461bcd60e51b815260206004820152602160248201527f4e6f6e4578697374696e673a204b65792069736e2774207265676973746572656044820152601960fa1b60648201526084016104c0565b333014610ad35760408051336020820152610ab791016104e0565b610ad35760405162461bcd60e51b81526004016104c090612436565b600083815260016020526040902054610afe5760405162461bcd60e51b81526004016104c09061262d565b60005b6000848152600160205260409020805484919083908110610b2457610b24612486565b906000526020600020015414610b595780610b3e816124b2565b60008681526001602052604090205490925082109050610b01575b6000848152600160205260409020548110610b865760405162461bcd60e51b81526004016104c09061262d565b600084815260016020819052604090912080549091610ba4916124e7565b81548110610bb457610bb4612486565b9060005260206000200154600160008681526020019081526020016000206000018281548110610be657610be6612486565b6000918252602080832090910192909255858152600190915260409020805480610c1257610c126124fe565b6001900381819060005260206000200160009055905560005b6000848152600260205260409020805486919083908110610c4e57610c4e612486565b906000526020600020015414610c705780610c68816124b2565b915050610c2b565b60008481526002602052604090208054610c8c906001906124e7565b81548110610c9c57610c9c612486565b9060005260206000200154600260008681526020019081526020016000208281548110610ccb57610ccb612486565b906000526020600020018190555060026000858152602001908152602001600020805480610cfb57610cfb6124fe565b60008281526020808220830160001990810183905590920190925586825260019081905260408220908101549054909103610d5a57600086815260016020526040812090610d498282611da3565b506000600182018190556002909101555b8085877f585a4aef50f8267a92b32412b331b20f7f8b96f2245b253b9cc50dcc621d339760405160405180910390a4600193505050505b92915050565b60065460009060ff610100909104161515600114610dc75760405162461bcd60e51b81526004016104c0906123e3565b60008080606080333014610e055760408051336020820152610de991016104e0565b610e055760405162461bcd60e51b81526004016104c090612436565b60405163c9100bcb60e01b8152600481018990526001600160a01b0388169063c9100bcb90602401600060405180830381865afa158015610e4a573d6000803e3d6000fd5b505050506040513d6000823e601f3d908101601f19168201604052610e7291908101906126c7565b5060405194995092975090955093509150600190600790610e949085906124cb565b908152604051908190036020019020805491151560ff1990921691909117905550600194505050505092915050565b60065460009060ff610100909104161515600114610ef35760405162461bcd60e51b81526004016104c0906123e3565b60408051336020820152610f2091015b604051602081830303815290604052805190602001206002611a57565b610f6c5760405162461bcd60e51b815260206004820152601f60248201527f53656e64657220646f6573206e6f74206861766520616374696f6e206b65790060448201526064016104c0565b827fb3932da477fe5d6c8ff2eafef050c0f3a1af18fc07121001482600f36f3715d883604051610fa0911515815260200190565b60405180910390a2811515600103611144576000838152600360208181526040808420928301805460ff1916600190811790915583549084015491516001600160a01b03909116949193610ffb93600290910192910161277c565b60408051601f1981840301815290829052611015916124cb565b60006040518083038185875af1925050503d8060008114611052576040519150601f19603f3d011682016040523d82523d6000602084013e611057565b606091505b509091505080156110dc57600083815260036020819052604091829020908101805461ff00191661010017905560018101548154925190926001600160a01b03169186917f1f920dbda597d7bf95035464170fa58d0a4b57f13a1c315ace6793b9f63688b8916110cc916002909101906127a1565b60405180910390a4506001610d91565b6000838152600360205260409081902060018101548154925190926001600160a01b03169186917fe10c49d9f7c71da23262367013434763cfdb2332267641728d25cd712c5c6a6891611134916002909101906127a1565b60405180910390a4506000610d91565b5050600090815260036020819052604090912001805460ff19169055600190565b6000818152600560209081526040918290208054835181840281018401909452808452606093928301828280156111bb57602002820191906000526020600020905b8154815260200190600101908083116111a7575b50505050509050919050565b6000818152600260209081526040918290208054835181840281018401909452808452606093928301828280156111bb57602002820191906000526020600020908154815260200190600101908083116111a75750505050509050919050565b60065460009060ff6101009091041615156001146112575760405162461bcd60e51b81526004016104c0906123e3565b604080516001600160a01b0387166020808301919091528183018a90528251808303840181526060909201909252805191012030331461130c57604080513360208201526112a59101610731565b61130c5760405162461bcd60e51b815260206004820152603260248201527f5065726d697373696f6e733a2053656e64657220646f6573206e6f74206861766044820152716520636c61696d207369676e6572206b657960701b60648201526084016104c0565b6000818152600460205260409020600201546001600160a01b03878116911614611430576000888152600560209081526040808320805460018082018355918552838520018590558484526004835292208a81559182018990556002820180546001600160a01b0319166001600160a01b038a1617905586516113959260030191880190611dc1565b50600081815260046020818152604090922086516113bb93919092019190870190611dc1565b50600081815260046020908152604090912084516113e192600590920191860190611dc1565b50856001600160a01b031688827f46149b18aa084502c3f12bc75e19eda8bda8d102b82cce8474677a6d0d5f43c58a89898960405161142394939291906127b4565b60405180910390a4611513565b6000818152600460209081526040909120898155600181018990556002810180546001600160a01b0319166001600160a01b038a16179055865161147c92600390920191880190611dc1565b50600081815260046020818152604090922086516114a293919092019190870190611dc1565b50600081815260046020908152604090912084516114c892600590920191860190611dc1565b50856001600160a01b031688827f3bab293fc00db832d7619a9299914251b8747c036867ec056cbd506f60135b138a89898960405161150a94939291906127b4565b60405180910390a45b979650505050505050565b60065460009060ff61010090910416151560011461154e5760405162461bcd60e51b81526004016104c0906123e3565b6000805481526003602081905260409091200154610100900460ff16156115aa5760405162461bcd60e51b815260206004820152601060248201526f105b1c9958591e48195e1958dd5d195960821b60448201526064016104c0565b60008054815260036020908152604080832080546001600160a01b0319166001600160a01b038916179055825483528083206001018690558254835290912083516115fd92600290920191850190611dc1565b5082846001600160a01b03166000547f8afcfabcb00e47a53a8fc3e9f23ff47ee1926194bb1350dd007c50b412a6cee88560405161163b91906120ae565b60405180910390a4604080513360208201526116579101610f03565b1561166b576116696000546001610ec3565b505b60008054908061167a836124b2565b9190505550600160005461168e91906124e7565b949350505050565b6000808585846040516020016116ae939291906127f3565b60405160208183030381529060405280519060200120905060008160405160200161170591907f19457468657265756d205369676e6564204d6573736167653a0a3332000000008152601c810191909152603c0190565b60405160208183030381529060405280519060200120905060006117298683611799565b604080516001600160a01b038316602082015291925060009101604051602081830303815290604052805190602001209050611766816003611a57565b80156117785750611776876106b0565b155b1561178a57600194505050505061168e565b50600098975050505050505050565b60008060008085516041146117b45760009350505050610d91565b50505060208301516040840151606085015160001a601b8110156117e0576117dd601b82612823565b90505b6040805160008082526020820180845288905260ff841692820192909252606081018590526080810184905260019060a0016020604051602081039080840390855afa158015611834573d6000803e3d6000fd5b5050604051601f19015198975050505050505050565b61185381611bb8565b50565b600081815260046020819052604082208054600182015460028301546003840180548796879660609687968796919590946001600160a01b039092169390929081019160059091019083906118aa90612514565b80601f01602080910402602001604051908101604052809291908181526020018280546118d690612514565b80156119235780601f106118f857610100808354040283529160200191611923565b820191906000526020600020905b81548152906001019060200180831161190657829003601f168201915b5050505050925081805461193690612514565b80601f016020809104026020016040519081016040528092919081815260200182805461196290612514565b80156119af5780601f10611984576101008083540402835291602001916119af565b820191906000526020600020905b81548152906001019060200180831161199257829003601f168201915b505050505091508080546119c290612514565b80601f01602080910402602001604051908101604052809291908181526020018280546119ee90612514565b8015611a3b5780601f10611a1057610100808354040283529160200191611a3b565b820191906000526020600020905b815481529060010190602001808311611a1e57829003601f168201915b5050505050905095509550955095509550955091939550919395565b60008281526001602090815260408083208151815460809481028201850190935260608101838152859491938492849190840182828015611ab757602002820191906000526020600020905b815481526020019060010190808311611aa3575b505050918352505060018201546020820152600290910154604091820152810151909150600003611aec576000915050610d91565b60005b815151811015611b4d57600082600001518281518110611b1157611b11612486565b602002602001015190508060011480611b2957508481145b15611b3a5760019350505050610d91565b5080611b45816124b2565b915050611aef565b506000949350505050565b6000818152600160209081526040918290208054835181840281018401909452808452606093928301828280156111bb57602002820191906000526020600020908154815260200190600101908083116111a75750505050509050919050565b60065460ff161580611bc95750303b155b611c155760405162461bcd60e51b815260206004820152601e60248201527f496e697469616c206b65792077617320616c72656164792073657475702e000060448201526064016104c0565b6006805461ffff1916610101179055604080516001600160a01b03831660208201526000910160408051601f198184030181528282528051602091820120600081815260018084528482206002810184905586850190955280865290829052918290529350611c849290611e34565b506000818152600160208181526040808420830183905560029091527fe90b7bceb6e7df5418fb78d8ee546e97c83a08bbccc01a0644d599ccd2a7c2e0805480840182559084527f7fef4bf8f63cf9dd467136c679c02b5c17fcf6322d9562512bf5eb952cf7cc5301849055519091829184917f480000bb1edad8ca1470381cc334b1917fbd51c6531f3a623ea8e0ec7e38a6e991a45050565b828054828255906000526020600020908101928215611d59579160200282015b82811115611d59578251825591602001919060010190611d3e565b50611d65929150611e74565b5090565b508054611d7590612514565b6000825580601f10611d85575050565b601f0160209004906000526020600020908101906118539190611e74565b50805460008255906000526020600020908101906118539190611e74565b828054611dcd90612514565b90600052602060002090601f016020900481019282611def5760008555611d59565b82601f10611e0857805160ff1916838001178555611d59565b82800160010185558215611d595791820182811115611d59578251825591602001919060010190611d3e565b828054828255906000526020600020908101928215611d59579160200282015b82811115611d59578251829060ff16905591602001919060010190611e54565b5b80821115611d655760008155600101611e75565b600060208284031215611e9b57600080fd5b5035919050565b600081518084526020808501945080840160005b83811015611ed257815187529582019590820190600101611eb6565b509495945050505050565b606081526000611ef06060830186611ea2565b60208301949094525060400152919050565b600080600060608486031215611f1757600080fd5b505081359360208301359350604090920135919050565b634e487b7160e01b600052604160045260246000fd5b604051601f8201601f1916810167ffffffffffffffff81118282101715611f6d57611f6d611f2e565b604052919050565b600067ffffffffffffffff821115611f8f57611f8f611f2e565b50601f01601f191660200190565b6000611fb0611fab84611f75565b611f44565b9050828152838383011115611fc457600080fd5b828260208301376000602084830101529392505050565b600082601f830112611fec57600080fd5b6106a983833560208501611f9d565b60006020828403121561200d57600080fd5b813567ffffffffffffffff81111561202457600080fd5b61168e84828501611fdb565b6000806040838503121561204357600080fd5b50508035926020909101359150565b60005b8381101561206d578181015183820152602001612055565b8381111561207c576000848401525b50505050565b6000815180845261209a816020860160208601612052565b601f01601f19169290920160200192915050565b6020815260006106a96020830184612082565b6001600160a01b038116811461185357600080fd5b600080604083850312156120e957600080fd5b8235915060208301356120fb816120c1565b809150509250929050565b6000806040838503121561211957600080fd5b82359150602083013580151581146120fb57600080fd5b6020808252825182820181905260009190848201906040850190845b818110156121685783518352928401929184019160010161214c565b50909695505050505050565b60008060008060008060c0878903121561218d57600080fd5b863595506020870135945060408701356121a6816120c1565b9350606087013567ffffffffffffffff808211156121c357600080fd5b6121cf8a838b01611fdb565b945060808901359150808211156121e557600080fd5b6121f18a838b01611fdb565b935060a089013591508082111561220757600080fd5b508701601f8101891361221957600080fd5b61222889823560208401611f9d565b9150509295509295509295565b60008060006060848603121561224a57600080fd5b8335612255816120c1565b925060208401359150604084013567ffffffffffffffff81111561227857600080fd5b61228486828701611fdb565b9150509250925092565b600080600080608085870312156122a457600080fd5b84356122af816120c1565b935060208501359250604085013567ffffffffffffffff808211156122d357600080fd5b6122df88838901611fdb565b935060608701359150808211156122f557600080fd5b5061230287828801611fdb565b91505092959194509250565b6000806040838503121561232157600080fd5b823567ffffffffffffffff81111561233857600080fd5b61234485828601611fdb565b95602094909401359450505050565b60006020828403121561236557600080fd5b81356106a9816120c1565b86815285602082015260018060a01b038516604082015260c06060820152600061239d60c0830186612082565b82810360808401526123af8186612082565b905082810360a08401526123c38185612082565b9998505050505050505050565b6020815260006106a96020830184611ea2565b60208082526033908201527f496e746572616374696e67207769746820746865206c69627261727920636f6e6040820152723a3930b1ba1034b9903337b93134b23232b71760691b606082015260800190565b60208082526030908201527f5065726d697373696f6e733a2053656e64657220646f6573206e6f742068617660408201526f65206d616e6167656d656e74206b657960801b606082015260800190565b634e487b7160e01b600052603260045260246000fd5b634e487b7160e01b600052601160045260246000fd5b6000600182016124c4576124c461249c565b5060010190565b600082516124dd818460208701612052565b9190910192915050565b6000828210156124f9576124f961249c565b500390565b634e487b7160e01b600052603160045260246000fd5b600181811c9082168061252857607f821691505b60208210810361254857634e487b7160e01b600052602260045260246000fd5b50919050565b8054600090600181811c908083168061256857607f831692505b6020808410820361258957634e487b7160e01b600052602260045260246000fd5b8388528180156125a057600181146125b4576125e2565b60ff198616898301526040890196506125e2565b876000528160002060005b868110156125da5781548b82018501529085019083016125bf565b8a0183019750505b50505050505092915050565b848152608060208201526000612607608083018661254e565b8281036040840152612619818661254e565b90508281036060840152611513818561254e565b6020808252602a908201527f4e6f6e4578697374696e673a204b657920646f65736e27742068617665207375604082015269636820707572706f736560b01b606082015260800190565b6000612685611fab84611f75565b905082815283838301111561269957600080fd5b6106a9836020830184612052565b600082601f8301126126b857600080fd5b6106a983835160208501612677565b60008060008060008060c087890312156126e057600080fd5b865195506020870151945060408701516126f9816120c1565b606088015190945067ffffffffffffffff8082111561271757600080fd5b6127238a838b016126a7565b9450608089015191508082111561273957600080fd5b6127458a838b016126a7565b935060a089015191508082111561275b57600080fd5b508701601f8101891361276d57600080fd5b61222889825160208401612677565b60408152600061278f604083018561254e565b905060ff831660208301529392505050565b6020815260006106a9602083018461254e565b8481526080602082015260006127cd6080830186612082565b82810360408401526127df8186612082565b905082810360608401526115138185612082565b60018060a01b038416815282602082015260606040820152600061281a6060830184612082565b95945050505050565b600060ff821660ff84168060ff038211156128405761284061249c565b01939250505056fea2646970667358221220aff4621aecaa81082f39f7c76315059d017e444f428fdc8d7496351e5b1830ec64736f6c634300080e0033",
    "linkReferences": {}
  },
  "methodIdentifiers": {
    "addClaim(uint256,uint256,address,bytes,bytes,string)": "b1a34e0d",
    "addKey(bytes32,uint256,uint256)": "1d381240",
    "approve(uint256,bool)": "747442d3",
    "execute(address,uint256,bytes)": "b61d27f6",
    "getClaim(bytes32)": "c9100bcb",
    "getClaimIdsByTopic(uint256)": "80e9e9e1",
    "getKey(bytes32)": "12aaac70",
    "getKeyPurposes(bytes32)": "fb307b34",
    "getKeysByPurpose(uint256)": "9010f726",
    "getRecoveredAddress(bytes,bytes32)": "c3b129e3",
    "initialize(address)": "c4d66de8",
    "isClaimRevoked(bytes)": "2646b264",
    "isClaimValid(address,uint256,bytes,bytes)": "c0969a6e",
    "keyHasPurpose(bytes32,uint256)": "d202158d",
    "removeClaim(bytes32)": "4eee424a",
    "removeKey(bytes32,uint256)": "53d413c5",
    "revokeClaim(bytes32,address)": "73c33708",
    "revokedClaims(bytes)": "d2345249",
    "version()": "54fd4d50"
  },
  "id": 7
}