{
  "abi": [
    {
      "anonymous": false,
      "inputs": [
        {
          "indexed": true,
          "internalType": "contract IClaimIssuer",
          "name": "trustedIssuer",
          "type": "address"
        },
        {
          "indexed": false,
          "internalType": "uint256[]",
          "name": "claimTopics",
          "type": "uint256[]"
        }
      ],
      "name": "ClaimTopicsUpdated",
      "type": "event"
    },
    {
      "anonymous": false,
      "inputs": [
        {
          "indexed": true,
          "internalType": "address",
          "name": "previousOwner",
          "type": "address"
        },
        {
          "indexed": true,
          "internalType": "address",
          "name": "newOwner",
          "type": "address"
        }
      ],
      "name": "OwnershipTransferred",
      "type": "event"
    },
    {
      "anonymous": false,
      "inputs": [
        {
          "indexed": true,
          "internalType": "contract IClaimIssuer",
          "name": "trustedIssuer",
          "type": "address"
        },
        {
          "indexed": false,
          "internalType": "uint256[]",
          "name": "claimTopics",
          "type": "uint256[]"
        }
      ],
      "name": "TrustedIssuerAdded",
      "type": "event"
    },
    {
      "anonymous": false,
      "inputs": [
        {
          "indexed": true,
          "internalType": "contract IClaimIssuer",
          "name": "trustedIssuer",
          "type": "address"
        }
      ],
      "name": "TrustedIssuerRemoved",
      "type": "event"
    },
    {
      "inputs": [
        {
          "internalType": "contract IClaimIssuer",
          "name": "_trustedIssuer",
          "type": "address"
        },
        {
          "internalType": "uint256[]",
          "name": "_claimTopics",
          "type": "uint256[]"
        }
      ],
      "name": "addTrustedIssuer",
      "outputs": [],
      "stateMutability": "nonpayable",
      "type": "function"
    },
    {
      "inputs": [
        {
          "internalType": "contract IClaimIssuer",
          "name": "_trustedIssuer",
          "type": "address"
        }
      ],
      "name": "getTrustedIssuerClaimTopics",
      "outputs": [
        {
          "internalType": "uint256[]",
          "name": "",
          "type": "uint256[]"
        }
      ],
      "stateMutability": "view",
      "type": "function"
    },
    {
      "inputs": [],
      "name": "getTrustedIssuers",
      "outputs": [
        {
          "internalType": "contract IClaimIssuer[]",
          "name": "",
          "type": "address[]"
        }
      ],
      "stateMutability": "view",
      "type": "function"
    },
    {
      "inputs": [
        {
          "internalType": "address",
          "name": "_issuer",
          "type": "address"
        },
        {
          "internalType": "uint256",
          "name": "_claimTopic",
          "type": "uint256"
        }
      ],
      "name": "hasClaimTopic",
      "outputs": [
        {
          "internalType": "bool",
          "name": "",
          "type": "bool"
        }
      ],
      "stateMutability": "view",
      "type": "function"
    },
    {
      "inputs": [
        {
          "internalType": "address",
          "name": "_issuer",
          "type": "address"
        }
      ],
      "name": "isTrustedIssuer",
      "outputs": [
        {
          "internalType": "bool",
          "name": "",
          "type": "bool"
        }
      ],
      "stateMutability": "view",
      "type": "function"
    },
    {
      "inputs": [],
      "name": "owner",
      "outputs": [
        {
          "internalType": "address",
          "name": "",
          "type": "address"
        }
      ],
      "stateMutability": "view",
      "type": "function"
    },
    {
      "inputs": [
        {
          "internalType": "contract IClaimIssuer",
          "name": "_trustedIssuer",
          "type": "address"
        }
      ],
      "name": "removeTrustedIssuer",
      "outputs": [],
      "stateMutability": "nonpayable",
      "type": "function"
    },
    {
      "inputs": [],
      "name": "renounceOwnership",
      "outputs": [],
      "stateMutability": "nonpayable",
      "type": "function"
    },
    {
      "inputs": [
        {
          "internalType": "address",
          "name": "newOwner",
          "type": "address"
        }
      ],
      "name": "transferOwnership",
      "outputs": [],
      "stateMutability": "nonpayable",
      "type": "function"
    },
    {
      "inputs": [
        {
          "internalType": "address",
          "name": "_newOwner",
          "type": "address"
        }
      ],
      "name": "transferOwnershipOnIssuersRegistryContract",
      "outputs": [],
      "stateMutability": "nonpayable",
      "type": "function"
    },
    {
      "inputs": [
        {
          "internalType": "contract IClaimIssuer",
          "name": "_trustedIssuer",
          "type": "address"
        },
        {
          "internalType": "uint256[]",
          "name": "_claimTopics",
          "type": "uint256[]"
        }
      ],
      "name": "updateIssuerClaimTopics",
      "outputs": [],
      "stateMutability": "nonpayable",
      "type": "function"
    }
  ],
  "bytecode": {
    "object": "0x608060405234801561001057600080fd5b5061001a3361001f565b61006f565b600080546001600160a01b038381166001600160a01b0319831681178455604051919092169283917f8be0079c531659141344cd1fd0a4f28419497f9722a3daafe3b4186f6b6457e09190a35050565b610cc98061007e6000396000f3fe608060405234801561001057600080fd5b50600436106100a95760003560e01c8063b93d28eb11610071578063b93d28eb14610121578063c28fb27814610134578063d9dd24c514610154578063e36dce2814610169578063ef2ed1a41461017c578063f2fde38b1461018f57600080fd5b806304bc7e84146100ae57806334a89987146100c3578063715018a6146100eb5780638da5cb5b146100f35780639f63ea981461010e575b600080fd5b6100c16100bc366004610a1c565b6101a2565b005b6100d66100d1366004610aa4565b6102c5565b60405190151581526020015b60405180910390f35b6100c1610385565b6000546040516001600160a01b0390911681526020016100e2565b6100c161011c366004610a1c565b6103bb565b6100c161012f366004610ad0565b610541565b610147610142366004610ad0565b610701565b6040516100e29190610af4565b61015c6107a4565b6040516100e29190610b38565b6100c1610177366004610ad0565b610806565b6100d661018a366004610ad0565b61083c565b6100c161019d366004610ad0565b6108a9565b6000546001600160a01b031633146101d55760405162461bcd60e51b81526004016101cc90610b79565b60405180910390fd5b6001600160a01b038316600090815260026020526040812054900361020c5760405162461bcd60e51b81526004016101cc90610bae565b806102595760405162461bcd60e51b815260206004820152601c60248201527f636c61696d20746f706963732063616e6e6f7420626520656d7074790000000060448201526064016101cc565b6001600160a01b038316600090815260026020526040902061027c90838361098d565b50826001600160a01b03167fec753cfc52044f61676f18a11e500093a9f2b1cd5e4942bc476f2b0438159bcf83836040516102b8929190610be5565b60405180910390a2505050565b6001600160a01b038216600090815260026020908152604080832080548251818502810185019093528083529284929190849083018282801561032757602002820191906000526020600020905b815481526020019060010190808311610313575b5050505050905060005b82811015610377578482828151811061034c5761034c610c21565b602002602001015103610365576001935050505061037f565b8061036f81610c4d565b915050610331565b506000925050505b92915050565b6000546001600160a01b031633146103af5760405162461bcd60e51b81526004016101cc90610b79565b6103b9600061093d565b565b6000546001600160a01b031633146103e55760405162461bcd60e51b81526004016101cc90610b79565b6001600160a01b0383166000908152600260205260409020541561044b5760405162461bcd60e51b815260206004820152601d60248201527f747275737465642049737375657220616c72656164792065786973747300000060448201526064016101cc565b806104a45760405162461bcd60e51b8152602060048201526024808201527f7472757374656420636c61696d20746f706963732063616e6e6f7420626520656044820152636d70747960e01b60648201526084016101cc565b600180548082019091557fb10e2d527612073b26eecdfd717e6a320cf44b4afac2b0732d9fcbe2b7fa0cf60180546001600160a01b0319166001600160a01b038516908117909155600090815260026020526040902061050590838361098d565b50826001600160a01b03167ffedc33fd34859594822c0ff6f3f4f9fc279cc6d5cae53068f706a088e450087283836040516102b8929190610be5565b6000546001600160a01b0316331461056b5760405162461bcd60e51b81526004016101cc90610b79565b6001600160a01b03811660009081526002602052604081205490036105a25760405162461bcd60e51b81526004016101cc90610bae565b60015460005b818110156106a757826001600160a01b0316600182815481106105cd576105cd610c21565b6000918252602090912001546001600160a01b0316036106955760016105f38184610c66565b8154811061060357610603610c21565b600091825260209091200154600180546001600160a01b03909216918390811061062f5761062f610c21565b9060005260206000200160006101000a8154816001600160a01b0302191690836001600160a01b03160217905550600180548061066e5761066e610c7d565b600082815260209020810160001990810180546001600160a01b03191690550190556106a7565b8061069f81610c4d565b9150506105a8565b506001600160a01b03821660009081526002602052604081206106c9916109d8565b6040516001600160a01b038316907f2214ded40113cc3fb63fc206cafee88270b0a903dac7245d54efdde30ebb032190600090a25050565b6001600160a01b0381166000908152600260205260408120546060910361073a5760405162461bcd60e51b81526004016101cc90610bae565b6001600160a01b0382166000908152600260209081526040918290208054835181840281018401909452808452909183018282801561079857602002820191906000526020600020905b815481526020019060010190808311610784575b50505050509050919050565b606060018054806020026020016040519081016040528092919081815260200182805480156107fc57602002820191906000526020600020905b81546001600160a01b031681526001909101906020018083116107de575b5050505050905090565b6000546001600160a01b031633146108305760405162461bcd60e51b81526004016101cc90610b79565b610839816108a9565b50565b600154600090815b8181101561089f57836001600160a01b03166001828154811061086957610869610c21565b6000918252602090912001546001600160a01b03160361088d575060019392505050565b8061089781610c4d565b915050610844565b5060009392505050565b6000546001600160a01b031633146108d35760405162461bcd60e51b81526004016101cc90610b79565b6001600160a01b0381166109385760405162461bcd60e51b815260206004820152602660248201527f4f776e61626c653a206e6577206f776e657220697320746865207a65726f206160448201526564647265737360d01b60648201526084016101cc565b610839815b600080546001600160a01b038381166001600160a01b0319831681178455604051919092169283917f8be0079c531659141344cd1fd0a4f28419497f9722a3daafe3b4186f6b6457e09190a35050565b8280548282559060005260206000209081019282156109c8579160200282015b828111156109c85782358255916020019190600101906109ad565b506109d49291506109f2565b5090565b508054600082559060005260206000209081019061083991905b5b808211156109d457600081556001016109f3565b6001600160a01b038116811461083957600080fd5b600080600060408486031215610a3157600080fd5b8335610a3c81610a07565b9250602084013567ffffffffffffffff80821115610a5957600080fd5b818601915086601f830112610a6d57600080fd5b813581811115610a7c57600080fd5b8760208260051b8501011115610a9157600080fd5b6020830194508093505050509250925092565b60008060408385031215610ab757600080fd5b8235610ac281610a07565b946020939093013593505050565b600060208284031215610ae257600080fd5b8135610aed81610a07565b9392505050565b6020808252825182820181905260009190848201906040850190845b81811015610b2c57835183529284019291840191600101610b10565b50909695505050505050565b6020808252825182820181905260009190848201906040850190845b81811015610b2c5783516001600160a01b031683529284019291840191600101610b54565b6020808252818101527f4f776e61626c653a2063616c6c6572206973206e6f7420746865206f776e6572604082015260600190565b6020808252601c908201527f747275737465642049737375657220646f65736e277420657869737400000000604082015260600190565b6020808252810182905260006001600160fb1b03831115610c0557600080fd5b8260051b80856040850137600092016040019182525092915050565b634e487b7160e01b600052603260045260246000fd5b634e487b7160e01b600052601160045260246000fd5b600060018201610c5f57610c5f610c37565b5060010190565b600082821015610c7857610c78610c37565b500390565b634e487b7160e01b600052603160045260246000fdfea2646970667358221220a30fddda0efd3eb755a2550d7b43fcddac462d6f6bb1462425c7d1166967439864736f6c634300080e0033",
    "linkReferences": {}
  },
  "methodIdentifiers": {
    "addTrustedIssuer(address,uint256[])": "9f63ea98",
    "getTrustedIssuerClaimTopics(address)": "c28fb278",
    "getTrustedIssuers()": "d9dd24c5",
    "hasClaimTopic(address,uint256)": "34a89987",
    "isTrustedIssuer(address)": "ef2ed1a4",
    "owner()": "8da5cb5b",
    "removeTrustedIssuer(address)": "b93d28eb",
    "renounceOwnership()": "715018a6",
    "transferOwnership(address)": "f2fde38b",
    "transferOwnershipOnIssuersRegistryContract(address)": "e36dce28",
    "updateIssuerClaimTopics(address,uint256[])": "04bc7e84"
  },
  "id": 24
}