{
  "abi": [
    {
      "anonymous": false,
      "inputs": [
        {
          "indexed": true,
          "internalType": "address",
          "name": "_agent",
          "type": "address"
        }
      ],
      "name": "AgentAdded",
      "type": "event"
    },
    {
      "anonymous": false,
      "inputs": [
        {
          "indexed": true,
          "internalType": "address",
          "name": "_agent",
          "type": "address"
        }
      ],
      "name": "AgentRemoved",
      "type": "event"
    },
    {
      "anonymous": false,
      "inputs": [
        {
          "indexed": true,
          "internalType": "address",
          "name": "investorAddress",
          "type": "address"
        },
        {
          "indexed": true,
          "internalType": "uint16",
          "name": "country",
          "type": "uint16"
        }
      ],
      "name": "CountryModified",
      "type": "event"
    },
    {
      "anonymous": false,
      "inputs": [
        {
          "indexed": true,
          "internalType": "contract IIdentity",
          "name": "oldIdentity",
          "type": "address"
        },
        {
          "indexed": true,
          "internalType": "contract IIdentity",
          "name": "newIdentity",
          "type": "address"
        }
      ],
      "name": "IdentityModified",
      "type": "event"
    },
    {
      "anonymous": false,
      "inputs": [
        {
          "indexed": true,
          "internalType": "address",
          "name": "identityRegistry",
          "type": "address"
        }
      ],
      "name": "IdentityRegistryBound",
      "type": "event"
    },
    {
      "anonymous": false,
      "inputs": [
        {
          "indexed": true,
          "internalType": "address",
          "name": "identityRegistry",
          "type": "address"
        }
      ],
      "name": "IdentityRegistryUnbound",
      "type": "event"
    },
    {
      "anonymous": false,
      "inputs": [
        {
          "indexed": true,
          "internalType": "address",
          "name": "investorAddress",
          "type": "address"
        },
        {
          "indexed": true,
          "internalType": "contract IIdentity",
          "name": "identity",
          "type": "address"
        }
      ],
      "name": "IdentityStored",
      "type": "event"
    },
    {
      "anonymous": false,
      "inputs": [
        {
          "indexed": true,
          "internalType": "address",
          "name": "investorAddress",
          "type": "address"
        },
        {
          "indexed": true,
          "internalType": "contract IIdentity",
          "name": "identity",
          "type": "address"
        }
      ],
      "name": "IdentityUnstored",
      "type": "event"
    },
    {
      "anonymous": false,
      "inputs": [
        {
          "indexed": true,
          "internalType": "address",
          "name": "previousOwner",
          "type": "address"
        },
        {
          "indexed": true,
          "internalType": "address",
          "name": "newOwner",
          "type": "address"
        }
      ],
      "name": "OwnershipTransferred",
      "type": "event"
    },
    {
      "inputs": [
        {
          "internalType": "address",
          "name": "_agent",
          "type": "address"
        }
      ],
      "name": "addAgent",
      "outputs": [],
      "stateMutability": "nonpayable",
      "type": "function"
    },
    {
      "inputs": [
        {
          "internalType": "address",
          "name": "_userAddress",
          "type": "address"
        },
        {
          "internalType": "contract IIdentity",
          "name": "_identity",
          "type": "address"
        },
        {
          "internalType": "uint16",
          "name": "_country",
          "type": "uint16"
        }
      ],
      "name": "addIdentityToStorage",
      "outputs": [],
      "stateMutability": "nonpayable",
      "type": "function"
    },
    {
      "inputs": [
        {
          "internalType": "address",
          "name": "_identityRegistry",
          "type": "address"
        }
      ],
      "name": "bindIdentityRegistry",
      "outputs": [],
      "stateMutability": "nonpayable",
      "type": "function"
    },
    {
      "inputs": [
        {
          "internalType": "address",
          "name": "_agent",
          "type": "address"
        }
      ],
      "name": "isAgent",
      "outputs": [
        {
          "internalType": "bool",
          "name": "",
          "type": "bool"
        }
      ],
      "stateMutability": "view",
      "type": "function"
    },
    {
      "inputs": [],
      "name": "linkedIdentityRegistries",
      "outputs": [
        {
          "internalType": "address[]",
          "name": "",
          "type": "address[]"
        }
      ],
      "stateMutability": "view",
      "type": "function"
    },
    {
      "inputs": [
        {
          "internalType": "address",
          "name": "_userAddress",
          "type": "address"
        },
        {
          "internalType": "contract IIdentity",
          "name": "_identity",
          "type": "address"
        }
      ],
      "name": "modifyStoredIdentity",
      "outputs": [],
      "stateMutability": "nonpayable",
      "type": "function"
    },
    {
      "inputs": [
        {
          "internalType": "address",
          "name": "_userAddress",
          "type": "address"
        },
        {
          "internalType": "uint16",
          "name": "_country",
          "type": "uint16"
        }
      ],
      "name": "modifyStoredInvestorCountry",
      "outputs": [],
      "stateMutability": "nonpayable",
      "type": "function"
    },
    {
      "inputs": [],
      "name": "owner",
      "outputs": [
        {
          "internalType": "address",
          "name": "",
          "type": "address"
        }
      ],
      "stateMutability": "view",
      "type": "function"
    },
    {
      "inputs": [
        {
          "internalType": "address",
          "name": "_agent",
          "type": "address"
        }
      ],
      "name": "removeAgent",
      "outputs": [],
      "stateMutability": "nonpayable",
      "type": "function"
    },
    {
      "inputs": [
        {
          "internalType": "address",
          "name": "_userAddress",
          "type": "address"
        }
      ],
      "name": "removeIdentityFromStorage",
      "outputs": [],
      "stateMutability": "nonpayable",
      "type": "function"
    },
    {
      "inputs": [],
      "name": "renounceOwnership",
      "outputs": [],
      "stateMutability": "nonpayable",
      "type": "function"
    },
    {
      "inputs": [
        {
          "internalType": "address",
          "name": "_userAddress",
          "type": "address"
        }
      ],
      "name": "storedIdentity",
      "outputs": [
        {
          "internalType": "contract IIdentity",
          "name": "",
          "type": "address"
        }
      ],
      "stateMutability": "view",
      "type": "function"
    },
    {
      "inputs": [
        {
          "internalType": "address",
          "name": "_userAddress",
          "type": "address"
        }
      ],
      "name": "storedInvestorCountry",
      "outputs": [
        {
          "internalType": "uint16",
          "name": "",
          "type": "uint16"
        }
      ],
      "stateMutability": "view",
      "type": "function"
    },
    {
      "inputs": [
        {
          "internalType": "address",
          "name": "newOwner",
          "type": "address"
        }
      ],
      "name": "transferOwnership",
      "outputs": [],
      "stateMutability": "nonpayable",
      "type": "function"
    },
    {
      "inputs": [
        {
          "internalType": "address",
          "name": "_newOwner",
          "type": "address"
        }
      ],
      "name": "transferOwnershipOnIdentityRegistryStorage",
      "outputs": [],
      "stateMutability": "nonpayable",
      "type": "function"
    },
    {
      "inputs": [
        {
          "internalType": "address",
          "name": "_identityRegistry",
          "type": "address"
        }
      ],
      "name": "unbindIdentityRegistry",
      "outputs": [],
      "stateMutability": "nonpayable",
      "type": "function"
    }
  ],
  "bytecode": {
    "object": "0x608060405234801561001057600080fd5b5061001a3361001f565b61006f565b600080546001600160a01b038381166001600160a01b0319831681178455604051919092169283917f8be0079c531659141344cd1fd0a4f28419497f9722a3daafe3b4186f6b6457e09190a35050565b610fb68061007e6000396000f3fe608060405234801561001057600080fd5b50600436106101005760003560e01c806397a012f711610097578063bf9eb95911610066578063bf9eb95914610258578063cf191bcd1461026d578063e805cf8614610280578063f2fde38b1461029357600080fd5b806397a012f71461020c57806397a6278e1461021f5780639f3418d514610232578063a53410dd1461024557600080fd5b8063727e13bc116100d3578063727e13bc1461015d5780637988d3a5146101a457806384e79842146101e85780638da5cb5b146101fb57600080fd5b80631ffbb064146101055780635ccbbe491461012d578063690a49f914610142578063715018a614610155575b600080fd5b610118610113366004610cc2565b6102a6565b60405190151581526020015b60405180910390f35b61014061013b366004610cc2565b6102b9565b005b610140610150366004610cc2565b6102f8565b610140610379565b61019161016b366004610cc2565b6001600160a01b0316600090815260026020526040902054600160a01b900461ffff1690565b60405161ffff9091168152602001610124565b6101d06101b2366004610cc2565b6001600160a01b039081166000908152600260205260409020541690565b6040516001600160a01b039091168152602001610124565b6101406101f6366004610cc2565b6103af565b6000546001600160a01b03166101d0565b61014061021a366004610cc2565b61041b565b61014061022d366004610cc2565b6105b2565b610140610240366004610cfd565b61061e565b610140610253366004610d32565b6106dd565b610260610810565b6040516101249190610d79565b61014061027b366004610cc2565b610872565b61014061028e366004610dc6565b610960565b6101406102a1366004610cc2565b610a44565b60006102b3600183610adc565b92915050565b6000546001600160a01b031633146102ec5760405162461bcd60e51b81526004016102e390610dff565b60405180910390fd5b6102f581610a44565b50565b610301816103af565b6003805460018101825560009182527fc2575a0e9e593c00f959f8c92f12db2869c3395a3b0502d05e2516446f71f85b0180546001600160a01b0319166001600160a01b03841690811790915560405190917f500c250171aa20e861b680f93502547b9d436eda7d4c537fc360db6e0c6eedfb91a250565b6000546001600160a01b031633146103a35760405162461bcd60e51b81526004016102e390610dff565b6103ad6000610b5f565b565b6000546001600160a01b031633146103d95760405162461bcd60e51b81526004016102e390610dff565b6103e4600182610baf565b6040516001600160a01b038216907ff68e73cec97f2d70aa641fb26e87a4383686e2efacb648f2165aeb02ac562ec590600090a250565b60035461046a5760405162461bcd60e51b815260206004820152601f60248201527f6964656e74697479207265676973747279206973206e6f742073746f7265640060448201526064016102e3565b60035460005b8181101561057057826001600160a01b03166003828154811061049557610495610e34565b6000918252602090912001546001600160a01b03160361055e5760036104bc600184610e60565b815481106104cc576104cc610e34565b600091825260209091200154600380546001600160a01b0390921691839081106104f8576104f8610e34565b9060005260206000200160006101000a8154816001600160a01b0302191690836001600160a01b03160217905550600380548061053757610537610e77565b600082815260209020810160001990810180546001600160a01b0319169055019055610570565b8061056881610e8d565b915050610470565b5061057a826105b2565b6040516001600160a01b038316907f51f353eb5801583fdf2706e43c045b62fdf6b1566820b349390616363ecf72c990600090a25050565b6000546001600160a01b031633146105dc5760405162461bcd60e51b81526004016102e390610dff565b6105e7600182610c2b565b6040516001600160a01b038216907fed9c8ad8d5a0a66898ea49d2956929c93ae2e8bd50281b2ed897c5d1a6737e0b90600090a250565b610627336102a6565b6106435760405162461bcd60e51b81526004016102e390610ea6565b6001600160a01b038281166000908152600260205260409020541661067a5760405162461bcd60e51b81526004016102e390610ef4565b6001600160a01b038216600081815260026020526040808220805461ffff60a01b1916600160a01b61ffff87169081029190911790915590519092917f20965fcdc6eed7ae398065b40ece4e732ba667992ca819fc54e80e9f2047c4cf91a35050565b6106e6336102a6565b6107025760405162461bcd60e51b81526004016102e390610ea6565b6001600160a01b0382166107285760405162461bcd60e51b81526004016102e390610f38565b6001600160a01b0383811660009081526002602052604090205416156107ac5760405162461bcd60e51b815260206004820152603360248201527f6964656e7469747920636f6e747261637420616c7265616479206578697374736044820152722c20706c65617365207573652075706461746560681b60648201526084016102e3565b6001600160a01b0383811660008181526002602052604080822080549487166001600160b01b03199095168517600160a01b61ffff881602179055517e30dea7e9c9afaa2e3c9810f2fc9b5181f1bad74ca5a8db85f746a33585e7479190a3505050565b6060600380548060200260200160405190810160405280929190818152602001828054801561086857602002820191906000526020600020905b81546001600160a01b0316815260019091019060200180831161084a575b5050505050905090565b61087b336102a6565b6108975760405162461bcd60e51b81526004016102e390610ea6565b6001600160a01b038181166000908152600260205260409020541661090d5760405162461bcd60e51b815260206004820152602660248201527f796f7520686176656e2774207265676973746572656420616e206964656e74696044820152651d1e481e595d60d21b60648201526084016102e3565b6001600160a01b03811660008181526002602052604080822080546001600160b01b0319169055519091907fca6a4c3370b859312246e7f086284076e557997e10d856b716c23ab67067790b908390a350565b610969336102a6565b6109855760405162461bcd60e51b81526004016102e390610ea6565b6001600160a01b03828116600090815260026020526040902054166109bc5760405162461bcd60e51b81526004016102e390610ef4565b6001600160a01b0381166109e25760405162461bcd60e51b81526004016102e390610f38565b6001600160a01b0380831660009081526002602052604080822080548585166001600160a01b031982168117909255915191909316929183917f556ce885dfcea52155c773f1ed2e58781c51945c13030ab8f793c61f51d1b8089190a3505050565b6000546001600160a01b03163314610a6e5760405162461bcd60e51b81526004016102e390610dff565b6001600160a01b038116610ad35760405162461bcd60e51b815260206004820152602660248201527f4f776e61626c653a206e6577206f776e657220697320746865207a65726f206160448201526564647265737360d01b60648201526084016102e3565b6102f581610b5f565b60006001600160a01b038216610b3f5760405162461bcd60e51b815260206004820152602260248201527f526f6c65733a206163636f756e7420697320746865207a65726f206164647265604482015261737360f01b60648201526084016102e3565b506001600160a01b03166000908152602091909152604090205460ff1690565b600080546001600160a01b038381166001600160a01b0319831681178455604051919092169283917f8be0079c531659141344cd1fd0a4f28419497f9722a3daafe3b4186f6b6457e09190a35050565b610bb98282610adc565b15610c065760405162461bcd60e51b815260206004820152601f60248201527f526f6c65733a206163636f756e7420616c72656164792068617320726f6c650060448201526064016102e3565b6001600160a01b0316600090815260209190915260409020805460ff19166001179055565b610c358282610adc565b610c8b5760405162461bcd60e51b815260206004820152602160248201527f526f6c65733a206163636f756e7420646f6573206e6f74206861766520726f6c6044820152606560f81b60648201526084016102e3565b6001600160a01b0316600090815260209190915260409020805460ff19169055565b6001600160a01b03811681146102f557600080fd5b600060208284031215610cd457600080fd5b8135610cdf81610cad565b9392505050565b803561ffff81168114610cf857600080fd5b919050565b60008060408385031215610d1057600080fd5b8235610d1b81610cad565b9150610d2960208401610ce6565b90509250929050565b600080600060608486031215610d4757600080fd5b8335610d5281610cad565b92506020840135610d6281610cad565b9150610d7060408501610ce6565b90509250925092565b6020808252825182820181905260009190848201906040850190845b81811015610dba5783516001600160a01b031683529284019291840191600101610d95565b50909695505050505050565b60008060408385031215610dd957600080fd5b8235610de481610cad565b91506020830135610df481610cad565b809150509250929050565b6020808252818101527f4f776e61626c653a2063616c6c6572206973206e6f7420746865206f776e6572604082015260600190565b634e487b7160e01b600052603260045260246000fd5b634e487b7160e01b600052601160045260246000fd5b600082821015610e7257610e72610e4a565b500390565b634e487b7160e01b600052603160045260246000fd5b600060018201610e9f57610e9f610e4a565b5060010190565b6020808252602e908201527f4167656e74526f6c653a2063616c6c657220646f6573206e6f7420686176652060408201526d746865204167656e7420726f6c6560901b606082015260800190565b60208082526024908201527f74686973207573657220686173206e6f206964656e7469747920726567697374604082015263195c995960e21b606082015260800190565b60208082526028908201527f636f6e747261637420616464726573732063616e27742062652061207a65726f604082015267206164647265737360c01b60608201526080019056fea2646970667358221220f914ac2f50d976e0682c01e50c5538e95636984bb5c4b2bcc280e97041b90cbd64736f6c634300080e0033",
    "linkReferences": {}
  },
  "methodIdentifiers": {
    "addAgent(address)": "84e79842",
    "addIdentityToStorage(address,address,uint16)": "a53410dd",
    "bindIdentityRegistry(address)": "690a49f9",
    "isAgent(address)": "1ffbb064",
    "linkedIdentityRegistries()": "bf9eb959",
    "modifyStoredIdentity(address,address)": "e805cf86",
    "modifyStoredInvestorCountry(address,uint16)": "9f3418d5",
    "owner()": "8da5cb5b",
    "removeAgent(address)": "97a6278e",
    "removeIdentityFromStorage(address)": "cf191bcd",
    "renounceOwnership()": "715018a6",
    "storedIdentity(address)": "7988d3a5",
    "storedInvestorCountry(address)": "727e13bc",
    "transferOwnership(address)": "f2fde38b",
    "transferOwnershipOnIdentityRegistryStorage(address)": "5ccbbe49",
    "unbindIdentityRegistry(address)": "97a012f7"
  },
  "id": 14
}