{
  "abi": [
    {
      "anonymous": false,
      "inputs": [
        {
          "indexed": true,
          "internalType": "address",
          "name": "previousOwner",
          "type": "address"
        },
        {
          "indexed": true,
          "internalType": "address",
          "name": "newOwner",
          "type": "address"
        }
      ],
      "name": "OwnershipTransferred",
      "type": "event"
    },
    {
      "anonymous": false,
      "inputs": [
        {
          "indexed": false,
          "internalType": "address",
          "name": "_agentAddress",
          "type": "address"
        }
      ],
      "name": "TokenAgentAdded",
      "type": "event"
    },
    {
      "anonymous": false,
      "inputs": [
        {
          "indexed": false,
          "internalType": "address",
          "name": "_agentAddress",
          "type": "address"
        }
      ],
      "name": "TokenAgentRemoved",
      "type": "event"
    },
    {
      "anonymous": false,
      "inputs": [
        {
          "indexed": false,
          "internalType": "address",
          "name": "_token",
          "type": "address"
        }
      ],
      "name": "TokenBound",
      "type": "event"
    },
    {
      "anonymous": false,
      "inputs": [
        {
          "indexed": false,
          "internalType": "address",
          "name": "_token",
          "type": "address"
        }
      ],
      "name": "TokenUnbound",
      "type": "event"
    },
    {
      "inputs": [
        {
          "internalType": "address",
          "name": "_agentAddress",
          "type": "address"
        }
      ],
      "name": "addTokenAgent",
      "outputs": [],
      "stateMutability": "nonpayable",
      "type": "function"
    },
    {
      "inputs": [
        {
          "internalType": "address",
          "name": "_token",
          "type": "address"
        }
      ],
      "name": "bindToken",
      "outputs": [],
      "stateMutability": "nonpayable",
      "type": "function"
    },
    {
      "inputs": [
        {
          "internalType": "address",
          "name": "",
          "type": "address"
        },
        {
          "internalType": "address",
          "name": "",
          "type": "address"
        },
        {
          "internalType": "uint256",
          "name": "",
          "type": "uint256"
        }
      ],
      "name": "canTransfer",
      "outputs": [
        {
          "internalType": "bool",
          "name": "",
          "type": "bool"
        }
      ],
      "stateMutability": "view",
      "type": "function"
    },
    {
      "inputs": [
        {
          "internalType": "address",
          "name": "",
          "type": "address"
        },
        {
          "internalType": "uint256",
          "name": "",
          "type": "uint256"
        }
      ],
      "name": "created",
      "outputs": [],
      "stateMutability": "nonpayable",
      "type": "function"
    },
    {
      "inputs": [
        {
          "internalType": "address",
          "name": "",
          "type": "address"
        },
        {
          "internalType": "uint256",
          "name": "",
          "type": "uint256"
        }
      ],
      "name": "destroyed",
      "outputs": [],
      "stateMutability": "nonpayable",
      "type": "function"
    },
    {
      "inputs": [
        {
          "internalType": "address",
          "name": "_agentAddress",
          "type": "address"
        }
      ],
      "name": "isTokenAgent",
      "outputs": [
        {
          "internalType": "bool",
          "name": "",
          "type": "bool"
        }
      ],
      "stateMutability": "view",
      "type": "function"
    },
    {
      "inputs": [
        {
          "internalType": "address",
          "name": "_token",
          "type": "address"
        }
      ],
      "name": "isTokenBound",
      "outputs": [
        {
          "internalType": "bool",
          "name": "",
          "type": "bool"
        }
      ],
      "stateMutability": "view",
      "type": "function"
    },
    {
      "inputs": [],
      "name": "owner",
      "outputs": [
        {
          "internalType": "address",
          "name": "",
          "type": "address"
        }
      ],
      "stateMutability": "view",
      "type": "function"
    },
    {
      "inputs": [
        {
          "internalType": "address",
          "name": "_agentAddress",
          "type": "address"
        }
      ],
      "name": "removeTokenAgent",
      "outputs": [],
      "stateMutability": "nonpayable",
      "type": "function"
    },
    {
      "inputs": [],
      "name": "renounceOwnership",
      "outputs": [],
      "stateMutability": "nonpayable",
      "type": "function"
    },
    {
      "inputs": [
        {
          "internalType": "address",
          "name": "newOwner",
          "type": "address"
        }
      ],
      "name": "transferOwnership",
      "outputs": [],
      "stateMutability": "nonpayable",
      "type": "function"
    },
    {
      "inputs": [
        {
          "internalType": "address",
          "name": "newOwner",
          "type": "address"
        }
      ],
      "name": "transferOwnershipOnComplianceContract",
      "outputs": [],
      "stateMutability": "nonpayable",
      "type": "function"
    },
    {
      "inputs": [
        {
          "internalType": "address",
          "name": "",
          "type": "address"
        },
        {
          "internalType": "address",
          "name": "",
          "type": "address"
        },
        {
          "internalType": "uint256",
          "name": "",
          "type": "uint256"
        }
      ],
      "name": "transferred",
      "outputs": [],
      "stateMutability": "nonpayable",
      "type": "function"
    },
    {
      "inputs": [
        {
          "internalType": "address",
          "name": "_token",
          "type": "address"
        }
      ],
      "name": "unbindToken",
      "outputs": [],
      "stateMutability": "nonpayable",
      "type": "function"
    }
  ],
  "bytecode": {
    "object": "0x608060405234801561001057600080fd5b5061001a3361001f565b61006f565b600080546001600160a01b038381166001600160a01b0319831681178455604051919092169283917f8be0079c531659141344cd1fd0a4f28419497f9722a3daafe3b4186f6b6457e09190a35050565b6108378061007e6000396000f3fe608060405234801561001057600080fd5b50600436106100ea5760003560e01c80638d2ea7721161008c578063cdde293211610066578063cdde2932146101df578063e46638e6146101f2578063f2fde38b14610209578063ff3e69541461021c57600080fd5b80638d2ea772146101585780638da5cb5b14610198578063993e8b95146101b357600080fd5b80635f8dead3116100c85780635f8dead314610158578063715018a61461016a5780637bcf0487146101725780638baf29b41461018557600080fd5b8063346531fa146100ef5780633ff5aa021461013057806340db3b5014610145575b600080fd5b61011b6100fd366004610744565b6001600160a01b031660009081526001602052604090205460ff1690565b60405190151581526020015b60405180910390f35b61014361013e366004610744565b61022f565b005b610143610153366004610744565b610326565b610143610166366004610766565b5050565b610143610409565b610143610180366004610744565b61043f565b610143610193366004610790565b505050565b6000546040516001600160a01b039091168152602001610127565b61011b6101c1366004610744565b6001600160a01b031660009081526002602052604090205460ff1690565b6101436101ed366004610744565b610475565b61011b610200366004610790565b60019392505050565b610143610217366004610744565b610558565b61014361022a366004610744565b6105f0565b6000546001600160a01b031633146102625760405162461bcd60e51b8152600401610259906107cc565b60405180910390fd5b6001600160a01b03811660009081526002602052604090205460ff16156102cb5760405162461bcd60e51b815260206004820152601b60248201527f5468697320746f6b656e20697320616c726561647920626f756e6400000000006044820152606401610259565b6001600160a01b038116600081815260026020908152604091829020805460ff1916600117905590519182527f2de35142b19ed5a07796cf30791959c592018f70b1d2d7c460eef8ffe713692b91015b60405180910390a150565b6000546001600160a01b031633146103505760405162461bcd60e51b8152600401610259906107cc565b6001600160a01b03811660009081526002602052604090205460ff166103b85760405162461bcd60e51b815260206004820152601b60248201527f5468697320746f6b656e206973206e6f7420626f756e642079657400000000006044820152606401610259565b6001600160a01b038116600081815260026020908152604091829020805460ff1916905590519182527f28a4ca7134a3b3f9aff286e79ad3daadb4a06d1b43d037a3a98bdc074edd9b7a910161031b565b6000546001600160a01b031633146104335760405162461bcd60e51b8152600401610259906107cc565b61043d60006106d8565b565b6000546001600160a01b031633146104695760405162461bcd60e51b8152600401610259906107cc565b61047281610558565b50565b6000546001600160a01b0316331461049f5760405162461bcd60e51b8152600401610259906107cc565b6001600160a01b03811660009081526001602052604090205460ff166105075760405162461bcd60e51b815260206004820181905260248201527f54686973204167656e74206973206e6f742072656769737465726564207965746044820152606401610259565b6001600160a01b038116600081815260016020908152604091829020805460ff1916905590519182527f6a659bb87bb23efbdc295f8eed8ae8c4379bfb77660ced2ef0f3d7d26b05c6a6910161031b565b6000546001600160a01b031633146105825760405162461bcd60e51b8152600401610259906107cc565b6001600160a01b0381166105e75760405162461bcd60e51b815260206004820152602660248201527f4f776e61626c653a206e6577206f776e657220697320746865207a65726f206160448201526564647265737360d01b6064820152608401610259565b610472816106d8565b6000546001600160a01b0316331461061a5760405162461bcd60e51b8152600401610259906107cc565b6001600160a01b03811660009081526001602052604090205460ff16156106835760405162461bcd60e51b815260206004820181905260248201527f54686973204167656e7420697320616c726561647920726567697374657265646044820152606401610259565b6001600160a01b038116600081815260016020818152604092839020805460ff191690921790915590519182527fd62c45e13ac30396aceb3ad37c89bd1ba9048032fe61679000e92eb93dbfd67d910161031b565b600080546001600160a01b038381166001600160a01b0319831681178455604051919092169283917f8be0079c531659141344cd1fd0a4f28419497f9722a3daafe3b4186f6b6457e09190a35050565b80356001600160a01b038116811461073f57600080fd5b919050565b60006020828403121561075657600080fd5b61075f82610728565b9392505050565b6000806040838503121561077957600080fd5b61078283610728565b946020939093013593505050565b6000806000606084860312156107a557600080fd5b6107ae84610728565b92506107bc60208501610728565b9150604084013590509250925092565b6020808252818101527f4f776e61626c653a2063616c6c6572206973206e6f7420746865206f776e657260408201526060019056fea2646970667358221220cbe9e3a0119e58bda16876c8594e82fd2daf5d786b233b50f8998eeeb205783f64736f6c634300080e0033",
    "linkReferences": {}
  },
  "methodIdentifiers": {
    "addTokenAgent(address)": "ff3e6954",
    "bindToken(address)": "3ff5aa02",
    "canTransfer(address,address,uint256)": "e46638e6",
    "created(address,uint256)": "5f8dead3",
    "destroyed(address,uint256)": "8d2ea772",
    "isTokenAgent(address)": "346531fa",
    "isTokenBound(address)": "993e8b95",
    "owner()": "8da5cb5b",
    "removeTokenAgent(address)": "cdde2932",
    "renounceOwnership()": "715018a6",
    "transferOwnership(address)": "f2fde38b",
    "transferOwnershipOnComplianceContract(address)": "7bcf0487",
    "transferred(address,address,uint256)": "8baf29b4",
    "unbindToken(address)": "40db3b50"
  },
  "id": 19
}