{
  "abi": [
    {
      "anonymous": false,
      "inputs": [
        {
          "indexed": true,
          "internalType": "address",
          "name": "holderAddress",
          "type": "address"
        },
        {
          "indexed": true,
          "internalType": "uint16",
          "name": "country",
          "type": "uint16"
        }
      ],
      "name": "CountryUpdated",
      "type": "event"
    },
    {
      "anonymous": false,
      "inputs": [
        {
          "indexed": true,
          "internalType": "address",
          "name": "holderAddress",
          "type": "address"
        },
        {
          "indexed": true,
          "internalType": "contract IIdentity",
          "name": "identity",
          "type": "address"
        }
      ],
      "name": "IdentityRegistered",
      "type": "event"
    },
    {
      "anonymous": false,
      "inputs": [
        {
          "indexed": true,
          "internalType": "address",
          "name": "holderAddress",
          "type": "address"
        },
        {
          "indexed": true,
          "internalType": "contract IIdentity",
          "name": "identity",
          "type": "address"
        }
      ],
      "name": "IdentityRemoved",
      "type": "event"
    },
    {
      "anonymous": false,
      "inputs": [
        {
          "indexed": true,
          "internalType": "contract IIdentity",
          "name": "oldIdentity",
          "type": "address"
        },
        {
          "indexed": true,
          "internalType": "contract IIdentity",
          "name": "newIdentity",
          "type": "address"
        }
      ],
      "name": "IdentityUpdated",
      "type": "event"
    },
    {
      "inputs": [
        {
          "internalType": "address[]",
          "name": "_accounts",
          "type": "address[]"
        },
        {
          "internalType": "contract IIdentity[]",
          "name": "_identities",
          "type": "address[]"
        },
        {
          "internalType": "uint16[]",
          "name": "_countries",
          "type": "uint16[]"
        }
      ],
      "name": "batchRegisterIdentity",
      "outputs": [],
      "stateMutability": "nonpayable",
      "type": "function"
    },
    {
      "inputs": [
        {
          "internalType": "address",
          "name": "_account",
          "type": "address"
        }
      ],
      "name": "contains",
      "outputs": [
        {
          "internalType": "bool",
          "name": "",
          "type": "bool"
        }
      ],
      "stateMutability": "view",
      "type": "function"
    },
    {
      "inputs": [
        {
          "internalType": "address",
          "name": "_account",
          "type": "address"
        }
      ],
      "name": "deleteIdentity",
      "outputs": [],
      "stateMutability": "nonpayable",
      "type": "function"
    },
    {
      "inputs": [
        {
          "internalType": "address",
          "name": "_account",
          "type": "address"
        }
      ],
      "name": "identity",
      "outputs": [
        {
          "internalType": "contract IIdentity",
          "name": "",
          "type": "address"
        }
      ],
      "stateMutability": "view",
      "type": "function"
    },
    {
      "inputs": [
        {
          "internalType": "address",
          "name": "_account",
          "type": "address"
        }
      ],
      "name": "identityCountry",
      "outputs": [
        {
          "internalType": "uint16",
          "name": "",
          "type": "uint16"
        }
      ],
      "stateMutability": "view",
      "type": "function"
    },
    {
      "inputs": [
        {
          "internalType": "address",
          "name": "_account",
          "type": "address"
        },
        {
          "internalType": "contract IIdentity",
          "name": "_identity",
          "type": "address"
        },
        {
          "internalType": "uint16",
          "name": "_country",
          "type": "uint16"
        }
      ],
      "name": "registerIdentity",
      "outputs": [],
      "stateMutability": "nonpayable",
      "type": "function"
    },
    {
      "inputs": [
        {
          "internalType": "address",
          "name": "_account",
          "type": "address"
        },
        {
          "internalType": "uint16",
          "name": "_country",
          "type": "uint16"
        }
      ],
      "name": "updateCountry",
      "outputs": [],
      "stateMutability": "nonpayable",
      "type": "function"
    },
    {
      "inputs": [
        {
          "internalType": "address",
          "name": "_account",
          "type": "address"
        },
        {
          "internalType": "contract IIdentity",
          "name": "_identity",
          "type": "address"
        }
      ],
      "name": "updateIdentity",
      "outputs": [],
      "stateMutability": "nonpayable",
      "type": "function"
    }
  ],
  "bytecode": {
    "object": "0x608060405234801561001057600080fd5b50610990806100206000396000f3fe608060405234801561001057600080fd5b50600436106100885760003560e01c80638e098ca11161005b5780638e098ca1146100f0578063a8d29d1d14610103578063e7ffc16714610116578063f0eb5e541461015d57600080fd5b80633b239a7f1461008d578063454a03e0146100a25780635dbe47e8146100b5578063653dc9f1146100dd575b600080fd5b6100a061009b366004610663565b6101a1565b005b6100a06100b0366004610698565b61026c565b6100c86100c33660046106df565b61037b565b60405190151581526020015b60405180910390f35b6100a06100eb36600461074f565b6103be565b6100a06100fe3660046107e9565b61045c565b6100a06101113660046106df565b610543565b61014a6101243660046106df565b6001600160a01b0316600090815260208190526040902054600160a01b900461ffff1690565b60405161ffff90911681526020016100d4565b61018961016b3660046106df565b6001600160a01b039081166000908152602081905260409020541690565b6040516001600160a01b0390911681526020016100d4565b6001600160a01b03821633146101d25760405162461bcd60e51b81526004016101c990610822565b60405180910390fd5b6001600160a01b03828116600090815260208190526040902054166102095760405162461bcd60e51b81526004016101c990610876565b6001600160a01b038216600081815260208190526040808220805461ffff60a01b1916600160a01b61ffff87169081029190911790915590519092917f04ed3b726495c2dca1ff1215d9ca54e1a4030abb5e82b0f6ce55702416cee85391a35050565b6001600160a01b0382166102925760405162461bcd60e51b81526004016101c9906108ba565b6001600160a01b0383811660009081526020819052604090205416156103165760405162461bcd60e51b815260206004820152603360248201527f6964656e7469747920636f6e747261637420616c7265616479206578697374736044820152722c20706c65617365207573652075706461746560681b60648201526084016101c9565b6001600160a01b0383811660008181526020819052604080822080549487166001600160b01b03199095168517600160a01b61ffff881602179055517f6ae73635c50d24a45af6fbd5e016ac4bed179addbc8bf24e04ff0fcc6d33af199190a3505050565b6000806103a0836001600160a01b039081166000908152602081905260409020541690565b6001600160a01b0316036103b657506000919050565b506001919050565b60005b85811015610453576104418787838181106103de576103de610902565b90506020020160208101906103f391906106df565b86868481811061040557610405610902565b905060200201602081019061041a91906106df565b85858581811061042c5761042c610902565b90506020020160208101906100b09190610918565b8061044b81610933565b9150506103c1565b50505050505050565b6001600160a01b03821633146104845760405162461bcd60e51b81526004016101c990610822565b6001600160a01b03828116600090815260208190526040902054166104bb5760405162461bcd60e51b81526004016101c990610876565b6001600160a01b0381166104e15760405162461bcd60e51b81526004016101c9906108ba565b6001600160a01b0380831660009081526020819052604080822080548585166001600160a01b031982168117909255915191909316929183917fe98082932c8056a0f514da9104e4a66bc2cbaef102ad59d90c4b24220ebf60109190a3505050565b6001600160a01b038116331461056b5760405162461bcd60e51b81526004016101c990610822565b6001600160a01b03818116600090815260208190526040902054166105e15760405162461bcd60e51b815260206004820152602660248201527f796f7520686176656e2774207265676973746572656420616e206964656e74696044820152651d1e481e595d60d21b60648201526084016101c9565b6001600160a01b03811660008181526020819052604080822080546001600160b01b0319169055519091907f59d6590e225b81befe259af056324092801080acbb7feab310eb34678871f327908390a350565b6001600160a01b038116811461064957600080fd5b50565b803561ffff8116811461065e57600080fd5b919050565b6000806040838503121561067657600080fd5b823561068181610634565b915061068f6020840161064c565b90509250929050565b6000806000606084860312156106ad57600080fd5b83356106b881610634565b925060208401356106c881610634565b91506106d66040850161064c565b90509250925092565b6000602082840312156106f157600080fd5b81356106fc81610634565b9392505050565b60008083601f84011261071557600080fd5b50813567ffffffffffffffff81111561072d57600080fd5b6020830191508360208260051b850101111561074857600080fd5b9250929050565b6000806000806000806060878903121561076857600080fd5b863567ffffffffffffffff8082111561078057600080fd5b61078c8a838b01610703565b909850965060208901359150808211156107a557600080fd5b6107b18a838b01610703565b909650945060408901359150808211156107ca57600080fd5b506107d789828a01610703565b979a9699509497509295939492505050565b600080604083850312156107fc57600080fd5b823561080781610634565b9150602083013561081781610634565b809150509250929050565b60208082526034908201527f4f6e6c7920746865206f776e6572206f6620616e206964656e746974792063616040820152731b881b585ad94818da185b99d95cc81d1bc81a5d60621b606082015260800190565b60208082526024908201527f74686973207573657220686173206e6f206964656e7469747920726567697374604082015263195c995960e21b606082015260800190565b60208082526028908201527f636f6e747261637420616464726573732063616e27742062652061207a65726f604082015267206164647265737360c01b606082015260800190565b634e487b7160e01b600052603260045260246000fd5b60006020828403121561092a57600080fd5b6106fc8261064c565b60006001820161095357634e487b7160e01b600052601160045260246000fd5b506001019056fea2646970667358221220f872c740d72c383a11517ff0f15b392e7f04d3ab91508f01e0de05922156007c64736f6c634300080e0033",
    "linkReferences": {}
  },
  "methodIdentifiers": {
    "batchRegisterIdentity(address[],address[],uint16[])": "653dc9f1",
    "contains(address)": "5dbe47e8",
    "deleteIdentity(address)": "a8d29d1d",
    "identity(address)": "f0eb5e54",
    "identityCountry(address)": "e7ffc167",
    "registerIdentity(address,address,uint16)": "454a03e0",
    "updateCountry(address,uint16)": "3b239a7f",
    "updateIdentity(address,address)": "8e098ca1"
  },
  "id": 20
}