{
  "abi": [
    {
      "inputs": [],
      "stateMutability": "nonpayable",
      "type": "constructor"
    },
    {
      "anonymous": false,
      "inputs": [
        {
          "indexed": true,
          "internalType": "address",
          "name": "token",
          "type": "address"
        },
        {
          "indexed": false,
          "internalType": "address",
          "name": "to",
          "type": "address"
        },
        {
          "indexed": false,
          "internalType": "uint256",
          "name": "amount",
          "type": "uint256"
        }
      ],
      "name": "ERC20PaymentReleased",
      "type": "event"
    },
    {
      "anonymous": false,
      "inputs": [
        {
          "indexed": false,
          "internalType": "address",
          "name": "account",
          "type": "address"
        },
        {
          "indexed": false,
          "internalType": "uint256",
          "name": "shares",
          "type": "uint256"
        }
      ],
      "name": "PayeeAdded",
      "type": "event"
    },
    {
      "anonymous": false,
      "inputs": [
        {
          "indexed": false,
          "internalType": "address",
          "name": "from",
          "type": "address"
        },
        {
          "indexed": false,
          "internalType": "uint256",
          "name": "amount",
          "type": "uint256"
        }
      ],
      "name": "PaymentReceived",
      "type": "event"
    },
    {
      "anonymous": false,
      "inputs": [
        {
          "indexed": false,
          "internalType": "address",
          "name": "to",
          "type": "address"
        },
        {
          "indexed": false,
          "internalType": "uint256",
          "name": "amount",
          "type": "uint256"
        }
      ],
      "name": "PaymentReleased",
      "type": "event"
    },
    {
      "inputs": [
        {
          "internalType": "uint256",
          "name": "",
          "type": "uint256"
        }
      ],
      "name": "_payees",
      "outputs": [
        {
          "internalType": "address",
          "name": "",
          "type": "address"
        }
      ],
      "stateMutability": "view",
      "type": "function"
    },
    {
      "inputs": [
        {
          "internalType": "address",
          "name": "payee",
          "type": "address"
        }
      ],
      "name": "balanceOf",
      "outputs": [
        {
          "internalType": "uint256",
          "name": "",
          "type": "uint256"
        }
      ],
      "stateMutability": "view",
      "type": "function"
    },
    {
      "inputs": [
        {
          "internalType": "address",
          "name": "token",
          "type": "address"
        },
        {
          "internalType": "address",
          "name": "payee",
          "type": "address"
        }
      ],
      "name": "balanceOfTokens",
      "outputs": [
        {
          "internalType": "uint256",
          "name": "",
          "type": "uint256"
        }
      ],
      "stateMutability": "view",
      "type": "function"
    },
    {
      "inputs": [],
      "name": "getPayees",
      "outputs": [
        {
          "internalType": "address[]",
          "name": "",
          "type": "address[]"
        }
      ],
      "stateMutability": "view",
      "type": "function"
    },
    {
      "inputs": [
        {
          "internalType": "address[]",
          "name": "payees",
          "type": "address[]"
        },
        {
          "internalType": "uint256[]",
          "name": "shares_",
          "type": "uint256[]"
        }
      ],
      "name": "initialize",
      "outputs": [],
      "stateMutability": "payable",
      "type": "function"
    },
    {
      "inputs": [
        {
          "internalType": "uint256",
          "name": "index",
          "type": "uint256"
        }
      ],
      "name": "payeeIndex",
      "outputs": [
        {
          "internalType": "address",
          "name": "",
          "type": "address"
        }
      ],
      "stateMutability": "view",
      "type": "function"
    },
    {
      "inputs": [],
      "name": "payeesLength",
      "outputs": [
        {
          "internalType": "uint256",
          "name": "",
          "type": "uint256"
        }
      ],
      "stateMutability": "view",
      "type": "function"
    },
    {
      "inputs": [
        {
          "internalType": "address",
          "name": "account",
          "type": "address"
        }
      ],
      "name": "release",
      "outputs": [],
      "stateMutability": "nonpayable",
      "type": "function"
    },
    {
      "inputs": [
        {
          "internalType": "address",
          "name": "token",
          "type": "address"
        },
        {
          "internalType": "address",
          "name": "account",
          "type": "address"
        }
      ],
      "name": "releaseTokens",
      "outputs": [],
      "stateMutability": "nonpayable",
      "type": "function"
    },
    {
      "inputs": [
        {
          "internalType": "address",
          "name": "account",
          "type": "address"
        }
      ],
      "name": "released",
      "outputs": [
        {
          "internalType": "uint256",
          "name": "",
          "type": "uint256"
        }
      ],
      "stateMutability": "view",
      "type": "function"
    },
    {
      "inputs": [
        {
          "internalType": "address",
          "name": "token",
          "type": "address"
        },
        {
          "internalType": "address",
          "name": "account",
          "type": "address"
        }
      ],
      "name": "releasedTokens",
      "outputs": [
        {
          "internalType": "uint256",
          "name": "",
          "type": "uint256"
        }
      ],
      "stateMutability": "view",
      "type": "function"
    },
    {
      "inputs": [
        {
          "internalType": "address",
          "name": "account",
          "type": "address"
        }
      ],
      "name": "shares",
      "outputs": [
        {
          "internalType": "uint256",
          "name": "",
          "type": "uint256"
        }
      ],
      "stateMutability": "view",
      "type": "function"
    },
    {
      "inputs": [],
      "name": "totalReleased",
      "outputs": [
        {
          "internalType": "uint256",
          "name": "",
          "type": "uint256"
        }
      ],
      "stateMutability": "view",
      "type": "function"
    },
    {
      "inputs": [],
      "name": "totalShares",
      "outputs": [
        {
          "internalType": "uint256",
          "name": "",
          "type": "uint256"
        }
      ],
      "stateMutability": "view",
      "type": "function"
    },
    {
      "inputs": [
        {
          "internalType": "address",
          "name": "token",
          "type": "address"
        }
      ],
      "name": "totalTokensReleased",
      "outputs": [
        {
          "internalType": "uint256",
          "name": "",
          "type": "uint256"
        }
      ],
      "stateMutability": "view",
      "type": "function"
    },
    {
      "stateMutability": "payable",
      "type": "receive"
    }
  ],
  "bytecode": {
    "object": "0x608060405234801561001057600080fd5b506112cf806100206000396000f3fe6080604052600436106100ec5760003560e01c806374313b4a1161008a5780639ac14e3c116100595780639ac14e3c146102dd578063ce7c2ac2146102fd578063e33b7de314610333578063e919ecad1461034857600080fd5b806374313b4a1461023e5780637fbbe46f1461025e578063820be89e146102715780639852595c146102a757600080fd5b80633a98ef39116100c65780633a98ef39146101bf5780636625889f146101de57806370a08231146101fe57806372cd383a1461021e57600080fd5b8063191655871461013a57806327f381131461015c578063283248be1461018757600080fd5b36610135577f6ef95f06320e7a25a04a175ca677b7052bdd97131872c2192525a629f51be77033604080516001600160a01b0390921682523460208301520160405180910390a1005b600080fd5b34801561014657600080fd5b5061015a610155366004610e4f565b61035d565b005b34801561016857600080fd5b506101716104c3565b60405161017e9190610e6a565b60405180910390f35b34801561019357600080fd5b506101a76101a2366004610eb7565b610525565b6040516001600160a01b03909116815260200161017e565b3480156101cb57600080fd5b506000545b60405190815260200161017e565b3480156101ea57600080fd5b506101d06101f9366004610ed0565b61054f565b34801561020a57600080fd5b506101d0610219366004610e4f565b61057a565b34801561022a57600080fd5b506101d0610239366004610ed0565b6105f4565b34801561024a57600080fd5b5061015a610259366004610ed0565b6106d0565b61015a61026c366004610fd9565b610886565b34801561027d57600080fd5b506101d061028c366004610e4f565b6001600160a01b031660009081526005602052604090205490565b3480156102b357600080fd5b506101d06102c2366004610e4f565b6001600160a01b031660009081526003602052604090205490565b3480156102e957600080fd5b506101a76102f8366004610eb7565b6109a2565b34801561030957600080fd5b506101d0610318366004610e4f565b6001600160a01b031660009081526002602052604090205490565b34801561033f57600080fd5b506001546101d0565b34801561035457600080fd5b506004546101d0565b6001600160a01b03811660009081526002602052604090205461039b5760405162461bcd60e51b815260040161039290611099565b60405180910390fd5b60006103a660015490565b6103b090476110f5565b905060006103dd83836103d8866001600160a01b031660009081526003602052604090205490565b6109d2565b9050806000036103ff5760405162461bcd60e51b81526004016103929061110d565b6001600160a01b038316600090815260036020526040812080548392906104279084906110f5565b92505081905550806001600082825461044091906110f5565b90915550506040516001600160a01b0384169082156108fc029083906000818181858888f1935050505015801561047b573d6000803e3d6000fd5b50604080516001600160a01b0385168152602081018390527fdf20fd1e76bc69d672e4814fafb2c449bba3a5369d8359adf9e05e6fde87b056910160405180910390a1505050565b6060600480548060200260200160405190810160405280929190818152602001828054801561051b57602002820191906000526020600020905b81546001600160a01b031681526001909101906020018083116104fd575b5050505050905090565b6004818154811061053557600080fd5b6000918252602090912001546001600160a01b0316905081565b6001600160a01b03918216600090815260066020908152604080832093909416825291909152205490565b6001600160a01b0381166000908152600260205260408120546105af5760405162461bcd60e51b815260040161039290611099565b60006105ba60015490565b6105c490476110f5565b905060006105ec84836103d8876001600160a01b031660009081526003602052604090205490565b949350505050565b6001600160a01b0381166000908152600260205260408120546106295760405162461bcd60e51b815260040161039290611099565b6001600160a01b0383166000908152600560205260408120546040516370a0823160e01b81523060048201526001600160a01b038616906370a0823190602401602060405180830381865afa158015610686573d6000803e3d6000fd5b505050506040513d601f19601f820116820180604052508101906106aa9190611158565b6106b491906110f5565b905060006106c784836103d8888861054f565b95945050505050565b6001600160a01b0381166000908152600260205260409020546107055760405162461bcd60e51b815260040161039290611099565b6001600160a01b0382166000908152600560205260408120546040516370a0823160e01b81523060048201526001600160a01b038516906370a0823190602401602060405180830381865afa158015610762573d6000803e3d6000fd5b505050506040513d601f19601f820116820180604052508101906107869190611158565b61079091906110f5565b905060006107a383836103d8878761054f565b9050806000036107c55760405162461bcd60e51b81526004016103929061110d565b6001600160a01b038085166000908152600660209081526040808320938716835292905290812080548392906107fc9084906110f5565b90915550506001600160a01b038416600090815260056020526040812080548392906108299084906110f5565b9091555061083a9050848483610a17565b604080516001600160a01b038581168252602082018490528616917f3be5b7a71e84ed12875d241991c70855ac5817d847039e17a9d895c1ceb0f18a910160405180910390a250505050565b80518251146108f25760405162461bcd60e51b815260206004820152603260248201527f5061796d656e7453706c69747465723a2070617965657320616e6420736861726044820152710cae640d8cadccee8d040dad2e6dac2e8c6d60731b6064820152608401610392565b60008251116109435760405162461bcd60e51b815260206004820152601a60248201527f5061796d656e7453706c69747465723a206e6f207061796565730000000000006044820152606401610392565b60005b825181101561099d5761098b83828151811061096457610964611171565b602002602001015183838151811061097e5761097e611171565b6020026020010151610a69565b8061099581611187565b915050610946565b505050565b6000600482815481106109b7576109b7611171565b6000918252602090912001546001600160a01b031692915050565b600080546001600160a01b0385168252600260205260408220548391906109f990866111a0565b610a0391906111bf565b610a0d91906111e1565b90505b9392505050565b604080516001600160a01b038416602482015260448082018490528251808303909101815260649091019091526020810180516001600160e01b031663a9059cbb60e01b17905261099d908490610c4d565b6001600160a01b038216610ad45760405162461bcd60e51b815260206004820152602c60248201527f5061796d656e7453706c69747465723a206163636f756e74206973207468652060448201526b7a65726f206164647265737360a01b6064820152608401610392565b60008111610b245760405162461bcd60e51b815260206004820152601d60248201527f5061796d656e7453706c69747465723a207368617265732061726520300000006044820152606401610392565b6001600160a01b03821660009081526002602052604090205415610b9e5760405162461bcd60e51b815260206004820152602b60248201527f5061796d656e7453706c69747465723a206163636f756e7420616c726561647960448201526a206861732073686172657360a81b6064820152608401610392565b60048054600181019091557f8a35acfbc15ff81a39ae7d344fd709f28e8600b4aa8c65c6b64bfe7fe36bd19b0180546001600160a01b0319166001600160a01b038416908117909155600090815260026020526040812082905554610c049082906110f5565b600055604080516001600160a01b0384168152602081018390527f40c340f65e17194d14ddddb073d3c9f888e3cb52b5aae0c6c7706b4fbc905fac910160405180910390a15050565b6000610ca2826040518060400160405280602081526020017f5361666545524332303a206c6f772d6c6576656c2063616c6c206661696c6564815250856001600160a01b0316610d1f9092919063ffffffff16565b80519091501561099d5780806020019051810190610cc091906111f8565b61099d5760405162461bcd60e51b815260206004820152602a60248201527f5361666545524332303a204552433230206f7065726174696f6e20646964206e6044820152691bdd081cdd58d8d9595960b21b6064820152608401610392565b6060610a0d8484600085856001600160a01b0385163b610d815760405162461bcd60e51b815260206004820152601d60248201527f416464726573733a2063616c6c20746f206e6f6e2d636f6e74726163740000006044820152606401610392565b600080866001600160a01b03168587604051610d9d919061124a565b60006040518083038185875af1925050503d8060008114610dda576040519150601f19603f3d011682016040523d82523d6000602084013e610ddf565b606091505b5091509150610def828286610dfa565b979650505050505050565b60608315610e09575081610a10565b825115610e195782518084602001fd5b8160405162461bcd60e51b81526004016103929190611266565b80356001600160a01b0381168114610e4a57600080fd5b919050565b600060208284031215610e6157600080fd5b610a1082610e33565b6020808252825182820181905260009190848201906040850190845b81811015610eab5783516001600160a01b031683529284019291840191600101610e86565b50909695505050505050565b600060208284031215610ec957600080fd5b5035919050565b60008060408385031215610ee357600080fd5b610eec83610e33565b9150610efa60208401610e33565b90509250929050565b634e487b7160e01b600052604160045260246000fd5b604051601f8201601f1916810167ffffffffffffffff81118282101715610f4257610f42610f03565b604052919050565b600067ffffffffffffffff821115610f6457610f64610f03565b5060051b60200190565b600082601f830112610f7f57600080fd5b81356020610f94610f8f83610f4a565b610f19565b82815260059290921b84018101918181019086841115610fb357600080fd5b8286015b84811015610fce5780358352918301918301610fb7565b509695505050505050565b60008060408385031215610fec57600080fd5b823567ffffffffffffffff8082111561100457600080fd5b818501915085601f83011261101857600080fd5b81356020611028610f8f83610f4a565b82815260059290921b8401810191818101908984111561104757600080fd5b948201945b8386101561106c5761105d86610e33565b8252948201949082019061104c565b9650508601359250508082111561108257600080fd5b5061108f85828601610f6e565b9150509250929050565b60208082526026908201527f5061796d656e7453706c69747465723a206163636f756e7420686173206e6f2060408201526573686172657360d01b606082015260800190565b634e487b7160e01b600052601160045260246000fd5b60008219821115611108576111086110df565b500190565b6020808252602b908201527f5061796d656e7453706c69747465723a206163636f756e74206973206e6f742060408201526a191d59481c185e5b595b9d60aa1b606082015260800190565b60006020828403121561116a57600080fd5b5051919050565b634e487b7160e01b600052603260045260246000fd5b600060018201611199576111996110df565b5060010190565b60008160001904831182151516156111ba576111ba6110df565b500290565b6000826111dc57634e487b7160e01b600052601260045260246000fd5b500490565b6000828210156111f3576111f36110df565b500390565b60006020828403121561120a57600080fd5b81518015158114610a1057600080fd5b60005b8381101561123557818101518382015260200161121d565b83811115611244576000848401525b50505050565b6000825161125c81846020870161121a565b9190910192915050565b602081526000825180602084015261128581604085016020870161121a565b601f01601f1916919091016040019291505056fea2646970667358221220e64b57381422661e66f458a52eeb2199ba4652345eeca64441716e614c538f8f64736f6c634300080e0033",
    "linkReferences": {}
  },
  "methodIdentifiers": {
    "_payees(uint256)": "283248be",
    "balanceOf(address)": "70a08231",
    "balanceOfTokens(address,address)": "72cd383a",
    "getPayees()": "27f38113",
    "initialize(address[],uint256[])": "7fbbe46f",
    "payeeIndex(uint256)": "9ac14e3c",
    "payeesLength()": "e919ecad",
    "release(address)": "19165587",
    "releaseTokens(address,address)": "74313b4a",
    "released(address)": "9852595c",
    "releasedTokens(address,address)": "6625889f",
    "shares(address)": "ce7c2ac2",
    "totalReleased()": "e33b7de3",
    "totalShares()": "3a98ef39",
    "totalTokensReleased(address)": "820be89e"
  },
  "id": 15
}