{
  "abi": [
    {
      "inputs": [],
      "stateMutability": "nonpayable",
      "type": "constructor"
    },
    {
      "anonymous": false,
      "inputs": [
        {
          "indexed": true,
          "internalType": "address",
          "name": "token",
          "type": "address"
        },
        {
          "indexed": false,
          "internalType": "address",
          "name": "to",
          "type": "address"
        },
        {
          "indexed": false,
          "internalType": "uint256",
          "name": "amount",
          "type": "uint256"
        }
      ],
      "name": "ERC20PaymentReleased",
      "type": "event"
    },
    {
      "anonymous": false,
      "inputs": [
        {
          "indexed": false,
          "internalType": "address",
          "name": "account",
          "type": "address"
        },
        {
          "indexed": false,
          "internalType": "uint256",
          "name": "shares",
          "type": "uint256"
        }
      ],
      "name": "PayeeAdded",
      "type": "event"
    },
    {
      "anonymous": false,
      "inputs": [
        {
          "indexed": false,
          "internalType": "address",
          "name": "from",
          "type": "address"
        },
        {
          "indexed": false,
          "internalType": "uint256",
          "name": "amount",
          "type": "uint256"
        }
      ],
      "name": "PaymentReceived",
      "type": "event"
    },
    {
      "anonymous": false,
      "inputs": [
        {
          "indexed": false,
          "internalType": "address",
          "name": "to",
          "type": "address"
        },
        {
          "indexed": false,
          "internalType": "uint256",
          "name": "amount",
          "type": "uint256"
        }
      ],
      "name": "PaymentReleased",
      "type": "event"
    },
    {
      "inputs": [
        {
          "internalType": "uint256",
          "name": "",
          "type": "uint256"
        }
      ],
      "name": "_payees",
      "outputs": [
        {
          "internalType": "address",
          "name": "",
          "type": "address"
        }
      ],
      "stateMutability": "view",
      "type": "function"
    },
    {
      "inputs": [
        {
          "internalType": "address",
          "name": "payee",
          "type": "address"
        }
      ],
      "name": "balanceOf",
      "outputs": [
        {
          "internalType": "uint256",
          "name": "",
          "type": "uint256"
        }
      ],
      "stateMutability": "view",
      "type": "function"
    },
    {
      "inputs": [
        {
          "internalType": "address",
          "name": "token",
          "type": "address"
        },
        {
          "internalType": "address",
          "name": "payee",
          "type": "address"
        }
      ],
      "name": "balanceOfTokens",
      "outputs": [
        {
          "internalType": "uint256",
          "name": "",
          "type": "uint256"
        }
      ],
      "stateMutability": "view",
      "type": "function"
    },
    {
      "inputs": [],
      "name": "balances",
      "outputs": [
        {
          "internalType": "uint256[]",
          "name": "",
          "type": "uint256[]"
        }
      ],
      "stateMutability": "view",
      "type": "function"
    },
    {
      "inputs": [
        {
          "internalType": "address",
          "name": "token",
          "type": "address"
        }
      ],
      "name": "balancesTokens",
      "outputs": [
        {
          "internalType": "uint256[]",
          "name": "",
          "type": "uint256[]"
        }
      ],
      "stateMutability": "view",
      "type": "function"
    },
    {
      "inputs": [],
      "name": "getPayees",
      "outputs": [
        {
          "internalType": "address[]",
          "name": "",
          "type": "address[]"
        }
      ],
      "stateMutability": "view",
      "type": "function"
    },
    {
      "inputs": [
        {
          "internalType": "address[]",
          "name": "payees",
          "type": "address[]"
        },
        {
          "internalType": "uint256[]",
          "name": "shares_",
          "type": "uint256[]"
        }
      ],
      "name": "initialize",
      "outputs": [],
      "stateMutability": "payable",
      "type": "function"
    },
    {
      "inputs": [
        {
          "internalType": "uint256",
          "name": "index",
          "type": "uint256"
        }
      ],
      "name": "payeeIndex",
      "outputs": [
        {
          "internalType": "address",
          "name": "",
          "type": "address"
        }
      ],
      "stateMutability": "view",
      "type": "function"
    },
    {
      "inputs": [],
      "name": "payeesLength",
      "outputs": [
        {
          "internalType": "uint256",
          "name": "",
          "type": "uint256"
        }
      ],
      "stateMutability": "view",
      "type": "function"
    },
    {
      "inputs": [
        {
          "internalType": "address",
          "name": "account",
          "type": "address"
        }
      ],
      "name": "release",
      "outputs": [],
      "stateMutability": "nonpayable",
      "type": "function"
    },
    {
      "inputs": [
        {
          "internalType": "address",
          "name": "token",
          "type": "address"
        },
        {
          "internalType": "address",
          "name": "account",
          "type": "address"
        }
      ],
      "name": "releaseTokens",
      "outputs": [],
      "stateMutability": "nonpayable",
      "type": "function"
    },
    {
      "inputs": [
        {
          "internalType": "address",
          "name": "account",
          "type": "address"
        }
      ],
      "name": "released",
      "outputs": [
        {
          "internalType": "uint256",
          "name": "",
          "type": "uint256"
        }
      ],
      "stateMutability": "view",
      "type": "function"
    },
    {
      "inputs": [
        {
          "internalType": "address",
          "name": "token",
          "type": "address"
        },
        {
          "internalType": "address",
          "name": "account",
          "type": "address"
        }
      ],
      "name": "releasedTokens",
      "outputs": [
        {
          "internalType": "uint256",
          "name": "",
          "type": "uint256"
        }
      ],
      "stateMutability": "view",
      "type": "function"
    },
    {
      "inputs": [
        {
          "internalType": "address",
          "name": "account",
          "type": "address"
        }
      ],
      "name": "shares",
      "outputs": [
        {
          "internalType": "uint256",
          "name": "",
          "type": "uint256"
        }
      ],
      "stateMutability": "view",
      "type": "function"
    },
    {
      "inputs": [],
      "name": "totalReleased",
      "outputs": [
        {
          "internalType": "uint256",
          "name": "",
          "type": "uint256"
        }
      ],
      "stateMutability": "view",
      "type": "function"
    },
    {
      "inputs": [],
      "name": "totalShares",
      "outputs": [
        {
          "internalType": "uint256",
          "name": "",
          "type": "uint256"
        }
      ],
      "stateMutability": "view",
      "type": "function"
    },
    {
      "inputs": [
        {
          "internalType": "address",
          "name": "token",
          "type": "address"
        }
      ],
      "name": "totalTokensReleased",
      "outputs": [
        {
          "internalType": "uint256",
          "name": "",
          "type": "uint256"
        }
      ],
      "stateMutability": "view",
      "type": "function"
    },
    {
      "stateMutability": "payable",
      "type": "receive"
    }
  ],
  "bytecode": {
    "object": "0x608060405234801561001057600080fd5b50611453806100206000396000f3fe6080604052600436106101025760003560e01c806374313b4a116100955780639852595c116100645780639852595c146102ff5780639ac14e3c14610335578063ce7c2ac214610355578063e33b7de31461038b578063e919ecad146103a057600080fd5b806374313b4a146102815780637bb98a68146102a15780637fbbe46f146102b6578063820be89e146102c957600080fd5b80633a98ef39116100d15780633a98ef39146102025780636625889f1461022157806370a082311461024157806372cd383a1461026157600080fd5b8063191655871461015057806327f3811314610172578063283248be1461019d5780633a42d7a5146101d557600080fd5b3661014b577f6ef95f06320e7a25a04a175ca677b7052bdd97131872c2192525a629f51be77033604080516001600160a01b0390921682523460208301520160405180910390a1005b600080fd5b34801561015c57600080fd5b5061017061016b366004610f7c565b6103b5565b005b34801561017e57600080fd5b5061018761051b565b6040516101949190610f97565b60405180910390f35b3480156101a957600080fd5b506101bd6101b8366004610fe4565b61057d565b6040516001600160a01b039091168152602001610194565b3480156101e157600080fd5b506101f56101f0366004610f7c565b6105a7565b6040516101949190610ffd565b34801561020e57600080fd5b506000545b604051908152602001610194565b34801561022d57600080fd5b5061021361023c366004611035565b610671565b34801561024d57600080fd5b5061021361025c366004610f7c565b61069c565b34801561026d57600080fd5b5061021361027c366004611035565b610716565b34801561028d57600080fd5b5061017061029c366004611035565b6107f2565b3480156102ad57600080fd5b506101f56109a8565b6101706102c436600461113e565b610a70565b3480156102d557600080fd5b506102136102e4366004610f7c565b6001600160a01b031660009081526005602052604090205490565b34801561030b57600080fd5b5061021361031a366004610f7c565b6001600160a01b031660009081526003602052604090205490565b34801561034157600080fd5b506101bd610350366004610fe4565b610acf565b34801561036157600080fd5b50610213610370366004610f7c565b6001600160a01b031660009081526002602052604090205490565b34801561039757600080fd5b50600154610213565b3480156103ac57600080fd5b50600454610213565b6001600160a01b0381166000908152600260205260409020546103f35760405162461bcd60e51b81526004016103ea906111fe565b60405180910390fd5b60006103fe60015490565b610408904761125a565b905060006104358383610430866001600160a01b031660009081526003602052604090205490565b610aff565b9050806000036104575760405162461bcd60e51b81526004016103ea90611272565b6001600160a01b0383166000908152600360205260408120805483929061047f90849061125a565b925050819055508060016000828254610498919061125a565b90915550506040516001600160a01b0384169082156108fc029083906000818181858888f193505050501580156104d3573d6000803e3d6000fd5b50604080516001600160a01b0385168152602081018390527fdf20fd1e76bc69d672e4814fafb2c449bba3a5369d8359adf9e05e6fde87b056910160405180910390a1505050565b6060600480548060200260200160405190810160405280929190818152602001828054801561057357602002820191906000526020600020905b81546001600160a01b03168152600190910190602001808311610555575b5050505050905090565b6004818154811061058d57600080fd5b6000918252602090912001546001600160a01b0316905081565b60045460609060009067ffffffffffffffff8111156105c8576105c8611068565b6040519080825280602002602001820160405280156105f1578160200160208202803683370190505b50905060005b60045460ff8216101561066a576106388460048360ff168154811061061e5761061e6112bd565b6000918252602090912001546001600160a01b0316610716565b828260ff168151811061064d5761064d6112bd565b602090810291909101015280610662816112d3565b9150506105f7565b5092915050565b6001600160a01b03918216600090815260066020908152604080832093909416825291909152205490565b6001600160a01b0381166000908152600260205260408120546106d15760405162461bcd60e51b81526004016103ea906111fe565b60006106dc60015490565b6106e6904761125a565b9050600061070e8483610430876001600160a01b031660009081526003602052604090205490565b949350505050565b6001600160a01b03811660009081526002602052604081205461074b5760405162461bcd60e51b81526004016103ea906111fe565b6001600160a01b0383166000908152600560205260408120546040516370a0823160e01b81523060048201526001600160a01b038616906370a0823190602401602060405180830381865afa1580156107a8573d6000803e3d6000fd5b505050506040513d601f19601f820116820180604052508101906107cc91906112f2565b6107d6919061125a565b905060006107e984836104308888610671565b95945050505050565b6001600160a01b0381166000908152600260205260409020546108275760405162461bcd60e51b81526004016103ea906111fe565b6001600160a01b0382166000908152600560205260408120546040516370a0823160e01b81523060048201526001600160a01b038516906370a0823190602401602060405180830381865afa158015610884573d6000803e3d6000fd5b505050506040513d601f19601f820116820180604052508101906108a891906112f2565b6108b2919061125a565b905060006108c583836104308787610671565b9050806000036108e75760405162461bcd60e51b81526004016103ea90611272565b6001600160a01b0380851660009081526006602090815260408083209387168352929052908120805483929061091e90849061125a565b90915550506001600160a01b0384166000908152600560205260408120805483929061094b90849061125a565b9091555061095c9050848483610b44565b604080516001600160a01b038581168252602082018490528616917f3be5b7a71e84ed12875d241991c70855ac5817d847039e17a9d895c1ceb0f18a910160405180910390a250505050565b60045460609060009067ffffffffffffffff8111156109c9576109c9611068565b6040519080825280602002602001820160405280156109f2578160200160208202803683370190505b50905060005b60045460ff82161015610a6a57610a3860048260ff1681548110610a1e57610a1e6112bd565b6000918252602090912001546001600160a01b031661069c565b828260ff1681518110610a4d57610a4d6112bd565b602090810291909101015280610a62816112d3565b9150506109f8565b50919050565b60005b8251811015610aca57610ab8838281518110610a9157610a916112bd565b6020026020010151838381518110610aab57610aab6112bd565b6020026020010151610b96565b80610ac28161130b565b915050610a73565b505050565b600060048281548110610ae457610ae46112bd565b6000918252602090912001546001600160a01b031692915050565b600080546001600160a01b038516825260026020526040822054839190610b269086611324565b610b309190611343565b610b3a9190611365565b90505b9392505050565b604080516001600160a01b038416602482015260448082018490528251808303909101815260649091019091526020810180516001600160e01b031663a9059cbb60e01b179052610aca908490610d7a565b6001600160a01b038216610c015760405162461bcd60e51b815260206004820152602c60248201527f5061796d656e7453706c69747465723a206163636f756e74206973207468652060448201526b7a65726f206164647265737360a01b60648201526084016103ea565b60008111610c515760405162461bcd60e51b815260206004820152601d60248201527f5061796d656e7453706c69747465723a2073686172657320617265203000000060448201526064016103ea565b6001600160a01b03821660009081526002602052604090205415610ccb5760405162461bcd60e51b815260206004820152602b60248201527f5061796d656e7453706c69747465723a206163636f756e7420616c726561647960448201526a206861732073686172657360a81b60648201526084016103ea565b60048054600181019091557f8a35acfbc15ff81a39ae7d344fd709f28e8600b4aa8c65c6b64bfe7fe36bd19b0180546001600160a01b0319166001600160a01b038416908117909155600090815260026020526040812082905554610d3190829061125a565b600055604080516001600160a01b0384168152602081018390527f40c340f65e17194d14ddddb073d3c9f888e3cb52b5aae0c6c7706b4fbc905fac910160405180910390a15050565b6000610dcf826040518060400160405280602081526020017f5361666545524332303a206c6f772d6c6576656c2063616c6c206661696c6564815250856001600160a01b0316610e4c9092919063ffffffff16565b805190915015610aca5780806020019051810190610ded919061137c565b610aca5760405162461bcd60e51b815260206004820152602a60248201527f5361666545524332303a204552433230206f7065726174696f6e20646964206e6044820152691bdd081cdd58d8d9595960b21b60648201526084016103ea565b6060610b3a8484600085856001600160a01b0385163b610eae5760405162461bcd60e51b815260206004820152601d60248201527f416464726573733a2063616c6c20746f206e6f6e2d636f6e747261637400000060448201526064016103ea565b600080866001600160a01b03168587604051610eca91906113ce565b60006040518083038185875af1925050503d8060008114610f07576040519150601f19603f3d011682016040523d82523d6000602084013e610f0c565b606091505b5091509150610f1c828286610f27565b979650505050505050565b60608315610f36575081610b3d565b825115610f465782518084602001fd5b8160405162461bcd60e51b81526004016103ea91906113ea565b80356001600160a01b0381168114610f7757600080fd5b919050565b600060208284031215610f8e57600080fd5b610b3d82610f60565b6020808252825182820181905260009190848201906040850190845b81811015610fd85783516001600160a01b031683529284019291840191600101610fb3565b50909695505050505050565b600060208284031215610ff657600080fd5b5035919050565b6020808252825182820181905260009190848201906040850190845b81811015610fd857835183529284019291840191600101611019565b6000806040838503121561104857600080fd5b61105183610f60565b915061105f60208401610f60565b90509250929050565b634e487b7160e01b600052604160045260246000fd5b604051601f8201601f1916810167ffffffffffffffff811182821017156110a7576110a7611068565b604052919050565b600067ffffffffffffffff8211156110c9576110c9611068565b5060051b60200190565b600082601f8301126110e457600080fd5b813560206110f96110f4836110af565b61107e565b82815260059290921b8401810191818101908684111561111857600080fd5b8286015b84811015611133578035835291830191830161111c565b509695505050505050565b6000806040838503121561115157600080fd5b823567ffffffffffffffff8082111561116957600080fd5b818501915085601f83011261117d57600080fd5b8135602061118d6110f4836110af565b82815260059290921b840181019181810190898411156111ac57600080fd5b948201945b838610156111d1576111c286610f60565b825294820194908201906111b1565b965050860135925050808211156111e757600080fd5b506111f4858286016110d3565b9150509250929050565b60208082526026908201527f5061796d656e7453706c69747465723a206163636f756e7420686173206e6f2060408201526573686172657360d01b606082015260800190565b634e487b7160e01b600052601160045260246000fd5b6000821982111561126d5761126d611244565b500190565b6020808252602b908201527f5061796d656e7453706c69747465723a206163636f756e74206973206e6f742060408201526a191d59481c185e5b595b9d60aa1b606082015260800190565b634e487b7160e01b600052603260045260246000fd5b600060ff821660ff81036112e9576112e9611244565b60010192915050565b60006020828403121561130457600080fd5b5051919050565b60006001820161131d5761131d611244565b5060010190565b600081600019048311821515161561133e5761133e611244565b500290565b60008261136057634e487b7160e01b600052601260045260246000fd5b500490565b60008282101561137757611377611244565b500390565b60006020828403121561138e57600080fd5b81518015158114610b3d57600080fd5b60005b838110156113b95781810151838201526020016113a1565b838111156113c8576000848401525b50505050565b600082516113e081846020870161139e565b9190910192915050565b602081526000825180602084015261140981604085016020870161139e565b601f01601f1916919091016040019291505056fea264697066735822122047dfb072f6cbdd376feba7e4c0ad4ac3af8e1bf7787306a58e3d96eef8d8e75364736f6c634300080e0033",
    "linkReferences": {}
  },
  "methodIdentifiers": {
    "_payees(uint256)": "283248be",
    "balanceOf(address)": "70a08231",
    "balanceOfTokens(address,address)": "72cd383a",
    "balances()": "7bb98a68",
    "balancesTokens(address)": "3a42d7a5",
    "getPayees()": "27f38113",
    "initialize(address[],uint256[])": "7fbbe46f",
    "payeeIndex(uint256)": "9ac14e3c",
    "payeesLength()": "e919ecad",
    "release(address)": "19165587",
    "releaseTokens(address,address)": "74313b4a",
    "released(address)": "9852595c",
    "releasedTokens(address,address)": "6625889f",
    "shares(address)": "ce7c2ac2",
    "totalReleased()": "e33b7de3",
    "totalShares()": "3a98ef39",
    "totalTokensReleased(address)": "820be89e"
  },
  "id": 16
}