{
  "abi": [
    {
      "inputs": [],
      "stateMutability": "nonpayable",
      "type": "constructor"
    },
    {
      "anonymous": false,
      "inputs": [
        {
          "indexed": true,
          "internalType": "contract IERC20",
          "name": "token",
          "type": "address"
        },
        {
          "indexed": false,
          "internalType": "address",
          "name": "to",
          "type": "address"
        },
        {
          "indexed": false,
          "internalType": "uint256",
          "name": "amount",
          "type": "uint256"
        }
      ],
      "name": "ERC20PaymentReleased",
      "type": "event"
    },
    {
      "anonymous": false,
      "inputs": [
        {
          "indexed": false,
          "internalType": "address",
          "name": "account",
          "type": "address"
        },
        {
          "indexed": false,
          "internalType": "uint256",
          "name": "shares",
          "type": "uint256"
        }
      ],
      "name": "PayeeAdded",
      "type": "event"
    },
    {
      "anonymous": false,
      "inputs": [
        {
          "indexed": false,
          "internalType": "address",
          "name": "from",
          "type": "address"
        },
        {
          "indexed": false,
          "internalType": "uint256",
          "name": "amount",
          "type": "uint256"
        }
      ],
      "name": "PaymentReceived",
      "type": "event"
    },
    {
      "anonymous": false,
      "inputs": [
        {
          "indexed": false,
          "internalType": "address",
          "name": "to",
          "type": "address"
        },
        {
          "indexed": false,
          "internalType": "uint256",
          "name": "amount",
          "type": "uint256"
        }
      ],
      "name": "PaymentReleased",
      "type": "event"
    },
    {
      "inputs": [
        {
          "internalType": "address",
          "name": "payee",
          "type": "address"
        }
      ],
      "name": "balanceOf",
      "outputs": [
        {
          "internalType": "uint256",
          "name": "",
          "type": "uint256"
        }
      ],
      "stateMutability": "view",
      "type": "function"
    },
    {
      "inputs": [
        {
          "internalType": "address[]",
          "name": "payees",
          "type": "address[]"
        },
        {
          "internalType": "uint256[]",
          "name": "shares_",
          "type": "uint256[]"
        }
      ],
      "name": "initialize",
      "outputs": [],
      "stateMutability": "payable",
      "type": "function"
    },
    {
      "inputs": [
        {
          "internalType": "uint256",
          "name": "index",
          "type": "uint256"
        }
      ],
      "name": "payee",
      "outputs": [
        {
          "internalType": "address",
          "name": "",
          "type": "address"
        }
      ],
      "stateMutability": "view",
      "type": "function"
    },
    {
      "inputs": [],
      "name": "payeesCount",
      "outputs": [
        {
          "internalType": "uint256",
          "name": "",
          "type": "uint256"
        }
      ],
      "stateMutability": "view",
      "type": "function"
    },
    {
      "inputs": [
        {
          "internalType": "address payable",
          "name": "account",
          "type": "address"
        }
      ],
      "name": "release",
      "outputs": [],
      "stateMutability": "nonpayable",
      "type": "function"
    },
    {
      "inputs": [
        {
          "internalType": "contract IERC20",
          "name": "token",
          "type": "address"
        },
        {
          "internalType": "address",
          "name": "account",
          "type": "address"
        }
      ],
      "name": "release",
      "outputs": [],
      "stateMutability": "nonpayable",
      "type": "function"
    },
    {
      "inputs": [
        {
          "internalType": "contract IERC20",
          "name": "token",
          "type": "address"
        },
        {
          "internalType": "address",
          "name": "account",
          "type": "address"
        }
      ],
      "name": "released",
      "outputs": [
        {
          "internalType": "uint256",
          "name": "",
          "type": "uint256"
        }
      ],
      "stateMutability": "view",
      "type": "function"
    },
    {
      "inputs": [
        {
          "internalType": "address",
          "name": "account",
          "type": "address"
        }
      ],
      "name": "released",
      "outputs": [
        {
          "internalType": "uint256",
          "name": "",
          "type": "uint256"
        }
      ],
      "stateMutability": "view",
      "type": "function"
    },
    {
      "inputs": [
        {
          "internalType": "address",
          "name": "account",
          "type": "address"
        }
      ],
      "name": "shares",
      "outputs": [
        {
          "internalType": "uint256",
          "name": "",
          "type": "uint256"
        }
      ],
      "stateMutability": "view",
      "type": "function"
    },
    {
      "inputs": [
        {
          "internalType": "contract IERC20",
          "name": "token",
          "type": "address"
        }
      ],
      "name": "totalReleased",
      "outputs": [
        {
          "internalType": "uint256",
          "name": "",
          "type": "uint256"
        }
      ],
      "stateMutability": "view",
      "type": "function"
    },
    {
      "inputs": [],
      "name": "totalReleased",
      "outputs": [
        {
          "internalType": "uint256",
          "name": "",
          "type": "uint256"
        }
      ],
      "stateMutability": "view",
      "type": "function"
    },
    {
      "inputs": [],
      "name": "totalShares",
      "outputs": [
        {
          "internalType": "uint256",
          "name": "",
          "type": "uint256"
        }
      ],
      "stateMutability": "view",
      "type": "function"
    },
    {
      "stateMutability": "payable",
      "type": "receive"
    }
  ],
  "bytecode": {
    "object": "0x60806040523480156200001157600080fd5b5060078054806020026020016040519081016040528092919081815260200182805480156200006a57602002820191906000526020600020905b81546001600160a01b031681526001909101906020018083116200004b575b50505050506008805480602002602001604051908101604052809291908181526020018280548015620000bd57602002820191906000526020600020905b815481526020019060010190808311620000a8575b50505050508051825114620001345760405162461bcd60e51b815260206004820152603260248201527f5061796d656e7453706c69747465723a2070617965657320616e6420736861726044820152710cae640d8cadccee8d040dad2e6dac2e8c6d60731b60648201526084015b60405180910390fd5b6000825111620001875760405162461bcd60e51b815260206004820152601a60248201527f5061796d656e7453706c69747465723a206e6f2070617965657300000000000060448201526064016200012b565b60005b8251811015620001f357620001de838281518110620001ad57620001ad620003e8565b6020026020010151838381518110620001ca57620001ca620003e8565b6020026020010151620001fc60201b60201c565b80620001ea8162000414565b9150506200018a565b5050506200044b565b6001600160a01b038216620002695760405162461bcd60e51b815260206004820152602c60248201527f5061796d656e7453706c69747465723a206163636f756e74206973207468652060448201526b7a65726f206164647265737360a01b60648201526084016200012b565b60008111620002bb5760405162461bcd60e51b815260206004820152601d60248201527f5061796d656e7453706c69747465723a2073686172657320617265203000000060448201526064016200012b565b6001600160a01b03821660009081526002602052604090205415620003375760405162461bcd60e51b815260206004820152602b60248201527f5061796d656e7453706c69747465723a206163636f756e7420616c726561647960448201526a206861732073686172657360a81b60648201526084016200012b565b60048054600181019091557f8a35acfbc15ff81a39ae7d344fd709f28e8600b4aa8c65c6b64bfe7fe36bd19b0180546001600160a01b0319166001600160a01b0384169081179091556000908152600260205260408120829055546200039f90829062000430565b600055604080516001600160a01b0384168152602081018390527f40c340f65e17194d14ddddb073d3c9f888e3cb52b5aae0c6c7706b4fbc905fac910160405180910390a15050565b634e487b7160e01b600052603260045260246000fd5b634e487b7160e01b600052601160045260246000fd5b600060018201620004295762000429620003fe565b5060010190565b60008219821115620004465762000446620003fe565b500190565b611187806200045b6000396000f3fe6080604052600436106100ab5760003560e01c80638b83209b116100645780638b83209b146101d85780639852595c14610210578063b6e40d6a14610246578063ce7c2ac21461025b578063d79779b214610291578063e33b7de3146102c757600080fd5b806319165587146100f95780633a98ef391461011b578063406072a91461013f57806348b750441461018557806370a08231146101a55780637fbbe46f146101c557600080fd5b366100f4577f6ef95f06320e7a25a04a175ca677b7052bdd97131872c2192525a629f51be77033604080516001600160a01b0390921682523460208301520160405180910390a1005b600080fd5b34801561010557600080fd5b50610119610114366004610d4a565b6102dc565b005b34801561012757600080fd5b506000545b6040519081526020015b60405180910390f35b34801561014b57600080fd5b5061012c61015a366004610d67565b6001600160a01b03918216600090815260066020908152604080832093909416825291909152205490565b34801561019157600080fd5b506101196101a0366004610d67565b610416565b3480156101b157600080fd5b5061012c6101c0366004610d4a565b6105f2565b6101196101d3366004610e76565b61066c565b3480156101e457600080fd5b506101f86101f3366004610f38565b610788565b6040516001600160a01b039091168152602001610136565b34801561021c57600080fd5b5061012c61022b366004610d4a565b6001600160a01b031660009081526003602052604090205490565b34801561025257600080fd5b5060045461012c565b34801561026757600080fd5b5061012c610276366004610d4a565b6001600160a01b031660009081526002602052604090205490565b34801561029d57600080fd5b5061012c6102ac366004610d4a565b6001600160a01b031660009081526005602052604090205490565b3480156102d357600080fd5b5060015461012c565b6001600160a01b03811660009081526002602052604090205461031a5760405162461bcd60e51b815260040161031190610f51565b60405180910390fd5b600061032560015490565b61032f9047610fad565b9050600061035c8383610357866001600160a01b031660009081526003602052604090205490565b6107b8565b90508060000361037e5760405162461bcd60e51b815260040161031190610fc5565b6001600160a01b038316600090815260036020526040812080548392906103a6908490610fad565b9250508190555080600160008282546103bf9190610fad565b909155506103cf905083826107fd565b604080516001600160a01b0385168152602081018390527fdf20fd1e76bc69d672e4814fafb2c449bba3a5369d8359adf9e05e6fde87b056910160405180910390a1505050565b6001600160a01b03811660009081526002602052604090205461044b5760405162461bcd60e51b815260040161031190610f51565b6001600160a01b0382166000908152600560205260408120546040516370a0823160e01b81523060048201526001600160a01b038516906370a0823190602401602060405180830381865afa1580156104a8573d6000803e3d6000fd5b505050506040513d601f19601f820116820180604052508101906104cc9190611010565b6104d69190610fad565b9050600061050f838361035787876001600160a01b03918216600090815260066020908152604080832093909416825291909152205490565b9050806000036105315760405162461bcd60e51b815260040161031190610fc5565b6001600160a01b03808516600090815260066020908152604080832093871683529290529081208054839290610568908490610fad565b90915550506001600160a01b03841660009081526005602052604081208054839290610595908490610fad565b909155506105a69050848483610916565b604080516001600160a01b038581168252602082018490528616917f3be5b7a71e84ed12875d241991c70855ac5817d847039e17a9d895c1ceb0f18a910160405180910390a250505050565b6001600160a01b0381166000908152600260205260408120546106275760405162461bcd60e51b815260040161031190610f51565b600061063260015490565b61063c9047610fad565b905060006106648483610357876001600160a01b031660009081526003602052604090205490565b949350505050565b80518251146106d85760405162461bcd60e51b815260206004820152603260248201527f5061796d656e7453706c69747465723a2070617965657320616e6420736861726044820152710cae640d8cadccee8d040dad2e6dac2e8c6d60731b6064820152608401610311565b60008251116107295760405162461bcd60e51b815260206004820152601a60248201527f5061796d656e7453706c69747465723a206e6f207061796565730000000000006044820152606401610311565b60005b82518110156107835761077183828151811061074a5761074a611029565b602002602001015183838151811061076457610764611029565b6020026020010151610968565b8061077b8161103f565b91505061072c565b505050565b60006004828154811061079d5761079d611029565b6000918252602090912001546001600160a01b031692915050565b600080546001600160a01b0385168252600260205260408220548391906107df9086611058565b6107e99190611077565b6107f39190611099565b90505b9392505050565b8047101561084d5760405162461bcd60e51b815260206004820152601d60248201527f416464726573733a20696e73756666696369656e742062616c616e63650000006044820152606401610311565b6000826001600160a01b03168260405160006040518083038185875af1925050503d806000811461089a576040519150601f19603f3d011682016040523d82523d6000602084013e61089f565b606091505b50509050806107835760405162461bcd60e51b815260206004820152603a60248201527f416464726573733a20756e61626c6520746f2073656e642076616c75652c207260448201527f6563697069656e74206d617920686176652072657665727465640000000000006064820152608401610311565b604080516001600160a01b038416602482015260448082018490528251808303909101815260649091019091526020810180516001600160e01b031663a9059cbb60e01b179052610783908490610b4c565b6001600160a01b0382166109d35760405162461bcd60e51b815260206004820152602c60248201527f5061796d656e7453706c69747465723a206163636f756e74206973207468652060448201526b7a65726f206164647265737360a01b6064820152608401610311565b60008111610a235760405162461bcd60e51b815260206004820152601d60248201527f5061796d656e7453706c69747465723a207368617265732061726520300000006044820152606401610311565b6001600160a01b03821660009081526002602052604090205415610a9d5760405162461bcd60e51b815260206004820152602b60248201527f5061796d656e7453706c69747465723a206163636f756e7420616c726561647960448201526a206861732073686172657360a81b6064820152608401610311565b60048054600181019091557f8a35acfbc15ff81a39ae7d344fd709f28e8600b4aa8c65c6b64bfe7fe36bd19b0180546001600160a01b0319166001600160a01b038416908117909155600090815260026020526040812082905554610b03908290610fad565b600055604080516001600160a01b0384168152602081018390527f40c340f65e17194d14ddddb073d3c9f888e3cb52b5aae0c6c7706b4fbc905fac910160405180910390a15050565b6000610ba1826040518060400160405280602081526020017f5361666545524332303a206c6f772d6c6576656c2063616c6c206661696c6564815250856001600160a01b0316610c1e9092919063ffffffff16565b8051909150156107835780806020019051810190610bbf91906110b0565b6107835760405162461bcd60e51b815260206004820152602a60248201527f5361666545524332303a204552433230206f7065726174696f6e20646964206e6044820152691bdd081cdd58d8d9595960b21b6064820152608401610311565b60606107f38484600085856001600160a01b0385163b610c805760405162461bcd60e51b815260206004820152601d60248201527f416464726573733a2063616c6c20746f206e6f6e2d636f6e74726163740000006044820152606401610311565b600080866001600160a01b03168587604051610c9c9190611102565b60006040518083038185875af1925050503d8060008114610cd9576040519150601f19603f3d011682016040523d82523d6000602084013e610cde565b606091505b5091509150610cee828286610cf9565b979650505050505050565b60608315610d085750816107f6565b825115610d185782518084602001fd5b8160405162461bcd60e51b8152600401610311919061111e565b6001600160a01b0381168114610d4757600080fd5b50565b600060208284031215610d5c57600080fd5b81356107f681610d32565b60008060408385031215610d7a57600080fd5b8235610d8581610d32565b91506020830135610d9581610d32565b809150509250929050565b634e487b7160e01b600052604160045260246000fd5b604051601f8201601f1916810167ffffffffffffffff81118282101715610ddf57610ddf610da0565b604052919050565b600067ffffffffffffffff821115610e0157610e01610da0565b5060051b60200190565b600082601f830112610e1c57600080fd5b81356020610e31610e2c83610de7565b610db6565b82815260059290921b84018101918181019086841115610e5057600080fd5b8286015b84811015610e6b5780358352918301918301610e54565b509695505050505050565b60008060408385031215610e8957600080fd5b823567ffffffffffffffff80821115610ea157600080fd5b818501915085601f830112610eb557600080fd5b81356020610ec5610e2c83610de7565b82815260059290921b84018101918181019089841115610ee457600080fd5b948201945b83861015610f0b578535610efc81610d32565b82529482019490820190610ee9565b96505086013592505080821115610f2157600080fd5b50610f2e85828601610e0b565b9150509250929050565b600060208284031215610f4a57600080fd5b5035919050565b60208082526026908201527f5061796d656e7453706c69747465723a206163636f756e7420686173206e6f2060408201526573686172657360d01b606082015260800190565b634e487b7160e01b600052601160045260246000fd5b60008219821115610fc057610fc0610f97565b500190565b6020808252602b908201527f5061796d656e7453706c69747465723a206163636f756e74206973206e6f742060408201526a191d59481c185e5b595b9d60aa1b606082015260800190565b60006020828403121561102257600080fd5b5051919050565b634e487b7160e01b600052603260045260246000fd5b60006001820161105157611051610f97565b5060010190565b600081600019048311821515161561107257611072610f97565b500290565b60008261109457634e487b7160e01b600052601260045260246000fd5b500490565b6000828210156110ab576110ab610f97565b500390565b6000602082840312156110c257600080fd5b815180151581146107f657600080fd5b60005b838110156110ed5781810151838201526020016110d5565b838111156110fc576000848401525b50505050565b600082516111148184602087016110d2565b9190910192915050565b602081526000825180602084015261113d8160408501602087016110d2565b601f01601f1916919091016040019291505056fea26469706673582212208a7182d3041d3ea1ac9813b104d0b85955403b1e033c4a233ac86217b826a71064736f6c634300080e0033",
    "linkReferences": {}
  },
  "methodIdentifiers": {
    "balanceOf(address)": "70a08231",
    "initialize(address[],uint256[])": "7fbbe46f",
    "payee(uint256)": "8b83209b",
    "payeesCount()": "b6e40d6a",
    "release(address)": "19165587",
    "release(address,address)": "48b75044",
    "released(address)": "9852595c",
    "released(address,address)": "406072a9",
    "shares(address)": "ce7c2ac2",
    "totalReleased()": "e33b7de3",
    "totalReleased(address)": "d79779b2",
    "totalShares()": "3a98ef39"
  },
  "id": 17
}