{
  "abi": [
    {
      "inputs": [],
      "stateMutability": "nonpayable",
      "type": "constructor"
    },
    {
      "anonymous": false,
      "inputs": [
        {
          "indexed": true,
          "internalType": "address",
          "name": "token",
          "type": "address"
        },
        {
          "indexed": false,
          "internalType": "address",
          "name": "to",
          "type": "address"
        },
        {
          "indexed": false,
          "internalType": "uint256",
          "name": "amount",
          "type": "uint256"
        }
      ],
      "name": "ERC20PaymentReleased",
      "type": "event"
    },
    {
      "anonymous": false,
      "inputs": [
        {
          "indexed": false,
          "internalType": "address",
          "name": "account",
          "type": "address"
        },
        {
          "indexed": false,
          "internalType": "uint256",
          "name": "shares",
          "type": "uint256"
        }
      ],
      "name": "PayeeAdded",
      "type": "event"
    },
    {
      "anonymous": false,
      "inputs": [
        {
          "indexed": false,
          "internalType": "address",
          "name": "from",
          "type": "address"
        },
        {
          "indexed": false,
          "internalType": "uint256",
          "name": "amount",
          "type": "uint256"
        }
      ],
      "name": "PaymentReceived",
      "type": "event"
    },
    {
      "anonymous": false,
      "inputs": [
        {
          "indexed": false,
          "internalType": "address",
          "name": "to",
          "type": "address"
        },
        {
          "indexed": false,
          "internalType": "uint256",
          "name": "amount",
          "type": "uint256"
        }
      ],
      "name": "PaymentReleased",
      "type": "event"
    },
    {
      "inputs": [
        {
          "internalType": "uint256",
          "name": "",
          "type": "uint256"
        }
      ],
      "name": "_payees",
      "outputs": [
        {
          "internalType": "address",
          "name": "",
          "type": "address"
        }
      ],
      "stateMutability": "view",
      "type": "function"
    },
    {
      "inputs": [
        {
          "internalType": "address",
          "name": "payee",
          "type": "address"
        }
      ],
      "name": "balanceOf",
      "outputs": [
        {
          "internalType": "uint256",
          "name": "",
          "type": "uint256"
        }
      ],
      "stateMutability": "view",
      "type": "function"
    },
    {
      "inputs": [
        {
          "internalType": "address",
          "name": "token",
          "type": "address"
        },
        {
          "internalType": "address",
          "name": "payee",
          "type": "address"
        }
      ],
      "name": "balanceOfTokens",
      "outputs": [
        {
          "internalType": "uint256",
          "name": "",
          "type": "uint256"
        }
      ],
      "stateMutability": "view",
      "type": "function"
    },
    {
      "inputs": [
        {
          "internalType": "address[]",
          "name": "payees",
          "type": "address[]"
        },
        {
          "internalType": "uint256[]",
          "name": "shares_",
          "type": "uint256[]"
        }
      ],
      "name": "initialize",
      "outputs": [],
      "stateMutability": "payable",
      "type": "function"
    },
    {
      "inputs": [
        {
          "internalType": "uint256",
          "name": "index",
          "type": "uint256"
        }
      ],
      "name": "payeeIndex",
      "outputs": [
        {
          "internalType": "address",
          "name": "",
          "type": "address"
        }
      ],
      "stateMutability": "view",
      "type": "function"
    },
    {
      "inputs": [],
      "name": "payees",
      "outputs": [
        {
          "internalType": "address[]",
          "name": "",
          "type": "address[]"
        }
      ],
      "stateMutability": "view",
      "type": "function"
    },
    {
      "inputs": [],
      "name": "payeesLength",
      "outputs": [
        {
          "internalType": "uint256",
          "name": "",
          "type": "uint256"
        }
      ],
      "stateMutability": "view",
      "type": "function"
    },
    {
      "inputs": [
        {
          "internalType": "address payable",
          "name": "account",
          "type": "address"
        }
      ],
      "name": "release",
      "outputs": [],
      "stateMutability": "nonpayable",
      "type": "function"
    },
    {
      "inputs": [
        {
          "internalType": "address",
          "name": "token",
          "type": "address"
        },
        {
          "internalType": "address",
          "name": "account",
          "type": "address"
        }
      ],
      "name": "releaseTokens",
      "outputs": [],
      "stateMutability": "nonpayable",
      "type": "function"
    },
    {
      "inputs": [
        {
          "internalType": "address",
          "name": "account",
          "type": "address"
        }
      ],
      "name": "released",
      "outputs": [
        {
          "internalType": "uint256",
          "name": "",
          "type": "uint256"
        }
      ],
      "stateMutability": "view",
      "type": "function"
    },
    {
      "inputs": [
        {
          "internalType": "address",
          "name": "token",
          "type": "address"
        },
        {
          "internalType": "address",
          "name": "account",
          "type": "address"
        }
      ],
      "name": "releasedTokens",
      "outputs": [
        {
          "internalType": "uint256",
          "name": "",
          "type": "uint256"
        }
      ],
      "stateMutability": "view",
      "type": "function"
    },
    {
      "inputs": [
        {
          "internalType": "address",
          "name": "account",
          "type": "address"
        }
      ],
      "name": "shares",
      "outputs": [
        {
          "internalType": "uint256",
          "name": "",
          "type": "uint256"
        }
      ],
      "stateMutability": "view",
      "type": "function"
    },
    {
      "inputs": [],
      "name": "totalReleased",
      "outputs": [
        {
          "internalType": "uint256",
          "name": "",
          "type": "uint256"
        }
      ],
      "stateMutability": "view",
      "type": "function"
    },
    {
      "inputs": [],
      "name": "totalShares",
      "outputs": [
        {
          "internalType": "uint256",
          "name": "",
          "type": "uint256"
        }
      ],
      "stateMutability": "view",
      "type": "function"
    },
    {
      "inputs": [
        {
          "internalType": "address",
          "name": "token",
          "type": "address"
        }
      ],
      "name": "totalTokensReleased",
      "outputs": [
        {
          "internalType": "uint256",
          "name": "",
          "type": "uint256"
        }
      ],
      "stateMutability": "view",
      "type": "function"
    },
    {
      "stateMutability": "payable",
      "type": "receive"
    }
  ],
  "bytecode": {
    "object": "0x60806040523480156200001157600080fd5b5060078054806020026020016040519081016040528092919081815260200182805480156200006a57602002820191906000526020600020905b81546001600160a01b031681526001909101906020018083116200004b575b50505050506008805480602002602001604051908101604052809291908181526020018280548015620000bd57602002820191906000526020600020905b815481526020019060010190808311620000a8575b50505050508051825114620001345760405162461bcd60e51b815260206004820152603260248201527f5061796d656e7453706c69747465723a2070617965657320616e6420736861726044820152710cae640d8cadccee8d040dad2e6dac2e8c6d60731b60648201526084015b60405180910390fd5b6000825111620001875760405162461bcd60e51b815260206004820152601a60248201527f5061796d656e7453706c69747465723a206e6f2070617965657300000000000060448201526064016200012b565b60005b8251811015620001f357620001de838281518110620001ad57620001ad620003e8565b6020026020010151838381518110620001ca57620001ca620003e8565b6020026020010151620001fc60201b60201c565b80620001ea8162000414565b9150506200018a565b5050506200044b565b6001600160a01b038216620002695760405162461bcd60e51b815260206004820152602c60248201527f5061796d656e7453706c69747465723a206163636f756e74206973207468652060448201526b7a65726f206164647265737360a01b60648201526084016200012b565b60008111620002bb5760405162461bcd60e51b815260206004820152601d60248201527f5061796d656e7453706c69747465723a2073686172657320617265203000000060448201526064016200012b565b6001600160a01b03821660009081526002602052604090205415620003375760405162461bcd60e51b815260206004820152602b60248201527f5061796d656e7453706c69747465723a206163636f756e7420616c726561647960448201526a206861732073686172657360a81b60648201526084016200012b565b60048054600181019091557f8a35acfbc15ff81a39ae7d344fd709f28e8600b4aa8c65c6b64bfe7fe36bd19b0180546001600160a01b0319166001600160a01b0384169081179091556000908152600260205260408120829055546200039f90829062000430565b600055604080516001600160a01b0384168152602081018390527f40c340f65e17194d14ddddb073d3c9f888e3cb52b5aae0c6c7706b4fbc905fac910160405180910390a15050565b634e487b7160e01b600052603260045260246000fd5b634e487b7160e01b600052601160045260246000fd5b600060018201620004295762000429620003fe565b5060010190565b60008219821115620004465762000446620003fe565b500190565b6113be806200045b6000396000f3fe6080604052600436106100ec5760003560e01c806374313b4a1161008a5780639ac14e3c116100595780639ac14e3c146102d9578063ce7c2ac2146102f9578063e33b7de31461032f578063e919ecad1461034457600080fd5b806374313b4a1461023a5780637fbbe46f1461025a578063820be89e1461026d5780639852595c146102a357600080fd5b80634e8086aa116100c65780634e8086aa146101b85780636625889f146101da57806370a08231146101fa57806372cd383a1461021a57600080fd5b8063191655871461013a578063283248be1461015c5780633a98ef391461019957600080fd5b36610135577f6ef95f06320e7a25a04a175ca677b7052bdd97131872c2192525a629f51be77033604080516001600160a01b0390921682523460208301520160405180910390a1005b600080fd5b34801561014657600080fd5b5061015a610155366004610f34565b610359565b005b34801561016857600080fd5b5061017c610177366004610f51565b610493565b6040516001600160a01b0390911681526020015b60405180910390f35b3480156101a557600080fd5b506000545b604051908152602001610190565b3480156101c457600080fd5b506101cd6104bd565b6040516101909190610f6a565b3480156101e657600080fd5b506101aa6101f5366004610fb7565b61051f565b34801561020657600080fd5b506101aa610215366004610f34565b61054a565b34801561022657600080fd5b506101aa610235366004610fb7565b6105c4565b34801561024657600080fd5b5061015a610255366004610fb7565b6106a0565b61015a6102683660046110c6565b610856565b34801561027957600080fd5b506101aa610288366004610f34565b6001600160a01b031660009081526005602052604090205490565b3480156102af57600080fd5b506101aa6102be366004610f34565b6001600160a01b031660009081526003602052604090205490565b3480156102e557600080fd5b5061017c6102f4366004610f51565b610972565b34801561030557600080fd5b506101aa610314366004610f34565b6001600160a01b031660009081526002602052604090205490565b34801561033b57600080fd5b506001546101aa565b34801561035057600080fd5b506004546101aa565b6001600160a01b0381166000908152600260205260409020546103975760405162461bcd60e51b815260040161038e90611188565b60405180910390fd5b60006103a260015490565b6103ac90476111e4565b905060006103d983836103d4866001600160a01b031660009081526003602052604090205490565b6109a2565b9050806000036103fb5760405162461bcd60e51b815260040161038e906111fc565b6001600160a01b038316600090815260036020526040812080548392906104239084906111e4565b92505081905550806001600082825461043c91906111e4565b9091555061044c905083826109e7565b604080516001600160a01b0385168152602081018390527fdf20fd1e76bc69d672e4814fafb2c449bba3a5369d8359adf9e05e6fde87b056910160405180910390a1505050565b600481815481106104a357600080fd5b6000918252602090912001546001600160a01b0316905081565b6060600480548060200260200160405190810160405280929190818152602001828054801561051557602002820191906000526020600020905b81546001600160a01b031681526001909101906020018083116104f7575b5050505050905090565b6001600160a01b03918216600090815260066020908152604080832093909416825291909152205490565b6001600160a01b03811660009081526002602052604081205461057f5760405162461bcd60e51b815260040161038e90611188565b600061058a60015490565b61059490476111e4565b905060006105bc84836103d4876001600160a01b031660009081526003602052604090205490565b949350505050565b6001600160a01b0381166000908152600260205260408120546105f95760405162461bcd60e51b815260040161038e90611188565b6001600160a01b0383166000908152600560205260408120546040516370a0823160e01b81523060048201526001600160a01b038616906370a0823190602401602060405180830381865afa158015610656573d6000803e3d6000fd5b505050506040513d601f19601f8201168201806040525081019061067a9190611247565b61068491906111e4565b9050600061069784836103d4888861051f565b95945050505050565b6001600160a01b0381166000908152600260205260409020546106d55760405162461bcd60e51b815260040161038e90611188565b6001600160a01b0382166000908152600560205260408120546040516370a0823160e01b81523060048201526001600160a01b038516906370a0823190602401602060405180830381865afa158015610732573d6000803e3d6000fd5b505050506040513d601f19601f820116820180604052508101906107569190611247565b61076091906111e4565b9050600061077383836103d4878761051f565b9050806000036107955760405162461bcd60e51b815260040161038e906111fc565b6001600160a01b038085166000908152600660209081526040808320938716835292905290812080548392906107cc9084906111e4565b90915550506001600160a01b038416600090815260056020526040812080548392906107f99084906111e4565b9091555061080a9050848483610b00565b604080516001600160a01b038581168252602082018490528616917f3be5b7a71e84ed12875d241991c70855ac5817d847039e17a9d895c1ceb0f18a910160405180910390a250505050565b80518251146108c25760405162461bcd60e51b815260206004820152603260248201527f5061796d656e7453706c69747465723a2070617965657320616e6420736861726044820152710cae640d8cadccee8d040dad2e6dac2e8c6d60731b606482015260840161038e565b60008251116109135760405162461bcd60e51b815260206004820152601a60248201527f5061796d656e7453706c69747465723a206e6f20706179656573000000000000604482015260640161038e565b60005b825181101561096d5761095b83828151811061093457610934611260565b602002602001015183838151811061094e5761094e611260565b6020026020010151610b52565b8061096581611276565b915050610916565b505050565b60006004828154811061098757610987611260565b6000918252602090912001546001600160a01b031692915050565b600080546001600160a01b0385168252600260205260408220548391906109c9908661128f565b6109d391906112ae565b6109dd91906112d0565b90505b9392505050565b80471015610a375760405162461bcd60e51b815260206004820152601d60248201527f416464726573733a20696e73756666696369656e742062616c616e6365000000604482015260640161038e565b6000826001600160a01b03168260405160006040518083038185875af1925050503d8060008114610a84576040519150601f19603f3d011682016040523d82523d6000602084013e610a89565b606091505b505090508061096d5760405162461bcd60e51b815260206004820152603a60248201527f416464726573733a20756e61626c6520746f2073656e642076616c75652c207260448201527f6563697069656e74206d61792068617665207265766572746564000000000000606482015260840161038e565b604080516001600160a01b038416602482015260448082018490528251808303909101815260649091019091526020810180516001600160e01b031663a9059cbb60e01b17905261096d908490610d36565b6001600160a01b038216610bbd5760405162461bcd60e51b815260206004820152602c60248201527f5061796d656e7453706c69747465723a206163636f756e74206973207468652060448201526b7a65726f206164647265737360a01b606482015260840161038e565b60008111610c0d5760405162461bcd60e51b815260206004820152601d60248201527f5061796d656e7453706c69747465723a20736861726573206172652030000000604482015260640161038e565b6001600160a01b03821660009081526002602052604090205415610c875760405162461bcd60e51b815260206004820152602b60248201527f5061796d656e7453706c69747465723a206163636f756e7420616c726561647960448201526a206861732073686172657360a81b606482015260840161038e565b60048054600181019091557f8a35acfbc15ff81a39ae7d344fd709f28e8600b4aa8c65c6b64bfe7fe36bd19b0180546001600160a01b0319166001600160a01b038416908117909155600090815260026020526040812082905554610ced9082906111e4565b600055604080516001600160a01b0384168152602081018390527f40c340f65e17194d14ddddb073d3c9f888e3cb52b5aae0c6c7706b4fbc905fac910160405180910390a15050565b6000610d8b826040518060400160405280602081526020017f5361666545524332303a206c6f772d6c6576656c2063616c6c206661696c6564815250856001600160a01b0316610e089092919063ffffffff16565b80519091501561096d5780806020019051810190610da991906112e7565b61096d5760405162461bcd60e51b815260206004820152602a60248201527f5361666545524332303a204552433230206f7065726174696f6e20646964206e6044820152691bdd081cdd58d8d9595960b21b606482015260840161038e565b60606109dd8484600085856001600160a01b0385163b610e6a5760405162461bcd60e51b815260206004820152601d60248201527f416464726573733a2063616c6c20746f206e6f6e2d636f6e7472616374000000604482015260640161038e565b600080866001600160a01b03168587604051610e869190611339565b60006040518083038185875af1925050503d8060008114610ec3576040519150601f19603f3d011682016040523d82523d6000602084013e610ec8565b606091505b5091509150610ed8828286610ee3565b979650505050505050565b60608315610ef25750816109e0565b825115610f025782518084602001fd5b8160405162461bcd60e51b815260040161038e9190611355565b6001600160a01b0381168114610f3157600080fd5b50565b600060208284031215610f4657600080fd5b81356109e081610f1c565b600060208284031215610f6357600080fd5b5035919050565b6020808252825182820181905260009190848201906040850190845b81811015610fab5783516001600160a01b031683529284019291840191600101610f86565b50909695505050505050565b60008060408385031215610fca57600080fd5b8235610fd581610f1c565b91506020830135610fe581610f1c565b809150509250929050565b634e487b7160e01b600052604160045260246000fd5b604051601f8201601f1916810167ffffffffffffffff8111828210171561102f5761102f610ff0565b604052919050565b600067ffffffffffffffff82111561105157611051610ff0565b5060051b60200190565b600082601f83011261106c57600080fd5b8135602061108161107c83611037565b611006565b82815260059290921b840181019181810190868411156110a057600080fd5b8286015b848110156110bb57803583529183019183016110a4565b509695505050505050565b600080604083850312156110d957600080fd5b823567ffffffffffffffff808211156110f157600080fd5b818501915085601f83011261110557600080fd5b8135602061111561107c83611037565b82815260059290921b8401810191818101908984111561113457600080fd5b948201945b8386101561115b57853561114c81610f1c565b82529482019490820190611139565b9650508601359250508082111561117157600080fd5b5061117e8582860161105b565b9150509250929050565b60208082526026908201527f5061796d656e7453706c69747465723a206163636f756e7420686173206e6f2060408201526573686172657360d01b606082015260800190565b634e487b7160e01b600052601160045260246000fd5b600082198211156111f7576111f76111ce565b500190565b6020808252602b908201527f5061796d656e7453706c69747465723a206163636f756e74206973206e6f742060408201526a191d59481c185e5b595b9d60aa1b606082015260800190565b60006020828403121561125957600080fd5b5051919050565b634e487b7160e01b600052603260045260246000fd5b600060018201611288576112886111ce565b5060010190565b60008160001904831182151516156112a9576112a96111ce565b500290565b6000826112cb57634e487b7160e01b600052601260045260246000fd5b500490565b6000828210156112e2576112e26111ce565b500390565b6000602082840312156112f957600080fd5b815180151581146109e057600080fd5b60005b8381101561132457818101518382015260200161130c565b83811115611333576000848401525b50505050565b6000825161134b818460208701611309565b9190910192915050565b6020815260008251806020840152611374816040850160208701611309565b601f01601f1916919091016040019291505056fea2646970667358221220d10cff94331f673552102e0a6c197eca8d57fe71f2dc7c6f7b50eeac588ed6f864736f6c634300080e0033",
    "linkReferences": {}
  },
  "methodIdentifiers": {
    "_payees(uint256)": "283248be",
    "balanceOf(address)": "70a08231",
    "balanceOfTokens(address,address)": "72cd383a",
    "initialize(address[],uint256[])": "7fbbe46f",
    "payeeIndex(uint256)": "9ac14e3c",
    "payees()": "4e8086aa",
    "payeesLength()": "e919ecad",
    "release(address)": "19165587",
    "releaseTokens(address,address)": "74313b4a",
    "released(address)": "9852595c",
    "releasedTokens(address,address)": "6625889f",
    "shares(address)": "ce7c2ac2",
    "totalReleased()": "e33b7de3",
    "totalShares()": "3a98ef39",
    "totalTokensReleased(address)": "820be89e"
  },
  "id": 16
}