{
  "abi": [
    {
      "inputs": [
        {
          "internalType": "address",
          "name": "claimVerifiersRegistry_",
          "type": "address"
        }
      ],
      "stateMutability": "nonpayable",
      "type": "constructor"
    },
    {
      "anonymous": false,
      "inputs": [
        {
          "indexed": true,
          "internalType": "uint256",
          "name": "claimTopic",
          "type": "uint256"
        },
        {
          "indexed": true,
          "internalType": "uint256",
          "name": "id",
          "type": "uint256"
        }
      ],
      "name": "ClaimTopicAdded",
      "type": "event"
    },
    {
      "anonymous": false,
      "inputs": [
        {
          "indexed": true,
          "internalType": "uint256",
          "name": "claimTopic",
          "type": "uint256"
        },
        {
          "indexed": true,
          "internalType": "uint256",
          "name": "id",
          "type": "uint256"
        }
      ],
      "name": "ClaimTopicRemoved",
      "type": "event"
    },
    {
      "anonymous": false,
      "inputs": [
        {
          "indexed": true,
          "internalType": "address",
          "name": "trustedVerifiersRegistry",
          "type": "address"
        }
      ],
      "name": "ClaimVerifiersRegistrySet",
      "type": "event"
    },
    {
      "anonymous": false,
      "inputs": [
        {
          "indexed": true,
          "internalType": "address",
          "name": "previousOwner",
          "type": "address"
        },
        {
          "indexed": true,
          "internalType": "address",
          "name": "newOwner",
          "type": "address"
        }
      ],
      "name": "OwnershipTransferred",
      "type": "event"
    },
    {
      "inputs": [],
      "name": "_claimVerifiersRegistry",
      "outputs": [
        {
          "internalType": "contract IClaimVerifiersRegistry",
          "name": "",
          "type": "address"
        }
      ],
      "stateMutability": "view",
      "type": "function"
    },
    {
      "inputs": [
        {
          "internalType": "uint256",
          "name": "claimTopic",
          "type": "uint256"
        },
        {
          "internalType": "uint256",
          "name": "id",
          "type": "uint256"
        }
      ],
      "name": "addClaimTopic",
      "outputs": [],
      "stateMutability": "nonpayable",
      "type": "function"
    },
    {
      "inputs": [],
      "name": "claimVerifiersRegistry",
      "outputs": [
        {
          "internalType": "contract IClaimVerifiersRegistry",
          "name": "",
          "type": "address"
        }
      ],
      "stateMutability": "view",
      "type": "function"
    },
    {
      "inputs": [
        {
          "internalType": "uint256",
          "name": "id",
          "type": "uint256"
        }
      ],
      "name": "getClaimTopics",
      "outputs": [
        {
          "internalType": "uint256[]",
          "name": "",
          "type": "uint256[]"
        }
      ],
      "stateMutability": "view",
      "type": "function"
    },
    {
      "inputs": [
        {
          "internalType": "address",
          "name": "account",
          "type": "address"
        },
        {
          "internalType": "uint256",
          "name": "id",
          "type": "uint256"
        }
      ],
      "name": "isVerified",
      "outputs": [
        {
          "internalType": "bool",
          "name": "",
          "type": "bool"
        }
      ],
      "stateMutability": "view",
      "type": "function"
    },
    {
      "inputs": [],
      "name": "owner",
      "outputs": [
        {
          "internalType": "address",
          "name": "",
          "type": "address"
        }
      ],
      "stateMutability": "view",
      "type": "function"
    },
    {
      "inputs": [
        {
          "internalType": "uint256",
          "name": "claimTopic",
          "type": "uint256"
        },
        {
          "internalType": "uint256",
          "name": "id",
          "type": "uint256"
        }
      ],
      "name": "removeClaimTopic",
      "outputs": [],
      "stateMutability": "nonpayable",
      "type": "function"
    },
    {
      "inputs": [],
      "name": "renounceOwnership",
      "outputs": [],
      "stateMutability": "nonpayable",
      "type": "function"
    },
    {
      "inputs": [
        {
          "internalType": "address",
          "name": "claimVerifiersRegistry_",
          "type": "address"
        }
      ],
      "name": "setClaimVerifiersRegistry",
      "outputs": [],
      "stateMutability": "nonpayable",
      "type": "function"
    },
    {
      "inputs": [
        {
          "internalType": "address",
          "name": "newOwner",
          "type": "address"
        }
      ],
      "name": "transferOwnership",
      "outputs": [],
      "stateMutability": "nonpayable",
      "type": "function"
    },
    {
      "inputs": [
        {
          "internalType": "address",
          "name": "_newOwner",
          "type": "address"
        }
      ],
      "name": "transferOwnershipOnComplianceClaimsRequiredContract",
      "outputs": [],
      "stateMutability": "nonpayable",
      "type": "function"
    }
  ],
  "bytecode": {
    "object": "0x608060405234801561001057600080fd5b506040516111aa3803806111aa83398101604081905261002f916100d4565b61003833610084565b600280546001600160a01b0319166001600160a01b0383169081179091556040517e15f669c430c52b557f0153e08951f3c51c706e7cb8343ce3288b120b54e6c990600090a250610104565b600080546001600160a01b038381166001600160a01b0319831681178455604051919092169283917f8be0079c531659141344cd1fd0a4f28419497f9722a3daafe3b4186f6b6457e09190a35050565b6000602082840312156100e657600080fd5b81516001600160a01b03811681146100fd57600080fd5b9392505050565b611097806101136000396000f3fe608060405234801561001057600080fd5b50600436106100a95760003560e01c8063804bb33f11610071578063804bb33f146101315780638da5cb5b146101445780639a6d814714610155578063c6cba8a514610168578063d12f591314610179578063f2fde38b1461019957600080fd5b80631a209776146100ae57806342469b9d146100d6578063573ac0c5146100eb5780636c01e86214610116578063715018a614610129575b600080fd5b6100c16100bc366004610c0f565b6101ac565b60405190151581526020015b60405180910390f35b6100e96100e4366004610c3b565b610748565b005b6002546100fe906001600160a01b031681565b6040516001600160a01b0390911681526020016100cd565b6100e9610124366004610c5d565b610873565b6100e96108e6565b6100e961013f366004610c5d565b61091c565b6000546001600160a01b03166100fe565b6100e9610163366004610c3b565b610952565b6002546001600160a01b03166100fe565b61018c610187366004610c81565b610ab4565b6040516100cd9190610c9a565b6100e96101a7366004610c5d565b610b16565b60006001600160a01b0383166101c457506000610742565b60008281526001602052604081205490036101e157506001610742565b600080600060608060005b60008881526001602052604090205481101561073757600088815260016020526040812080546001600160a01b038c16916380e9e9e1918590811061023357610233610cde565b90600052602060002001546040518263ffffffff1660e01b815260040161025c91815260200190565b600060405180830381865afa158015610279573d6000803e3d6000fd5b505050506040513d6000823e601f3d908101601f191682016040526102a19190810190610d3b565b905080516000036102bc576000975050505050505050610742565b60005b8151811015610722578a6001600160a01b031663c9100bcb8383815181106102e9576102e9610cde565b60200260200101516040518263ffffffff1660e01b815260040161030f91815260200190565b600060405180830381865afa15801561032c573d6000803e3d6000fd5b505050506040513d6000823e601f3d908101601f191682016040526103549190810190610e7c565b5060008f81526001602052604090208054959d50939b50919950975095506001600160a01b0388169163c0969a6e918e918790811061039557610395610cde565b906000526020600020015488886040518563ffffffff1660e01b81526004016103c19493929190610f6a565b602060405180830381865afa9250505080156103fa575060408051601f3d908101601f191682019092526103f791810190610fae565b60015b610428576001825161040c9190610fe6565b810361042357600098505050505050505050610742565b610710565b8080156104e0575060025460008c815260016020526040902080546001600160a01b03909216916334a89987918a918890811061046757610467610cde565b6000918252602090912001546040516001600160e01b031960e085901b1681526001600160a01b0390921660048301526024820152604401602060405180830381865afa1580156104bc573d6000803e3d6000fd5b505050506040513d601f19601f820116820180604052508101906104e09190610fae565b801561055557506002546040516306620a4360e31b81526001600160a01b03898116600483015290911690633310521890602401602060405180830381865afa158015610531573d6000803e3d6000fd5b505050506040513d601f19601f820116820180604052508101906105559190610fae565b1561055f57825191505b6002546040516306620a4360e31b81526001600160a01b03898116600483015290911690633310521890602401602060405180830381865afa1580156105a9573d6000803e3d6000fd5b505050506040513d601f19601f820116820180604052508101906105cd9190610fae565b1580156105e65750600183516105e39190610fe6565b82145b156105fd5760009950505050505050505050610742565b60025460008c815260016020526040902080546001600160a01b03909216916334a89987918a918890811061063457610634610cde565b6000918252602090912001546040516001600160e01b031960e085901b1681526001600160a01b0390921660048301526024820152604401602060405180830381865afa158015610689573d6000803e3d6000fd5b505050506040513d601f19601f820116820180604052508101906106ad9190610fae565b1580156106c65750600183516106c39190610fe6565b82145b156106dd5760009950505050505050505050610742565b801580156106f75750600183516106f49190610fe6565b82145b1561070e5760009950505050505050505050610742565b505b8061071a81610ffd565b9150506102bf565b5050808061072f90610ffd565b9150506101ec565b600196505050505050505b92915050565b6000546001600160a01b0316331461077b5760405162461bcd60e51b815260040161077290611016565b60405180910390fd5b600081815260016020526040812054905b818110156108215760008381526001602052604090208054859190839081106107b7576107b7610cde565b90600052602060002001540361080f5760405162461bcd60e51b815260206004820152601960248201527f636c61696d546f70696320616c726561647920657869737473000000000000006044820152606401610772565b8061081981610ffd565b91505061078c565b50600082815260016020818152604080842080549384018155845290832090910185905551839185917fc1f777be5954ec6cb218f9dbe330b77e3f5c8ccbb17e539017b53f6b6c2f61ad9190a3505050565b6000546001600160a01b0316331461089d5760405162461bcd60e51b815260040161077290611016565b600280546001600160a01b0319166001600160a01b0383169081179091556040517e15f669c430c52b557f0153e08951f3c51c706e7cb8343ce3288b120b54e6c990600090a250565b6000546001600160a01b031633146109105760405162461bcd60e51b815260040161077290611016565b61091a6000610baa565b565b6000546001600160a01b031633146109465760405162461bcd60e51b815260040161077290611016565b61094f81610b16565b50565b6000546001600160a01b0316331461097c5760405162461bcd60e51b815260040161077290611016565b600081815260016020526040812054905b81811015610aae5760008381526001602052604090208054859190839081106109b8576109b8610cde565b906000526020600020015403610a9c576000838152600160208190526040909120906109e49084610fe6565b815481106109f4576109f4610cde565b9060005260206000200154600160008581526020019081526020016000208281548110610a2357610a23610cde565b906000526020600020018190555060016000848152602001908152602001600020805480610a5357610a5361104b565b6001900381819060005260206000200160009055905582847fee14ef12c14d54dc364d1e185465525e662159330e52dc465618c99b8c0023eb60405160405180910390a3610aae565b80610aa681610ffd565b91505061098d565b50505050565b600081815260016020908152604091829020805483518184028101840190945280845260609392830182828015610b0a57602002820191906000526020600020905b815481526020019060010190808311610af6575b50505050509050919050565b6000546001600160a01b03163314610b405760405162461bcd60e51b815260040161077290611016565b6001600160a01b038116610ba55760405162461bcd60e51b815260206004820152602660248201527f4f776e61626c653a206e6577206f776e657220697320746865207a65726f206160448201526564647265737360d01b6064820152608401610772565b61094f815b600080546001600160a01b038381166001600160a01b0319831681178455604051919092169283917f8be0079c531659141344cd1fd0a4f28419497f9722a3daafe3b4186f6b6457e09190a35050565b6001600160a01b038116811461094f57600080fd5b60008060408385031215610c2257600080fd5b8235610c2d81610bfa565b946020939093013593505050565b60008060408385031215610c4e57600080fd5b50508035926020909101359150565b600060208284031215610c6f57600080fd5b8135610c7a81610bfa565b9392505050565b600060208284031215610c9357600080fd5b5035919050565b6020808252825182820181905260009190848201906040850190845b81811015610cd257835183529284019291840191600101610cb6565b50909695505050505050565b634e487b7160e01b600052603260045260246000fd5b634e487b7160e01b600052604160045260246000fd5b604051601f8201601f1916810167ffffffffffffffff81118282101715610d3357610d33610cf4565b604052919050565b60006020808385031215610d4e57600080fd5b825167ffffffffffffffff80821115610d6657600080fd5b818501915085601f830112610d7a57600080fd5b815181811115610d8c57610d8c610cf4565b8060051b9150610d9d848301610d0a565b8181529183018401918481019088841115610db757600080fd5b938501935b83851015610dd557845182529385019390850190610dbc565b98975050505050505050565b60005b83811015610dfc578181015183820152602001610de4565b83811115610aae5750506000910152565b600067ffffffffffffffff831115610e2757610e27610cf4565b610e3a601f8401601f1916602001610d0a565b9050828152838383011115610e4e57600080fd5b610c7a836020830184610de1565b600082601f830112610e6d57600080fd5b610c7a83835160208501610e0d565b60008060008060008060c08789031215610e9557600080fd5b86519550602087015194506040870151610eae81610bfa565b606088015190945067ffffffffffffffff80821115610ecc57600080fd5b610ed88a838b01610e5c565b94506080890151915080821115610eee57600080fd5b610efa8a838b01610e5c565b935060a0890151915080821115610f1057600080fd5b508701601f81018913610f2257600080fd5b610f3189825160208401610e0d565b9150509295509295509295565b60008151808452610f56816020860160208601610de1565b601f01601f19169290920160200192915050565b60018060a01b0385168152836020820152608060408201526000610f916080830185610f3e565b8281036060840152610fa38185610f3e565b979650505050505050565b600060208284031215610fc057600080fd5b81518015158114610c7a57600080fd5b634e487b7160e01b600052601160045260246000fd5b600082821015610ff857610ff8610fd0565b500390565b60006001820161100f5761100f610fd0565b5060010190565b6020808252818101527f4f776e61626c653a2063616c6c6572206973206e6f7420746865206f776e6572604082015260600190565b634e487b7160e01b600052603160045260246000fdfea26469706673582212205d33b0ae8ba459449faf2688b624333a72ee2bc37516c0dce224689db9e5ea5864736f6c634300080e0033",
    "linkReferences": {}
  },
  "methodIdentifiers": {
    "_claimVerifiersRegistry()": "573ac0c5",
    "addClaimTopic(uint256,uint256)": "42469b9d",
    "claimVerifiersRegistry()": "c6cba8a5",
    "getClaimTopics(uint256)": "d12f5913",
    "isVerified(address,uint256)": "1a209776",
    "owner()": "8da5cb5b",
    "removeClaimTopic(uint256,uint256)": "9a6d8147",
    "renounceOwnership()": "715018a6",
    "setClaimVerifiersRegistry(address)": "6c01e862",
    "transferOwnership(address)": "f2fde38b",
    "transferOwnershipOnComplianceClaimsRequiredContract(address)": "804bb33f"
  },
  "id": 21
}