{
  "abi": [
    {
      "inputs": [
        {
          "internalType": "address",
          "name": "_token",
          "type": "address"
        },
        {
          "internalType": "uint256",
          "name": "_holderLimit",
          "type": "uint256"
        }
      ],
      "stateMutability": "nonpayable",
      "type": "constructor"
    },
    {
      "anonymous": false,
      "inputs": [
        {
          "indexed": false,
          "internalType": "uint256",
          "name": "_holderLimit",
          "type": "uint256"
        }
      ],
      "name": "HolderLimitSet",
      "type": "event"
    },
    {
      "anonymous": false,
      "inputs": [
        {
          "indexed": true,
          "internalType": "address",
          "name": "previousOwner",
          "type": "address"
        },
        {
          "indexed": true,
          "internalType": "address",
          "name": "newOwner",
          "type": "address"
        }
      ],
      "name": "OwnershipTransferred",
      "type": "event"
    },
    {
      "anonymous": false,
      "inputs": [
        {
          "indexed": false,
          "internalType": "address",
          "name": "_agentAddress",
          "type": "address"
        }
      ],
      "name": "TokenAgentAdded",
      "type": "event"
    },
    {
      "anonymous": false,
      "inputs": [
        {
          "indexed": false,
          "internalType": "address",
          "name": "_agentAddress",
          "type": "address"
        }
      ],
      "name": "TokenAgentRemoved",
      "type": "event"
    },
    {
      "anonymous": false,
      "inputs": [
        {
          "indexed": false,
          "internalType": "address",
          "name": "_token",
          "type": "address"
        }
      ],
      "name": "TokenBound",
      "type": "event"
    },
    {
      "anonymous": false,
      "inputs": [
        {
          "indexed": false,
          "internalType": "address",
          "name": "_token",
          "type": "address"
        }
      ],
      "name": "TokenUnbound",
      "type": "event"
    },
    {
      "inputs": [
        {
          "internalType": "address",
          "name": "_agentAddress",
          "type": "address"
        }
      ],
      "name": "addTokenAgent",
      "outputs": [],
      "stateMutability": "nonpayable",
      "type": "function"
    },
    {
      "inputs": [
        {
          "internalType": "address",
          "name": "_token",
          "type": "address"
        }
      ],
      "name": "bindToken",
      "outputs": [],
      "stateMutability": "nonpayable",
      "type": "function"
    },
    {
      "inputs": [
        {
          "internalType": "address",
          "name": "",
          "type": "address"
        },
        {
          "internalType": "address",
          "name": "_to",
          "type": "address"
        },
        {
          "internalType": "uint256",
          "name": "",
          "type": "uint256"
        }
      ],
      "name": "canTransfer",
      "outputs": [
        {
          "internalType": "bool",
          "name": "",
          "type": "bool"
        }
      ],
      "stateMutability": "view",
      "type": "function"
    },
    {
      "inputs": [
        {
          "internalType": "address",
          "name": "_to",
          "type": "address"
        },
        {
          "internalType": "uint256",
          "name": "_value",
          "type": "uint256"
        }
      ],
      "name": "created",
      "outputs": [],
      "stateMutability": "nonpayable",
      "type": "function"
    },
    {
      "inputs": [
        {
          "internalType": "address",
          "name": "_from",
          "type": "address"
        },
        {
          "internalType": "uint256",
          "name": "",
          "type": "uint256"
        }
      ],
      "name": "destroyed",
      "outputs": [],
      "stateMutability": "nonpayable",
      "type": "function"
    },
    {
      "inputs": [],
      "name": "getHolderLimit",
      "outputs": [
        {
          "internalType": "uint256",
          "name": "",
          "type": "uint256"
        }
      ],
      "stateMutability": "view",
      "type": "function"
    },
    {
      "inputs": [
        {
          "internalType": "uint16",
          "name": "index",
          "type": "uint16"
        }
      ],
      "name": "getShareholderCountByCountry",
      "outputs": [
        {
          "internalType": "uint256",
          "name": "",
          "type": "uint256"
        }
      ],
      "stateMutability": "view",
      "type": "function"
    },
    {
      "inputs": [
        {
          "internalType": "uint256",
          "name": "index",
          "type": "uint256"
        }
      ],
      "name": "holderAt",
      "outputs": [
        {
          "internalType": "address",
          "name": "",
          "type": "address"
        }
      ],
      "stateMutability": "view",
      "type": "function"
    },
    {
      "inputs": [],
      "name": "holderCount",
      "outputs": [
        {
          "internalType": "uint256",
          "name": "",
          "type": "uint256"
        }
      ],
      "stateMutability": "view",
      "type": "function"
    },
    {
      "inputs": [
        {
          "internalType": "address",
          "name": "_agentAddress",
          "type": "address"
        }
      ],
      "name": "isTokenAgent",
      "outputs": [
        {
          "internalType": "bool",
          "name": "",
          "type": "bool"
        }
      ],
      "stateMutability": "view",
      "type": "function"
    },
    {
      "inputs": [
        {
          "internalType": "address",
          "name": "_token",
          "type": "address"
        }
      ],
      "name": "isTokenBound",
      "outputs": [
        {
          "internalType": "bool",
          "name": "",
          "type": "bool"
        }
      ],
      "stateMutability": "view",
      "type": "function"
    },
    {
      "inputs": [],
      "name": "owner",
      "outputs": [
        {
          "internalType": "address",
          "name": "",
          "type": "address"
        }
      ],
      "stateMutability": "view",
      "type": "function"
    },
    {
      "inputs": [
        {
          "internalType": "address",
          "name": "_agentAddress",
          "type": "address"
        }
      ],
      "name": "removeTokenAgent",
      "outputs": [],
      "stateMutability": "nonpayable",
      "type": "function"
    },
    {
      "inputs": [],
      "name": "renounceOwnership",
      "outputs": [],
      "stateMutability": "nonpayable",
      "type": "function"
    },
    {
      "inputs": [
        {
          "internalType": "uint256",
          "name": "_holderLimit",
          "type": "uint256"
        }
      ],
      "name": "setHolderLimit",
      "outputs": [],
      "stateMutability": "nonpayable",
      "type": "function"
    },
    {
      "inputs": [],
      "name": "token",
      "outputs": [
        {
          "internalType": "contract IToken",
          "name": "",
          "type": "address"
        }
      ],
      "stateMutability": "view",
      "type": "function"
    },
    {
      "inputs": [
        {
          "internalType": "address",
          "name": "newOwner",
          "type": "address"
        }
      ],
      "name": "transferOwnership",
      "outputs": [],
      "stateMutability": "nonpayable",
      "type": "function"
    },
    {
      "inputs": [
        {
          "internalType": "address",
          "name": "newOwner",
          "type": "address"
        }
      ],
      "name": "transferOwnershipOnComplianceContract",
      "outputs": [],
      "stateMutability": "nonpayable",
      "type": "function"
    },
    {
      "inputs": [
        {
          "internalType": "address",
          "name": "_from",
          "type": "address"
        },
        {
          "internalType": "address",
          "name": "_to",
          "type": "address"
        },
        {
          "internalType": "uint256",
          "name": "",
          "type": "uint256"
        }
      ],
      "name": "transferred",
      "outputs": [],
      "stateMutability": "nonpayable",
      "type": "function"
    },
    {
      "inputs": [
        {
          "internalType": "address",
          "name": "_token",
          "type": "address"
        }
      ],
      "name": "unbindToken",
      "outputs": [],
      "stateMutability": "nonpayable",
      "type": "function"
    }
  ],
  "bytecode": {
    "object": "0x60806040523480156200001157600080fd5b506040516200121b3803806200121b833981016040819052620000349162000188565b6200003f336200011f565b600180546001600160a01b0319166001600160a01b0384169081179091556002829055604080516304d3863d60e21b8152905163134e18f4916004808201926020929091908290030181865afa1580156200009e573d6000803e3d6000fd5b505050506040513d601f19601f82011682018060405250810190620000c49190620001b9565b600380546001600160a01b0319166001600160a01b03929092169190911790556040518181527f3069f57f08b632d7fceb2be6b7e39522eff2dbd0b4605b5f0ab46c94f1211d8e9060200160405180910390a15050620001e0565b600080546001600160a01b038381166001600160a01b0319831681178455604051919092169283917f8be0079c531659141344cd1fd0a4f28419497f9722a3daafe3b4186f6b6457e09190a35050565b6001600160a01b03811681146200018557600080fd5b50565b600080604083850312156200019c57600080fd5b8251620001a9816200016f565b6020939093015192949293505050565b600060208284031215620001cc57600080fd5b8151620001d9816200016f565b9392505050565b61102b80620001f06000396000f3fe608060405234801561001057600080fd5b506004361061012c5760003560e01c80638d2ea772116100ad578063e46638e611610071578063e46638e6146102b2578063f2fde38b146102c5578063f3ac2389146102d8578063fc0c546a146102e0578063ff3e6954146102f357600080fd5b80638d2ea7721461022b5780638da5cb5b1461023e578063951f17ae1461024f578063993e8b9514610273578063cdde29321461029f57600080fd5b806340db3b50116100f457806340db3b50146101d75780635f8dead3146101ea578063715018a6146101fd5780637bcf0487146102055780638baf29b41461021857600080fd5b806306f91d5914610131578063197bc336146101465780631aab9a9f14610176578063346531fa146101885780633ff5aa02146101c4575b600080fd5b61014461013f366004610db4565b610306565b005b610159610154366004610db4565b610375565b6040516001600160a01b0390911681526020015b60405180910390f35b6006545b60405190815260200161016d565b6101b4610196366004610de9565b6001600160a01b031660009081526007602052604090205460ff1690565b604051901515815260200161016d565b6101446101d2366004610de9565b6103f7565b6101446101e5366004610de9565b6104de565b6101446101f8366004610e04565b6105c1565b610144610640565b610144610213366004610de9565b610676565b610144610226366004610e2e565b6106ac565b610144610239366004610e04565b6106f2565b6000546001600160a01b0316610159565b61017a61025d366004610e7a565b61ffff1660009081526005602052604090205490565b6101b4610281366004610de9565b6001600160a01b031660009081526008602052604090205460ff1690565b6101446102ad366004610de9565b61072a565b6101b46102c0366004610e2e565b61080d565b6101446102d3366004610de9565b610852565b60025461017a565b600154610159906001600160a01b031681565b610144610301366004610de9565b6108ea565b6000546001600160a01b031633146103395760405162461bcd60e51b815260040161033090610e97565b60405180910390fd5b60028190556040518181527f3069f57f08b632d7fceb2be6b7e39522eff2dbd0b4605b5f0ab46c94f1211d8e906020015b60405180910390a150565b60065460009082106103c95760405162461bcd60e51b815260206004820152601960248201527f7368617265686f6c64657220646f65736e2774206578697374000000000000006044820152606401610330565b600682815481106103dc576103dc610ecc565b6000918252602090912001546001600160a01b031692915050565b6000546001600160a01b031633146104215760405162461bcd60e51b815260040161033090610e97565b6001600160a01b03811660009081526008602052604090205460ff161561048a5760405162461bcd60e51b815260206004820152601b60248201527f5468697320746f6b656e20697320616c726561647920626f756e6400000000006044820152606401610330565b6001600160a01b038116600081815260086020908152604091829020805460ff1916600117905590519182527f2de35142b19ed5a07796cf30791959c592018f70b1d2d7c460eef8ffe713692b910161036a565b6000546001600160a01b031633146105085760405162461bcd60e51b815260040161033090610e97565b6001600160a01b03811660009081526008602052604090205460ff166105705760405162461bcd60e51b815260206004820152601b60248201527f5468697320746f6b656e206973206e6f7420626f756e642079657400000000006044820152606401610330565b6001600160a01b038116600081815260086020908152604091829020805460ff1916905590519182527f28a4ca7134a3b3f9aff286e79ad3daadb4a06d1b43d037a3a98bdc074edd9b7a910161036a565b3360009081526008602052604090205460ff166105f05760405162461bcd60e51b815260040161033090610ee2565b600081116106335760405162461bcd60e51b815260206004820152601060248201526f139bc81d1bdad95b8818dc99585d195960821b6044820152606401610330565b61063c826109d1565b5050565b6000546001600160a01b0316331461066a5760405162461bcd60e51b815260040161033090610e97565b6106746000610adf565b565b6000546001600160a01b031633146106a05760405162461bcd60e51b815260040161033090610e97565b6106a981610852565b50565b3360009081526008602052604090205460ff166106db5760405162461bcd60e51b815260040161033090610ee2565b6106e4826109d1565b6106ed83610b2f565b505050565b3360009081526008602052604090205460ff166107215760405162461bcd60e51b815260040161033090610ee2565b61063c82610b2f565b6000546001600160a01b031633146107545760405162461bcd60e51b815260040161033090610e97565b6001600160a01b03811660009081526007602052604090205460ff166107bc5760405162461bcd60e51b815260206004820181905260248201527f54686973204167656e74206973206e6f742072656769737465726564207965746044820152606401610330565b6001600160a01b038116600081815260076020908152604091829020805460ff1916905590519182527f6a659bb87bb23efbdc295f8eed8ae8c4379bfb77660ced2ef0f3d7d26b05c6a6910161036a565b6001600160a01b038216600090815260046020526040812054156108335750600161084b565b60025460065410156108475750600161084b565b5060005b9392505050565b6000546001600160a01b0316331461087c5760405162461bcd60e51b815260040161033090610e97565b6001600160a01b0381166108e15760405162461bcd60e51b815260206004820152602660248201527f4f776e61626c653a206e6577206f776e657220697320746865207a65726f206160448201526564647265737360d01b6064820152608401610330565b6106a981610adf565b6000546001600160a01b031633146109145760405162461bcd60e51b815260040161033090610e97565b6001600160a01b03811660009081526007602052604090205460ff161561097d5760405162461bcd60e51b815260206004820181905260248201527f54686973204167656e7420697320616c726561647920726567697374657265646044820152606401610330565b6001600160a01b038116600081815260076020908152604091829020805460ff1916600117905590519182527fd62c45e13ac30396aceb3ad37c89bd1ba9048032fe61679000e92eb93dbfd67d910161036a565b6001600160a01b03811660009081526004602052604081205490036106a957600680546001810182557ff652222313e28459528d920b65115c16c04f3efc82aaedc97be59f3f377c0d3f0180546001600160a01b0319166001600160a01b0384811691821790925591546000838152600460208190526040808320939093556003549251637e42683b60e01b81529081019490945292911690637e42683b90602401602060405180830381865afa158015610a90573d6000803e3d6000fd5b505050506040513d601f19601f82011682018060405250810190610ab49190610f4c565b61ffff81166000908152600560205260408120805492935090610ad683610f7f565b91905055505050565b600080546001600160a01b038381166001600160a01b0319831681178455604051919092169283917f8be0079c531659141344cd1fd0a4f28419497f9722a3daafe3b4186f6b6457e09190a35050565b6001600160a01b0381166000908152600460205260408120549003610b965760405162461bcd60e51b815260206004820152601a60248201527f5368617265686f6c64657220646f6573206e6f742065786973740000000000006044820152606401610330565b6001546040516370a0823160e01b81526001600160a01b03838116600483015260009216906370a0823190602401602060405180830381865afa158015610be1573d6000803e3d6000fd5b505050506040513d601f19601f82011682018060405250810190610c059190610f98565b90508015610c11575050565b6001600160a01b038216600090815260046020526040812054610c3690600190610fb1565b600654909150600090610c4b90600190610fb1565b9050600060068281548110610c6257610c62610ecc565b600091825260209091200154600680546001600160a01b039092169250829185908110610c9157610c91610ecc565b600091825260208083209190910180546001600160a01b0319166001600160a01b0394851617905587831682526004905260408082205492841682529020556006805480610ce157610ce1610fc8565b60008281526020808220600019908401810180546001600160a01b03191690559092019092556001600160a01b0387811680845260049283905260408085208590556003549051637e42683b60e01b8152938401919091521690637e42683b90602401602060405180830381865afa158015610d61573d6000803e3d6000fd5b505050506040513d601f19601f82011682018060405250810190610d859190610f4c565b61ffff81166000908152600560205260408120805492935090610da783610fde565b9190505550505050505050565b600060208284031215610dc657600080fd5b5035919050565b80356001600160a01b0381168114610de457600080fd5b919050565b600060208284031215610dfb57600080fd5b61084b82610dcd565b60008060408385031215610e1757600080fd5b610e2083610dcd565b946020939093013593505050565b600080600060608486031215610e4357600080fd5b610e4c84610dcd565b9250610e5a60208501610dcd565b9150604084013590509250925092565b61ffff811681146106a957600080fd5b600060208284031215610e8c57600080fd5b813561084b81610e6a565b6020808252818101527f4f776e61626c653a2063616c6c6572206973206e6f7420746865206f776e6572604082015260600190565b634e487b7160e01b600052603260045260246000fd5b60208082526044908201527f6572726f72203a20746869732061646472657373206973206e6f74206120746f60408201527f6b656e20626f756e6420746f2074686520636f6d706c69616e636520636f6e746060820152631c9858dd60e21b608082015260a00190565b600060208284031215610f5e57600080fd5b815161084b81610e6a565b634e487b7160e01b600052601160045260246000fd5b600060018201610f9157610f91610f69565b5060010190565b600060208284031215610faa57600080fd5b5051919050565b600082821015610fc357610fc3610f69565b500390565b634e487b7160e01b600052603160045260246000fd5b600081610fed57610fed610f69565b50600019019056fea264697066735822122057ceb1fec446a465032ee118e6499d481e22b2a81356d89050e345f12f36bedd64736f6c634300080e0033",
    "linkReferences": {}
  },
  "methodIdentifiers": {
    "addTokenAgent(address)": "ff3e6954",
    "bindToken(address)": "3ff5aa02",
    "canTransfer(address,address,uint256)": "e46638e6",
    "created(address,uint256)": "5f8dead3",
    "destroyed(address,uint256)": "8d2ea772",
    "getHolderLimit()": "f3ac2389",
    "getShareholderCountByCountry(uint16)": "951f17ae",
    "holderAt(uint256)": "197bc336",
    "holderCount()": "1aab9a9f",
    "isTokenAgent(address)": "346531fa",
    "isTokenBound(address)": "993e8b95",
    "owner()": "8da5cb5b",
    "removeTokenAgent(address)": "cdde2932",
    "renounceOwnership()": "715018a6",
    "setHolderLimit(uint256)": "06f91d59",
    "token()": "fc0c546a",
    "transferOwnership(address)": "f2fde38b",
    "transferOwnershipOnComplianceContract(address)": "7bcf0487",
    "transferred(address,address,uint256)": "8baf29b4",
    "unbindToken(address)": "40db3b50"
  },
  "id": 20
}