{
  "abi": [
    {
      "inputs": [
        {
          "internalType": "address",
          "name": "tokenRegistry",
          "type": "address"
        }
      ],
      "stateMutability": "nonpayable",
      "type": "constructor"
    },
    {
      "anonymous": false,
      "inputs": [
        {
          "indexed": false,
          "internalType": "uint256",
          "name": "_holderLimit",
          "type": "uint256"
        },
        {
          "indexed": false,
          "internalType": "uint256",
          "name": "_id",
          "type": "uint256"
        }
      ],
      "name": "HolderLimitSet",
      "type": "event"
    },
    {
      "anonymous": false,
      "inputs": [
        {
          "indexed": true,
          "internalType": "address",
          "name": "previousOwner",
          "type": "address"
        },
        {
          "indexed": true,
          "internalType": "address",
          "name": "newOwner",
          "type": "address"
        }
      ],
      "name": "OwnershipTransferred",
      "type": "event"
    },
    {
      "inputs": [],
      "name": "_tokenRegistry",
      "outputs": [
        {
          "internalType": "contract ITokenRegistry",
          "name": "",
          "type": "address"
        }
      ],
      "stateMutability": "view",
      "type": "function"
    },
    {
      "inputs": [
        {
          "internalType": "address",
          "name": "to",
          "type": "address"
        },
        {
          "internalType": "uint256",
          "name": "id",
          "type": "uint256"
        }
      ],
      "name": "canTransfer",
      "outputs": [
        {
          "internalType": "bool",
          "name": "",
          "type": "bool"
        }
      ],
      "stateMutability": "view",
      "type": "function"
    },
    {
      "inputs": [
        {
          "internalType": "address",
          "name": "to",
          "type": "address"
        },
        {
          "internalType": "uint256",
          "name": "id",
          "type": "uint256"
        },
        {
          "internalType": "uint256",
          "name": "amount",
          "type": "uint256"
        }
      ],
      "name": "created",
      "outputs": [],
      "stateMutability": "nonpayable",
      "type": "function"
    },
    {
      "inputs": [
        {
          "internalType": "address",
          "name": "from",
          "type": "address"
        },
        {
          "internalType": "uint256",
          "name": "id",
          "type": "uint256"
        }
      ],
      "name": "destroyed",
      "outputs": [],
      "stateMutability": "nonpayable",
      "type": "function"
    },
    {
      "inputs": [
        {
          "internalType": "uint256",
          "name": "id",
          "type": "uint256"
        }
      ],
      "name": "getHolderLimit",
      "outputs": [
        {
          "internalType": "uint256",
          "name": "",
          "type": "uint256"
        }
      ],
      "stateMutability": "view",
      "type": "function"
    },
    {
      "inputs": [
        {
          "internalType": "uint16",
          "name": "index",
          "type": "uint16"
        },
        {
          "internalType": "uint256",
          "name": "id",
          "type": "uint256"
        }
      ],
      "name": "getShareholderCountByCountry",
      "outputs": [
        {
          "internalType": "uint256",
          "name": "",
          "type": "uint256"
        }
      ],
      "stateMutability": "view",
      "type": "function"
    },
    {
      "inputs": [
        {
          "internalType": "uint256",
          "name": "index",
          "type": "uint256"
        },
        {
          "internalType": "uint256",
          "name": "id",
          "type": "uint256"
        }
      ],
      "name": "holderAt",
      "outputs": [
        {
          "internalType": "address",
          "name": "",
          "type": "address"
        }
      ],
      "stateMutability": "view",
      "type": "function"
    },
    {
      "inputs": [
        {
          "internalType": "uint256",
          "name": "id",
          "type": "uint256"
        }
      ],
      "name": "holderCount",
      "outputs": [
        {
          "internalType": "uint256",
          "name": "",
          "type": "uint256"
        }
      ],
      "stateMutability": "view",
      "type": "function"
    },
    {
      "inputs": [],
      "name": "owner",
      "outputs": [
        {
          "internalType": "address",
          "name": "",
          "type": "address"
        }
      ],
      "stateMutability": "view",
      "type": "function"
    },
    {
      "inputs": [],
      "name": "renounceOwnership",
      "outputs": [],
      "stateMutability": "nonpayable",
      "type": "function"
    },
    {
      "inputs": [
        {
          "internalType": "uint256",
          "name": "holderLimit",
          "type": "uint256"
        },
        {
          "internalType": "uint256",
          "name": "id",
          "type": "uint256"
        }
      ],
      "name": "setHolderLimit",
      "outputs": [],
      "stateMutability": "nonpayable",
      "type": "function"
    },
    {
      "inputs": [
        {
          "internalType": "address",
          "name": "newOwner",
          "type": "address"
        }
      ],
      "name": "transferOwnership",
      "outputs": [],
      "stateMutability": "nonpayable",
      "type": "function"
    },
    {
      "inputs": [
        {
          "internalType": "address",
          "name": "from",
          "type": "address"
        },
        {
          "internalType": "address",
          "name": "to",
          "type": "address"
        },
        {
          "internalType": "uint256",
          "name": "id",
          "type": "uint256"
        }
      ],
      "name": "transferred",
      "outputs": [],
      "stateMutability": "nonpayable",
      "type": "function"
    }
  ],
  "bytecode": {
    "object": "0x608060405234801561001057600080fd5b50604051610df2380380610df283398101604081905261002f91610143565b610038336100db565b600180546001600160a01b0319166001600160a01b038316908117909155604080516304d3863d60e21b8152905163134e18f4916004808201926020929091908290030181865afa158015610091573d6000803e3d6000fd5b505050506040513d601f19601f820116820180604052508101906100b59190610143565b600280546001600160a01b0319166001600160a01b039290921691909117905550610167565b600080546001600160a01b038381166001600160a01b0319831681178455604051919092169283917f8be0079c531659141344cd1fd0a4f28419497f9722a3daafe3b4186f6b6457e09190a35050565b6001600160a01b038116811461014057600080fd5b50565b60006020828403121561015557600080fd5b81516101608161012b565b9392505050565b610c7c806101766000396000f3fe608060405234801561001057600080fd5b50600436106100cf5760003560e01c80638d2ea7721161008c5780639e35d864116100665780639e35d864146101d6578063d45e09c1146101e9578063ede6a9a01461020c578063f2fde38b1461021f57600080fd5b80638d2ea772146101825780638da5cb5b1461019557806393e64393146101a657600080fd5b806306464e56146100d457806329f0897f146100e957806370d234c814610119578063715018a61461014757806387a58d801461014f5780638baf29b41461016f575b600080fd5b6100e76100e23660046109c8565b610232565b005b6100fc6100f73660046109c8565b6102b4565b6040516001600160a01b0390911681526020015b60405180910390f35b6101396101273660046109ea565b60009081526005602052604090205490565b604051908152602001610110565b6100e761034f565b61013961015d3660046109ea565b60009081526008602052604090205490565b6100e761017d366004610a1f565b610385565b6100e7610190366004610a5b565b6103c8565b6000546001600160a01b03166100fc565b6101396101b4366004610a95565b600090815260076020908152604080832061ffff949094168352929052205490565b6100e76101e4366004610ab3565b610400565b6101fc6101f7366004610a5b565b610477565b6040519015158152602001610110565b6001546100fc906001600160a01b031681565b6100e761022d366004610ae6565b6104d9565b6000546001600160a01b031633146102655760405162461bcd60e51b815260040161025c90610b08565b60405180910390fd5b60008181526005602090815260409182902084905581518481529081018390527fd37f9742b7c6b56526bd0780a910168ee57cb19de2f5aa0538b491b1a3a9ebbf910160405180910390a15050565b60008181526008602052604081205483106103115760405162461bcd60e51b815260206004820152601960248201527f7368617265686f6c64657220646f65736e277420657869737400000000000000604482015260640161025c565b600082815260086020526040902080548490811061033157610331610b3d565b6000918252602090912001546001600160a01b031690505b92915050565b6000546001600160a01b031633146103795760405162461bcd60e51b815260040161025c90610b08565b6103836000610574565b565b6001546001600160a01b031633146103af5760405162461bcd60e51b815260040161025c90610b53565b6103b982826105c4565b6103c383826106dd565b505050565b6001546001600160a01b031633146103f25760405162461bcd60e51b815260040161025c90610b53565b6103fc82826106dd565b5050565b6001546001600160a01b0316331461042a5760405162461bcd60e51b815260040161025c90610b53565b6000811161046d5760405162461bcd60e51b815260206004820152601060248201526f139bc81d1bdad95b8818dc99585d195960821b604482015260640161025c565b6103c383836105c4565b60008181526006602090815260408083206001600160a01b0386168452909152812054156104a757506001610349565b60008281526005602090815260408083205460089092529091205410156104d057506001610349565b50600092915050565b6000546001600160a01b031633146105035760405162461bcd60e51b815260040161025c90610b08565b6001600160a01b0381166105685760405162461bcd60e51b815260206004820152602660248201527f4f776e61626c653a206e6577206f776e657220697320746865207a65726f206160448201526564647265737360d01b606482015260840161025c565b61057181610574565b50565b600080546001600160a01b038381166001600160a01b0319831681178455604051919092169283917f8be0079c531659141344cd1fd0a4f28419497f9722a3daafe3b4186f6b6457e09190a35050565b60008181526006602090815260408083206001600160a01b038616845290915281205490036103fc57600081815260086020908152604080832080546001810182558185528385200180546001600160a01b0319166001600160a01b0388811691821790925586865291546006855283862083875290945282852093909355600254915163e7ffc16760e01b8152600481019190915291169063e7ffc16790602401602060405180830381865afa158015610683573d6000803e3d6000fd5b505050506040513d601f19601f820116820180604052508101906106a79190610b9d565b600083815260076020908152604080832061ffff8516845290915281208054929350906106d383610bd0565b9190505550505050565b60008181526006602090815260408083206001600160a01b0386168452909152812054900361074e5760405162461bcd60e51b815260206004820152601a60248201527f5368617265686f6c64657220646f6573206e6f74206578697374000000000000604482015260640161025c565b600154604051627eeac760e11b81526001600160a01b03848116600483015260248201849052600092169062fdd58e90604401602060405180830381865afa15801561079e573d6000803e3d6000fd5b505050506040513d601f19601f820116820180604052508101906107c29190610be9565b905080156107cf57505050565b60008281526006602090815260408083206001600160a01b03871684529091528120546107fe90600190610c02565b6000848152600860205260408120549192509061081d90600190610c02565b6000858152600860205260408120805492935090918390811061084257610842610b3d565b60009182526020808320909101548783526008909152604090912080546001600160a01b03909216925082918590811061087e5761087e610b3d565b600091825260208083209190910180546001600160a01b0319166001600160a01b039485161790558782526006815260408083208a8516845282528083205493851683528083209390935587825260089052208054806108e0576108e0610c19565b60008281526020808220600019908401810180546001600160a01b03191690559092019092558682526006815260408083206001600160a01b038a811680865291909352818420849055600254915163e7ffc16760e01b8152600481019190915291169063e7ffc16790602401602060405180830381865afa15801561096a573d6000803e3d6000fd5b505050506040513d601f19601f8201168201806040525081019061098e9190610b9d565b600087815260076020908152604080832061ffff8516845290915281208054929350906109ba83610c2f565b919050555050505050505050565b600080604083850312156109db57600080fd5b50508035926020909101359150565b6000602082840312156109fc57600080fd5b5035919050565b80356001600160a01b0381168114610a1a57600080fd5b919050565b600080600060608486031215610a3457600080fd5b610a3d84610a03565b9250610a4b60208501610a03565b9150604084013590509250925092565b60008060408385031215610a6e57600080fd5b610a7783610a03565b946020939093013593505050565b61ffff8116811461057157600080fd5b60008060408385031215610aa857600080fd5b8235610a7781610a85565b600080600060608486031215610ac857600080fd5b610ad184610a03565b95602085013595506040909401359392505050565b600060208284031215610af857600080fd5b610b0182610a03565b9392505050565b6020808252818101527f4f776e61626c653a2063616c6c6572206973206e6f7420746865206f776e6572604082015260600190565b634e487b7160e01b600052603260045260246000fd5b6020808252602a908201527f4f6e6c7920746f6b656e20636f6e74726163742063616e2063616c6c207468696040820152693990333ab731ba34b7b760b11b606082015260800190565b600060208284031215610baf57600080fd5b8151610b0181610a85565b634e487b7160e01b600052601160045260246000fd5b600060018201610be257610be2610bba565b5060010190565b600060208284031215610bfb57600080fd5b5051919050565b600082821015610c1457610c14610bba565b500390565b634e487b7160e01b600052603160045260246000fd5b600081610c3e57610c3e610bba565b50600019019056fea2646970667358221220e2f9d53d54c0b999cbb6ad4bb83f5a0733c226b437aeb8da4f447cc3be5eecf064736f6c634300080e0033",
    "linkReferences": {}
  },
  "methodIdentifiers": {
    "_tokenRegistry()": "ede6a9a0",
    "canTransfer(address,uint256)": "d45e09c1",
    "created(address,uint256,uint256)": "9e35d864",
    "destroyed(address,uint256)": "8d2ea772",
    "getHolderLimit(uint256)": "70d234c8",
    "getShareholderCountByCountry(uint16,uint256)": "93e64393",
    "holderAt(uint256,uint256)": "29f0897f",
    "holderCount(uint256)": "87a58d80",
    "owner()": "8da5cb5b",
    "renounceOwnership()": "715018a6",
    "setHolderLimit(uint256,uint256)": "06464e56",
    "transferOwnership(address)": "f2fde38b",
    "transferred(address,address,uint256)": "8baf29b4"
  },
  "id": 8
}