{
  "abi": [
    {
      "anonymous": false,
      "inputs": [
        {
          "indexed": true,
          "internalType": "address",
          "name": "_userAddress",
          "type": "address"
        },
        {
          "indexed": true,
          "internalType": "bool",
          "name": "_isFrozen",
          "type": "bool"
        },
        {
          "indexed": true,
          "internalType": "address",
          "name": "_owner",
          "type": "address"
        }
      ],
      "name": "AddressFrozen",
      "type": "event"
    },
    {
      "anonymous": false,
      "inputs": [
        {
          "indexed": true,
          "internalType": "address",
          "name": "_agent",
          "type": "address"
        }
      ],
      "name": "AgentAdded",
      "type": "event"
    },
    {
      "anonymous": false,
      "inputs": [
        {
          "indexed": true,
          "internalType": "address",
          "name": "_agent",
          "type": "address"
        }
      ],
      "name": "AgentRemoved",
      "type": "event"
    },
    {
      "anonymous": false,
      "inputs": [
        {
          "indexed": true,
          "internalType": "address",
          "name": "owner",
          "type": "address"
        },
        {
          "indexed": true,
          "internalType": "address",
          "name": "spender",
          "type": "address"
        },
        {
          "indexed": false,
          "internalType": "uint256",
          "name": "value",
          "type": "uint256"
        }
      ],
      "name": "Approval",
      "type": "event"
    },
    {
      "anonymous": false,
      "inputs": [
        {
          "indexed": true,
          "internalType": "address",
          "name": "_compliance",
          "type": "address"
        }
      ],
      "name": "ComplianceAdded",
      "type": "event"
    },
    {
      "anonymous": false,
      "inputs": [
        {
          "indexed": true,
          "internalType": "address",
          "name": "_identityRegistry",
          "type": "address"
        }
      ],
      "name": "IdentityRegistryAdded",
      "type": "event"
    },
    {
      "anonymous": false,
      "inputs": [
        {
          "indexed": false,
          "internalType": "uint8",
          "name": "version",
          "type": "uint8"
        }
      ],
      "name": "Initialized",
      "type": "event"
    },
    {
      "anonymous": false,
      "inputs": [
        {
          "indexed": true,
          "internalType": "address",
          "name": "previousOwner",
          "type": "address"
        },
        {
          "indexed": true,
          "internalType": "address",
          "name": "newOwner",
          "type": "address"
        }
      ],
      "name": "OwnershipTransferred",
      "type": "event"
    },
    {
      "anonymous": false,
      "inputs": [
        {
          "indexed": false,
          "internalType": "address",
          "name": "_userAddress",
          "type": "address"
        }
      ],
      "name": "Paused",
      "type": "event"
    },
    {
      "anonymous": false,
      "inputs": [
        {
          "indexed": false,
          "internalType": "address",
          "name": "_lostWallet",
          "type": "address"
        },
        {
          "indexed": false,
          "internalType": "address",
          "name": "_newWallet",
          "type": "address"
        },
        {
          "indexed": false,
          "internalType": "address",
          "name": "_investorOnchainID",
          "type": "address"
        }
      ],
      "name": "RecoverySuccess",
      "type": "event"
    },
    {
      "anonymous": false,
      "inputs": [
        {
          "indexed": true,
          "internalType": "address",
          "name": "_userAddress",
          "type": "address"
        },
        {
          "indexed": false,
          "internalType": "uint256",
          "name": "_amount",
          "type": "uint256"
        }
      ],
      "name": "TokensFrozen",
      "type": "event"
    },
    {
      "anonymous": false,
      "inputs": [
        {
          "indexed": true,
          "internalType": "address",
          "name": "_userAddress",
          "type": "address"
        },
        {
          "indexed": false,
          "internalType": "uint256",
          "name": "_amount",
          "type": "uint256"
        }
      ],
      "name": "TokensUnfrozen",
      "type": "event"
    },
    {
      "anonymous": false,
      "inputs": [
        {
          "indexed": true,
          "internalType": "address",
          "name": "from",
          "type": "address"
        },
        {
          "indexed": true,
          "internalType": "address",
          "name": "to",
          "type": "address"
        },
        {
          "indexed": false,
          "internalType": "uint256",
          "name": "value",
          "type": "uint256"
        }
      ],
      "name": "Transfer",
      "type": "event"
    },
    {
      "anonymous": false,
      "inputs": [
        {
          "indexed": false,
          "internalType": "address",
          "name": "_userAddress",
          "type": "address"
        }
      ],
      "name": "Unpaused",
      "type": "event"
    },
    {
      "anonymous": false,
      "inputs": [
        {
          "indexed": false,
          "internalType": "string",
          "name": "_newName",
          "type": "string"
        },
        {
          "indexed": false,
          "internalType": "string",
          "name": "_newSymbol",
          "type": "string"
        },
        {
          "indexed": false,
          "internalType": "uint8",
          "name": "_newDecimals",
          "type": "uint8"
        },
        {
          "indexed": false,
          "internalType": "string",
          "name": "_newVersion",
          "type": "string"
        },
        {
          "indexed": false,
          "internalType": "address",
          "name": "_newOnchainID",
          "type": "address"
        }
      ],
      "name": "UpdatedTokenInformation",
      "type": "event"
    },
    {
      "inputs": [
        {
          "internalType": "address",
          "name": "_agent",
          "type": "address"
        }
      ],
      "name": "addAgent",
      "outputs": [],
      "stateMutability": "nonpayable",
      "type": "function"
    },
    {
      "inputs": [
        {
          "internalType": "address",
          "name": "_agent",
          "type": "address"
        }
      ],
      "name": "addAgentOnTokenContract",
      "outputs": [],
      "stateMutability": "nonpayable",
      "type": "function"
    },
    {
      "inputs": [
        {
          "internalType": "address",
          "name": "_owner",
          "type": "address"
        },
        {
          "internalType": "address",
          "name": "_spender",
          "type": "address"
        }
      ],
      "name": "allowance",
      "outputs": [
        {
          "internalType": "uint256",
          "name": "",
          "type": "uint256"
        }
      ],
      "stateMutability": "view",
      "type": "function"
    },
    {
      "inputs": [
        {
          "internalType": "address",
          "name": "_spender",
          "type": "address"
        },
        {
          "internalType": "uint256",
          "name": "_amount",
          "type": "uint256"
        }
      ],
      "name": "approve",
      "outputs": [
        {
          "internalType": "bool",
          "name": "",
          "type": "bool"
        }
      ],
      "stateMutability": "nonpayable",
      "type": "function"
    },
    {
      "inputs": [
        {
          "internalType": "address",
          "name": "_userAddress",
          "type": "address"
        }
      ],
      "name": "balanceOf",
      "outputs": [
        {
          "internalType": "uint256",
          "name": "",
          "type": "uint256"
        }
      ],
      "stateMutability": "view",
      "type": "function"
    },
    {
      "inputs": [
        {
          "internalType": "address[]",
          "name": "_userAddresses",
          "type": "address[]"
        },
        {
          "internalType": "uint256[]",
          "name": "_amounts",
          "type": "uint256[]"
        }
      ],
      "name": "batchBurn",
      "outputs": [],
      "stateMutability": "nonpayable",
      "type": "function"
    },
    {
      "inputs": [
        {
          "internalType": "address[]",
          "name": "_fromList",
          "type": "address[]"
        },
        {
          "internalType": "address[]",
          "name": "_toList",
          "type": "address[]"
        },
        {
          "internalType": "uint256[]",
          "name": "_amounts",
          "type": "uint256[]"
        }
      ],
      "name": "batchForcedTransfer",
      "outputs": [],
      "stateMutability": "nonpayable",
      "type": "function"
    },
    {
      "inputs": [
        {
          "internalType": "address[]",
          "name": "_userAddresses",
          "type": "address[]"
        },
        {
          "internalType": "uint256[]",
          "name": "_amounts",
          "type": "uint256[]"
        }
      ],
      "name": "batchFreezePartialTokens",
      "outputs": [],
      "stateMutability": "nonpayable",
      "type": "function"
    },
    {
      "inputs": [
        {
          "internalType": "address[]",
          "name": "_toList",
          "type": "address[]"
        },
        {
          "internalType": "uint256[]",
          "name": "_amounts",
          "type": "uint256[]"
        }
      ],
      "name": "batchMint",
      "outputs": [],
      "stateMutability": "nonpayable",
      "type": "function"
    },
    {
      "inputs": [
        {
          "internalType": "address[]",
          "name": "_userAddresses",
          "type": "address[]"
        },
        {
          "internalType": "bool[]",
          "name": "_freeze",
          "type": "bool[]"
        }
      ],
      "name": "batchSetAddressFrozen",
      "outputs": [],
      "stateMutability": "nonpayable",
      "type": "function"
    },
    {
      "inputs": [
        {
          "internalType": "address[]",
          "name": "_toList",
          "type": "address[]"
        },
        {
          "internalType": "uint256[]",
          "name": "_amounts",
          "type": "uint256[]"
        }
      ],
      "name": "batchTransfer",
      "outputs": [],
      "stateMutability": "nonpayable",
      "type": "function"
    },
    {
      "inputs": [
        {
          "internalType": "address[]",
          "name": "_userAddresses",
          "type": "address[]"
        },
        {
          "internalType": "uint256[]",
          "name": "_amounts",
          "type": "uint256[]"
        }
      ],
      "name": "batchUnfreezePartialTokens",
      "outputs": [],
      "stateMutability": "nonpayable",
      "type": "function"
    },
    {
      "inputs": [
        {
          "internalType": "address",
          "name": "_userAddress",
          "type": "address"
        },
        {
          "internalType": "uint256",
          "name": "_amount",
          "type": "uint256"
        }
      ],
      "name": "burn",
      "outputs": [],
      "stateMutability": "nonpayable",
      "type": "function"
    },
    {
      "inputs": [],
      "name": "compliance",
      "outputs": [
        {
          "internalType": "contract ICompliance",
          "name": "",
          "type": "address"
        }
      ],
      "stateMutability": "view",
      "type": "function"
    },
    {
      "inputs": [],
      "name": "decimals",
      "outputs": [
        {
          "internalType": "uint8",
          "name": "",
          "type": "uint8"
        }
      ],
      "stateMutability": "view",
      "type": "function"
    },
    {
      "inputs": [
        {
          "internalType": "address",
          "name": "_spender",
          "type": "address"
        },
        {
          "internalType": "uint256",
          "name": "_subtractedValue",
          "type": "uint256"
        }
      ],
      "name": "decreaseAllowance",
      "outputs": [
        {
          "internalType": "bool",
          "name": "",
          "type": "bool"
        }
      ],
      "stateMutability": "nonpayable",
      "type": "function"
    },
    {
      "inputs": [
        {
          "internalType": "address",
          "name": "_from",
          "type": "address"
        },
        {
          "internalType": "address",
          "name": "_to",
          "type": "address"
        },
        {
          "internalType": "uint256",
          "name": "_amount",
          "type": "uint256"
        }
      ],
      "name": "forcedTransfer",
      "outputs": [
        {
          "internalType": "bool",
          "name": "",
          "type": "bool"
        }
      ],
      "stateMutability": "nonpayable",
      "type": "function"
    },
    {
      "inputs": [
        {
          "internalType": "address",
          "name": "_userAddress",
          "type": "address"
        },
        {
          "internalType": "uint256",
          "name": "_amount",
          "type": "uint256"
        }
      ],
      "name": "freezePartialTokens",
      "outputs": [],
      "stateMutability": "nonpayable",
      "type": "function"
    },
    {
      "inputs": [
        {
          "internalType": "address",
          "name": "_userAddress",
          "type": "address"
        }
      ],
      "name": "getFrozenTokens",
      "outputs": [
        {
          "internalType": "uint256",
          "name": "",
          "type": "uint256"
        }
      ],
      "stateMutability": "view",
      "type": "function"
    },
    {
      "inputs": [],
      "name": "identityRegistry",
      "outputs": [
        {
          "internalType": "contract IIdentityRegistry",
          "name": "",
          "type": "address"
        }
      ],
      "stateMutability": "view",
      "type": "function"
    },
    {
      "inputs": [
        {
          "internalType": "address",
          "name": "_spender",
          "type": "address"
        },
        {
          "internalType": "uint256",
          "name": "_addedValue",
          "type": "uint256"
        }
      ],
      "name": "increaseAllowance",
      "outputs": [
        {
          "internalType": "bool",
          "name": "",
          "type": "bool"
        }
      ],
      "stateMutability": "nonpayable",
      "type": "function"
    },
    {
      "inputs": [
        {
          "internalType": "address",
          "name": "_identityRegistry",
          "type": "address"
        },
        {
          "internalType": "address",
          "name": "_compliance",
          "type": "address"
        },
        {
          "internalType": "string",
          "name": "_name",
          "type": "string"
        },
        {
          "internalType": "string",
          "name": "_symbol",
          "type": "string"
        },
        {
          "internalType": "uint8",
          "name": "_decimals",
          "type": "uint8"
        },
        {
          "internalType": "address",
          "name": "_onchainID",
          "type": "address"
        }
      ],
      "name": "init",
      "outputs": [],
      "stateMutability": "nonpayable",
      "type": "function"
    },
    {
      "inputs": [
        {
          "internalType": "address",
          "name": "_agent",
          "type": "address"
        }
      ],
      "name": "isAgent",
      "outputs": [
        {
          "internalType": "bool",
          "name": "",
          "type": "bool"
        }
      ],
      "stateMutability": "view",
      "type": "function"
    },
    {
      "inputs": [
        {
          "internalType": "address",
          "name": "_userAddress",
          "type": "address"
        }
      ],
      "name": "isFrozen",
      "outputs": [
        {
          "internalType": "bool",
          "name": "",
          "type": "bool"
        }
      ],
      "stateMutability": "view",
      "type": "function"
    },
    {
      "inputs": [
        {
          "internalType": "address",
          "name": "_to",
          "type": "address"
        },
        {
          "internalType": "uint256",
          "name": "_amount",
          "type": "uint256"
        }
      ],
      "name": "mint",
      "outputs": [],
      "stateMutability": "nonpayable",
      "type": "function"
    },
    {
      "inputs": [],
      "name": "name",
      "outputs": [
        {
          "internalType": "string",
          "name": "",
          "type": "string"
        }
      ],
      "stateMutability": "view",
      "type": "function"
    },
    {
      "inputs": [],
      "name": "onchainID",
      "outputs": [
        {
          "internalType": "address",
          "name": "",
          "type": "address"
        }
      ],
      "stateMutability": "view",
      "type": "function"
    },
    {
      "inputs": [],
      "name": "owner",
      "outputs": [
        {
          "internalType": "address",
          "name": "",
          "type": "address"
        }
      ],
      "stateMutability": "view",
      "type": "function"
    },
    {
      "inputs": [],
      "name": "pause",
      "outputs": [],
      "stateMutability": "nonpayable",
      "type": "function"
    },
    {
      "inputs": [],
      "name": "paused",
      "outputs": [
        {
          "internalType": "bool",
          "name": "",
          "type": "bool"
        }
      ],
      "stateMutability": "view",
      "type": "function"
    },
    {
      "inputs": [
        {
          "internalType": "address",
          "name": "_lostWallet",
          "type": "address"
        },
        {
          "internalType": "address",
          "name": "_newWallet",
          "type": "address"
        },
        {
          "internalType": "address",
          "name": "_investorOnchainID",
          "type": "address"
        }
      ],
      "name": "recoveryAddress",
      "outputs": [
        {
          "internalType": "bool",
          "name": "",
          "type": "bool"
        }
      ],
      "stateMutability": "nonpayable",
      "type": "function"
    },
    {
      "inputs": [
        {
          "internalType": "address",
          "name": "_agent",
          "type": "address"
        }
      ],
      "name": "removeAgent",
      "outputs": [],
      "stateMutability": "nonpayable",
      "type": "function"
    },
    {
      "inputs": [
        {
          "internalType": "address",
          "name": "_agent",
          "type": "address"
        }
      ],
      "name": "removeAgentOnTokenContract",
      "outputs": [],
      "stateMutability": "nonpayable",
      "type": "function"
    },
    {
      "inputs": [],
      "name": "renounceOwnership",
      "outputs": [],
      "stateMutability": "nonpayable",
      "type": "function"
    },
    {
      "inputs": [
        {
          "internalType": "address",
          "name": "_userAddress",
          "type": "address"
        },
        {
          "internalType": "bool",
          "name": "_freeze",
          "type": "bool"
        }
      ],
      "name": "setAddressFrozen",
      "outputs": [],
      "stateMutability": "nonpayable",
      "type": "function"
    },
    {
      "inputs": [
        {
          "internalType": "address",
          "name": "_compliance",
          "type": "address"
        }
      ],
      "name": "setCompliance",
      "outputs": [],
      "stateMutability": "nonpayable",
      "type": "function"
    },
    {
      "inputs": [
        {
          "internalType": "address",
          "name": "_identityRegistry",
          "type": "address"
        }
      ],
      "name": "setIdentityRegistry",
      "outputs": [],
      "stateMutability": "nonpayable",
      "type": "function"
    },
    {
      "inputs": [
        {
          "internalType": "string",
          "name": "_name",
          "type": "string"
        }
      ],
      "name": "setName",
      "outputs": [],
      "stateMutability": "nonpayable",
      "type": "function"
    },
    {
      "inputs": [
        {
          "internalType": "address",
          "name": "_onchainID",
          "type": "address"
        }
      ],
      "name": "setOnchainID",
      "outputs": [],
      "stateMutability": "nonpayable",
      "type": "function"
    },
    {
      "inputs": [
        {
          "internalType": "string",
          "name": "_symbol",
          "type": "string"
        }
      ],
      "name": "setSymbol",
      "outputs": [],
      "stateMutability": "nonpayable",
      "type": "function"
    },
    {
      "inputs": [],
      "name": "symbol",
      "outputs": [
        {
          "internalType": "string",
          "name": "",
          "type": "string"
        }
      ],
      "stateMutability": "view",
      "type": "function"
    },
    {
      "inputs": [],
      "name": "totalSupply",
      "outputs": [
        {
          "internalType": "uint256",
          "name": "",
          "type": "uint256"
        }
      ],
      "stateMutability": "view",
      "type": "function"
    },
    {
      "inputs": [
        {
          "internalType": "address",
          "name": "_to",
          "type": "address"
        },
        {
          "internalType": "uint256",
          "name": "_amount",
          "type": "uint256"
        }
      ],
      "name": "transfer",
      "outputs": [
        {
          "internalType": "bool",
          "name": "",
          "type": "bool"
        }
      ],
      "stateMutability": "nonpayable",
      "type": "function"
    },
    {
      "inputs": [
        {
          "internalType": "address",
          "name": "_from",
          "type": "address"
        },
        {
          "internalType": "address",
          "name": "_to",
          "type": "address"
        },
        {
          "internalType": "uint256",
          "name": "_amount",
          "type": "uint256"
        }
      ],
      "name": "transferFrom",
      "outputs": [
        {
          "internalType": "bool",
          "name": "",
          "type": "bool"
        }
      ],
      "stateMutability": "nonpayable",
      "type": "function"
    },
    {
      "inputs": [
        {
          "internalType": "address",
          "name": "newOwner",
          "type": "address"
        }
      ],
      "name": "transferOwnership",
      "outputs": [],
      "stateMutability": "nonpayable",
      "type": "function"
    },
    {
      "inputs": [
        {
          "internalType": "address",
          "name": "_newOwner",
          "type": "address"
        }
      ],
      "name": "transferOwnershipOnTokenContract",
      "outputs": [],
      "stateMutability": "nonpayable",
      "type": "function"
    },
    {
      "inputs": [
        {
          "internalType": "address",
          "name": "_userAddress",
          "type": "address"
        },
        {
          "internalType": "uint256",
          "name": "_amount",
          "type": "uint256"
        }
      ],
      "name": "unfreezePartialTokens",
      "outputs": [],
      "stateMutability": "nonpayable",
      "type": "function"
    },
    {
      "inputs": [],
      "name": "unpause",
      "outputs": [],
      "stateMutability": "nonpayable",
      "type": "function"
    },
    {
      "inputs": [],
      "name": "version",
      "outputs": [
        {
          "internalType": "string",
          "name": "",
          "type": "string"
        }
      ],
      "stateMutability": "view",
      "type": "function"
    }
  ],
  "bytecode": {
    "object": "0x6080604052606e805460ff1916905534801561001a57600080fd5b5061343a8061002a6000396000f3fe608060405234801561001057600080fd5b50600436106102bb5760003560e01c806370a0823111610182578063a9059cbb116100e9578063cbf3f861116100a2578063f2fde38b1161007c578063f2fde38b1461067e578063f898178914610691578063f91b619c146106a4578063fc7e5fa8146106b757600080fd5b8063cbf3f86114610606578063dd62ed3e14610619578063e58398361461065257600080fd5b8063a9059cbb14610591578063aba63705146105a4578063b422d830146105ba578063b84c8246146105cd578063c47f0027146105e0578063c69c09cf146105f357600080fd5b80639285948a1161013b5780639285948a1461052a57806395d89b411461053d57806397a6278e146105455780639dc29fac146105585780639fc1d0e71461056b578063a457c2d71461057e57600080fd5b806370a08231146104d0578063715018a6146104e35780638456cb59146104eb57806384e79842146104f357806388d695b2146105065780638da5cb5b1461051957600080fd5b80633d1ddc5b1161022657806351411b33116101df57806351411b331461045a57806354fd4d501461046d5780635c975abb1461048e5780635dc7a3cb146104995780636290865d146104ac57806368573107146104bd57600080fd5b80633d1ddc5b146103f35780633f4ba83a1461040657806340c10f191461040e57806342a47abc146104215780634710362d146104345780634a6cc6771461044757600080fd5b80631a7af379116102785780631a7af3791461037f5780631fe56f7d146103925780631ffbb064146103a557806323b872dd146103b8578063313ce567146103cb57806339509351146103e057600080fd5b806306fdde03146102c0578063095ea7b3146102de578063125c4a3314610301578063134e18f414610316578063158b1a571461034057806318160ddd14610377575b600080fd5b6102c86106ca565b6040516102d59190612c18565b60405180910390f35b6102f16102ec366004612c42565b61075c565b60405190151581526020016102d5565b61031461030f366004612c42565b610773565b005b606e5461010090046001600160a01b03165b6040516001600160a01b0390911681526020016102d5565b61036961034e366004612c6c565b6001600160a01b03166000908152606d602052604090205490565b6040519081526020016102d5565b606854610369565b61031461038d366004612cd3565b6108a2565b6103146103a0366004612c42565b610917565b6102f16103b3366004612c6c565b610a40565b6102f16103c6366004612d3f565b610a4d565b606b5460405160ff90911681526020016102d5565b6102f16103ee366004612c42565b610d56565b610314610401366004612c6c565b610d8d565b610314610e49565b61031461041c366004612c42565b610ef7565b61031461042f366004612d7b565b611111565b610314610442366004612cd3565b6111a7565b610314610455366004612cd3565b61120c565b610314610468366004612c6c565b611271565b604080518082019091526005815264332e352e3160d81b60208201526102c8565b606e5460ff166102f1565b6103146104a7366004612c6c565b6112a7565b606f546001600160a01b0316610328565b6103146104cb366004612cd3565b6112b0565b6103696104de366004612c6c565b611315565b610314611330565b610314611366565b610314610501366004612c6c565b6113eb565b610314610514366004612cd3565b611457565b6033546001600160a01b0316610328565b6102f1610538366004612e15565b6114bd565b6102c861182d565b610314610553366004612c6c565b61183c565b610314610566366004612c42565b6118a8565b6102f1610579366004612d3f565b6119fb565b6102f161058c366004612c42565b611bd8565b6102f161059f366004612c42565b611c0f565b606b5461010090046001600160a01b0316610328565b6103146105c8366004612c6c565b611e85565b6103146105db366004612e58565b611e8e565b6103146105ee366004612e58565b611f38565b610314610601366004612ed8565b611f6e565b610314610614366004612c6c565b611fe8565b610369610627366004612f0f565b6001600160a01b03918216600090815260676020908152604080832093909416825291909152205490565b6102f1610660366004612c6c565b6001600160a01b03166000908152606c602052604090205460ff1690565b61031461068c366004612c6c565b612064565b61031461069f366004612c6c565b6120fc565b6103146106b2366004612fe5565b612170565b6103146106c5366004612cd3565b612338565b6060606980546106d990613092565b80601f016020809104026020016040519081016040528092919081815260200182805461070590613092565b80156107525780601f1061072757610100808354040283529160200191610752565b820191906000526020600020905b81548152906001019060200180831161073557829003601f168201915b5050505050905090565b600061076933848461239d565b5060015b92915050565b61077c33610a40565b6107a15760405162461bcd60e51b8152600401610798906130cc565b60405180910390fd5b60006107ac83611315565b6001600160a01b0384166000908152606d60205260409020549091506107d3908390613130565b8110156108225760405162461bcd60e51b815260206004820181905260248201527f416d6f756e74206578636565647320617661696c61626c652062616c616e63656044820152606401610798565b6001600160a01b0383166000908152606d6020526040902054610846908390613130565b6001600160a01b0384166000818152606d6020526040908190209290925590517fa065e63c631c86f1b9f66a4a2f63f2093bf1c2168d23290259dbd969e0222a45906108959085815260200190565b60405180910390a2505050565b60005b83811015610910576108fe8585838181106108c2576108c2613148565b90506020020160208101906108d79190612c6c565b8484848181106108e9576108e9613148565b9050602002016020810190610601919061315e565b806109088161317b565b9150506108a5565b5050505050565b61092033610a40565b61093c5760405162461bcd60e51b8152600401610798906130cc565b6001600160a01b0382166000908152606d60205260409020548111156109c15760405162461bcd60e51b815260206004820152603460248201527f416d6f756e742073686f756c64206265206c657373207468616e206f7220657160448201527375616c20746f2066726f7a656e20746f6b656e7360601b6064820152608401610798565b6001600160a01b0382166000908152606d60205260409020546109e5908290613194565b6001600160a01b0383166000818152606d6020526040908190209290925590517f9bed35cb62ad0dba04f9d5bfee4b5bc91443e77da8a65c4c84834c51bb08b0d690610a349084815260200190565b60405180910390a25050565b600061076d6065836124c2565b606e5460009060ff1615610a735760405162461bcd60e51b8152600401610798906131ab565b6001600160a01b0383166000908152606c602052604090205460ff16158015610ab557506001600160a01b0384166000908152606c602052604090205460ff16155b610af45760405162461bcd60e51b815260206004820152601060248201526f3bb0b63632ba1034b990333937bd32b760811b6044820152606401610798565b6001600160a01b0384166000908152606d6020526040902054610b1685611315565b610b209190613194565b821115610b665760405162461bcd60e51b8152602060048201526014602482015273496e73756666696369656e742042616c616e636560601b6044820152606401610798565b606e5460405163b9209e3360e01b81526001600160a01b0385811660048301526101009092049091169063b9209e3390602401602060405180830381865afa158015610bb6573d6000803e3d6000fd5b505050506040513d601f19601f82011682018060405250810190610bda91906131d5565b8015610c565750606f546040516372331c7360e11b81526001600160a01b039091169063e46638e690610c15908790879087906004016131f2565b602060405180830381865afa158015610c32573d6000803e3d6000fd5b505050506040513d601f19601f82011682018060405250810190610c5691906131d5565b15610d0f57606f546040516322ebca6d60e21b81526001600160a01b0390911690638baf29b490610c8f908790879087906004016131f2565b600060405180830381600087803b158015610ca957600080fd5b505af1158015610cbd573d6000803e3d6000fd5b50505050610ccc848484612545565b6001600160a01b038416600090815260676020908152604080832033808552925290912054610d07918691610d02908690613194565b61239d565b506001610d4f565b60405162461bcd60e51b81526020600482015260156024820152745472616e73666572206e6f7420706f737369626c6560581b6044820152606401610798565b9392505050565b3360008181526067602090815260408083206001600160a01b03871684529091528120549091610769918590610d02908690613130565b6033546001600160a01b03163314610db75760405162461bcd60e51b815260040161079890613216565b606b80546001600160a01b03808416610100908102610100600160a81b031984168117948590556040805180820182526005815264332e352e3160d81b602082015290517f6a1105ac8148a3c319adbc369f9072573e8a11d3a3d195e067e7c40767ec54d196610e3e96606996606a9660ff968716969092169590951794910416906132ea565b60405180910390a150565b610e5233610a40565b610e6e5760405162461bcd60e51b8152600401610798906130cc565b606e5460ff16610eb75760405162461bcd60e51b815260206004820152601460248201527314185d5cd8589b194e881b9bdd081c185d5cd95960621b6044820152606401610798565b606e805460ff191690556040513381527f5db9ee0a495bf2e6ff9c91a7834c1ba4fdd244a5e8aa4e537bd38aeae4b073aa906020015b60405180910390a1565b610f0033610a40565b610f1c5760405162461bcd60e51b8152600401610798906130cc565b606e5460405163b9209e3360e01b81526001600160a01b0384811660048301526101009092049091169063b9209e3390602401602060405180830381865afa158015610f6c573d6000803e3d6000fd5b505050506040513d601f19601f82011682018060405250810190610f9091906131d5565b610fdc5760405162461bcd60e51b815260206004820152601960248201527f4964656e74697479206973206e6f742076657269666965642e000000000000006044820152606401610798565b606f546040516372331c7360e11b81526001600160a01b039091169063e46638e690611010903390869086906004016131f2565b602060405180830381865afa15801561102d573d6000803e3d6000fd5b505050506040513d601f19601f8201168201806040525081019061105191906131d5565b61109d5760405162461bcd60e51b815260206004820152601760248201527f436f6d706c69616e6365206e6f7420666f6c6c6f7765640000000000000000006044820152606401610798565b6110a782826126b3565b606f54604051635f8dead360e01b81526001600160a01b0384811660048301526024820184905290911690635f8dead390604401600060405180830381600087803b1580156110f557600080fd5b505af1158015611109573d6000803e3d6000fd5b505050505050565b60005b8581101561119e5761118b87878381811061113157611131613148565b90506020020160208101906111469190612c6c565b86868481811061115857611158613148565b905060200201602081019061116d9190612c6c565b85858581811061117f5761117f613148565b905060200201356119fb565b50806111968161317b565b915050611114565b50505050505050565b60005b83811015610910576111fa8585838181106111c7576111c7613148565b90506020020160208101906111dc9190612c6c565b8484848181106111ee576111ee613148565b90506020020135610917565b806112048161317b565b9150506111aa565b60005b838110156109105761125f85858381811061122c5761122c613148565b90506020020160208101906112419190612c6c565b84848481811061125357611253613148565b905060200201356118a8565b806112698161317b565b91505061120f565b6033546001600160a01b0316331461129b5760405162461bcd60e51b815260040161079890613216565b6112a481612064565b50565b6112a48161183c565b60005b83811015610910576113038585838181106112d0576112d0613148565b90506020020160208101906112e59190612c6c565b8484848181106112f7576112f7613148565b90506020020135610ef7565b8061130d8161317b565b9150506112b3565b6001600160a01b031660009081526066602052604090205490565b6033546001600160a01b0316331461135a5760405162461bcd60e51b815260040161079890613216565b611364600061279b565b565b61136f33610a40565b61138b5760405162461bcd60e51b8152600401610798906130cc565b606e5460ff16156113ae5760405162461bcd60e51b8152600401610798906131ab565b606e805460ff191660011790556040513381527f62e78cea01bee320cd4e420270b5ea74000d11b0c9f74754ebdbfc544b05a25890602001610eed565b6033546001600160a01b031633146114155760405162461bcd60e51b815260040161079890613216565b6114206065826127ed565b6040516001600160a01b038216907ff68e73cec97f2d70aa641fb26e87a4383686e2efacb648f2165aeb02ac562ec590600090a250565b60005b83811015610910576114aa85858381811061147757611477613148565b905060200201602081019061148c9190612c6c565b84848481811061149e5761149e613148565b90506020020135611c0f565b50806114b58161317b565b91505061145a565b60006114c833610a40565b6114e45760405162461bcd60e51b8152600401610798906130cc565b6114ed84611315565b6000036115335760405162461bcd60e51b81526020600482015260146024820152733737903a37b5b2b739903a37903932b1b7bb32b960611b6044820152606401610798565b604080516001600160a01b038516602082015283916000910160408051808303601f1901815290829052805160209091012063d202158d60e01b8252600482018190526001602483015291506001600160a01b0383169063d202158d90604401602060405180830381865afa1580156115b0573d6000803e3d6000fd5b505050506040513d601f19601f820116820180604052508101906115d491906131d5565b156117ed5760006115e487611315565b6001600160a01b038881166000818152606d60205260409081902054606e549151637e42683b60e01b8152600481019390935293945061010090049091169063454a03e090899087908490637e42683b90602401602060405180830381865afa158015611655573d6000803e3d6000fd5b505050506040513d601f19601f820116820180604052508101906116799190613347565b6040516001600160e01b031960e086901b1681526001600160a01b03938416600482015292909116602483015261ffff166044820152606401600060405180830381600087803b1580156116cc57600080fd5b505af11580156116e0573d6000803e3d6000fd5b5050606e5460405163a8d29d1d60e01b81526001600160a01b038c81166004830152610100909204909116925063a8d29d1d9150602401600060405180830381600087803b15801561173157600080fd5b505af1158015611745573d6000803e3d6000fd5b505050506117548888846119fb565b508015611765576117658782610773565b6001600160a01b0388166000908152606c602052604090205460ff16151560010361179557611795876001611f6e565b604080516001600160a01b038a81168252898116602083015288168183015290517ff0c9129a94f30f1caaceb63e44b9811d0a3edf1d6c23757f346093af5553fed09181900360600190a16001945050505050610d4f565b60405162461bcd60e51b81526020600482015260156024820152745265636f76657279206e6f7420706f737369626c6560581b6044820152606401610798565b6060606a80546106d990613092565b6033546001600160a01b031633146118665760405162461bcd60e51b815260040161079890613216565b611871606582612869565b6040516001600160a01b038216907fed9c8ad8d5a0a66898ea49d2956929c93ae2e8bd50281b2ed897c5d1a6737e0b90600090a250565b6118b133610a40565b6118cd5760405162461bcd60e51b8152600401610798906130cc565b6001600160a01b0382166000908152606d60205260408120546118ef84611315565b6118f99190613194565b90508082111561198f57600061190f8284613194565b6001600160a01b0385166000908152606d6020526040902054909150611936908290613194565b6001600160a01b0385166000818152606d6020526040908190209290925590517f9bed35cb62ad0dba04f9d5bfee4b5bc91443e77da8a65c4c84834c51bb08b0d6906119859084815260200190565b60405180910390a2505b61199983836128eb565b606f5460405163469753b960e11b81526001600160a01b0385811660048301526024820185905290911690638d2ea77290604401600060405180830381600087803b1580156119e757600080fd5b505af115801561119e573d6000803e3d6000fd5b6000611a0633610a40565b611a225760405162461bcd60e51b8152600401610798906130cc565b6001600160a01b0384166000908152606d6020526040812054611a4486611315565b611a4e9190613194565b905080831115611ae4576000611a648285613194565b6001600160a01b0387166000908152606d6020526040902054909150611a8b908290613194565b6001600160a01b0387166000818152606d6020526040908190209290925590517f9bed35cb62ad0dba04f9d5bfee4b5bc91443e77da8a65c4c84834c51bb08b0d690611ada9084815260200190565b60405180910390a2505b606e5460405163b9209e3360e01b81526001600160a01b0386811660048301526101009092049091169063b9209e3390602401602060405180830381865afa158015611b34573d6000803e3d6000fd5b505050506040513d601f19601f82011682018060405250810190611b5891906131d5565b15610d0f57606f546040516322ebca6d60e21b81526001600160a01b0390911690638baf29b490611b91908890889088906004016131f2565b600060405180830381600087803b158015611bab57600080fd5b505af1158015611bbf573d6000803e3d6000fd5b50505050611bce858585612545565b6001915050610d4f565b3360008181526067602090815260408083206001600160a01b03871684529091528120549091610769918590610d02908690613194565b606e5460009060ff1615611c355760405162461bcd60e51b8152600401610798906131ab565b6001600160a01b0383166000908152606c602052604090205460ff16158015611c6e5750336000908152606c602052604090205460ff16155b611cad5760405162461bcd60e51b815260206004820152601060248201526f3bb0b63632ba1034b990333937bd32b760811b6044820152606401610798565b336000818152606d602052604090205490611cc790611315565b611cd19190613194565b821115611d175760405162461bcd60e51b8152602060048201526014602482015273496e73756666696369656e742042616c616e636560601b6044820152606401610798565b606e5460405163b9209e3360e01b81526001600160a01b0385811660048301526101009092049091169063b9209e3390602401602060405180830381865afa158015611d67573d6000803e3d6000fd5b505050506040513d601f19601f82011682018060405250810190611d8b91906131d5565b8015611e075750606f546040516372331c7360e11b81526001600160a01b039091169063e46638e690611dc6903390879087906004016131f2565b602060405180830381865afa158015611de3573d6000803e3d6000fd5b505050506040513d601f19601f82011682018060405250810190611e0791906131d5565b15610d0f57606f546040516322ebca6d60e21b81526001600160a01b0390911690638baf29b490611e40903390879087906004016131f2565b600060405180830381600087803b158015611e5a57600080fd5b505af1158015611e6e573d6000803e3d6000fd5b50505050611e7d338484612545565b50600161076d565b6112a4816113eb565b6033546001600160a01b03163314611eb85760405162461bcd60e51b815260040161079890613216565b611ec4606a8383612abe565b50606b546040805180820182526005815264332e352e3160d81b602082015290517f6a1105ac8148a3c319adbc369f9072573e8a11d3a3d195e067e7c40767ec54d192611f2c92606992606a9260ff811692916101009091046001600160a01b0316906132ea565b60405180910390a15050565b6033546001600160a01b03163314611f625760405162461bcd60e51b815260040161079890613216565b611ec460698383612abe565b611f7733610a40565b611f935760405162461bcd60e51b8152600401610798906130cc565b6001600160a01b0382166000818152606c6020526040808220805460ff19168515159081179091559051339391927f7fa523c84ab8d7fc5b72f08b9e46dbbf10c39e119a075b3e317002d14bc9f43691a45050565b6033546001600160a01b031633146120125760405162461bcd60e51b815260040161079890613216565b606e8054610100600160a81b0319166101006001600160a01b038416908102919091179091556040517fd2be862d755bca7e0d39772b2cab3a5578da9c285f69199f4c063c2294a7f36c90600090a250565b6033546001600160a01b0316331461208e5760405162461bcd60e51b815260040161079890613216565b6001600160a01b0381166120f35760405162461bcd60e51b815260206004820152602660248201527f4f776e61626c653a206e6577206f776e657220697320746865207a65726f206160448201526564647265737360d01b6064820152608401610798565b6112a48161279b565b6033546001600160a01b031633146121265760405162461bcd60e51b815260040161079890613216565b606f80546001600160a01b0319166001600160a01b0383169081179091556040517f7f3a888862559648ec01d97deb7b5012bff86dc91e654a1de397170db40e35b690600090a250565b600061217c60016129d7565b90508015612194576000805461ff0019166101001790555b84516121a7906069906020880190612b42565b5083516121bb90606a906020870190612b42565b50606b805460ff85166001600160a81b0319909116176101006001600160a01b03858116820292909217909255606e8054610100600160a81b031916918a169283029190911790556040517fd2be862d755bca7e0d39772b2cab3a5578da9c285f69199f4c063c2294a7f36c90600090a2606f80546001600160a01b0319166001600160a01b0388169081179091556040517f7f3a888862559648ec01d97deb7b5012bff86dc91e654a1de397170db40e35b690600090a2606b546040805180820182526005815264332e352e3160d81b602082015290517f6a1105ac8148a3c319adbc369f9072573e8a11d3a3d195e067e7c40767ec54d1926122da92606992606a9260ff811692916101009091046001600160a01b0316906132ea565b60405180910390a16122ea612a64565b801561119e576000805461ff0019169055604051600181527f7f26b83ff96e1f2b6a682f133852f6798a09c465da95921460cefb38474024989060200160405180910390a150505050505050565b60005b838110156109105761238b85858381811061235857612358613148565b905060200201602081019061236d9190612c6c565b84848481811061237f5761237f613148565b90506020020135610773565b806123958161317b565b91505061233b565b6001600160a01b0383166123ff5760405162461bcd60e51b8152602060048201526024808201527f45524332303a20617070726f76652066726f6d20746865207a65726f206164646044820152637265737360e01b6064820152608401610798565b6001600160a01b0382166124605760405162461bcd60e51b815260206004820152602260248201527f45524332303a20617070726f766520746f20746865207a65726f206164647265604482015261737360f01b6064820152608401610798565b6001600160a01b0383811660008181526067602090815260408083209487168084529482529182902085905590518481527f8c5be1e5ebec7d5bd14f71427d1e84f3dd0314c0f7b2291e5b200ac8c7c3b92591015b60405180910390a3505050565b60006001600160a01b0382166125255760405162461bcd60e51b815260206004820152602260248201527f526f6c65733a206163636f756e7420697320746865207a65726f206164647265604482015261737360f01b6064820152608401610798565b506001600160a01b03166000908152602091909152604090205460ff1690565b6001600160a01b0383166125a95760405162461bcd60e51b815260206004820152602560248201527f45524332303a207472616e736665722066726f6d20746865207a65726f206164604482015264647265737360d81b6064820152608401610798565b6001600160a01b03821661260b5760405162461bcd60e51b815260206004820152602360248201527f45524332303a207472616e7366657220746f20746865207a65726f206164647260448201526265737360e81b6064820152608401610798565b6001600160a01b03831660009081526066602052604090205461262f908290613194565b6001600160a01b03808516600090815260666020526040808220939093559084168152205461265f908290613130565b6001600160a01b0380841660008181526066602052604090819020939093559151908516907fddf252ad1be2c89b69c2b068fc378daa952ba7f163c4a11628f55a4df523b3ef906124b59085815260200190565b6001600160a01b0382166127095760405162461bcd60e51b815260206004820152601f60248201527f45524332303a206d696e7420746f20746865207a65726f2061646472657373006044820152606401610798565b806068546127179190613130565b6068556001600160a01b03821660009081526066602052604090205461273e908290613130565b6001600160a01b0383166000818152606660205260408082209390935591519091907fddf252ad1be2c89b69c2b068fc378daa952ba7f163c4a11628f55a4df523b3ef9061278f9085815260200190565b60405180910390a35050565b603380546001600160a01b038381166001600160a01b0319831681179093556040519116919082907f8be0079c531659141344cd1fd0a4f28419497f9722a3daafe3b4186f6b6457e090600090a35050565b6127f782826124c2565b156128445760405162461bcd60e51b815260206004820152601f60248201527f526f6c65733a206163636f756e7420616c72656164792068617320726f6c65006044820152606401610798565b6001600160a01b0316600090815260209190915260409020805460ff19166001179055565b61287382826124c2565b6128c95760405162461bcd60e51b815260206004820152602160248201527f526f6c65733a206163636f756e7420646f6573206e6f74206861766520726f6c6044820152606560f81b6064820152608401610798565b6001600160a01b0316600090815260209190915260409020805460ff19169055565b6001600160a01b03821661294b5760405162461bcd60e51b815260206004820152602160248201527f45524332303a206275726e2066726f6d20746865207a65726f206164647265736044820152607360f81b6064820152608401610798565b6001600160a01b03821660009081526066602052604090205461296f908290613194565b6001600160a01b038316600090815260666020526040902055606854612996908290613194565b6068556040518181526000906001600160a01b038416907fddf252ad1be2c89b69c2b068fc378daa952ba7f163c4a11628f55a4df523b3ef9060200161278f565b60008054610100900460ff1615612a1e578160ff1660011480156129fa5750303b155b612a165760405162461bcd60e51b81526004016107989061336b565b506000919050565b60005460ff808416911610612a455760405162461bcd60e51b81526004016107989061336b565b506000805460ff191660ff92909216919091179055600190565b919050565b600054610100900460ff16612a8b5760405162461bcd60e51b8152600401610798906133b9565b611364600054610100900460ff16612ab55760405162461bcd60e51b8152600401610798906133b9565b6113643361279b565b828054612aca90613092565b90600052602060002090601f016020900481019282612aec5760008555612b32565b82601f10612b055782800160ff19823516178555612b32565b82800160010185558215612b32579182015b82811115612b32578235825591602001919060010190612b17565b50612b3e929150612bb6565b5090565b828054612b4e90613092565b90600052602060002090601f016020900481019282612b705760008555612b32565b82601f10612b8957805160ff1916838001178555612b32565b82800160010185558215612b32579182015b82811115612b32578251825591602001919060010190612b9b565b5b80821115612b3e5760008155600101612bb7565b6000815180845260005b81811015612bf157602081850181015186830182015201612bd5565b81811115612c03576000602083870101525b50601f01601f19169290920160200192915050565b602081526000610d4f6020830184612bcb565b80356001600160a01b0381168114612a5f57600080fd5b60008060408385031215612c5557600080fd5b612c5e83612c2b565b946020939093013593505050565b600060208284031215612c7e57600080fd5b610d4f82612c2b565b60008083601f840112612c9957600080fd5b50813567ffffffffffffffff811115612cb157600080fd5b6020830191508360208260051b8501011115612ccc57600080fd5b9250929050565b60008060008060408587031215612ce957600080fd5b843567ffffffffffffffff80821115612d0157600080fd5b612d0d88838901612c87565b90965094506020870135915080821115612d2657600080fd5b50612d3387828801612c87565b95989497509550505050565b600080600060608486031215612d5457600080fd5b612d5d84612c2b565b9250612d6b60208501612c2b565b9150604084013590509250925092565b60008060008060008060608789031215612d9457600080fd5b863567ffffffffffffffff80821115612dac57600080fd5b612db88a838b01612c87565b90985096506020890135915080821115612dd157600080fd5b612ddd8a838b01612c87565b90965094506040890135915080821115612df657600080fd5b50612e0389828a01612c87565b979a9699509497509295939492505050565b600080600060608486031215612e2a57600080fd5b612e3384612c2b565b9250612e4160208501612c2b565b9150612e4f60408501612c2b565b90509250925092565b60008060208385031215612e6b57600080fd5b823567ffffffffffffffff80821115612e8357600080fd5b818501915085601f830112612e9757600080fd5b813581811115612ea657600080fd5b866020828501011115612eb857600080fd5b60209290920196919550909350505050565b80151581146112a457600080fd5b60008060408385031215612eeb57600080fd5b612ef483612c2b565b91506020830135612f0481612eca565b809150509250929050565b60008060408385031215612f2257600080fd5b612f2b83612c2b565b9150612f3960208401612c2b565b90509250929050565b634e487b7160e01b600052604160045260246000fd5b600082601f830112612f6957600080fd5b813567ffffffffffffffff80821115612f8457612f84612f42565b604051601f8301601f19908116603f01168101908282118183101715612fac57612fac612f42565b81604052838152866020858801011115612fc557600080fd5b836020870160208301376000602085830101528094505050505092915050565b60008060008060008060c08789031215612ffe57600080fd5b61300787612c2b565b955061301560208801612c2b565b9450604087013567ffffffffffffffff8082111561303257600080fd5b61303e8a838b01612f58565b9550606089013591508082111561305457600080fd5b5061306189828a01612f58565b935050608087013560ff8116811461307857600080fd5b915061308660a08801612c2b565b90509295509295509295565b600181811c908216806130a657607f821691505b6020821081036130c657634e487b7160e01b600052602260045260246000fd5b50919050565b6020808252602e908201527f4167656e74526f6c653a2063616c6c657220646f6573206e6f7420686176652060408201526d746865204167656e7420726f6c6560901b606082015260800190565b634e487b7160e01b600052601160045260246000fd5b600082198211156131435761314361311a565b500190565b634e487b7160e01b600052603260045260246000fd5b60006020828403121561317057600080fd5b8135610d4f81612eca565b60006001820161318d5761318d61311a565b5060010190565b6000828210156131a6576131a661311a565b500390565b60208082526010908201526f14185d5cd8589b194e881c185d5cd95960821b604082015260600190565b6000602082840312156131e757600080fd5b8151610d4f81612eca565b6001600160a01b039384168152919092166020820152604081019190915260600190565b6020808252818101527f4f776e61626c653a2063616c6c6572206973206e6f7420746865206f776e6572604082015260600190565b8054600090600181811c908083168061326557607f831692505b6020808410820361328657634e487b7160e01b600052602260045260246000fd5b838852602088018280156132a157600181146132b2576132dd565b60ff198716825282820197506132dd565b60008981526020902060005b878110156132d7578154848201529086019084016132be565b83019850505b5050505050505092915050565b60a0815260006132fd60a083018861324b565b828103602084015261330f818861324b565b905060ff86166040840152828103606084015261332c8186612bcb565b91505060018060a01b03831660808301529695505050505050565b60006020828403121561335957600080fd5b815161ffff81168114610d4f57600080fd5b6020808252602e908201527f496e697469616c697a61626c653a20636f6e747261637420697320616c72656160408201526d191e481a5b9a5d1a585b1a5e995960921b606082015260800190565b6020808252602b908201527f496e697469616c697a61626c653a20636f6e7472616374206973206e6f74206960408201526a6e697469616c697a696e6760a81b60608201526080019056fea264697066735822122023dbb5173f7f7061ed41e98026f998a7dac08af7092c8c09181773af3af8801d64736f6c634300080e0033",
    "linkReferences": {}
  },
  "methodIdentifiers": {
    "addAgent(address)": "84e79842",
    "addAgentOnTokenContract(address)": "b422d830",
    "allowance(address,address)": "dd62ed3e",
    "approve(address,uint256)": "095ea7b3",
    "balanceOf(address)": "70a08231",
    "batchBurn(address[],uint256[])": "4a6cc677",
    "batchForcedTransfer(address[],address[],uint256[])": "42a47abc",
    "batchFreezePartialTokens(address[],uint256[])": "fc7e5fa8",
    "batchMint(address[],uint256[])": "68573107",
    "batchSetAddressFrozen(address[],bool[])": "1a7af379",
    "batchTransfer(address[],uint256[])": "88d695b2",
    "batchUnfreezePartialTokens(address[],uint256[])": "4710362d",
    "burn(address,uint256)": "9dc29fac",
    "compliance()": "6290865d",
    "decimals()": "313ce567",
    "decreaseAllowance(address,uint256)": "a457c2d7",
    "forcedTransfer(address,address,uint256)": "9fc1d0e7",
    "freezePartialTokens(address,uint256)": "125c4a33",
    "getFrozenTokens(address)": "158b1a57",
    "identityRegistry()": "134e18f4",
    "increaseAllowance(address,uint256)": "39509351",
    "init(address,address,string,string,uint8,address)": "f91b619c",
    "isAgent(address)": "1ffbb064",
    "isFrozen(address)": "e5839836",
    "mint(address,uint256)": "40c10f19",
    "name()": "06fdde03",
    "onchainID()": "aba63705",
    "owner()": "8da5cb5b",
    "pause()": "8456cb59",
    "paused()": "5c975abb",
    "recoveryAddress(address,address,address)": "9285948a",
    "removeAgent(address)": "97a6278e",
    "removeAgentOnTokenContract(address)": "5dc7a3cb",
    "renounceOwnership()": "715018a6",
    "setAddressFrozen(address,bool)": "c69c09cf",
    "setCompliance(address)": "f8981789",
    "setIdentityRegistry(address)": "cbf3f861",
    "setName(string)": "c47f0027",
    "setOnchainID(address)": "3d1ddc5b",
    "setSymbol(string)": "b84c8246",
    "symbol()": "95d89b41",
    "totalSupply()": "18160ddd",
    "transfer(address,uint256)": "a9059cbb",
    "transferFrom(address,address,uint256)": "23b872dd",
    "transferOwnership(address)": "f2fde38b",
    "transferOwnershipOnTokenContract(address)": "51411b33",
    "unfreezePartialTokens(address,uint256)": "1fe56f7d",
    "unpause()": "3f4ba83a",
    "version()": "54fd4d50"
  },
  "id": 25
}