{
  "abi": [
    {
      "anonymous": false,
      "inputs": [
        {
          "indexed": true,
          "internalType": "contract IClaimValidator",
          "name": "trustedVerifier",
          "type": "address"
        },
        {
          "indexed": false,
          "internalType": "uint256[]",
          "name": "claimTopics",
          "type": "uint256[]"
        }
      ],
      "name": "ClaimTopicsUpdated",
      "type": "event"
    },
    {
      "anonymous": false,
      "inputs": [
        {
          "indexed": true,
          "internalType": "address",
          "name": "previousOwner",
          "type": "address"
        },
        {
          "indexed": true,
          "internalType": "address",
          "name": "newOwner",
          "type": "address"
        }
      ],
      "name": "OwnershipTransferred",
      "type": "event"
    },
    {
      "anonymous": false,
      "inputs": [
        {
          "indexed": true,
          "internalType": "contract IClaimValidator",
          "name": "trustedVerifier",
          "type": "address"
        },
        {
          "indexed": false,
          "internalType": "uint256[]",
          "name": "claimTopics",
          "type": "uint256[]"
        }
      ],
      "name": "TrustedVerifierAdded",
      "type": "event"
    },
    {
      "anonymous": false,
      "inputs": [
        {
          "indexed": true,
          "internalType": "contract IClaimValidator",
          "name": "trustedVerifier",
          "type": "address"
        }
      ],
      "name": "TrustedVerifierRemoved",
      "type": "event"
    },
    {
      "inputs": [
        {
          "internalType": "contract IClaimValidator",
          "name": "_verifier",
          "type": "address"
        },
        {
          "internalType": "uint256[]",
          "name": "_claimsRequired",
          "type": "uint256[]"
        }
      ],
      "name": "addTrustedVerifier",
      "outputs": [],
      "stateMutability": "nonpayable",
      "type": "function"
    },
    {
      "inputs": [
        {
          "internalType": "contract IClaimValidator",
          "name": "_verifier",
          "type": "address"
        }
      ],
      "name": "getTrustedVerifierClaimTopics",
      "outputs": [
        {
          "internalType": "uint256[]",
          "name": "",
          "type": "uint256[]"
        }
      ],
      "stateMutability": "view",
      "type": "function"
    },
    {
      "inputs": [],
      "name": "getTrustedVerifiers",
      "outputs": [
        {
          "internalType": "contract IClaimValidator[]",
          "name": "",
          "type": "address[]"
        }
      ],
      "stateMutability": "view",
      "type": "function"
    },
    {
      "inputs": [
        {
          "internalType": "address",
          "name": "_Verifier",
          "type": "address"
        },
        {
          "internalType": "uint256",
          "name": "_claimTopic",
          "type": "uint256"
        }
      ],
      "name": "hasClaimTopic",
      "outputs": [
        {
          "internalType": "bool",
          "name": "",
          "type": "bool"
        }
      ],
      "stateMutability": "view",
      "type": "function"
    },
    {
      "inputs": [
        {
          "internalType": "address",
          "name": "_Verifier",
          "type": "address"
        }
      ],
      "name": "isVerifier",
      "outputs": [
        {
          "internalType": "bool",
          "name": "",
          "type": "bool"
        }
      ],
      "stateMutability": "view",
      "type": "function"
    },
    {
      "inputs": [],
      "name": "owner",
      "outputs": [
        {
          "internalType": "address",
          "name": "",
          "type": "address"
        }
      ],
      "stateMutability": "view",
      "type": "function"
    },
    {
      "inputs": [
        {
          "internalType": "contract IClaimValidator",
          "name": "_verifier",
          "type": "address"
        }
      ],
      "name": "removeTrustedVerifier",
      "outputs": [],
      "stateMutability": "nonpayable",
      "type": "function"
    },
    {
      "inputs": [],
      "name": "renounceOwnership",
      "outputs": [],
      "stateMutability": "nonpayable",
      "type": "function"
    },
    {
      "inputs": [
        {
          "internalType": "address",
          "name": "newOwner",
          "type": "address"
        }
      ],
      "name": "transferOwnership",
      "outputs": [],
      "stateMutability": "nonpayable",
      "type": "function"
    },
    {
      "inputs": [
        {
          "internalType": "address",
          "name": "_newOwner",
          "type": "address"
        }
      ],
      "name": "transferOwnershipOnVerifiersRegistryContract",
      "outputs": [],
      "stateMutability": "nonpayable",
      "type": "function"
    },
    {
      "inputs": [
        {
          "internalType": "contract IClaimValidator",
          "name": "_verifier",
          "type": "address"
        },
        {
          "internalType": "uint256[]",
          "name": "_claimsRequired",
          "type": "uint256[]"
        }
      ],
      "name": "updateVerifierClaimTopics",
      "outputs": [],
      "stateMutability": "nonpayable",
      "type": "function"
    }
  ],
  "bytecode": {
    "object": "0x608060405234801561001057600080fd5b5061001a3361001f565b61006f565b600080546001600160a01b038381166001600160a01b0319831681178455604051919092169283917f8be0079c531659141344cd1fd0a4f28419497f9722a3daafe3b4186f6b6457e09190a35050565b610ccd8061007e6000396000f3fe608060405234801561001057600080fd5b50600436106100a95760003560e01c8063801d2cf111610071578063801d2cf11461011b57806381e45bd21461012e5780638da5cb5b14610141578063b8baeb911461015c578063ecccf27b1461017c578063f2fde38b1461018f57600080fd5b806333105218146100ae57806334a89987146100d657806353579a87146100e957806361940734146100fe578063715018a614610113575b600080fd5b6100c16100bc366004610a20565b6101a2565b60405190151581526020015b60405180910390f35b6100c16100e4366004610a44565b61020f565b6100fc6100f7366004610a20565b6102cf565b005b61010661030e565b6040516100cd9190610a70565b6100fc610370565b6100fc610129366004610a20565b6103a6565b6100fc61013c366004610abd565b610566565b6000546040516001600160a01b0390911681526020016100cd565b61016f61016a366004610a20565b6106f9565b6040516100cd9190610b45565b6100fc61018a366004610abd565b61079c565b6100fc61019d366004610a20565b6108a9565b600154600090815b8181101561020557836001600160a01b0316600182815481106101cf576101cf610b7d565b6000918252602090912001546001600160a01b0316036101f3575060019392505050565b806101fd81610ba9565b9150506101aa565b5060009392505050565b6001600160a01b038216600090815260026020908152604080832080548251818502810185019093528083529284929190849083018282801561027157602002820191906000526020600020905b81548152602001906001019080831161025d575b5050505050905060005b828110156102c1578482828151811061029657610296610b7d565b6020026020010151036102af57600193505050506102c9565b806102b981610ba9565b91505061027b565b506000925050505b92915050565b6000546001600160a01b031633146103025760405162461bcd60e51b81526004016102f990610bc2565b60405180910390fd5b61030b816108a9565b50565b6060600180548060200260200160405190810160405280929190818152602001828054801561036657602002820191906000526020600020905b81546001600160a01b03168152600190910190602001808311610348575b5050505050905090565b6000546001600160a01b0316331461039a5760405162461bcd60e51b81526004016102f990610bc2565b6103a4600061093d565b565b6000546001600160a01b031633146103d05760405162461bcd60e51b81526004016102f990610bc2565b6001600160a01b03811660009081526002602052604081205490036104075760405162461bcd60e51b81526004016102f990610bf7565b60015460005b8181101561050c57826001600160a01b03166001828154811061043257610432610b7d565b6000918252602090912001546001600160a01b0316036104fa5760016104588184610c2e565b8154811061046857610468610b7d565b600091825260209091200154600180546001600160a01b03909216918390811061049457610494610b7d565b9060005260206000200160006101000a8154816001600160a01b0302191690836001600160a01b0316021790555060018054806104d3576104d3610c45565b600082815260209020810160001990810180546001600160a01b031916905501905561050c565b8061050481610ba9565b91505061040d565b506001600160a01b038216600090815260026020526040812061052e9161098d565b6040516001600160a01b038316907f950a8e112b31e97be460baabc0d4707401514b9c8de4a4bc01b7b1554e4dbb1690600090a25050565b6000546001600160a01b031633146105905760405162461bcd60e51b81526004016102f990610bc2565b6001600160a01b038316600090815260026020526040902054156105f65760405162461bcd60e51b815260206004820152601f60248201527f7472757374656420566572696669657220616c7265616479206578697374730060448201526064016102f9565b8061064f5760405162461bcd60e51b8152602060048201526024808201527f7472757374656420636c61696d20746f706963732063616e6e6f7420626520656044820152636d70747960e01b60648201526084016102f9565b600180548082019091557fb10e2d527612073b26eecdfd717e6a320cf44b4afac2b0732d9fcbe2b7fa0cf60180546001600160a01b0319166001600160a01b03851690811790915560009081526002602052604090206106b09083836109ab565b50826001600160a01b03167f8cfa048f319519100018c070f5b70ebdb10f75f14622c98ec59725c0de0f12f183836040516106ec929190610c5b565b60405180910390a2505050565b6001600160a01b038116600090815260026020526040812054606091036107325760405162461bcd60e51b81526004016102f990610bf7565b6001600160a01b0382166000908152600260209081526040918290208054835181840281018401909452808452909183018282801561079057602002820191906000526020600020905b81548152602001906001019080831161077c575b50505050509050919050565b6000546001600160a01b031633146107c65760405162461bcd60e51b81526004016102f990610bc2565b6001600160a01b03831660009081526002602052604081205490036107fd5760405162461bcd60e51b81526004016102f990610bf7565b8061084a5760405162461bcd60e51b815260206004820152601c60248201527f636c61696d20746f706963732063616e6e6f7420626520656d7074790000000060448201526064016102f9565b6001600160a01b038316600090815260026020526040902061086d9083836109ab565b50826001600160a01b03167fec753cfc52044f61676f18a11e500093a9f2b1cd5e4942bc476f2b0438159bcf83836040516106ec929190610c5b565b6000546001600160a01b031633146108d35760405162461bcd60e51b81526004016102f990610bc2565b6001600160a01b0381166109385760405162461bcd60e51b815260206004820152602660248201527f4f776e61626c653a206e6577206f776e657220697320746865207a65726f206160448201526564647265737360d01b60648201526084016102f9565b61030b815b600080546001600160a01b038381166001600160a01b0319831681178455604051919092169283917f8be0079c531659141344cd1fd0a4f28419497f9722a3daafe3b4186f6b6457e09190a35050565b508054600082559060005260206000209081019061030b91906109f6565b8280548282559060005260206000209081019282156109e6579160200282015b828111156109e65782358255916020019190600101906109cb565b506109f29291506109f6565b5090565b5b808211156109f257600081556001016109f7565b6001600160a01b038116811461030b57600080fd5b600060208284031215610a3257600080fd5b8135610a3d81610a0b565b9392505050565b60008060408385031215610a5757600080fd5b8235610a6281610a0b565b946020939093013593505050565b6020808252825182820181905260009190848201906040850190845b81811015610ab15783516001600160a01b031683529284019291840191600101610a8c565b50909695505050505050565b600080600060408486031215610ad257600080fd5b8335610add81610a0b565b9250602084013567ffffffffffffffff80821115610afa57600080fd5b818601915086601f830112610b0e57600080fd5b813581811115610b1d57600080fd5b8760208260051b8501011115610b3257600080fd5b6020830194508093505050509250925092565b6020808252825182820181905260009190848201906040850190845b81811015610ab157835183529284019291840191600101610b61565b634e487b7160e01b600052603260045260246000fd5b634e487b7160e01b600052601160045260246000fd5b600060018201610bbb57610bbb610b93565b5060010190565b6020808252818101527f4f776e61626c653a2063616c6c6572206973206e6f7420746865206f776e6572604082015260600190565b6020808252601e908201527f7472757374656420566572696669657220646f65736e27742065786973740000604082015260600190565b600082821015610c4057610c40610b93565b500390565b634e487b7160e01b600052603160045260246000fd5b6020808252810182905260006001600160fb1b03831115610c7b57600080fd5b8260051b8085604085013760009201604001918252509291505056fea2646970667358221220a67ed7bb338db141cb380049d8eaed7bc012d0689af663b6c2b4e7d612c5e3ca64736f6c634300080e0033",
    "linkReferences": {}
  },
  "methodIdentifiers": {
    "addTrustedVerifier(address,uint256[])": "81e45bd2",
    "getTrustedVerifierClaimTopics(address)": "b8baeb91",
    "getTrustedVerifiers()": "61940734",
    "hasClaimTopic(address,uint256)": "34a89987",
    "isVerifier(address)": "33105218",
    "owner()": "8da5cb5b",
    "removeTrustedVerifier(address)": "801d2cf1",
    "renounceOwnership()": "715018a6",
    "transferOwnership(address)": "f2fde38b",
    "transferOwnershipOnVerifiersRegistryContract(address)": "53579a87",
    "updateVerifierClaimTopics(address,uint256[])": "ecccf27b"
  },
  "id": 18
}