{
  "abi": [
    {
      "inputs": [],
      "stateMutability": "nonpayable",
      "type": "constructor"
    },
    {
      "anonymous": false,
      "inputs": [
        {
          "indexed": true,
          "internalType": "address",
          "name": "previousOwner",
          "type": "address"
        },
        {
          "indexed": true,
          "internalType": "address",
          "name": "newOwner",
          "type": "address"
        }
      ],
      "name": "OwnershipTransferred",
      "type": "event"
    },
    {
      "anonymous": false,
      "inputs": [
        {
          "indexed": false,
          "internalType": "address",
          "name": "newSplitter",
          "type": "address"
        }
      ],
      "name": "PaymentSplitterCreated",
      "type": "event"
    },
    {
      "inputs": [],
      "name": "_tax",
      "outputs": [
        {
          "internalType": "uint256",
          "name": "",
          "type": "uint256"
        }
      ],
      "stateMutability": "view",
      "type": "function"
    },
    {
      "inputs": [
        {
          "internalType": "address",
          "name": "splitter",
          "type": "address"
        },
        {
          "internalType": "address",
          "name": "account",
          "type": "address"
        }
      ],
      "name": "balanceOf",
      "outputs": [
        {
          "internalType": "uint256",
          "name": "",
          "type": "uint256"
        }
      ],
      "stateMutability": "view",
      "type": "function"
    },
    {
      "inputs": [
        {
          "internalType": "address",
          "name": "splitter",
          "type": "address"
        }
      ],
      "name": "balances",
      "outputs": [
        {
          "internalType": "uint256[]",
          "name": "",
          "type": "uint256[]"
        }
      ],
      "stateMutability": "view",
      "type": "function"
    },
    {
      "inputs": [
        {
          "internalType": "address",
          "name": "target",
          "type": "address"
        }
      ],
      "name": "createdSplittersOf",
      "outputs": [
        {
          "internalType": "address[]",
          "name": "",
          "type": "address[]"
        }
      ],
      "stateMutability": "view",
      "type": "function"
    },
    {
      "inputs": [
        {
          "internalType": "address[]",
          "name": "payees",
          "type": "address[]"
        },
        {
          "internalType": "uint256[]",
          "name": "shares",
          "type": "uint256[]"
        }
      ],
      "name": "newSplitter",
      "outputs": [],
      "stateMutability": "payable",
      "type": "function"
    },
    {
      "inputs": [],
      "name": "owner",
      "outputs": [
        {
          "internalType": "address",
          "name": "",
          "type": "address"
        }
      ],
      "stateMutability": "view",
      "type": "function"
    },
    {
      "inputs": [
        {
          "internalType": "address",
          "name": "splitter",
          "type": "address"
        },
        {
          "internalType": "uint256",
          "name": "index",
          "type": "uint256"
        }
      ],
      "name": "payee",
      "outputs": [
        {
          "internalType": "address",
          "name": "",
          "type": "address"
        }
      ],
      "stateMutability": "view",
      "type": "function"
    },
    {
      "inputs": [
        {
          "internalType": "address",
          "name": "splitter",
          "type": "address"
        }
      ],
      "name": "payees",
      "outputs": [
        {
          "internalType": "address[]",
          "name": "",
          "type": "address[]"
        }
      ],
      "stateMutability": "view",
      "type": "function"
    },
    {
      "inputs": [
        {
          "internalType": "address",
          "name": "target",
          "type": "address"
        }
      ],
      "name": "registeredCountOf",
      "outputs": [
        {
          "internalType": "uint256",
          "name": "",
          "type": "uint256"
        }
      ],
      "stateMutability": "view",
      "type": "function"
    },
    {
      "inputs": [
        {
          "internalType": "address",
          "name": "target",
          "type": "address"
        }
      ],
      "name": "registeredSplittersOf",
      "outputs": [
        {
          "internalType": "address[]",
          "name": "",
          "type": "address[]"
        }
      ],
      "stateMutability": "view",
      "type": "function"
    },
    {
      "inputs": [
        {
          "internalType": "address payable",
          "name": "receiver",
          "type": "address"
        },
        {
          "internalType": "address",
          "name": "splitter",
          "type": "address"
        }
      ],
      "name": "release",
      "outputs": [],
      "stateMutability": "nonpayable",
      "type": "function"
    },
    {
      "inputs": [
        {
          "internalType": "address payable",
          "name": "receiver",
          "type": "address"
        }
      ],
      "name": "releaseAll",
      "outputs": [],
      "stateMutability": "nonpayable",
      "type": "function"
    },
    {
      "inputs": [
        {
          "internalType": "address payable",
          "name": "receiver",
          "type": "address"
        },
        {
          "internalType": "uint256",
          "name": "start",
          "type": "uint256"
        },
        {
          "internalType": "uint256",
          "name": "end",
          "type": "uint256"
        }
      ],
      "name": "releaseInRange",
      "outputs": [],
      "stateMutability": "nonpayable",
      "type": "function"
    },
    {
      "inputs": [],
      "name": "renounceOwnership",
      "outputs": [],
      "stateMutability": "nonpayable",
      "type": "function"
    },
    {
      "inputs": [
        {
          "internalType": "uint256",
          "name": "tax",
          "type": "uint256"
        }
      ],
      "name": "setTax",
      "outputs": [],
      "stateMutability": "nonpayable",
      "type": "function"
    },
    {
      "inputs": [
        {
          "internalType": "address",
          "name": "splitter",
          "type": "address"
        }
      ],
      "name": "shares",
      "outputs": [
        {
          "internalType": "uint256[]",
          "name": "",
          "type": "uint256[]"
        }
      ],
      "stateMutability": "view",
      "type": "function"
    },
    {
      "inputs": [
        {
          "internalType": "address",
          "name": "splitter",
          "type": "address"
        },
        {
          "internalType": "address",
          "name": "account",
          "type": "address"
        }
      ],
      "name": "sharesOfAccount",
      "outputs": [
        {
          "internalType": "uint256",
          "name": "",
          "type": "uint256"
        }
      ],
      "stateMutability": "view",
      "type": "function"
    },
    {
      "inputs": [],
      "name": "splitterImplementation",
      "outputs": [
        {
          "internalType": "address",
          "name": "",
          "type": "address"
        }
      ],
      "stateMutability": "view",
      "type": "function"
    },
    {
      "inputs": [
        {
          "internalType": "uint256",
          "name": "",
          "type": "uint256"
        }
      ],
      "name": "splitters",
      "outputs": [
        {
          "internalType": "address",
          "name": "",
          "type": "address"
        }
      ],
      "stateMutability": "view",
      "type": "function"
    },
    {
      "inputs": [
        {
          "internalType": "address",
          "name": "splitter",
          "type": "address"
        }
      ],
      "name": "totalShares",
      "outputs": [
        {
          "internalType": "uint256",
          "name": "",
          "type": "uint256"
        }
      ],
      "stateMutability": "view",
      "type": "function"
    },
    {
      "inputs": [
        {
          "internalType": "address",
          "name": "newOwner",
          "type": "address"
        }
      ],
      "name": "transferOwnership",
      "outputs": [],
      "stateMutability": "nonpayable",
      "type": "function"
    },
    {
      "inputs": [
        {
          "internalType": "uint256",
          "name": "_amount",
          "type": "uint256"
        }
      ],
      "name": "withdraw",
      "outputs": [],
      "stateMutability": "nonpayable",
      "type": "function"
    },
    {
      "inputs": [],
      "name": "withdrawAll",
      "outputs": [],
      "stateMutability": "nonpayable",
      "type": "function"
    }
  ],
  "bytecode": {
    "object": "0x6080604052600180553480156200001557600080fd5b506200002133620001ed565b600060405162000031906200023d565b604051809103906000f0801580156200004e573d6000803e3d6000fd5b50604080516001808252818301909252919250600091906020808301908036833701905050905030816000815181106200008c576200008c6200024b565b6001600160a01b039290921660209283029190910190910152604080516001808252818301909252600091816020016020820280368337019050509050600181600081518110620000e157620000e16200024b565b6020908102919091010152604051637fbbe46f60e01b81526001600160a01b03841690637fbbe46f906200011c908590859060040162000261565b600060405180830381600087803b1580156200013757600080fd5b505af11580156200014c573d6000803e3d6000fd5b50506004805460018181019092557f8a35acfbc15ff81a39ae7d344fd709f28e8600b4aa8c65c6b64bfe7fe36bd19b0180546001600160a01b039097166001600160a01b03199788168117909155306000818152600260209081526040808320805480880182559084528284200180548c1686179055928252600381529181208054948501815581522090910180549096161790945550620002e992505050565b600080546001600160a01b038381166001600160a01b0319831681178455604051919092169283917f8be0079c531659141344cd1fd0a4f28419497f9722a3daafe3b4186f6b6457e09190a35050565b6115e280620019e183390190565b634e487b7160e01b600052603260045260246000fd5b604080825283519082018190526000906020906060840190828701845b82811015620002a55781516001600160a01b0316845292840192908401906001016200027e565b5050508381038285015284518082528583019183019060005b81811015620002dc57835183529284019291840191600101620002be565b5090979650505050505050565b6116e880620002f96000396000f3fe60806040526004361061013f5760003560e01c8063715018a6116100b6578063ce7c2ac21161006f578063ce7c2ac21461039c578063e63db9b2146103bc578063e751d508146103d1578063f2fde38b146103e7578063f7888aec14610407578063f93d37881461042757600080fd5b8063715018a614610301578063739046f314610316578063853828b6146103295780638da5cb5b1461033e578063aeb55cd41461035c578063bf6b874e1461037c57600080fd5b8063310441fa11610108578063310441fa1461021c57806348807bbb1461024957806348b7504414610281578063580fc80a146102a15780636892e0f8146102c15780636e9fe66a146102e157600080fd5b8062415024146101445780630b4c455a1461017757806327e235e3146101ad5780632e1a7d4d146101da5780632e5bb6ff146101fc575b600080fd5b34801561015057600080fd5b5061016461015f3660046112da565b610447565b6040519081526020015b60405180910390f35b34801561018357600080fd5b50610164610192366004611313565b6001600160a01b031660009081526003602052604090205490565b3480156101b957600080fd5b506101cd6101c8366004611313565b6104bd565b60405161016e919061136b565b3480156101e657600080fd5b506101fa6101f536600461137e565b61068f565b005b34801561020857600080fd5b506101fa61021736600461137e565b610700565b34801561022857600080fd5b5061023c610237366004611313565b61072f565b60405161016e91906113d0565b34801561025557600080fd5b5061026961026436600461137e565b610893565b6040516001600160a01b03909116815260200161016e565b34801561028d57600080fd5b506101fa61029c3660046112da565b6108bd565b3480156102ad57600080fd5b506101fa6102bc366004611313565b610920565b3480156102cd57600080fd5b5061023c6102dc366004611313565b6109ec565b3480156102ed57600080fd5b506102696102fc3660046113e3565b610a62565b34801561030d57600080fd5b506101fa610ace565b6101fa6103243660046114e5565b610b04565b34801561033557600080fd5b506101fa610d27565b34801561034a57600080fd5b506000546001600160a01b0316610269565b34801561036857600080fd5b5061023c610377366004611313565b610d80565b34801561038857600080fd5b50610164610397366004611313565b610df4565b3480156103a857600080fd5b506101cd6103b7366004611313565b610e5e565b3480156103c857600080fd5b50610269611025565b3480156103dd57600080fd5b5061016460015481565b3480156103f357600080fd5b506101fa610402366004611313565b611055565b34801561041357600080fd5b506101646104223660046112da565b6110ed565b34801561043357600080fd5b506101fa6104423660046115a7565b61111f565b60405163673e156160e11b81526001600160a01b0382811660048301526000919084169063ce7c2ac2906024015b602060405180830381865afa158015610492573d6000803e3d6000fd5b505050506040513d601f19601f820116820180604052508101906104b691906115dc565b9392505050565b606060008290506000816001600160a01b031663b6e40d6a6040518163ffffffff1660e01b8152600401602060405180830381865afa158015610504573d6000803e3d6000fd5b505050506040513d601f19601f8201168201806040525081019061052891906115dc565b905060008167ffffffffffffffff8111156105455761054561140f565b60405190808252806020026020018201604052801561056e578160200160208202803683370190505b50905060005b8281101561068657604051638b83209b60e01b8152600481018290526000906001600160a01b03861690638b83209b90602401602060405180830381865afa1580156105c4573d6000803e3d6000fd5b505050506040513d601f19601f820116820180604052508101906105e891906115f5565b6040516370a0823160e01b81526001600160a01b038083166004830152919250908616906370a0823190602401602060405180830381865afa158015610632573d6000803e3d6000fd5b505050506040513d601f19601f8201168201806040525081019061065691906115dc565b83838151811061066857610668611612565b6020908102919091010152508061067e81611628565b915050610574565b50949350505050565b6000546001600160a01b031633146106c25760405162461bcd60e51b81526004016106b99061164f565b60405180910390fd5b804710156106cf57600080fd5b604051339082156108fc029083906000818181858888f193505050501580156106fc573d6000803e3d6000fd5b5050565b6000546001600160a01b0316331461072a5760405162461bcd60e51b81526004016106b99061164f565b600155565b606060008290506000816001600160a01b031663b6e40d6a6040518163ffffffff1660e01b8152600401602060405180830381865afa158015610776573d6000803e3d6000fd5b505050506040513d601f19601f8201168201806040525081019061079a91906115dc565b905060008167ffffffffffffffff8111156107b7576107b761140f565b6040519080825280602002602001820160405280156107e0578160200160208202803683370190505b50905060005b8281101561068657604051638b83209b60e01b8152600481018290526001600160a01b03851690638b83209b90602401602060405180830381865afa158015610833573d6000803e3d6000fd5b505050506040513d601f19601f8201168201806040525081019061085791906115f5565b82828151811061086957610869611612565b6001600160a01b03909216602092830291909101909101528061088b81611628565b9150506107e6565b600481815481106108a357600080fd5b6000918252602090912001546001600160a01b0316905081565b604051631916558760e01b81526001600160a01b038381166004830152829190821690631916558790602401600060405180830381600087803b15801561090357600080fd5b505af1158015610917573d6000803e3d6000fd5b50505050505050565b60005b6001600160a01b0382166000908152600360205260409020548110156106fc576001600160a01b038216600090815260036020526040812080548390811061096d5761096d611612565b600091825260209091200154604051631916558760e01b81526001600160a01b03858116600483015290911691508190631916558790602401600060405180830381600087803b1580156109c057600080fd5b505af11580156109d4573d6000803e3d6000fd5b505050505080806109e490611628565b915050610923565b6001600160a01b038116600090815260026020908152604091829020805483518184028101840190945280845260609392830182828015610a5657602002820191906000526020600020905b81546001600160a01b03168152600190910190602001808311610a38575b50505050509050919050565b604051638b83209b60e01b8152600481018290526000906001600160a01b03841690638b83209b90602401602060405180830381865afa158015610aaa573d6000803e3d6000fd5b505050506040513d601f19601f820116820180604052508101906104b691906115f5565b6000546001600160a01b03163314610af85760405162461bcd60e51b81526004016106b99061164f565b610b0260006111d8565b565b6001543414610b7b5760405162461bcd60e51b815260206004820152603c60248201527f5061796d656e7453706c69747465724d616e61676572436c6f6e65733a206d7360448201527f672e76616c7565206d75737420626520657175616c20746f207461780000000060648201526084016106b9565b6000610b8d610b88611025565b611228565b9050806001600160a01b0316637fbbe46f3485856040518463ffffffff1660e01b8152600401610bbe929190611684565b6000604051808303818588803b158015610bd757600080fd5b505af1158015610beb573d6000803e3d6000fd5b50506004805460018181019092557f8a35acfbc15ff81a39ae7d344fd709f28e8600b4aa8c65c6b64bfe7fe36bd19b0180546001600160a01b0387166001600160a01b031991821681179092553360009081526002602090815260408220805495860181558252812090930180549091169091179055925050505b8351811015610ce55760036000858381518110610c8557610c85611612565b6020908102919091018101516001600160a01b039081168352828201939093526040909101600090812080546001810182559082529190200180546001600160a01b03191691841691909117905580610cdd81611628565b915050610c66565b506040516001600160a01b03821681527f30af7bdf04bd12c43e1faf8f5ac72234cf440fd5c945a61362ad54a1cd568de39060200160405180910390a1505050565b6000546001600160a01b03163314610d515760405162461bcd60e51b81526004016106b99061164f565b60405133904780156108fc02916000818181858888f19350505050158015610d7d573d6000803e3d6000fd5b50565b6001600160a01b038116600090815260036020908152604091829020805483518184028101840190945280845260609392830182828015610a56576020028201919060005260206000209081546001600160a01b03168152600190910190602001808311610a385750505050509050919050565b6000816001600160a01b0316633a98ef396040518163ffffffff1660e01b8152600401602060405180830381865afa158015610e34573d6000803e3d6000fd5b505050506040513d601f19601f82011682018060405250810190610e5891906115dc565b92915050565b606060008290506000816001600160a01b031663b6e40d6a6040518163ffffffff1660e01b8152600401602060405180830381865afa158015610ea5573d6000803e3d6000fd5b505050506040513d601f19601f82011682018060405250810190610ec991906115dc565b905060008167ffffffffffffffff811115610ee657610ee661140f565b604051908082528060200260200182016040528015610f0f578160200160208202803683370190505b50905060005b8281101561068657604051638b83209b60e01b8152600481018290526001600160a01b0385169063ce7c2ac2908290638b83209b90602401602060405180830381865afa158015610f6a573d6000803e3d6000fd5b505050506040513d601f19601f82011682018060405250810190610f8e91906115f5565b6040516001600160e01b031960e084901b1681526001600160a01b039091166004820152602401602060405180830381865afa158015610fd2573d6000803e3d6000fd5b505050506040513d601f19601f82011682018060405250810190610ff691906115dc565b82828151811061100857611008611612565b60209081029190910101528061101d81611628565b915050610f15565b6000600460008154811061103b5761103b611612565b6000918252602090912001546001600160a01b0316919050565b6000546001600160a01b0316331461107f5760405162461bcd60e51b81526004016106b99061164f565b6001600160a01b0381166110e45760405162461bcd60e51b815260206004820152602660248201527f4f776e61626c653a206e6577206f776e657220697320746865207a65726f206160448201526564647265737360d01b60648201526084016106b9565b610d7d816111d8565b6040516370a0823160e01b81526001600160a01b038281166004830152600091908416906370a0823190602401610475565b815b818110156111d2576001600160a01b038416600090815260036020526040812080548390811061115357611153611612565b600091825260209091200154604051631916558760e01b81526001600160a01b03878116600483015290911691508190631916558790602401600060405180830381600087803b1580156111a657600080fd5b505af11580156111ba573d6000803e3d6000fd5b505050505080806111ca90611628565b915050611121565b50505050565b600080546001600160a01b038381166001600160a01b0319831681178455604051919092169283917f8be0079c531659141344cd1fd0a4f28419497f9722a3daafe3b4186f6b6457e09190a35050565b6000604051733d602d80600a3d3981f3363d3d373d3d3d363d7360601b81528260601b60148201526e5af43d82803e903d91602b57fd5bf360881b60288201526037816000f09150506001600160a01b0381166112c05760405162461bcd60e51b8152602060048201526016602482015275115490cc4c4d8dce8818dc99585d194819985a5b195960521b60448201526064016106b9565b919050565b6001600160a01b0381168114610d7d57600080fd5b600080604083850312156112ed57600080fd5b82356112f8816112c5565b91506020830135611308816112c5565b809150509250929050565b60006020828403121561132557600080fd5b81356104b6816112c5565b600081518084526020808501945080840160005b8381101561136057815187529582019590820190600101611344565b509495945050505050565b6020815260006104b66020830184611330565b60006020828403121561139057600080fd5b5035919050565b600081518084526020808501945080840160005b838110156113605781516001600160a01b0316875295820195908201906001016113ab565b6020815260006104b66020830184611397565b600080604083850312156113f657600080fd5b8235611401816112c5565b946020939093013593505050565b634e487b7160e01b600052604160045260246000fd5b604051601f8201601f1916810167ffffffffffffffff8111828210171561144e5761144e61140f565b604052919050565b600067ffffffffffffffff8211156114705761147061140f565b5060051b60200190565b600082601f83011261148b57600080fd5b813560206114a061149b83611456565b611425565b82815260059290921b840181019181810190868411156114bf57600080fd5b8286015b848110156114da57803583529183019183016114c3565b509695505050505050565b600080604083850312156114f857600080fd5b823567ffffffffffffffff8082111561151057600080fd5b818501915085601f83011261152457600080fd5b8135602061153461149b83611456565b82815260059290921b8401810191818101908984111561155357600080fd5b948201945b8386101561157a57853561156b816112c5565b82529482019490820190611558565b9650508601359250508082111561159057600080fd5b5061159d8582860161147a565b9150509250929050565b6000806000606084860312156115bc57600080fd5b83356115c7816112c5565b95602085013595506040909401359392505050565b6000602082840312156115ee57600080fd5b5051919050565b60006020828403121561160757600080fd5b81516104b6816112c5565b634e487b7160e01b600052603260045260246000fd5b60006001820161164857634e487b7160e01b600052601160045260246000fd5b5060010190565b6020808252818101527f4f776e61626c653a2063616c6c6572206973206e6f7420746865206f776e6572604082015260600190565b6040815260006116976040830185611397565b82810360208401526116a98185611330565b9594505050505056fea264697066735822122048dae9d8dab0f21f2f5f2fbeacd55c0bdd8749276b7663f4fb6935349864ad5864736f6c634300080e003360806040523480156200001157600080fd5b5060078054806020026020016040519081016040528092919081815260200182805480156200006a57602002820191906000526020600020905b81546001600160a01b031681526001909101906020018083116200004b575b50505050506008805480602002602001604051908101604052809291908181526020018280548015620000bd57602002820191906000526020600020905b815481526020019060010190808311620000a8575b50505050508051825114620001345760405162461bcd60e51b815260206004820152603260248201527f5061796d656e7453706c69747465723a2070617965657320616e6420736861726044820152710cae640d8cadccee8d040dad2e6dac2e8c6d60731b60648201526084015b60405180910390fd5b6000825111620001875760405162461bcd60e51b815260206004820152601a60248201527f5061796d656e7453706c69747465723a206e6f2070617965657300000000000060448201526064016200012b565b60005b8251811015620001f357620001de838281518110620001ad57620001ad620003e8565b6020026020010151838381518110620001ca57620001ca620003e8565b6020026020010151620001fc60201b60201c565b80620001ea8162000414565b9150506200018a565b5050506200044b565b6001600160a01b038216620002695760405162461bcd60e51b815260206004820152602c60248201527f5061796d656e7453706c69747465723a206163636f756e74206973207468652060448201526b7a65726f206164647265737360a01b60648201526084016200012b565b60008111620002bb5760405162461bcd60e51b815260206004820152601d60248201527f5061796d656e7453706c69747465723a2073686172657320617265203000000060448201526064016200012b565b6001600160a01b03821660009081526002602052604090205415620003375760405162461bcd60e51b815260206004820152602b60248201527f5061796d656e7453706c69747465723a206163636f756e7420616c726561647960448201526a206861732073686172657360a81b60648201526084016200012b565b60048054600181019091557f8a35acfbc15ff81a39ae7d344fd709f28e8600b4aa8c65c6b64bfe7fe36bd19b0180546001600160a01b0319166001600160a01b0384169081179091556000908152600260205260408120829055546200039f90829062000430565b600055604080516001600160a01b0384168152602081018390527f40c340f65e17194d14ddddb073d3c9f888e3cb52b5aae0c6c7706b4fbc905fac910160405180910390a15050565b634e487b7160e01b600052603260045260246000fd5b634e487b7160e01b600052601160045260246000fd5b600060018201620004295762000429620003fe565b5060010190565b60008219821115620004465762000446620003fe565b500190565b611187806200045b6000396000f3fe6080604052600436106100ab5760003560e01c80638b83209b116100645780638b83209b146101d85780639852595c14610210578063b6e40d6a14610246578063ce7c2ac21461025b578063d79779b214610291578063e33b7de3146102c757600080fd5b806319165587146100f95780633a98ef391461011b578063406072a91461013f57806348b750441461018557806370a08231146101a55780637fbbe46f146101c557600080fd5b366100f4577f6ef95f06320e7a25a04a175ca677b7052bdd97131872c2192525a629f51be77033604080516001600160a01b0390921682523460208301520160405180910390a1005b600080fd5b34801561010557600080fd5b50610119610114366004610d4a565b6102dc565b005b34801561012757600080fd5b506000545b6040519081526020015b60405180910390f35b34801561014b57600080fd5b5061012c61015a366004610d67565b6001600160a01b03918216600090815260066020908152604080832093909416825291909152205490565b34801561019157600080fd5b506101196101a0366004610d67565b610416565b3480156101b157600080fd5b5061012c6101c0366004610d4a565b6105f2565b6101196101d3366004610e76565b61066c565b3480156101e457600080fd5b506101f86101f3366004610f38565b610788565b6040516001600160a01b039091168152602001610136565b34801561021c57600080fd5b5061012c61022b366004610d4a565b6001600160a01b031660009081526003602052604090205490565b34801561025257600080fd5b5060045461012c565b34801561026757600080fd5b5061012c610276366004610d4a565b6001600160a01b031660009081526002602052604090205490565b34801561029d57600080fd5b5061012c6102ac366004610d4a565b6001600160a01b031660009081526005602052604090205490565b3480156102d357600080fd5b5060015461012c565b6001600160a01b03811660009081526002602052604090205461031a5760405162461bcd60e51b815260040161031190610f51565b60405180910390fd5b600061032560015490565b61032f9047610fad565b9050600061035c8383610357866001600160a01b031660009081526003602052604090205490565b6107b8565b90508060000361037e5760405162461bcd60e51b815260040161031190610fc5565b6001600160a01b038316600090815260036020526040812080548392906103a6908490610fad565b9250508190555080600160008282546103bf9190610fad565b909155506103cf905083826107fd565b604080516001600160a01b0385168152602081018390527fdf20fd1e76bc69d672e4814fafb2c449bba3a5369d8359adf9e05e6fde87b056910160405180910390a1505050565b6001600160a01b03811660009081526002602052604090205461044b5760405162461bcd60e51b815260040161031190610f51565b6001600160a01b0382166000908152600560205260408120546040516370a0823160e01b81523060048201526001600160a01b038516906370a0823190602401602060405180830381865afa1580156104a8573d6000803e3d6000fd5b505050506040513d601f19601f820116820180604052508101906104cc9190611010565b6104d69190610fad565b9050600061050f838361035787876001600160a01b03918216600090815260066020908152604080832093909416825291909152205490565b9050806000036105315760405162461bcd60e51b815260040161031190610fc5565b6001600160a01b03808516600090815260066020908152604080832093871683529290529081208054839290610568908490610fad565b90915550506001600160a01b03841660009081526005602052604081208054839290610595908490610fad565b909155506105a69050848483610916565b604080516001600160a01b038581168252602082018490528616917f3be5b7a71e84ed12875d241991c70855ac5817d847039e17a9d895c1ceb0f18a910160405180910390a250505050565b6001600160a01b0381166000908152600260205260408120546106275760405162461bcd60e51b815260040161031190610f51565b600061063260015490565b61063c9047610fad565b905060006106648483610357876001600160a01b031660009081526003602052604090205490565b949350505050565b80518251146106d85760405162461bcd60e51b815260206004820152603260248201527f5061796d656e7453706c69747465723a2070617965657320616e6420736861726044820152710cae640d8cadccee8d040dad2e6dac2e8c6d60731b6064820152608401610311565b60008251116107295760405162461bcd60e51b815260206004820152601a60248201527f5061796d656e7453706c69747465723a206e6f207061796565730000000000006044820152606401610311565b60005b82518110156107835761077183828151811061074a5761074a611029565b602002602001015183838151811061076457610764611029565b6020026020010151610968565b8061077b8161103f565b91505061072c565b505050565b60006004828154811061079d5761079d611029565b6000918252602090912001546001600160a01b031692915050565b600080546001600160a01b0385168252600260205260408220548391906107df9086611058565b6107e99190611077565b6107f39190611099565b90505b9392505050565b8047101561084d5760405162461bcd60e51b815260206004820152601d60248201527f416464726573733a20696e73756666696369656e742062616c616e63650000006044820152606401610311565b6000826001600160a01b03168260405160006040518083038185875af1925050503d806000811461089a576040519150601f19603f3d011682016040523d82523d6000602084013e61089f565b606091505b50509050806107835760405162461bcd60e51b815260206004820152603a60248201527f416464726573733a20756e61626c6520746f2073656e642076616c75652c207260448201527f6563697069656e74206d617920686176652072657665727465640000000000006064820152608401610311565b604080516001600160a01b038416602482015260448082018490528251808303909101815260649091019091526020810180516001600160e01b031663a9059cbb60e01b179052610783908490610b4c565b6001600160a01b0382166109d35760405162461bcd60e51b815260206004820152602c60248201527f5061796d656e7453706c69747465723a206163636f756e74206973207468652060448201526b7a65726f206164647265737360a01b6064820152608401610311565b60008111610a235760405162461bcd60e51b815260206004820152601d60248201527f5061796d656e7453706c69747465723a207368617265732061726520300000006044820152606401610311565b6001600160a01b03821660009081526002602052604090205415610a9d5760405162461bcd60e51b815260206004820152602b60248201527f5061796d656e7453706c69747465723a206163636f756e7420616c726561647960448201526a206861732073686172657360a81b6064820152608401610311565b60048054600181019091557f8a35acfbc15ff81a39ae7d344fd709f28e8600b4aa8c65c6b64bfe7fe36bd19b0180546001600160a01b0319166001600160a01b038416908117909155600090815260026020526040812082905554610b03908290610fad565b600055604080516001600160a01b0384168152602081018390527f40c340f65e17194d14ddddb073d3c9f888e3cb52b5aae0c6c7706b4fbc905fac910160405180910390a15050565b6000610ba1826040518060400160405280602081526020017f5361666545524332303a206c6f772d6c6576656c2063616c6c206661696c6564815250856001600160a01b0316610c1e9092919063ffffffff16565b8051909150156107835780806020019051810190610bbf91906110b0565b6107835760405162461bcd60e51b815260206004820152602a60248201527f5361666545524332303a204552433230206f7065726174696f6e20646964206e6044820152691bdd081cdd58d8d9595960b21b6064820152608401610311565b60606107f38484600085856001600160a01b0385163b610c805760405162461bcd60e51b815260206004820152601d60248201527f416464726573733a2063616c6c20746f206e6f6e2d636f6e74726163740000006044820152606401610311565b600080866001600160a01b03168587604051610c9c9190611102565b60006040518083038185875af1925050503d8060008114610cd9576040519150601f19603f3d011682016040523d82523d6000602084013e610cde565b606091505b5091509150610cee828286610cf9565b979650505050505050565b60608315610d085750816107f6565b825115610d185782518084602001fd5b8160405162461bcd60e51b8152600401610311919061111e565b6001600160a01b0381168114610d4757600080fd5b50565b600060208284031215610d5c57600080fd5b81356107f681610d32565b60008060408385031215610d7a57600080fd5b8235610d8581610d32565b91506020830135610d9581610d32565b809150509250929050565b634e487b7160e01b600052604160045260246000fd5b604051601f8201601f1916810167ffffffffffffffff81118282101715610ddf57610ddf610da0565b604052919050565b600067ffffffffffffffff821115610e0157610e01610da0565b5060051b60200190565b600082601f830112610e1c57600080fd5b81356020610e31610e2c83610de7565b610db6565b82815260059290921b84018101918181019086841115610e5057600080fd5b8286015b84811015610e6b5780358352918301918301610e54565b509695505050505050565b60008060408385031215610e8957600080fd5b823567ffffffffffffffff80821115610ea157600080fd5b818501915085601f830112610eb557600080fd5b81356020610ec5610e2c83610de7565b82815260059290921b84018101918181019089841115610ee457600080fd5b948201945b83861015610f0b578535610efc81610d32565b82529482019490820190610ee9565b96505086013592505080821115610f2157600080fd5b50610f2e85828601610e0b565b9150509250929050565b600060208284031215610f4a57600080fd5b5035919050565b60208082526026908201527f5061796d656e7453706c69747465723a206163636f756e7420686173206e6f2060408201526573686172657360d01b606082015260800190565b634e487b7160e01b600052601160045260246000fd5b60008219821115610fc057610fc0610f97565b500190565b6020808252602b908201527f5061796d656e7453706c69747465723a206163636f756e74206973206e6f742060408201526a191d59481c185e5b595b9d60aa1b606082015260800190565b60006020828403121561102257600080fd5b5051919050565b634e487b7160e01b600052603260045260246000fd5b60006001820161105157611051610f97565b5060010190565b600081600019048311821515161561107257611072610f97565b500290565b60008261109457634e487b7160e01b600052601260045260246000fd5b500490565b6000828210156110ab576110ab610f97565b500390565b6000602082840312156110c257600080fd5b815180151581146107f657600080fd5b60005b838110156110ed5781810151838201526020016110d5565b838111156110fc576000848401525b50505050565b600082516111148184602087016110d2565b9190910192915050565b602081526000825180602084015261113d8160408501602087016110d2565b601f01601f1916919091016040019291505056fea26469706673582212208a7182d3041d3ea1ac9813b104d0b85955403b1e033c4a233ac86217b826a71064736f6c634300080e0033",
    "linkReferences": {}
  },
  "methodIdentifiers": {
    "_tax()": "e751d508",
    "balanceOf(address,address)": "f7888aec",
    "balances(address)": "27e235e3",
    "createdSplittersOf(address)": "6892e0f8",
    "newSplitter(address[],uint256[])": "739046f3",
    "owner()": "8da5cb5b",
    "payee(address,uint256)": "6e9fe66a",
    "payees(address)": "310441fa",
    "registeredCountOf(address)": "0b4c455a",
    "registeredSplittersOf(address)": "aeb55cd4",
    "release(address,address)": "48b75044",
    "releaseAll(address)": "580fc80a",
    "releaseInRange(address,uint256,uint256)": "f93d3788",
    "renounceOwnership()": "715018a6",
    "setTax(uint256)": "2e5bb6ff",
    "shares(address)": "ce7c2ac2",
    "sharesOfAccount(address,address)": "00415024",
    "splitterImplementation()": "e63db9b2",
    "splitters(uint256)": "48807bbb",
    "totalShares(address)": "bf6b874e",
    "transferOwnership(address)": "f2fde38b",
    "withdraw(uint256)": "2e1a7d4d",
    "withdrawAll()": "853828b6"
  },
  "id": 18
}