{
  "abi": [
    {
      "inputs": [],
      "stateMutability": "nonpayable",
      "type": "constructor"
    },
    {
      "anonymous": false,
      "inputs": [
        {
          "indexed": true,
          "internalType": "address",
          "name": "previousOwner",
          "type": "address"
        },
        {
          "indexed": true,
          "internalType": "address",
          "name": "newOwner",
          "type": "address"
        }
      ],
      "name": "OwnershipTransferred",
      "type": "event"
    },
    {
      "anonymous": false,
      "inputs": [
        {
          "indexed": false,
          "internalType": "address",
          "name": "newSplitter",
          "type": "address"
        }
      ],
      "name": "PaymentSplitterCreated",
      "type": "event"
    },
    {
      "inputs": [],
      "name": "_tax",
      "outputs": [
        {
          "internalType": "uint256",
          "name": "",
          "type": "uint256"
        }
      ],
      "stateMutability": "view",
      "type": "function"
    },
    {
      "inputs": [
        {
          "internalType": "address",
          "name": "splitter",
          "type": "address"
        },
        {
          "internalType": "address",
          "name": "account",
          "type": "address"
        }
      ],
      "name": "getBalanceOf",
      "outputs": [
        {
          "internalType": "uint256",
          "name": "",
          "type": "uint256"
        }
      ],
      "stateMutability": "view",
      "type": "function"
    },
    {
      "inputs": [
        {
          "internalType": "address",
          "name": "splitter",
          "type": "address"
        },
        {
          "internalType": "address",
          "name": "token",
          "type": "address"
        },
        {
          "internalType": "address",
          "name": "account",
          "type": "address"
        }
      ],
      "name": "getBalanceOfTokens",
      "outputs": [
        {
          "internalType": "uint256",
          "name": "",
          "type": "uint256"
        }
      ],
      "stateMutability": "view",
      "type": "function"
    },
    {
      "inputs": [
        {
          "internalType": "address",
          "name": "splitter",
          "type": "address"
        }
      ],
      "name": "getBalances",
      "outputs": [
        {
          "internalType": "uint256[]",
          "name": "",
          "type": "uint256[]"
        }
      ],
      "stateMutability": "view",
      "type": "function"
    },
    {
      "inputs": [
        {
          "internalType": "address",
          "name": "splitter",
          "type": "address"
        },
        {
          "internalType": "address",
          "name": "token",
          "type": "address"
        }
      ],
      "name": "getBalancesTokens",
      "outputs": [
        {
          "internalType": "uint256[]",
          "name": "",
          "type": "uint256[]"
        }
      ],
      "stateMutability": "view",
      "type": "function"
    },
    {
      "inputs": [
        {
          "internalType": "address",
          "name": "payee",
          "type": "address"
        }
      ],
      "name": "getCreatedSplittersOf",
      "outputs": [
        {
          "internalType": "address[]",
          "name": "",
          "type": "address[]"
        }
      ],
      "stateMutability": "view",
      "type": "function"
    },
    {
      "inputs": [
        {
          "internalType": "address",
          "name": "splitter",
          "type": "address"
        },
        {
          "internalType": "uint256",
          "name": "index",
          "type": "uint256"
        }
      ],
      "name": "getPayeeIndex",
      "outputs": [
        {
          "internalType": "address",
          "name": "",
          "type": "address"
        }
      ],
      "stateMutability": "view",
      "type": "function"
    },
    {
      "inputs": [
        {
          "internalType": "address",
          "name": "splitter",
          "type": "address"
        }
      ],
      "name": "getPayees",
      "outputs": [
        {
          "internalType": "address[]",
          "name": "",
          "type": "address[]"
        }
      ],
      "stateMutability": "nonpayable",
      "type": "function"
    },
    {
      "inputs": [
        {
          "internalType": "address",
          "name": "payee",
          "type": "address"
        }
      ],
      "name": "getRegisteredCountOf",
      "outputs": [
        {
          "internalType": "uint256",
          "name": "",
          "type": "uint256"
        }
      ],
      "stateMutability": "view",
      "type": "function"
    },
    {
      "inputs": [
        {
          "internalType": "address",
          "name": "payee",
          "type": "address"
        }
      ],
      "name": "getRegisteredSplittersOf",
      "outputs": [
        {
          "internalType": "address[]",
          "name": "",
          "type": "address[]"
        }
      ],
      "stateMutability": "view",
      "type": "function"
    },
    {
      "inputs": [
        {
          "internalType": "address",
          "name": "splitter",
          "type": "address"
        }
      ],
      "name": "getShares",
      "outputs": [
        {
          "internalType": "uint256[]",
          "name": "",
          "type": "uint256[]"
        }
      ],
      "stateMutability": "view",
      "type": "function"
    },
    {
      "inputs": [
        {
          "internalType": "address",
          "name": "splitter",
          "type": "address"
        },
        {
          "internalType": "address",
          "name": "account",
          "type": "address"
        }
      ],
      "name": "getSharesOfAccount",
      "outputs": [
        {
          "internalType": "uint256",
          "name": "",
          "type": "uint256"
        }
      ],
      "stateMutability": "view",
      "type": "function"
    },
    {
      "inputs": [],
      "name": "getSplitterImplementation",
      "outputs": [
        {
          "internalType": "address",
          "name": "",
          "type": "address"
        }
      ],
      "stateMutability": "view",
      "type": "function"
    },
    {
      "inputs": [],
      "name": "getTax",
      "outputs": [
        {
          "internalType": "uint256",
          "name": "",
          "type": "uint256"
        }
      ],
      "stateMutability": "view",
      "type": "function"
    },
    {
      "inputs": [
        {
          "internalType": "address",
          "name": "splitter",
          "type": "address"
        }
      ],
      "name": "getTotalShares",
      "outputs": [
        {
          "internalType": "uint256",
          "name": "",
          "type": "uint256"
        }
      ],
      "stateMutability": "view",
      "type": "function"
    },
    {
      "inputs": [
        {
          "internalType": "address[]",
          "name": "payees",
          "type": "address[]"
        },
        {
          "internalType": "uint256[]",
          "name": "shares",
          "type": "uint256[]"
        }
      ],
      "name": "newSplitter",
      "outputs": [
        {
          "internalType": "address",
          "name": "",
          "type": "address"
        }
      ],
      "stateMutability": "payable",
      "type": "function"
    },
    {
      "inputs": [],
      "name": "owner",
      "outputs": [
        {
          "internalType": "address",
          "name": "",
          "type": "address"
        }
      ],
      "stateMutability": "view",
      "type": "function"
    },
    {
      "inputs": [
        {
          "internalType": "address",
          "name": "payee",
          "type": "address"
        },
        {
          "internalType": "address",
          "name": "splitter",
          "type": "address"
        }
      ],
      "name": "release",
      "outputs": [],
      "stateMutability": "nonpayable",
      "type": "function"
    },
    {
      "inputs": [
        {
          "internalType": "address",
          "name": "splitter",
          "type": "address"
        }
      ],
      "name": "releaseAll",
      "outputs": [],
      "stateMutability": "nonpayable",
      "type": "function"
    },
    {
      "inputs": [
        {
          "internalType": "address",
          "name": "payee",
          "type": "address"
        }
      ],
      "name": "releaseAllSplitters",
      "outputs": [],
      "stateMutability": "nonpayable",
      "type": "function"
    },
    {
      "inputs": [
        {
          "internalType": "address",
          "name": "token",
          "type": "address"
        },
        {
          "internalType": "address",
          "name": "payee",
          "type": "address"
        }
      ],
      "name": "releaseAllSplittersTokens",
      "outputs": [],
      "stateMutability": "nonpayable",
      "type": "function"
    },
    {
      "inputs": [
        {
          "internalType": "address",
          "name": "token",
          "type": "address"
        },
        {
          "internalType": "address",
          "name": "splitter",
          "type": "address"
        }
      ],
      "name": "releaseAllTokens",
      "outputs": [],
      "stateMutability": "nonpayable",
      "type": "function"
    },
    {
      "inputs": [
        {
          "internalType": "address",
          "name": "token",
          "type": "address"
        },
        {
          "internalType": "address",
          "name": "payee",
          "type": "address"
        },
        {
          "internalType": "address",
          "name": "splitter",
          "type": "address"
        }
      ],
      "name": "releaseTokens",
      "outputs": [],
      "stateMutability": "nonpayable",
      "type": "function"
    },
    {
      "inputs": [],
      "name": "renounceOwnership",
      "outputs": [],
      "stateMutability": "nonpayable",
      "type": "function"
    },
    {
      "inputs": [
        {
          "internalType": "uint256",
          "name": "tax",
          "type": "uint256"
        }
      ],
      "name": "setTax",
      "outputs": [],
      "stateMutability": "nonpayable",
      "type": "function"
    },
    {
      "inputs": [
        {
          "internalType": "address",
          "name": "newOwner",
          "type": "address"
        }
      ],
      "name": "transferOwnership",
      "outputs": [],
      "stateMutability": "nonpayable",
      "type": "function"
    },
    {
      "inputs": [
        {
          "internalType": "uint256",
          "name": "amount",
          "type": "uint256"
        },
        {
          "internalType": "address",
          "name": "account",
          "type": "address"
        }
      ],
      "name": "withdraw",
      "outputs": [],
      "stateMutability": "nonpayable",
      "type": "function"
    },
    {
      "inputs": [
        {
          "internalType": "address",
          "name": "account",
          "type": "address"
        }
      ],
      "name": "withdrawAll",
      "outputs": [],
      "stateMutability": "nonpayable",
      "type": "function"
    }
  ],
  "bytecode": {
    "object": "0x6080604052670de0b6b3a76400006001553480156200001d57600080fd5b5062000029336200022c565b600060405162000039906200027c565b604051809103906000f08015801562000056573d6000803e3d6000fd5b50604080516001808252818301909252919250600091906020808301908036833701905050905030816000815181106200009457620000946200028a565b6001600160a01b039290921660209283029190910190910152604080516001808252818301909252600091816020016020820280368337019050509050600181600081518110620000e957620000e96200028a565b6020908102919091010152604051637fbbe46f60e01b81526001600160a01b03841690637fbbe46f90620001249085908590600401620002a0565b600060405180830381600087803b1580156200013f57600080fd5b505af115801562000154573d6000803e3d6000fd5b5050600280546001808201835560008390527f405787fa12a823e0f2b7631cc41b3ba8828b3321ca811111fa75cd3aa3bb5ace90910180546001600160a01b0319166001600160a01b0389161790559054620001b4935090915062000328565b6001600160a01b0390931660008181526003602090815260408083209690965530808352600482528683208054600181810183559185528385200180546001600160a01b03199081168717909155918452600583529683208054978801815583529120909401805490941617909255506200034e9050565b600080546001600160a01b038381166001600160a01b0319831681178455604051919092169283917f8be0079c531659141344cd1fd0a4f28419497f9722a3daafe3b4186f6b6457e09190a35050565b6112ef806200396b83390190565b634e487b7160e01b600052603260045260246000fd5b604080825283519082018190526000906020906060840190828701845b82811015620002e45781516001600160a01b031684529284019290840190600101620002bd565b5050508381038285015284518082528583019183019060005b818110156200031b57835183529284019291840191600101620002fd565b5090979650505050505050565b6000828210156200034957634e487b7160e01b600052601160045260246000fd5b500390565b61360d806200035e6000396000f3fe6080604052600436106101b65760003560e01c80638da5cb5b116100ec578063e751d5081161008a578063f2fde38b11610064578063f2fde38b146104cc578063f3d57954146104ec578063f9f22c231461050c578063fa09e6301461052c57600080fd5b8063e751d50814610476578063f04da65b1461048c578063f20d8634146104ac57600080fd5b8063b632b3cb116100c6578063b632b3cb146103f4578063c729e4fb14610414578063c84aae1714610441578063dae299061461046157600080fd5b80638da5cb5b146103965780638fe8c3e3146103b4578063a8d69f30146103d457600080fd5b806353290b4411610159578063715018a611610133578063715018a614610316578063739046f31461032b57806379815a9a146103565780637e1daef91461037657600080fd5b806353290b44146102c157806354b762a6146102e1578063580fc80a146102f657600080fd5b80632e5bb6ff116101955780632e5bb6ff146102415780634402c81414610261578063478f447c1461028157806348b75044146102a157600080fd5b8062f714ce146101bb5780631830f9cf146101dd5780632b0f73af14610213575b600080fd5b3480156101c757600080fd5b506101db6101d6366004611ddb565b61054c565b005b3480156101e957600080fd5b506101fd6101f8366004611e0b565b6105be565b60405161020a9190611e6c565b60405180910390f35b34801561021f57600080fd5b5061023361022e366004611e7f565b610669565b60405190815260200161020a565b34801561024d57600080fd5b506101db61025c366004611eca565b61071e565b34801561026d57600080fd5b5061023361027c366004611e0b565b61074d565b34801561028d57600080fd5b506101fd61029c366004611e0b565b6107c2565b3480156102ad57600080fd5b506101db6102bc366004611ee3565b610838565b3480156102cd57600080fd5b506102336102dc366004611ee3565b6108d2565b3480156102ed57600080fd5b50600154610233565b34801561030257600080fd5b506101db610311366004611e0b565b610978565b34801561032257600080fd5b506101db610b21565b61033e610339366004611fe7565b610b57565b6040516001600160a01b03909116815260200161020a565b34801561036257600080fd5b506101db610371366004611e0b565b610cb4565b34801561038257600080fd5b50610233610391366004611ee3565b610dbd565b3480156103a257600080fd5b506000546001600160a01b031661033e565b3480156103c057600080fd5b506101fd6103cf366004611e0b565b610e26565b3480156103e057600080fd5b5061033e6103ef3660046120a9565b610e9a565b34801561040057600080fd5b506101db61040f366004611ee3565b610f3e565b34801561042057600080fd5b5061043461042f366004611ee3565b61104b565b60405161020a9190612105565b34801561044d57600080fd5b5061043461045c366004611e0b565b6112bb565b34801561046d57600080fd5b5061033e611521565b34801561048257600080fd5b5061023360015481565b34801561049857600080fd5b506104346104a7366004611e0b565b61155a565b3480156104b857600080fd5b506102336104c7366004611e0b565b6117b8565b3480156104d857600080fd5b506101db6104e7366004611e0b565b61185e565b3480156104f857600080fd5b506101db610507366004611e7f565b6118f9565b34801561051857600080fd5b506101db610527366004611ee3565b61199c565b34801561053857600080fd5b506101db610547366004611e0b565b611b5f565b6000546001600160a01b0316331461057f5760405162461bcd60e51b815260040161057690612118565b60405180910390fd5b8147101561058c57600080fd5b604051339083156108fc029084906000818181858888f193505050501580156105b9573d6000803e3d6000fd5b505050565b6001600160a01b03811660009081526003602052604081205460028054606093929081106105ee576105ee61214d565b6000918252602082200154604080516327f3811360e01b815290516001600160a01b03909216926327f38113926004808401938290030181865afa15801561063a573d6000803e3d6000fd5b505050506040513d6000823e601f3d908101601f191682016040526106629190810190612163565b9392505050565b6001600160a01b0383166000908152600360205260408120546002805490919081106106975761069761214d565b6000918252602090912001546040516339669c1d60e11b81526001600160a01b0385811660048301528481166024830152909116906372cd383a90604401602060405180830381865afa1580156106f2573d6000803e3d6000fd5b505050506040513d601f19601f8201168201806040525081019061071691906121fd565b949350505050565b6000546001600160a01b031633146107485760405162461bcd60e51b815260040161057690612118565b600155565b6001600160a01b0381166000908152600560209081526040808320805482518185028101850190935280835284938301828280156107b457602002820191906000526020600020905b81546001600160a01b03168152600190910190602001808311610796575b505092519695505050505050565b6001600160a01b03811660009081526004602090815260409182902080548351818402810184019094528084526060939283018282801561082c57602002820191906000526020600020905b81546001600160a01b0316815260019091019060200180831161080e575b50505050509050919050565b6001600160a01b0381166000908152600360205260409020546002805490919081106108665761086661214d565b600091825260209091200154604051631916558760e01b81526001600160a01b03848116600483015290911690631916558790602401600060405180830381600087803b1580156108b657600080fd5b505af11580156108ca573d6000803e3d6000fd5b505050505050565b6001600160a01b0382166000908152600360205260408120546002805490919081106109005761090061214d565b6000918252602090912001546040516370a0823160e01b81526001600160a01b038481166004830152909116906370a08231906024015b602060405180830381865afa158015610954573d6000803e3d6000fd5b505050506040513d601f19601f8201168201806040525081019061066291906121fd565b6001600160a01b0381166000908152600360205260408120546002805490919081106109a6576109a661214d565b6000918252602082200154604080516327f3811360e01b815290516001600160a01b03909216926327f38113926004808401938290030181865afa1580156109f2573d6000803e3d6000fd5b505050506040513d6000823e601f3d908101601f19168201604052610a1a9190810190612163565b90506000815111610a3d5760405162461bcd60e51b815260040161057690612216565b60005b81518110156105b9576001600160a01b038316600090815260036020526040902054600280549091908110610a7757610a7761214d565b60009182526020909120015482516001600160a01b0390911690631916558790849084908110610aa957610aa961214d565b60200260200101516040518263ffffffff1660e01b8152600401610adc91906001600160a01b0391909116815260200190565b600060405180830381600087803b158015610af657600080fd5b505af1158015610b0a573d6000803e3d6000fd5b505050508080610b199061226d565b915050610a40565b6000546001600160a01b03163314610b4b5760405162461bcd60e51b815260040161057690612118565b610b556000611bb5565b565b60008151835114610bd05760405162461bcd60e51b815260206004820152603960248201527f5061796d656e7453706c6974746572466163746f72793a20706179656573206160448201527f6e6420736861726573206c656e677468206d69736d61746368000000000000006064820152608401610576565b6000835111610bf15760405162461bcd60e51b815260040161057690612216565b600154341015610c625760405162461bcd60e51b815260206004820152603660248201527f5061796d656e7453706c6974746572466163746f72793a206d73672e76616c756044820152750ca40daeae6e840c4ca40cae2eac2d840e8de40e8c2f60531b6064820152608401610576565b6000610c6e8484611c05565b6040516001600160a01b03821681529091507f30af7bdf04bd12c43e1faf8f5ac72234cf440fd5c945a61362ad54a1cd568de39060200160405180910390a19392505050565b60005b6001600160a01b038216600090815260056020526040902054811015610db9576001600160a01b03821660009081526005602052604081208054600292600392909185908110610d0957610d0961214d565b60009182526020808320909101546001600160a01b0316835282019290925260400190205481548110610d3e57610d3e61214d565b600091825260209091200154604051631916558760e01b81526001600160a01b03848116600483015290911690631916558790602401600060405180830381600087803b158015610d8e57600080fd5b505af1158015610da2573d6000803e3d6000fd5b505050508080610db19061226d565b915050610cb7565b5050565b6001600160a01b038216600090815260036020526040812054600280549091908110610deb57610deb61214d565b60009182526020909120015460405163673e156160e11b81526001600160a01b0384811660048301529091169063ce7c2ac290602401610937565b6001600160a01b03811660009081526005602090815260409182902080548351818402810184019094528084526060939283018282801561082c576020028201919060005260206000209081546001600160a01b0316815260019091019060200180831161080e5750505050509050919050565b6001600160a01b038216600090815260036020526040812054600280549091908110610ec857610ec861214d565b6000918252602090912001546040516326b0538f60e21b8152600481018490526001600160a01b0390911690639ac14e3c90602401602060405180830381865afa158015610f1a573d6000803e3d6000fd5b505050506040513d601f19601f820116820180604052508101906106629190612286565b60005b6001600160a01b0382166000908152600560205260409020548110156105b9576001600160a01b03821660009081526005602052604081208054600292600392909185908110610f9357610f9361214d565b60009182526020808320909101546001600160a01b0316835282019290925260400190205481548110610fc857610fc861214d565b600091825260209091200154604051633a189da560e11b81526001600160a01b0385811660048301528481166024830152909116906374313b4a90604401600060405180830381600087803b15801561102057600080fd5b505af1158015611034573d6000803e3d6000fd5b5050505080806110439061226d565b915050610f41565b6001600160a01b038216600090815260036020526040812054600280546060939290811061107b5761107b61214d565b60009182526020808320909101546040805163e919ecad60e01b815290516001600160a01b039092169450849263e919ecad926004808401938290030181865afa1580156110cd573d6000803e3d6000fd5b505050506040513d601f19601f820116820180604052508101906110f191906121fd565b67ffffffffffffffff81111561110957611109611f11565b604051908082528060200260200182016040528015611132578160200160208202803683370190505b50905060005b826001600160a01b031663e919ecad6040518163ffffffff1660e01b8152600401602060405180830381865afa158015611176573d6000803e3d6000fd5b505050506040513d601f19601f8201168201806040525081019061119a91906121fd565b8110156112b2576040516326b0538f60e21b8152600481018290526001600160a01b038416906372cd383a9087908390639ac14e3c90602401602060405180830381865afa1580156111f0573d6000803e3d6000fd5b505050506040513d601f19601f820116820180604052508101906112149190612286565b6040516001600160e01b031960e085901b1681526001600160a01b03928316600482015291166024820152604401602060405180830381865afa15801561125f573d6000803e3d6000fd5b505050506040513d601f19601f8201168201806040525081019061128391906121fd565b8282815181106112955761129561214d565b6020908102919091010152806112aa8161226d565b915050611138565b50949350505050565b6001600160a01b03811660009081526003602052604081205460028054606093929081106112eb576112eb61214d565b60009182526020808320909101546040805163e919ecad60e01b815290516001600160a01b039092169450849263e919ecad926004808401938290030181865afa15801561133d573d6000803e3d6000fd5b505050506040513d601f19601f8201168201806040525081019061136191906121fd565b67ffffffffffffffff81111561137957611379611f11565b6040519080825280602002602001820160405280156113a2578160200160208202803683370190505b50905060005b826001600160a01b031663e919ecad6040518163ffffffff1660e01b8152600401602060405180830381865afa1580156113e6573d6000803e3d6000fd5b505050506040513d601f19601f8201168201806040525081019061140a91906121fd565b811015611519576040516326b0538f60e21b8152600481018290526001600160a01b038416906370a08231908290639ac14e3c90602401602060405180830381865afa15801561145e573d6000803e3d6000fd5b505050506040513d601f19601f820116820180604052508101906114829190612286565b6040516001600160e01b031960e084901b1681526001600160a01b039091166004820152602401602060405180830381865afa1580156114c6573d6000803e3d6000fd5b505050506040513d601f19601f820116820180604052508101906114ea91906121fd565b8282815181106114fc576114fc61214d565b6020908102919091010152806115118161226d565b9150506113a8565b509392505050565b306000908152600460205260408120805482906115405761154061214d565b6000918252602090912001546001600160a01b0316919050565b6001600160a01b038116600090815260036020526040812054600280546060939290811061158a5761158a61214d565b60009182526020808320909101546040805163e919ecad60e01b815290516001600160a01b039092169450849263e919ecad926004808401938290030181865afa1580156115dc573d6000803e3d6000fd5b505050506040513d601f19601f8201168201806040525081019061160091906121fd565b67ffffffffffffffff81111561161857611618611f11565b604051908082528060200260200182016040528015611641578160200160208202803683370190505b50905060005b826001600160a01b031663e919ecad6040518163ffffffff1660e01b8152600401602060405180830381865afa158015611685573d6000803e3d6000fd5b505050506040513d601f19601f820116820180604052508101906116a991906121fd565b811015611519576040516326b0538f60e21b8152600481018290526001600160a01b0384169063ce7c2ac2908290639ac14e3c90602401602060405180830381865afa1580156116fd573d6000803e3d6000fd5b505050506040513d601f19601f820116820180604052508101906117219190612286565b6040516001600160e01b031960e084901b1681526001600160a01b039091166004820152602401602060405180830381865afa158015611765573d6000803e3d6000fd5b505050506040513d601f19601f8201168201806040525081019061178991906121fd565b82828151811061179b5761179b61214d565b6020908102919091010152806117b08161226d565b915050611647565b6001600160a01b0381166000908152600360205260408120546002805490919081106117e6576117e661214d565b6000918252602091829020015460408051633a98ef3960e01b815290516001600160a01b0390921692633a98ef39926004808401938290030181865afa158015611834573d6000803e3d6000fd5b505050506040513d601f19601f8201168201806040525081019061185891906121fd565b92915050565b6000546001600160a01b031633146118885760405162461bcd60e51b815260040161057690612118565b6001600160a01b0381166118ed5760405162461bcd60e51b815260206004820152602660248201527f4f776e61626c653a206e6577206f776e657220697320746865207a65726f206160448201526564647265737360d01b6064820152608401610576565b6118f681611bb5565b50565b6001600160a01b0381166000908152600360205260409020546002805490919081106119275761192761214d565b600091825260209091200154604051633a189da560e11b81526001600160a01b0385811660048301528481166024830152909116906374313b4a90604401600060405180830381600087803b15801561197f57600080fd5b505af1158015611993573d6000803e3d6000fd5b50505050505050565b6001600160a01b0381166000908152600360205260408120546002805490919081106119ca576119ca61214d565b6000918252602082200154604080516327f3811360e01b815290516001600160a01b03909216926327f38113926004808401938290030181865afa158015611a16573d6000803e3d6000fd5b505050506040513d6000823e601f3d908101601f19168201604052611a3e9190810190612163565b90506000815111611a615760405162461bcd60e51b815260040161057690612216565b60005b8151811015611b59576001600160a01b038316600090815260036020526040902054600280549091908110611a9b57611a9b61214d565b9060005260206000200160009054906101000a90046001600160a01b03166001600160a01b03166374313b4a85848481518110611ada57611ada61214d565b60200260200101516040518363ffffffff1660e01b8152600401611b149291906001600160a01b0392831681529116602082015260400190565b600060405180830381600087803b158015611b2e57600080fd5b505af1158015611b42573d6000803e3d6000fd5b505050508080611b519061226d565b915050611a64565b50505050565b6000546001600160a01b03163314611b895760405162461bcd60e51b815260040161057690612118565b60405133904780156108fc02916000818181858888f19350505050158015610db9573d6000803e3d6000fd5b600080546001600160a01b038381166001600160a01b0319831681178455604051919092169283917f8be0079c531659141344cd1fd0a4f28419497f9722a3daafe3b4186f6b6457e09190a35050565b600080604051611c1490611db9565b604051809103906000f080158015611c30573d6000803e3d6000fd5b50604051637fbbe46f60e01b81529091506001600160a01b03821690637fbbe46f90611c6290879087906004016122a3565b600060405180830381600087803b158015611c7c57600080fd5b505af1158015611c90573d6000803e3d6000fd5b5050600280546001808201835560008390527f405787fa12a823e0f2b7631cc41b3ba8828b3321ca811111fa75cd3aa3bb5ace90910180546001600160a01b0319166001600160a01b0387161790559054611cee93509091506122d1565b6001600160a01b03821660008181526003602090815260408083209490945533825260048152928120805460018101825590825292812090920180546001600160a01b03191690911790555b84518110156115195760056000868381518110611d5957611d5961214d565b6020908102919091018101516001600160a01b039081168352828201939093526040909101600090812080546001810182559082529190200180546001600160a01b03191691841691909117905580611db18161226d565b915050611d3a565b6112ef806122e983390190565b6001600160a01b03811681146118f657600080fd5b60008060408385031215611dee57600080fd5b823591506020830135611e0081611dc6565b809150509250929050565b600060208284031215611e1d57600080fd5b813561066281611dc6565b600081518084526020808501945080840160005b83811015611e615781516001600160a01b031687529582019590820190600101611e3c565b509495945050505050565b6020815260006106626020830184611e28565b600080600060608486031215611e9457600080fd5b8335611e9f81611dc6565b92506020840135611eaf81611dc6565b91506040840135611ebf81611dc6565b809150509250925092565b600060208284031215611edc57600080fd5b5035919050565b60008060408385031215611ef657600080fd5b8235611f0181611dc6565b91506020830135611e0081611dc6565b634e487b7160e01b600052604160045260246000fd5b604051601f8201601f1916810167ffffffffffffffff81118282101715611f5057611f50611f11565b604052919050565b600067ffffffffffffffff821115611f7257611f72611f11565b5060051b60200190565b600082601f830112611f8d57600080fd5b81356020611fa2611f9d83611f58565b611f27565b82815260059290921b84018101918181019086841115611fc157600080fd5b8286015b84811015611fdc5780358352918301918301611fc5565b509695505050505050565b60008060408385031215611ffa57600080fd5b823567ffffffffffffffff8082111561201257600080fd5b818501915085601f83011261202657600080fd5b81356020612036611f9d83611f58565b82815260059290921b8401810191818101908984111561205557600080fd5b948201945b8386101561207c57853561206d81611dc6565b8252948201949082019061205a565b9650508601359250508082111561209257600080fd5b5061209f85828601611f7c565b9150509250929050565b600080604083850312156120bc57600080fd5b82356120c781611dc6565b946020939093013593505050565b600081518084526020808501945080840160005b83811015611e61578151875295820195908201906001016120e9565b60208152600061066260208301846120d5565b6020808252818101527f4f776e61626c653a2063616c6c6572206973206e6f7420746865206f776e6572604082015260600190565b634e487b7160e01b600052603260045260246000fd5b6000602080838503121561217657600080fd5b825167ffffffffffffffff81111561218d57600080fd5b8301601f8101851361219e57600080fd5b80516121ac611f9d82611f58565b81815260059190911b820183019083810190878311156121cb57600080fd5b928401925b828410156121f25783516121e381611dc6565b825292840192908401906121d0565b979650505050505050565b60006020828403121561220f57600080fd5b5051919050565b60208082526021908201527f5061796d656e7453706c6974746572466163746f72793a206e6f2070617965656040820152607360f81b606082015260800190565b634e487b7160e01b600052601160045260246000fd5b60006001820161227f5761227f612257565b5060010190565b60006020828403121561229857600080fd5b815161066281611dc6565b6040815260006122b66040830185611e28565b82810360208401526122c881856120d5565b95945050505050565b6000828210156122e3576122e3612257565b50039056fe608060405234801561001057600080fd5b506112cf806100206000396000f3fe6080604052600436106100ec5760003560e01c806374313b4a1161008a5780639ac14e3c116100595780639ac14e3c146102dd578063ce7c2ac2146102fd578063e33b7de314610333578063e919ecad1461034857600080fd5b806374313b4a1461023e5780637fbbe46f1461025e578063820be89e146102715780639852595c146102a757600080fd5b80633a98ef39116100c65780633a98ef39146101bf5780636625889f146101de57806370a08231146101fe57806372cd383a1461021e57600080fd5b8063191655871461013a57806327f381131461015c578063283248be1461018757600080fd5b36610135577f6ef95f06320e7a25a04a175ca677b7052bdd97131872c2192525a629f51be77033604080516001600160a01b0390921682523460208301520160405180910390a1005b600080fd5b34801561014657600080fd5b5061015a610155366004610e4f565b61035d565b005b34801561016857600080fd5b506101716104c3565b60405161017e9190610e6a565b60405180910390f35b34801561019357600080fd5b506101a76101a2366004610eb7565b610525565b6040516001600160a01b03909116815260200161017e565b3480156101cb57600080fd5b506000545b60405190815260200161017e565b3480156101ea57600080fd5b506101d06101f9366004610ed0565b61054f565b34801561020a57600080fd5b506101d0610219366004610e4f565b61057a565b34801561022a57600080fd5b506101d0610239366004610ed0565b6105f4565b34801561024a57600080fd5b5061015a610259366004610ed0565b6106d0565b61015a61026c366004610fd9565b610886565b34801561027d57600080fd5b506101d061028c366004610e4f565b6001600160a01b031660009081526005602052604090205490565b3480156102b357600080fd5b506101d06102c2366004610e4f565b6001600160a01b031660009081526003602052604090205490565b3480156102e957600080fd5b506101a76102f8366004610eb7565b6109a2565b34801561030957600080fd5b506101d0610318366004610e4f565b6001600160a01b031660009081526002602052604090205490565b34801561033f57600080fd5b506001546101d0565b34801561035457600080fd5b506004546101d0565b6001600160a01b03811660009081526002602052604090205461039b5760405162461bcd60e51b815260040161039290611099565b60405180910390fd5b60006103a660015490565b6103b090476110f5565b905060006103dd83836103d8866001600160a01b031660009081526003602052604090205490565b6109d2565b9050806000036103ff5760405162461bcd60e51b81526004016103929061110d565b6001600160a01b038316600090815260036020526040812080548392906104279084906110f5565b92505081905550806001600082825461044091906110f5565b90915550506040516001600160a01b0384169082156108fc029083906000818181858888f1935050505015801561047b573d6000803e3d6000fd5b50604080516001600160a01b0385168152602081018390527fdf20fd1e76bc69d672e4814fafb2c449bba3a5369d8359adf9e05e6fde87b056910160405180910390a1505050565b6060600480548060200260200160405190810160405280929190818152602001828054801561051b57602002820191906000526020600020905b81546001600160a01b031681526001909101906020018083116104fd575b5050505050905090565b6004818154811061053557600080fd5b6000918252602090912001546001600160a01b0316905081565b6001600160a01b03918216600090815260066020908152604080832093909416825291909152205490565b6001600160a01b0381166000908152600260205260408120546105af5760405162461bcd60e51b815260040161039290611099565b60006105ba60015490565b6105c490476110f5565b905060006105ec84836103d8876001600160a01b031660009081526003602052604090205490565b949350505050565b6001600160a01b0381166000908152600260205260408120546106295760405162461bcd60e51b815260040161039290611099565b6001600160a01b0383166000908152600560205260408120546040516370a0823160e01b81523060048201526001600160a01b038616906370a0823190602401602060405180830381865afa158015610686573d6000803e3d6000fd5b505050506040513d601f19601f820116820180604052508101906106aa9190611158565b6106b491906110f5565b905060006106c784836103d8888861054f565b95945050505050565b6001600160a01b0381166000908152600260205260409020546107055760405162461bcd60e51b815260040161039290611099565b6001600160a01b0382166000908152600560205260408120546040516370a0823160e01b81523060048201526001600160a01b038516906370a0823190602401602060405180830381865afa158015610762573d6000803e3d6000fd5b505050506040513d601f19601f820116820180604052508101906107869190611158565b61079091906110f5565b905060006107a383836103d8878761054f565b9050806000036107c55760405162461bcd60e51b81526004016103929061110d565b6001600160a01b038085166000908152600660209081526040808320938716835292905290812080548392906107fc9084906110f5565b90915550506001600160a01b038416600090815260056020526040812080548392906108299084906110f5565b9091555061083a9050848483610a17565b604080516001600160a01b038581168252602082018490528616917f3be5b7a71e84ed12875d241991c70855ac5817d847039e17a9d895c1ceb0f18a910160405180910390a250505050565b80518251146108f25760405162461bcd60e51b815260206004820152603260248201527f5061796d656e7453706c69747465723a2070617965657320616e6420736861726044820152710cae640d8cadccee8d040dad2e6dac2e8c6d60731b6064820152608401610392565b60008251116109435760405162461bcd60e51b815260206004820152601a60248201527f5061796d656e7453706c69747465723a206e6f207061796565730000000000006044820152606401610392565b60005b825181101561099d5761098b83828151811061096457610964611171565b602002602001015183838151811061097e5761097e611171565b6020026020010151610a69565b8061099581611187565b915050610946565b505050565b6000600482815481106109b7576109b7611171565b6000918252602090912001546001600160a01b031692915050565b600080546001600160a01b0385168252600260205260408220548391906109f990866111a0565b610a0391906111bf565b610a0d91906111e1565b90505b9392505050565b604080516001600160a01b038416602482015260448082018490528251808303909101815260649091019091526020810180516001600160e01b031663a9059cbb60e01b17905261099d908490610c4d565b6001600160a01b038216610ad45760405162461bcd60e51b815260206004820152602c60248201527f5061796d656e7453706c69747465723a206163636f756e74206973207468652060448201526b7a65726f206164647265737360a01b6064820152608401610392565b60008111610b245760405162461bcd60e51b815260206004820152601d60248201527f5061796d656e7453706c69747465723a207368617265732061726520300000006044820152606401610392565b6001600160a01b03821660009081526002602052604090205415610b9e5760405162461bcd60e51b815260206004820152602b60248201527f5061796d656e7453706c69747465723a206163636f756e7420616c726561647960448201526a206861732073686172657360a81b6064820152608401610392565b60048054600181019091557f8a35acfbc15ff81a39ae7d344fd709f28e8600b4aa8c65c6b64bfe7fe36bd19b0180546001600160a01b0319166001600160a01b038416908117909155600090815260026020526040812082905554610c049082906110f5565b600055604080516001600160a01b0384168152602081018390527f40c340f65e17194d14ddddb073d3c9f888e3cb52b5aae0c6c7706b4fbc905fac910160405180910390a15050565b6000610ca2826040518060400160405280602081526020017f5361666545524332303a206c6f772d6c6576656c2063616c6c206661696c6564815250856001600160a01b0316610d1f9092919063ffffffff16565b80519091501561099d5780806020019051810190610cc091906111f8565b61099d5760405162461bcd60e51b815260206004820152602a60248201527f5361666545524332303a204552433230206f7065726174696f6e20646964206e6044820152691bdd081cdd58d8d9595960b21b6064820152608401610392565b6060610a0d8484600085856001600160a01b0385163b610d815760405162461bcd60e51b815260206004820152601d60248201527f416464726573733a2063616c6c20746f206e6f6e2d636f6e74726163740000006044820152606401610392565b600080866001600160a01b03168587604051610d9d919061124a565b60006040518083038185875af1925050503d8060008114610dda576040519150601f19603f3d011682016040523d82523d6000602084013e610ddf565b606091505b5091509150610def828286610dfa565b979650505050505050565b60608315610e09575081610a10565b825115610e195782518084602001fd5b8160405162461bcd60e51b81526004016103929190611266565b80356001600160a01b0381168114610e4a57600080fd5b919050565b600060208284031215610e6157600080fd5b610a1082610e33565b6020808252825182820181905260009190848201906040850190845b81811015610eab5783516001600160a01b031683529284019291840191600101610e86565b50909695505050505050565b600060208284031215610ec957600080fd5b5035919050565b60008060408385031215610ee357600080fd5b610eec83610e33565b9150610efa60208401610e33565b90509250929050565b634e487b7160e01b600052604160045260246000fd5b604051601f8201601f1916810167ffffffffffffffff81118282101715610f4257610f42610f03565b604052919050565b600067ffffffffffffffff821115610f6457610f64610f03565b5060051b60200190565b600082601f830112610f7f57600080fd5b81356020610f94610f8f83610f4a565b610f19565b82815260059290921b84018101918181019086841115610fb357600080fd5b8286015b84811015610fce5780358352918301918301610fb7565b509695505050505050565b60008060408385031215610fec57600080fd5b823567ffffffffffffffff8082111561100457600080fd5b818501915085601f83011261101857600080fd5b81356020611028610f8f83610f4a565b82815260059290921b8401810191818101908984111561104757600080fd5b948201945b8386101561106c5761105d86610e33565b8252948201949082019061104c565b9650508601359250508082111561108257600080fd5b5061108f85828601610f6e565b9150509250929050565b60208082526026908201527f5061796d656e7453706c69747465723a206163636f756e7420686173206e6f2060408201526573686172657360d01b606082015260800190565b634e487b7160e01b600052601160045260246000fd5b60008219821115611108576111086110df565b500190565b6020808252602b908201527f5061796d656e7453706c69747465723a206163636f756e74206973206e6f742060408201526a191d59481c185e5b595b9d60aa1b606082015260800190565b60006020828403121561116a57600080fd5b5051919050565b634e487b7160e01b600052603260045260246000fd5b600060018201611199576111996110df565b5060010190565b60008160001904831182151516156111ba576111ba6110df565b500290565b6000826111dc57634e487b7160e01b600052601260045260246000fd5b500490565b6000828210156111f3576111f36110df565b500390565b60006020828403121561120a57600080fd5b81518015158114610a1057600080fd5b60005b8381101561123557818101518382015260200161121d565b83811115611244576000848401525b50505050565b6000825161125c81846020870161121a565b9190910192915050565b602081526000825180602084015261128581604085016020870161121a565b601f01601f1916919091016040019291505056fea2646970667358221220e64b57381422661e66f458a52eeb2199ba4652345eeca64441716e614c538f8f64736f6c634300080e0033a2646970667358221220bb52dd7a80d13e5995cfefe2a560f5fef338ea805f53a330f373e0046699f34864736f6c634300080e0033608060405234801561001057600080fd5b506112cf806100206000396000f3fe6080604052600436106100ec5760003560e01c806374313b4a1161008a5780639ac14e3c116100595780639ac14e3c146102dd578063ce7c2ac2146102fd578063e33b7de314610333578063e919ecad1461034857600080fd5b806374313b4a1461023e5780637fbbe46f1461025e578063820be89e146102715780639852595c146102a757600080fd5b80633a98ef39116100c65780633a98ef39146101bf5780636625889f146101de57806370a08231146101fe57806372cd383a1461021e57600080fd5b8063191655871461013a57806327f381131461015c578063283248be1461018757600080fd5b36610135577f6ef95f06320e7a25a04a175ca677b7052bdd97131872c2192525a629f51be77033604080516001600160a01b0390921682523460208301520160405180910390a1005b600080fd5b34801561014657600080fd5b5061015a610155366004610e4f565b61035d565b005b34801561016857600080fd5b506101716104c3565b60405161017e9190610e6a565b60405180910390f35b34801561019357600080fd5b506101a76101a2366004610eb7565b610525565b6040516001600160a01b03909116815260200161017e565b3480156101cb57600080fd5b506000545b60405190815260200161017e565b3480156101ea57600080fd5b506101d06101f9366004610ed0565b61054f565b34801561020a57600080fd5b506101d0610219366004610e4f565b61057a565b34801561022a57600080fd5b506101d0610239366004610ed0565b6105f4565b34801561024a57600080fd5b5061015a610259366004610ed0565b6106d0565b61015a61026c366004610fd9565b610886565b34801561027d57600080fd5b506101d061028c366004610e4f565b6001600160a01b031660009081526005602052604090205490565b3480156102b357600080fd5b506101d06102c2366004610e4f565b6001600160a01b031660009081526003602052604090205490565b3480156102e957600080fd5b506101a76102f8366004610eb7565b6109a2565b34801561030957600080fd5b506101d0610318366004610e4f565b6001600160a01b031660009081526002602052604090205490565b34801561033f57600080fd5b506001546101d0565b34801561035457600080fd5b506004546101d0565b6001600160a01b03811660009081526002602052604090205461039b5760405162461bcd60e51b815260040161039290611099565b60405180910390fd5b60006103a660015490565b6103b090476110f5565b905060006103dd83836103d8866001600160a01b031660009081526003602052604090205490565b6109d2565b9050806000036103ff5760405162461bcd60e51b81526004016103929061110d565b6001600160a01b038316600090815260036020526040812080548392906104279084906110f5565b92505081905550806001600082825461044091906110f5565b90915550506040516001600160a01b0384169082156108fc029083906000818181858888f1935050505015801561047b573d6000803e3d6000fd5b50604080516001600160a01b0385168152602081018390527fdf20fd1e76bc69d672e4814fafb2c449bba3a5369d8359adf9e05e6fde87b056910160405180910390a1505050565b6060600480548060200260200160405190810160405280929190818152602001828054801561051b57602002820191906000526020600020905b81546001600160a01b031681526001909101906020018083116104fd575b5050505050905090565b6004818154811061053557600080fd5b6000918252602090912001546001600160a01b0316905081565b6001600160a01b03918216600090815260066020908152604080832093909416825291909152205490565b6001600160a01b0381166000908152600260205260408120546105af5760405162461bcd60e51b815260040161039290611099565b60006105ba60015490565b6105c490476110f5565b905060006105ec84836103d8876001600160a01b031660009081526003602052604090205490565b949350505050565b6001600160a01b0381166000908152600260205260408120546106295760405162461bcd60e51b815260040161039290611099565b6001600160a01b0383166000908152600560205260408120546040516370a0823160e01b81523060048201526001600160a01b038616906370a0823190602401602060405180830381865afa158015610686573d6000803e3d6000fd5b505050506040513d601f19601f820116820180604052508101906106aa9190611158565b6106b491906110f5565b905060006106c784836103d8888861054f565b95945050505050565b6001600160a01b0381166000908152600260205260409020546107055760405162461bcd60e51b815260040161039290611099565b6001600160a01b0382166000908152600560205260408120546040516370a0823160e01b81523060048201526001600160a01b038516906370a0823190602401602060405180830381865afa158015610762573d6000803e3d6000fd5b505050506040513d601f19601f820116820180604052508101906107869190611158565b61079091906110f5565b905060006107a383836103d8878761054f565b9050806000036107c55760405162461bcd60e51b81526004016103929061110d565b6001600160a01b038085166000908152600660209081526040808320938716835292905290812080548392906107fc9084906110f5565b90915550506001600160a01b038416600090815260056020526040812080548392906108299084906110f5565b9091555061083a9050848483610a17565b604080516001600160a01b038581168252602082018490528616917f3be5b7a71e84ed12875d241991c70855ac5817d847039e17a9d895c1ceb0f18a910160405180910390a250505050565b80518251146108f25760405162461bcd60e51b815260206004820152603260248201527f5061796d656e7453706c69747465723a2070617965657320616e6420736861726044820152710cae640d8cadccee8d040dad2e6dac2e8c6d60731b6064820152608401610392565b60008251116109435760405162461bcd60e51b815260206004820152601a60248201527f5061796d656e7453706c69747465723a206e6f207061796565730000000000006044820152606401610392565b60005b825181101561099d5761098b83828151811061096457610964611171565b602002602001015183838151811061097e5761097e611171565b6020026020010151610a69565b8061099581611187565b915050610946565b505050565b6000600482815481106109b7576109b7611171565b6000918252602090912001546001600160a01b031692915050565b600080546001600160a01b0385168252600260205260408220548391906109f990866111a0565b610a0391906111bf565b610a0d91906111e1565b90505b9392505050565b604080516001600160a01b038416602482015260448082018490528251808303909101815260649091019091526020810180516001600160e01b031663a9059cbb60e01b17905261099d908490610c4d565b6001600160a01b038216610ad45760405162461bcd60e51b815260206004820152602c60248201527f5061796d656e7453706c69747465723a206163636f756e74206973207468652060448201526b7a65726f206164647265737360a01b6064820152608401610392565b60008111610b245760405162461bcd60e51b815260206004820152601d60248201527f5061796d656e7453706c69747465723a207368617265732061726520300000006044820152606401610392565b6001600160a01b03821660009081526002602052604090205415610b9e5760405162461bcd60e51b815260206004820152602b60248201527f5061796d656e7453706c69747465723a206163636f756e7420616c726561647960448201526a206861732073686172657360a81b6064820152608401610392565b60048054600181019091557f8a35acfbc15ff81a39ae7d344fd709f28e8600b4aa8c65c6b64bfe7fe36bd19b0180546001600160a01b0319166001600160a01b038416908117909155600090815260026020526040812082905554610c049082906110f5565b600055604080516001600160a01b0384168152602081018390527f40c340f65e17194d14ddddb073d3c9f888e3cb52b5aae0c6c7706b4fbc905fac910160405180910390a15050565b6000610ca2826040518060400160405280602081526020017f5361666545524332303a206c6f772d6c6576656c2063616c6c206661696c6564815250856001600160a01b0316610d1f9092919063ffffffff16565b80519091501561099d5780806020019051810190610cc091906111f8565b61099d5760405162461bcd60e51b815260206004820152602a60248201527f5361666545524332303a204552433230206f7065726174696f6e20646964206e6044820152691bdd081cdd58d8d9595960b21b6064820152608401610392565b6060610a0d8484600085856001600160a01b0385163b610d815760405162461bcd60e51b815260206004820152601d60248201527f416464726573733a2063616c6c20746f206e6f6e2d636f6e74726163740000006044820152606401610392565b600080866001600160a01b03168587604051610d9d919061124a565b60006040518083038185875af1925050503d8060008114610dda576040519150601f19603f3d011682016040523d82523d6000602084013e610ddf565b606091505b5091509150610def828286610dfa565b979650505050505050565b60608315610e09575081610a10565b825115610e195782518084602001fd5b8160405162461bcd60e51b81526004016103929190611266565b80356001600160a01b0381168114610e4a57600080fd5b919050565b600060208284031215610e6157600080fd5b610a1082610e33565b6020808252825182820181905260009190848201906040850190845b81811015610eab5783516001600160a01b031683529284019291840191600101610e86565b50909695505050505050565b600060208284031215610ec957600080fd5b5035919050565b60008060408385031215610ee357600080fd5b610eec83610e33565b9150610efa60208401610e33565b90509250929050565b634e487b7160e01b600052604160045260246000fd5b604051601f8201601f1916810167ffffffffffffffff81118282101715610f4257610f42610f03565b604052919050565b600067ffffffffffffffff821115610f6457610f64610f03565b5060051b60200190565b600082601f830112610f7f57600080fd5b81356020610f94610f8f83610f4a565b610f19565b82815260059290921b84018101918181019086841115610fb357600080fd5b8286015b84811015610fce5780358352918301918301610fb7565b509695505050505050565b60008060408385031215610fec57600080fd5b823567ffffffffffffffff8082111561100457600080fd5b818501915085601f83011261101857600080fd5b81356020611028610f8f83610f4a565b82815260059290921b8401810191818101908984111561104757600080fd5b948201945b8386101561106c5761105d86610e33565b8252948201949082019061104c565b9650508601359250508082111561108257600080fd5b5061108f85828601610f6e565b9150509250929050565b60208082526026908201527f5061796d656e7453706c69747465723a206163636f756e7420686173206e6f2060408201526573686172657360d01b606082015260800190565b634e487b7160e01b600052601160045260246000fd5b60008219821115611108576111086110df565b500190565b6020808252602b908201527f5061796d656e7453706c69747465723a206163636f756e74206973206e6f742060408201526a191d59481c185e5b595b9d60aa1b606082015260800190565b60006020828403121561116a57600080fd5b5051919050565b634e487b7160e01b600052603260045260246000fd5b600060018201611199576111996110df565b5060010190565b60008160001904831182151516156111ba576111ba6110df565b500290565b6000826111dc57634e487b7160e01b600052601260045260246000fd5b500490565b6000828210156111f3576111f36110df565b500390565b60006020828403121561120a57600080fd5b81518015158114610a1057600080fd5b60005b8381101561123557818101518382015260200161121d565b83811115611244576000848401525b50505050565b6000825161125c81846020870161121a565b9190910192915050565b602081526000825180602084015261128581604085016020870161121a565b601f01601f1916919091016040019291505056fea2646970667358221220e64b57381422661e66f458a52eeb2199ba4652345eeca64441716e614c538f8f64736f6c634300080e0033",
    "linkReferences": {}
  },
  "methodIdentifiers": {
    "_tax()": "e751d508",
    "getBalanceOf(address,address)": "53290b44",
    "getBalanceOfTokens(address,address,address)": "2b0f73af",
    "getBalances(address)": "c84aae17",
    "getBalancesTokens(address,address)": "c729e4fb",
    "getCreatedSplittersOf(address)": "478f447c",
    "getPayeeIndex(address,uint256)": "a8d69f30",
    "getPayees(address)": "1830f9cf",
    "getRegisteredCountOf(address)": "4402c814",
    "getRegisteredSplittersOf(address)": "8fe8c3e3",
    "getShares(address)": "f04da65b",
    "getSharesOfAccount(address,address)": "7e1daef9",
    "getSplitterImplementation()": "dae29906",
    "getTax()": "54b762a6",
    "getTotalShares(address)": "f20d8634",
    "newSplitter(address[],uint256[])": "739046f3",
    "owner()": "8da5cb5b",
    "release(address,address)": "48b75044",
    "releaseAll(address)": "580fc80a",
    "releaseAllSplitters(address)": "79815a9a",
    "releaseAllSplittersTokens(address,address)": "b632b3cb",
    "releaseAllTokens(address,address)": "f9f22c23",
    "releaseTokens(address,address,address)": "f3d57954",
    "renounceOwnership()": "715018a6",
    "setTax(uint256)": "2e5bb6ff",
    "transferOwnership(address)": "f2fde38b",
    "withdraw(uint256,address)": "00f714ce",
    "withdrawAll(address)": "fa09e630"
  },
  "id": 16
}