{
  "abi": [
    {
      "inputs": [],
      "stateMutability": "nonpayable",
      "type": "constructor"
    },
    {
      "anonymous": false,
      "inputs": [
        {
          "indexed": true,
          "internalType": "address",
          "name": "previousOwner",
          "type": "address"
        },
        {
          "indexed": true,
          "internalType": "address",
          "name": "newOwner",
          "type": "address"
        }
      ],
      "name": "OwnershipTransferred",
      "type": "event"
    },
    {
      "anonymous": false,
      "inputs": [
        {
          "indexed": false,
          "internalType": "address",
          "name": "newSplitter",
          "type": "address"
        }
      ],
      "name": "PaymentSplitterCreated",
      "type": "event"
    },
    {
      "inputs": [],
      "name": "_tax",
      "outputs": [
        {
          "internalType": "uint256",
          "name": "",
          "type": "uint256"
        }
      ],
      "stateMutability": "view",
      "type": "function"
    },
    {
      "inputs": [
        {
          "internalType": "address",
          "name": "splitter",
          "type": "address"
        },
        {
          "internalType": "address",
          "name": "account",
          "type": "address"
        }
      ],
      "name": "balanceOf",
      "outputs": [
        {
          "internalType": "uint256",
          "name": "",
          "type": "uint256"
        }
      ],
      "stateMutability": "view",
      "type": "function"
    },
    {
      "inputs": [
        {
          "internalType": "address",
          "name": "splitter",
          "type": "address"
        },
        {
          "internalType": "address",
          "name": "token",
          "type": "address"
        },
        {
          "internalType": "address",
          "name": "account",
          "type": "address"
        }
      ],
      "name": "balanceOfTokens",
      "outputs": [
        {
          "internalType": "uint256",
          "name": "",
          "type": "uint256"
        }
      ],
      "stateMutability": "view",
      "type": "function"
    },
    {
      "inputs": [
        {
          "internalType": "address",
          "name": "splitter",
          "type": "address"
        }
      ],
      "name": "balances",
      "outputs": [
        {
          "internalType": "uint256[]",
          "name": "",
          "type": "uint256[]"
        }
      ],
      "stateMutability": "view",
      "type": "function"
    },
    {
      "inputs": [
        {
          "internalType": "address",
          "name": "splitter",
          "type": "address"
        },
        {
          "internalType": "address",
          "name": "token",
          "type": "address"
        }
      ],
      "name": "balancesTokens",
      "outputs": [
        {
          "internalType": "uint256[]",
          "name": "",
          "type": "uint256[]"
        }
      ],
      "stateMutability": "view",
      "type": "function"
    },
    {
      "inputs": [
        {
          "internalType": "address",
          "name": "target",
          "type": "address"
        }
      ],
      "name": "createdSplittersOf",
      "outputs": [
        {
          "internalType": "address[]",
          "name": "",
          "type": "address[]"
        }
      ],
      "stateMutability": "view",
      "type": "function"
    },
    {
      "inputs": [
        {
          "internalType": "address[]",
          "name": "payees",
          "type": "address[]"
        },
        {
          "internalType": "uint256[]",
          "name": "shares",
          "type": "uint256[]"
        }
      ],
      "name": "newSplitter",
      "outputs": [
        {
          "internalType": "address",
          "name": "",
          "type": "address"
        }
      ],
      "stateMutability": "payable",
      "type": "function"
    },
    {
      "inputs": [],
      "name": "owner",
      "outputs": [
        {
          "internalType": "address",
          "name": "",
          "type": "address"
        }
      ],
      "stateMutability": "view",
      "type": "function"
    },
    {
      "inputs": [
        {
          "internalType": "address",
          "name": "splitter",
          "type": "address"
        },
        {
          "internalType": "uint256",
          "name": "index",
          "type": "uint256"
        }
      ],
      "name": "payeeIndex",
      "outputs": [
        {
          "internalType": "address",
          "name": "",
          "type": "address"
        }
      ],
      "stateMutability": "view",
      "type": "function"
    },
    {
      "inputs": [
        {
          "internalType": "address",
          "name": "splitter",
          "type": "address"
        }
      ],
      "name": "payees",
      "outputs": [
        {
          "internalType": "address[]",
          "name": "",
          "type": "address[]"
        }
      ],
      "stateMutability": "view",
      "type": "function"
    },
    {
      "inputs": [
        {
          "internalType": "address",
          "name": "target",
          "type": "address"
        }
      ],
      "name": "registeredCountOf",
      "outputs": [
        {
          "internalType": "uint256",
          "name": "",
          "type": "uint256"
        }
      ],
      "stateMutability": "view",
      "type": "function"
    },
    {
      "inputs": [
        {
          "internalType": "address",
          "name": "target",
          "type": "address"
        }
      ],
      "name": "registeredSplittersOf",
      "outputs": [
        {
          "internalType": "address[]",
          "name": "",
          "type": "address[]"
        }
      ],
      "stateMutability": "view",
      "type": "function"
    },
    {
      "inputs": [
        {
          "internalType": "address payable",
          "name": "receiver",
          "type": "address"
        },
        {
          "internalType": "address",
          "name": "splitter",
          "type": "address"
        }
      ],
      "name": "release",
      "outputs": [],
      "stateMutability": "nonpayable",
      "type": "function"
    },
    {
      "inputs": [
        {
          "internalType": "address",
          "name": "splitter",
          "type": "address"
        }
      ],
      "name": "releaseAll",
      "outputs": [],
      "stateMutability": "nonpayable",
      "type": "function"
    },
    {
      "inputs": [
        {
          "internalType": "address",
          "name": "token",
          "type": "address"
        },
        {
          "internalType": "address",
          "name": "splitter",
          "type": "address"
        }
      ],
      "name": "releaseAllTokens",
      "outputs": [],
      "stateMutability": "nonpayable",
      "type": "function"
    },
    {
      "inputs": [
        {
          "internalType": "address payable",
          "name": "receiver",
          "type": "address"
        },
        {
          "internalType": "uint256",
          "name": "start",
          "type": "uint256"
        },
        {
          "internalType": "uint256",
          "name": "end",
          "type": "uint256"
        }
      ],
      "name": "releaseInRange",
      "outputs": [],
      "stateMutability": "nonpayable",
      "type": "function"
    },
    {
      "inputs": [
        {
          "internalType": "address",
          "name": "token",
          "type": "address"
        },
        {
          "internalType": "address",
          "name": "receiver",
          "type": "address"
        },
        {
          "internalType": "uint256",
          "name": "start",
          "type": "uint256"
        },
        {
          "internalType": "uint256",
          "name": "end",
          "type": "uint256"
        }
      ],
      "name": "releaseInRangeTokens",
      "outputs": [],
      "stateMutability": "nonpayable",
      "type": "function"
    },
    {
      "inputs": [
        {
          "internalType": "address",
          "name": "token",
          "type": "address"
        },
        {
          "internalType": "address",
          "name": "receiver",
          "type": "address"
        },
        {
          "internalType": "address",
          "name": "splitter",
          "type": "address"
        }
      ],
      "name": "releaseTokens",
      "outputs": [],
      "stateMutability": "nonpayable",
      "type": "function"
    },
    {
      "inputs": [],
      "name": "renounceOwnership",
      "outputs": [],
      "stateMutability": "nonpayable",
      "type": "function"
    },
    {
      "inputs": [
        {
          "internalType": "uint256",
          "name": "tax",
          "type": "uint256"
        }
      ],
      "name": "setTax",
      "outputs": [],
      "stateMutability": "nonpayable",
      "type": "function"
    },
    {
      "inputs": [
        {
          "internalType": "address",
          "name": "splitter",
          "type": "address"
        }
      ],
      "name": "shares",
      "outputs": [
        {
          "internalType": "uint256[]",
          "name": "",
          "type": "uint256[]"
        }
      ],
      "stateMutability": "view",
      "type": "function"
    },
    {
      "inputs": [
        {
          "internalType": "address",
          "name": "splitter",
          "type": "address"
        },
        {
          "internalType": "address",
          "name": "account",
          "type": "address"
        }
      ],
      "name": "sharesOfAccount",
      "outputs": [
        {
          "internalType": "uint256",
          "name": "",
          "type": "uint256"
        }
      ],
      "stateMutability": "view",
      "type": "function"
    },
    {
      "inputs": [],
      "name": "splitterImplementation",
      "outputs": [
        {
          "internalType": "address",
          "name": "",
          "type": "address"
        }
      ],
      "stateMutability": "view",
      "type": "function"
    },
    {
      "inputs": [
        {
          "internalType": "address",
          "name": "splitter",
          "type": "address"
        }
      ],
      "name": "totalShares",
      "outputs": [
        {
          "internalType": "uint256",
          "name": "",
          "type": "uint256"
        }
      ],
      "stateMutability": "view",
      "type": "function"
    },
    {
      "inputs": [
        {
          "internalType": "address",
          "name": "newOwner",
          "type": "address"
        }
      ],
      "name": "transferOwnership",
      "outputs": [],
      "stateMutability": "nonpayable",
      "type": "function"
    },
    {
      "inputs": [
        {
          "internalType": "uint256",
          "name": "_amount",
          "type": "uint256"
        }
      ],
      "name": "withdraw",
      "outputs": [],
      "stateMutability": "nonpayable",
      "type": "function"
    },
    {
      "inputs": [],
      "name": "withdrawAll",
      "outputs": [],
      "stateMutability": "nonpayable",
      "type": "function"
    }
  ],
  "bytecode": {
    "object": "0x6080604052600180553480156200001557600080fd5b506200002133620001cf565b600060405162000031906200021f565b604051809103906000f0801580156200004e573d6000803e3d6000fd5b50604080516001808252818301909252919250600091906020808301908036833701905050905030816000815181106200008c576200008c6200022d565b6001600160a01b039290921660209283029190910190910152604080516001808252818301909252600091816020016020820280368337019050509050600181600081518110620000e157620000e16200022d565b6020908102919091010152604051637fbbe46f60e01b81526001600160a01b03841690637fbbe46f906200011c908590859060040162000243565b600060405180830381600087803b1580156200013757600080fd5b505af11580156200014c573d6000803e3d6000fd5b5050506001600160a01b03909316600081815260026020908152604080832080546001600160a01b03199081168617909155308085526003845282852080546001818101835591875285872001805484168817905590855260048452918420805492830181558452919092209091018054909116909117905550620002cb915050565b600080546001600160a01b038381166001600160a01b0319831681178455604051919092169283917f8be0079c531659141344cd1fd0a4f28419497f9722a3daafe3b4186f6b6457e09190a35050565b611819806200236383390190565b634e487b7160e01b600052603260045260246000fd5b604080825283519082018190526000906020906060840190828701845b82811015620002875781516001600160a01b03168452928401929084019060010162000260565b5050508381038285015284518082528583019183019060005b81811015620002be57835183529284019291840191600101620002a0565b5090979650505050505050565b61208880620002db6000396000f3fe60806040526004361061019b5760003560e01c8063853828b6116100ec578063e751d5081161008a578063f54fc10c11610064578063f54fc10c146104a3578063f7888aec146104c3578063f93d3788146104e3578063f9f22c231461050357600080fd5b8063e751d5081461044d578063f2fde38b14610463578063f3d579541461048357600080fd5b8063aeb55cd4116100c6578063aeb55cd4146103d8578063bf6b874e146103f8578063ce7c2ac214610418578063e63db9b21461043857600080fd5b8063853828b6146103855780638da5cb5b1461039a57806393ba837f146103b857600080fd5b806348b75044116101595780636fc06875116101335780636fc0687514610305578063715018a61461033d578063739046f3146103525780637e3b6d9e1461036557600080fd5b806348b75044146102a5578063580fc80a146102c55780636892e0f8146102e557600080fd5b8062415024146101a05780630b4c455a146101d357806327e235e3146102095780632e1a7d4d146102365780632e5bb6ff14610258578063310441fa14610278575b600080fd5b3480156101ac57600080fd5b506101c06101bb366004611b4f565b610523565b6040519081526020015b60405180910390f35b3480156101df57600080fd5b506101c06101ee366004611b88565b6001600160a01b031660009081526004602052604090205490565b34801561021557600080fd5b50610229610224366004611b88565b6105a8565b6040516101ca9190611be0565b34801561024257600080fd5b50610256610251366004611bf3565b6107e8565b005b34801561026457600080fd5b50610256610273366004611bf3565b610859565b34801561028457600080fd5b50610298610293366004611b88565b610888565b6040516101ca9190611c45565b3480156102b157600080fd5b506102566102c0366004611b4f565b61090d565b3480156102d157600080fd5b506102566102e0366004611b88565b61097f565b3480156102f157600080fd5b50610298610300366004611b88565b610b0e565b34801561031157600080fd5b50610325610320366004611c58565b610b84565b6040516001600160a01b0390911681526020016101ca565b34801561034957600080fd5b50610256610c00565b610325610360366004611d5a565b610c36565b34801561037157600080fd5b50610256610380366004611e1c565b610dd9565b34801561039157600080fd5b50610256610eb1565b3480156103a657600080fd5b506000546001600160a01b0316610325565b3480156103c457600080fd5b506102296103d3366004611b4f565b610f0a565b3480156103e457600080fd5b506102986103f3366004611b88565b611154565b34801561040457600080fd5b506101c0610413366004611b88565b6111c8565b34801561042457600080fd5b50610229610433366004611b88565b611243565b34801561044457600080fd5b5061032561147b565b34801561045957600080fd5b506101c060015481565b34801561046f57600080fd5b5061025661047e366004611b88565b6114b4565b34801561048f57600080fd5b5061025661049e366004611e62565b61154c565b3480156104af57600080fd5b506101c06104be366004611e62565b6115c7565b3480156104cf57600080fd5b506101c06104de366004611b4f565b611654565b3480156104ef57600080fd5b506102566104fe366004611ead565b611695565b34801561050f57600080fd5b5061025661051e366004611b4f565b611764565b6001600160a01b0382811660009081526002602052604080822054905163673e156160e11b815284841660048201529192169063ce7c2ac2906024015b602060405180830381865afa15801561057d573d6000803e3d6000fd5b505050506040513d601f19601f820116820180604052508101906105a19190611ee2565b9392505050565b6001600160a01b03808216600090815260026020908152604080832054815163e919ecad60e01b81529151606095919091169392849263e919ecad92600480830193928290030181865afa158015610604573d6000803e3d6000fd5b505050506040513d601f19601f820116820180604052508101906106289190611ee2565b67ffffffffffffffff81111561064057610640611c84565b604051908082528060200260200182016040528015610669578160200160208202803683370190505b50905060005b826001600160a01b031663e919ecad6040518163ffffffff1660e01b8152600401602060405180830381865afa1580156106ad573d6000803e3d6000fd5b505050506040513d601f19601f820116820180604052508101906106d19190611ee2565b8110156107e0576040516326b0538f60e21b8152600481018290526001600160a01b038416906370a08231908290639ac14e3c90602401602060405180830381865afa158015610725573d6000803e3d6000fd5b505050506040513d601f19601f820116820180604052508101906107499190611efb565b6040516001600160e01b031960e084901b1681526001600160a01b039091166004820152602401602060405180830381865afa15801561078d573d6000803e3d6000fd5b505050506040513d601f19601f820116820180604052508101906107b19190611ee2565b8282815181106107c3576107c3611f18565b6020908102919091010152806107d881611f2e565b91505061066f565b509392505050565b6000546001600160a01b0316331461081b5760405162461bcd60e51b815260040161081290611f55565b60405180910390fd5b8047101561082857600080fd5b604051339082156108fc029083906000818181858888f19350505050158015610855573d6000803e3d6000fd5b5050565b6000546001600160a01b031633146108835760405162461bcd60e51b815260040161081290611f55565b600155565b6001600160a01b03808216600090815260026020526040808220548151632740435560e11b815291516060949190911692634e8086aa92600480820193918290030181865afa1580156108df573d6000803e3d6000fd5b505050506040513d6000823e601f3d908101601f191682016040526109079190810190611f8a565b92915050565b6001600160a01b0381811660009081526002602052604090819020549051631916558760e01b81528483166004820152911690631916558790602401600060405180830381600087803b15801561096357600080fd5b505af1158015610977573d6000803e3d6000fd5b505050505050565b60005b6001600160a01b0380831660009081526002602090815260409182902054825163e919ecad60e01b8152925193169263e919ecad9260048082019392918290030181865afa1580156109d8573d6000803e3d6000fd5b505050506040513d601f19601f820116820180604052508101906109fc9190611ee2565b811015610855576001600160a01b03808316600090815260026020526040808220548151632740435560e11b815291519316926319165587928492634e8086aa92600480830193928290030181865afa158015610a5d573d6000803e3d6000fd5b505050506040513d6000823e601f3d908101601f19168201604052610a859190810190611f8a565b8381518110610a9657610a96611f18565b60200260200101516040518263ffffffff1660e01b8152600401610ac991906001600160a01b0391909116815260200190565b600060405180830381600087803b158015610ae357600080fd5b505af1158015610af7573d6000803e3d6000fd5b505050508080610b0690611f2e565b915050610982565b6001600160a01b038116600090815260036020908152604091829020805483518184028101840190945280845260609392830182828015610b7857602002820191906000526020600020905b81546001600160a01b03168152600190910190602001808311610b5a575b50505050509050919050565b6001600160a01b038281166000908152600260205260408082205490516326b0538f60e21b81526004810185905291921690639ac14e3c90602401602060405180830381865afa158015610bdc573d6000803e3d6000fd5b505050506040513d601f19601f820116820180604052508101906105a19190611efb565b6000546001600160a01b03163314610c2a5760405162461bcd60e51b815260040161081290611f55565b610c346000611903565b565b60008151835114610caf5760405162461bcd60e51b815260206004820152603f60248201527f5061796d656e7453706c69747465724d616e61676572436c6f6e65733a20706160448201527f7965657320616e6420736861726573206c656e677468206d69736d61746368006064820152608401610812565b6000835111610d105760405162461bcd60e51b815260206004820152602760248201527f5061796d656e7453706c69747465724d616e61676572436c6f6e65733a206e6f6044820152662070617965657360c81b6064820152608401610812565b6001543414610d875760405162461bcd60e51b815260206004820152603c60248201527f5061796d656e7453706c69747465724d616e61676572436c6f6e65733a206d7360448201527f672e76616c7565206d75737420626520657175616c20746f20746178000000006064820152608401610812565b6000610d938484611953565b6040516001600160a01b03821681529091507f30af7bdf04bd12c43e1faf8f5ac72234cf440fd5c945a61362ad54a1cd568de39060200160405180910390a19392505050565b815b81811015610eaa576001600160a01b03841660009081526004602052604081208054600292919084908110610e1257610e12611f18565b6000918252602080832091909101546001600160a01b0390811684529083019390935260409182019020549051633a189da560e11b8152878316600482015286831660248201529116906374313b4a90604401600060405180830381600087803b158015610e7f57600080fd5b505af1158015610e93573d6000803e3d6000fd5b505050508080610ea290611f2e565b915050610ddb565b5050505050565b6000546001600160a01b03163314610edb5760405162461bcd60e51b815260040161081290611f55565b60405133904780156108fc02916000818181858888f19350505050158015610f07573d6000803e3d6000fd5b50565b6001600160a01b03808316600090815260026020908152604080832054815163e919ecad60e01b81529151606095919091169392849263e919ecad92600480830193928290030181865afa158015610f66573d6000803e3d6000fd5b505050506040513d601f19601f82011682018060405250810190610f8a9190611ee2565b67ffffffffffffffff811115610fa257610fa2611c84565b604051908082528060200260200182016040528015610fcb578160200160208202803683370190505b50905060005b826001600160a01b031663e919ecad6040518163ffffffff1660e01b8152600401602060405180830381865afa15801561100f573d6000803e3d6000fd5b505050506040513d601f19601f820116820180604052508101906110339190611ee2565b81101561114b576040516326b0538f60e21b8152600481018290526001600160a01b038416906372cd383a9087908390639ac14e3c90602401602060405180830381865afa158015611089573d6000803e3d6000fd5b505050506040513d601f19601f820116820180604052508101906110ad9190611efb565b6040516001600160e01b031960e085901b1681526001600160a01b03928316600482015291166024820152604401602060405180830381865afa1580156110f8573d6000803e3d6000fd5b505050506040513d601f19601f8201168201806040525081019061111c9190611ee2565b82828151811061112e5761112e611f18565b60209081029190910101528061114381611f2e565b915050610fd1565b50949350505050565b6001600160a01b038116600090815260046020908152604091829020805483518184028101840190945280845260609392830182828015610b78576020028201919060005260206000209081546001600160a01b03168152600190910190602001808311610b5a5750505050509050919050565b6001600160a01b038082166000908152600260209081526040808320548151633a98ef3960e01b8152915193941692633a98ef39926004808401939192918290030181865afa15801561121f573d6000803e3d6000fd5b505050506040513d601f19601f820116820180604052508101906109079190611ee2565b6001600160a01b03808216600090815260026020908152604080832054815163e919ecad60e01b81529151606095919091169392849263e919ecad92600480830193928290030181865afa15801561129f573d6000803e3d6000fd5b505050506040513d601f19601f820116820180604052508101906112c39190611ee2565b67ffffffffffffffff8111156112db576112db611c84565b604051908082528060200260200182016040528015611304578160200160208202803683370190505b50905060005b826001600160a01b031663e919ecad6040518163ffffffff1660e01b8152600401602060405180830381865afa158015611348573d6000803e3d6000fd5b505050506040513d601f19601f8201168201806040525081019061136c9190611ee2565b8110156107e0576040516326b0538f60e21b8152600481018290526001600160a01b0384169063ce7c2ac2908290639ac14e3c90602401602060405180830381865afa1580156113c0573d6000803e3d6000fd5b505050506040513d601f19601f820116820180604052508101906113e49190611efb565b6040516001600160e01b031960e084901b1681526001600160a01b039091166004820152602401602060405180830381865afa158015611428573d6000803e3d6000fd5b505050506040513d601f19601f8201168201806040525081019061144c9190611ee2565b82828151811061145e5761145e611f18565b60209081029190910101528061147381611f2e565b91505061130a565b3060009081526003602052604081208054829061149a5761149a611f18565b6000918252602090912001546001600160a01b0316919050565b6000546001600160a01b031633146114de5760405162461bcd60e51b815260040161081290611f55565b6001600160a01b0381166115435760405162461bcd60e51b815260206004820152602660248201527f4f776e61626c653a206e6577206f776e657220697320746865207a65726f206160448201526564647265737360d01b6064820152608401610812565b610f0781611903565b6001600160a01b0381811660009081526002602052604090819020549051633a189da560e11b8152858316600482015284831660248201529116906374313b4a90604401600060405180830381600087803b1580156115aa57600080fd5b505af11580156115be573d6000803e3d6000fd5b50505050505050565b6001600160a01b038381166000908152600260205260408082205490516339669c1d60e11b815285841660048201528484166024820152919216906372cd383a90604401602060405180830381865afa158015611628573d6000803e3d6000fd5b505050506040513d601f19601f8201168201806040525081019061164c9190611ee2565b949350505050565b6001600160a01b038281166000908152600260205260408082205490516370a0823160e01b81528484166004820152919216906370a0823190602401610560565b815b8181101561175e576001600160a01b038416600090815260046020526040812080546002929190849081106116ce576116ce611f18565b6000918252602080832091909101546001600160a01b0390811684529083019390935260409182019020549051631916558760e01b81528683166004820152911690631916558790602401600060405180830381600087803b15801561173357600080fd5b505af1158015611747573d6000803e3d6000fd5b50505050808061175690611f2e565b915050611697565b50505050565b60005b6001600160a01b0380831660009081526002602090815260409182902054825163e919ecad60e01b8152925193169263e919ecad9260048082019392918290030181865afa1580156117bd573d6000803e3d6000fd5b505050506040513d601f19601f820116820180604052508101906117e19190611ee2565b8110156118fe576001600160a01b03808316600090815260026020526040808220548151632740435560e11b815291519316926374313b4a9287928592634e8086aa926004808401939192918290030181865afa158015611846573d6000803e3d6000fd5b505050506040513d6000823e601f3d908101601f1916820160405261186e9190810190611f8a565b848151811061187f5761187f611f18565b60200260200101516040518363ffffffff1660e01b81526004016118b99291906001600160a01b0392831681529116602082015260400190565b600060405180830381600087803b1580156118d357600080fd5b505af11580156118e7573d6000803e3d6000fd5b5050505080806118f690611f2e565b915050611767565b505050565b600080546001600160a01b038381166001600160a01b0319831681178455604051919092169283917f8be0079c531659141344cd1fd0a4f28419497f9722a3daafe3b4186f6b6457e09190a35050565b60008061196661196161147b565b611a9d565b604051637fbbe46f60e01b81529091506001600160a01b03821690637fbbe46f906119979087908790600401612024565b600060405180830381600087803b1580156119b157600080fd5b505af11580156119c5573d6000803e3d6000fd5b505050506001600160a01b038116600081815260026020908152604080832080546001600160a01b0319908116861790915533845260038352908320805460018101825590845291832090910180549091169092179091555b84518110156107e05760046000868381518110611a3d57611a3d611f18565b6020908102919091018101516001600160a01b039081168352828201939093526040909101600090812080546001810182559082529190200180546001600160a01b03191691841691909117905580611a9581611f2e565b915050611a1e565b6000604051733d602d80600a3d3981f3363d3d373d3d3d363d7360601b81528260601b60148201526e5af43d82803e903d91602b57fd5bf360881b60288201526037816000f09150506001600160a01b038116611b355760405162461bcd60e51b8152602060048201526016602482015275115490cc4c4d8dce8818dc99585d194819985a5b195960521b6044820152606401610812565b919050565b6001600160a01b0381168114610f0757600080fd5b60008060408385031215611b6257600080fd5b8235611b6d81611b3a565b91506020830135611b7d81611b3a565b809150509250929050565b600060208284031215611b9a57600080fd5b81356105a181611b3a565b600081518084526020808501945080840160005b83811015611bd557815187529582019590820190600101611bb9565b509495945050505050565b6020815260006105a16020830184611ba5565b600060208284031215611c0557600080fd5b5035919050565b600081518084526020808501945080840160005b83811015611bd55781516001600160a01b031687529582019590820190600101611c20565b6020815260006105a16020830184611c0c565b60008060408385031215611c6b57600080fd5b8235611c7681611b3a565b946020939093013593505050565b634e487b7160e01b600052604160045260246000fd5b604051601f8201601f1916810167ffffffffffffffff81118282101715611cc357611cc3611c84565b604052919050565b600067ffffffffffffffff821115611ce557611ce5611c84565b5060051b60200190565b600082601f830112611d0057600080fd5b81356020611d15611d1083611ccb565b611c9a565b82815260059290921b84018101918181019086841115611d3457600080fd5b8286015b84811015611d4f5780358352918301918301611d38565b509695505050505050565b60008060408385031215611d6d57600080fd5b823567ffffffffffffffff80821115611d8557600080fd5b818501915085601f830112611d9957600080fd5b81356020611da9611d1083611ccb565b82815260059290921b84018101918181019089841115611dc857600080fd5b948201945b83861015611def578535611de081611b3a565b82529482019490820190611dcd565b96505086013592505080821115611e0557600080fd5b50611e1285828601611cef565b9150509250929050565b60008060008060808587031215611e3257600080fd5b8435611e3d81611b3a565b93506020850135611e4d81611b3a565b93969395505050506040820135916060013590565b600080600060608486031215611e7757600080fd5b8335611e8281611b3a565b92506020840135611e9281611b3a565b91506040840135611ea281611b3a565b809150509250925092565b600080600060608486031215611ec257600080fd5b8335611ecd81611b3a565b95602085013595506040909401359392505050565b600060208284031215611ef457600080fd5b5051919050565b600060208284031215611f0d57600080fd5b81516105a181611b3a565b634e487b7160e01b600052603260045260246000fd5b600060018201611f4e57634e487b7160e01b600052601160045260246000fd5b5060010190565b6020808252818101527f4f776e61626c653a2063616c6c6572206973206e6f7420746865206f776e6572604082015260600190565b60006020808385031215611f9d57600080fd5b825167ffffffffffffffff811115611fb457600080fd5b8301601f81018513611fc557600080fd5b8051611fd3611d1082611ccb565b81815260059190911b82018301908381019087831115611ff257600080fd5b928401925b8284101561201957835161200a81611b3a565b82529284019290840190611ff7565b979650505050505050565b6040815260006120376040830185611c0c565b82810360208401526120498185611ba5565b9594505050505056fea2646970667358221220cf7b29730ed811b45d9bfcd73e334b8a28d9ed7aafc9e61dae7dcd48654eb56a64736f6c634300080e003360806040523480156200001157600080fd5b5060078054806020026020016040519081016040528092919081815260200182805480156200006a57602002820191906000526020600020905b81546001600160a01b031681526001909101906020018083116200004b575b50505050506008805480602002602001604051908101604052809291908181526020018280548015620000bd57602002820191906000526020600020905b815481526020019060010190808311620000a8575b50505050508051825114620001345760405162461bcd60e51b815260206004820152603260248201527f5061796d656e7453706c69747465723a2070617965657320616e6420736861726044820152710cae640d8cadccee8d040dad2e6dac2e8c6d60731b60648201526084015b60405180910390fd5b6000825111620001875760405162461bcd60e51b815260206004820152601a60248201527f5061796d656e7453706c69747465723a206e6f2070617965657300000000000060448201526064016200012b565b60005b8251811015620001f357620001de838281518110620001ad57620001ad620003e8565b6020026020010151838381518110620001ca57620001ca620003e8565b6020026020010151620001fc60201b60201c565b80620001ea8162000414565b9150506200018a565b5050506200044b565b6001600160a01b038216620002695760405162461bcd60e51b815260206004820152602c60248201527f5061796d656e7453706c69747465723a206163636f756e74206973207468652060448201526b7a65726f206164647265737360a01b60648201526084016200012b565b60008111620002bb5760405162461bcd60e51b815260206004820152601d60248201527f5061796d656e7453706c69747465723a2073686172657320617265203000000060448201526064016200012b565b6001600160a01b03821660009081526002602052604090205415620003375760405162461bcd60e51b815260206004820152602b60248201527f5061796d656e7453706c69747465723a206163636f756e7420616c726561647960448201526a206861732073686172657360a81b60648201526084016200012b565b60048054600181019091557f8a35acfbc15ff81a39ae7d344fd709f28e8600b4aa8c65c6b64bfe7fe36bd19b0180546001600160a01b0319166001600160a01b0384169081179091556000908152600260205260408120829055546200039f90829062000430565b600055604080516001600160a01b0384168152602081018390527f40c340f65e17194d14ddddb073d3c9f888e3cb52b5aae0c6c7706b4fbc905fac910160405180910390a15050565b634e487b7160e01b600052603260045260246000fd5b634e487b7160e01b600052601160045260246000fd5b600060018201620004295762000429620003fe565b5060010190565b60008219821115620004465762000446620003fe565b500190565b6113be806200045b6000396000f3fe6080604052600436106100ec5760003560e01c806374313b4a1161008a5780639ac14e3c116100595780639ac14e3c146102d9578063ce7c2ac2146102f9578063e33b7de31461032f578063e919ecad1461034457600080fd5b806374313b4a1461023a5780637fbbe46f1461025a578063820be89e1461026d5780639852595c146102a357600080fd5b80634e8086aa116100c65780634e8086aa146101b85780636625889f146101da57806370a08231146101fa57806372cd383a1461021a57600080fd5b8063191655871461013a578063283248be1461015c5780633a98ef391461019957600080fd5b36610135577f6ef95f06320e7a25a04a175ca677b7052bdd97131872c2192525a629f51be77033604080516001600160a01b0390921682523460208301520160405180910390a1005b600080fd5b34801561014657600080fd5b5061015a610155366004610f34565b610359565b005b34801561016857600080fd5b5061017c610177366004610f51565b610493565b6040516001600160a01b0390911681526020015b60405180910390f35b3480156101a557600080fd5b506000545b604051908152602001610190565b3480156101c457600080fd5b506101cd6104bd565b6040516101909190610f6a565b3480156101e657600080fd5b506101aa6101f5366004610fb7565b61051f565b34801561020657600080fd5b506101aa610215366004610f34565b61054a565b34801561022657600080fd5b506101aa610235366004610fb7565b6105c4565b34801561024657600080fd5b5061015a610255366004610fb7565b6106a0565b61015a6102683660046110c6565b610856565b34801561027957600080fd5b506101aa610288366004610f34565b6001600160a01b031660009081526005602052604090205490565b3480156102af57600080fd5b506101aa6102be366004610f34565b6001600160a01b031660009081526003602052604090205490565b3480156102e557600080fd5b5061017c6102f4366004610f51565b610972565b34801561030557600080fd5b506101aa610314366004610f34565b6001600160a01b031660009081526002602052604090205490565b34801561033b57600080fd5b506001546101aa565b34801561035057600080fd5b506004546101aa565b6001600160a01b0381166000908152600260205260409020546103975760405162461bcd60e51b815260040161038e90611188565b60405180910390fd5b60006103a260015490565b6103ac90476111e4565b905060006103d983836103d4866001600160a01b031660009081526003602052604090205490565b6109a2565b9050806000036103fb5760405162461bcd60e51b815260040161038e906111fc565b6001600160a01b038316600090815260036020526040812080548392906104239084906111e4565b92505081905550806001600082825461043c91906111e4565b9091555061044c905083826109e7565b604080516001600160a01b0385168152602081018390527fdf20fd1e76bc69d672e4814fafb2c449bba3a5369d8359adf9e05e6fde87b056910160405180910390a1505050565b600481815481106104a357600080fd5b6000918252602090912001546001600160a01b0316905081565b6060600480548060200260200160405190810160405280929190818152602001828054801561051557602002820191906000526020600020905b81546001600160a01b031681526001909101906020018083116104f7575b5050505050905090565b6001600160a01b03918216600090815260066020908152604080832093909416825291909152205490565b6001600160a01b03811660009081526002602052604081205461057f5760405162461bcd60e51b815260040161038e90611188565b600061058a60015490565b61059490476111e4565b905060006105bc84836103d4876001600160a01b031660009081526003602052604090205490565b949350505050565b6001600160a01b0381166000908152600260205260408120546105f95760405162461bcd60e51b815260040161038e90611188565b6001600160a01b0383166000908152600560205260408120546040516370a0823160e01b81523060048201526001600160a01b038616906370a0823190602401602060405180830381865afa158015610656573d6000803e3d6000fd5b505050506040513d601f19601f8201168201806040525081019061067a9190611247565b61068491906111e4565b9050600061069784836103d4888861051f565b95945050505050565b6001600160a01b0381166000908152600260205260409020546106d55760405162461bcd60e51b815260040161038e90611188565b6001600160a01b0382166000908152600560205260408120546040516370a0823160e01b81523060048201526001600160a01b038516906370a0823190602401602060405180830381865afa158015610732573d6000803e3d6000fd5b505050506040513d601f19601f820116820180604052508101906107569190611247565b61076091906111e4565b9050600061077383836103d4878761051f565b9050806000036107955760405162461bcd60e51b815260040161038e906111fc565b6001600160a01b038085166000908152600660209081526040808320938716835292905290812080548392906107cc9084906111e4565b90915550506001600160a01b038416600090815260056020526040812080548392906107f99084906111e4565b9091555061080a9050848483610b00565b604080516001600160a01b038581168252602082018490528616917f3be5b7a71e84ed12875d241991c70855ac5817d847039e17a9d895c1ceb0f18a910160405180910390a250505050565b80518251146108c25760405162461bcd60e51b815260206004820152603260248201527f5061796d656e7453706c69747465723a2070617965657320616e6420736861726044820152710cae640d8cadccee8d040dad2e6dac2e8c6d60731b606482015260840161038e565b60008251116109135760405162461bcd60e51b815260206004820152601a60248201527f5061796d656e7453706c69747465723a206e6f20706179656573000000000000604482015260640161038e565b60005b825181101561096d5761095b83828151811061093457610934611260565b602002602001015183838151811061094e5761094e611260565b6020026020010151610b52565b8061096581611276565b915050610916565b505050565b60006004828154811061098757610987611260565b6000918252602090912001546001600160a01b031692915050565b600080546001600160a01b0385168252600260205260408220548391906109c9908661128f565b6109d391906112ae565b6109dd91906112d0565b90505b9392505050565b80471015610a375760405162461bcd60e51b815260206004820152601d60248201527f416464726573733a20696e73756666696369656e742062616c616e6365000000604482015260640161038e565b6000826001600160a01b03168260405160006040518083038185875af1925050503d8060008114610a84576040519150601f19603f3d011682016040523d82523d6000602084013e610a89565b606091505b505090508061096d5760405162461bcd60e51b815260206004820152603a60248201527f416464726573733a20756e61626c6520746f2073656e642076616c75652c207260448201527f6563697069656e74206d61792068617665207265766572746564000000000000606482015260840161038e565b604080516001600160a01b038416602482015260448082018490528251808303909101815260649091019091526020810180516001600160e01b031663a9059cbb60e01b17905261096d908490610d36565b6001600160a01b038216610bbd5760405162461bcd60e51b815260206004820152602c60248201527f5061796d656e7453706c69747465723a206163636f756e74206973207468652060448201526b7a65726f206164647265737360a01b606482015260840161038e565b60008111610c0d5760405162461bcd60e51b815260206004820152601d60248201527f5061796d656e7453706c69747465723a20736861726573206172652030000000604482015260640161038e565b6001600160a01b03821660009081526002602052604090205415610c875760405162461bcd60e51b815260206004820152602b60248201527f5061796d656e7453706c69747465723a206163636f756e7420616c726561647960448201526a206861732073686172657360a81b606482015260840161038e565b60048054600181019091557f8a35acfbc15ff81a39ae7d344fd709f28e8600b4aa8c65c6b64bfe7fe36bd19b0180546001600160a01b0319166001600160a01b038416908117909155600090815260026020526040812082905554610ced9082906111e4565b600055604080516001600160a01b0384168152602081018390527f40c340f65e17194d14ddddb073d3c9f888e3cb52b5aae0c6c7706b4fbc905fac910160405180910390a15050565b6000610d8b826040518060400160405280602081526020017f5361666545524332303a206c6f772d6c6576656c2063616c6c206661696c6564815250856001600160a01b0316610e089092919063ffffffff16565b80519091501561096d5780806020019051810190610da991906112e7565b61096d5760405162461bcd60e51b815260206004820152602a60248201527f5361666545524332303a204552433230206f7065726174696f6e20646964206e6044820152691bdd081cdd58d8d9595960b21b606482015260840161038e565b60606109dd8484600085856001600160a01b0385163b610e6a5760405162461bcd60e51b815260206004820152601d60248201527f416464726573733a2063616c6c20746f206e6f6e2d636f6e7472616374000000604482015260640161038e565b600080866001600160a01b03168587604051610e869190611339565b60006040518083038185875af1925050503d8060008114610ec3576040519150601f19603f3d011682016040523d82523d6000602084013e610ec8565b606091505b5091509150610ed8828286610ee3565b979650505050505050565b60608315610ef25750816109e0565b825115610f025782518084602001fd5b8160405162461bcd60e51b815260040161038e9190611355565b6001600160a01b0381168114610f3157600080fd5b50565b600060208284031215610f4657600080fd5b81356109e081610f1c565b600060208284031215610f6357600080fd5b5035919050565b6020808252825182820181905260009190848201906040850190845b81811015610fab5783516001600160a01b031683529284019291840191600101610f86565b50909695505050505050565b60008060408385031215610fca57600080fd5b8235610fd581610f1c565b91506020830135610fe581610f1c565b809150509250929050565b634e487b7160e01b600052604160045260246000fd5b604051601f8201601f1916810167ffffffffffffffff8111828210171561102f5761102f610ff0565b604052919050565b600067ffffffffffffffff82111561105157611051610ff0565b5060051b60200190565b600082601f83011261106c57600080fd5b8135602061108161107c83611037565b611006565b82815260059290921b840181019181810190868411156110a057600080fd5b8286015b848110156110bb57803583529183019183016110a4565b509695505050505050565b600080604083850312156110d957600080fd5b823567ffffffffffffffff808211156110f157600080fd5b818501915085601f83011261110557600080fd5b8135602061111561107c83611037565b82815260059290921b8401810191818101908984111561113457600080fd5b948201945b8386101561115b57853561114c81610f1c565b82529482019490820190611139565b9650508601359250508082111561117157600080fd5b5061117e8582860161105b565b9150509250929050565b60208082526026908201527f5061796d656e7453706c69747465723a206163636f756e7420686173206e6f2060408201526573686172657360d01b606082015260800190565b634e487b7160e01b600052601160045260246000fd5b600082198211156111f7576111f76111ce565b500190565b6020808252602b908201527f5061796d656e7453706c69747465723a206163636f756e74206973206e6f742060408201526a191d59481c185e5b595b9d60aa1b606082015260800190565b60006020828403121561125957600080fd5b5051919050565b634e487b7160e01b600052603260045260246000fd5b600060018201611288576112886111ce565b5060010190565b60008160001904831182151516156112a9576112a96111ce565b500290565b6000826112cb57634e487b7160e01b600052601260045260246000fd5b500490565b6000828210156112e2576112e26111ce565b500390565b6000602082840312156112f957600080fd5b815180151581146109e057600080fd5b60005b8381101561132457818101518382015260200161130c565b83811115611333576000848401525b50505050565b6000825161134b818460208701611309565b9190910192915050565b6020815260008251806020840152611374816040850160208701611309565b601f01601f1916919091016040019291505056fea2646970667358221220d10cff94331f673552102e0a6c197eca8d57fe71f2dc7c6f7b50eeac588ed6f864736f6c634300080e0033",
    "linkReferences": {}
  },
  "methodIdentifiers": {
    "_tax()": "e751d508",
    "balanceOf(address,address)": "f7888aec",
    "balanceOfTokens(address,address,address)": "f54fc10c",
    "balances(address)": "27e235e3",
    "balancesTokens(address,address)": "93ba837f",
    "createdSplittersOf(address)": "6892e0f8",
    "newSplitter(address[],uint256[])": "739046f3",
    "owner()": "8da5cb5b",
    "payeeIndex(address,uint256)": "6fc06875",
    "payees(address)": "310441fa",
    "registeredCountOf(address)": "0b4c455a",
    "registeredSplittersOf(address)": "aeb55cd4",
    "release(address,address)": "48b75044",
    "releaseAll(address)": "580fc80a",
    "releaseAllTokens(address,address)": "f9f22c23",
    "releaseInRange(address,uint256,uint256)": "f93d3788",
    "releaseInRangeTokens(address,address,uint256,uint256)": "7e3b6d9e",
    "releaseTokens(address,address,address)": "f3d57954",
    "renounceOwnership()": "715018a6",
    "setTax(uint256)": "2e5bb6ff",
    "shares(address)": "ce7c2ac2",
    "sharesOfAccount(address,address)": "00415024",
    "splitterImplementation()": "e63db9b2",
    "totalShares(address)": "bf6b874e",
    "transferOwnership(address)": "f2fde38b",
    "withdraw(uint256)": "2e1a7d4d",
    "withdrawAll()": "853828b6"
  },
  "id": 17
}