{
  "abi": [
    {
      "inputs": [],
      "stateMutability": "nonpayable",
      "type": "constructor"
    },
    {
      "anonymous": false,
      "inputs": [
        {
          "indexed": true,
          "internalType": "address",
          "name": "previousOwner",
          "type": "address"
        },
        {
          "indexed": true,
          "internalType": "address",
          "name": "newOwner",
          "type": "address"
        }
      ],
      "name": "OwnershipTransferred",
      "type": "event"
    },
    {
      "anonymous": false,
      "inputs": [
        {
          "indexed": false,
          "internalType": "address",
          "name": "newSplitter",
          "type": "address"
        }
      ],
      "name": "PaymentSplitterCreated",
      "type": "event"
    },
    {
      "inputs": [],
      "name": "_tax",
      "outputs": [
        {
          "internalType": "uint256",
          "name": "",
          "type": "uint256"
        }
      ],
      "stateMutability": "view",
      "type": "function"
    },
    {
      "inputs": [
        {
          "internalType": "address",
          "name": "splitter",
          "type": "address"
        },
        {
          "internalType": "address",
          "name": "account",
          "type": "address"
        }
      ],
      "name": "getBalanceOf",
      "outputs": [
        {
          "internalType": "uint256",
          "name": "",
          "type": "uint256"
        }
      ],
      "stateMutability": "view",
      "type": "function"
    },
    {
      "inputs": [
        {
          "internalType": "address",
          "name": "splitter",
          "type": "address"
        },
        {
          "internalType": "address",
          "name": "token",
          "type": "address"
        },
        {
          "internalType": "address",
          "name": "account",
          "type": "address"
        }
      ],
      "name": "getBalanceOfTokens",
      "outputs": [
        {
          "internalType": "uint256",
          "name": "",
          "type": "uint256"
        }
      ],
      "stateMutability": "view",
      "type": "function"
    },
    {
      "inputs": [
        {
          "internalType": "address",
          "name": "splitter",
          "type": "address"
        }
      ],
      "name": "getBalances",
      "outputs": [
        {
          "internalType": "uint256[]",
          "name": "",
          "type": "uint256[]"
        }
      ],
      "stateMutability": "view",
      "type": "function"
    },
    {
      "inputs": [
        {
          "internalType": "address",
          "name": "splitter",
          "type": "address"
        },
        {
          "internalType": "address",
          "name": "token",
          "type": "address"
        }
      ],
      "name": "getBalancesTokens",
      "outputs": [
        {
          "internalType": "uint256[]",
          "name": "",
          "type": "uint256[]"
        }
      ],
      "stateMutability": "view",
      "type": "function"
    },
    {
      "inputs": [
        {
          "internalType": "address",
          "name": "payee",
          "type": "address"
        }
      ],
      "name": "getCreatedSplittersOf",
      "outputs": [
        {
          "internalType": "address[]",
          "name": "",
          "type": "address[]"
        }
      ],
      "stateMutability": "view",
      "type": "function"
    },
    {
      "inputs": [
        {
          "internalType": "address",
          "name": "splitter",
          "type": "address"
        },
        {
          "internalType": "uint256",
          "name": "index",
          "type": "uint256"
        }
      ],
      "name": "getPayeeIndex",
      "outputs": [
        {
          "internalType": "address",
          "name": "",
          "type": "address"
        }
      ],
      "stateMutability": "view",
      "type": "function"
    },
    {
      "inputs": [
        {
          "internalType": "address",
          "name": "splitter",
          "type": "address"
        }
      ],
      "name": "getPayees",
      "outputs": [
        {
          "internalType": "address[]",
          "name": "",
          "type": "address[]"
        }
      ],
      "stateMutability": "nonpayable",
      "type": "function"
    },
    {
      "inputs": [
        {
          "internalType": "address",
          "name": "payee",
          "type": "address"
        }
      ],
      "name": "getRegisteredCountOf",
      "outputs": [
        {
          "internalType": "uint256",
          "name": "",
          "type": "uint256"
        }
      ],
      "stateMutability": "view",
      "type": "function"
    },
    {
      "inputs": [
        {
          "internalType": "address",
          "name": "payee",
          "type": "address"
        }
      ],
      "name": "getRegisteredSplittersOf",
      "outputs": [
        {
          "internalType": "address[]",
          "name": "",
          "type": "address[]"
        }
      ],
      "stateMutability": "view",
      "type": "function"
    },
    {
      "inputs": [
        {
          "internalType": "address",
          "name": "splitter",
          "type": "address"
        }
      ],
      "name": "getShares",
      "outputs": [
        {
          "internalType": "uint256[]",
          "name": "",
          "type": "uint256[]"
        }
      ],
      "stateMutability": "view",
      "type": "function"
    },
    {
      "inputs": [
        {
          "internalType": "address",
          "name": "splitter",
          "type": "address"
        },
        {
          "internalType": "address",
          "name": "account",
          "type": "address"
        }
      ],
      "name": "getSharesOfAccount",
      "outputs": [
        {
          "internalType": "uint256",
          "name": "",
          "type": "uint256"
        }
      ],
      "stateMutability": "view",
      "type": "function"
    },
    {
      "inputs": [],
      "name": "getSplitterImplementation",
      "outputs": [
        {
          "internalType": "address",
          "name": "",
          "type": "address"
        }
      ],
      "stateMutability": "view",
      "type": "function"
    },
    {
      "inputs": [],
      "name": "getTax",
      "outputs": [
        {
          "internalType": "uint256",
          "name": "",
          "type": "uint256"
        }
      ],
      "stateMutability": "view",
      "type": "function"
    },
    {
      "inputs": [
        {
          "internalType": "address",
          "name": "splitter",
          "type": "address"
        }
      ],
      "name": "getTotalShares",
      "outputs": [
        {
          "internalType": "uint256",
          "name": "",
          "type": "uint256"
        }
      ],
      "stateMutability": "view",
      "type": "function"
    },
    {
      "inputs": [
        {
          "internalType": "address[]",
          "name": "payees",
          "type": "address[]"
        },
        {
          "internalType": "uint256[]",
          "name": "shares",
          "type": "uint256[]"
        }
      ],
      "name": "newSplitter",
      "outputs": [
        {
          "internalType": "address",
          "name": "",
          "type": "address"
        }
      ],
      "stateMutability": "payable",
      "type": "function"
    },
    {
      "inputs": [],
      "name": "owner",
      "outputs": [
        {
          "internalType": "address",
          "name": "",
          "type": "address"
        }
      ],
      "stateMutability": "view",
      "type": "function"
    },
    {
      "inputs": [
        {
          "internalType": "address",
          "name": "payee",
          "type": "address"
        },
        {
          "internalType": "address",
          "name": "splitter",
          "type": "address"
        }
      ],
      "name": "release",
      "outputs": [],
      "stateMutability": "nonpayable",
      "type": "function"
    },
    {
      "inputs": [
        {
          "internalType": "address",
          "name": "splitter",
          "type": "address"
        }
      ],
      "name": "releaseAll",
      "outputs": [],
      "stateMutability": "nonpayable",
      "type": "function"
    },
    {
      "inputs": [
        {
          "internalType": "address",
          "name": "payee",
          "type": "address"
        }
      ],
      "name": "releaseAllSplitters",
      "outputs": [],
      "stateMutability": "nonpayable",
      "type": "function"
    },
    {
      "inputs": [
        {
          "internalType": "address",
          "name": "token",
          "type": "address"
        },
        {
          "internalType": "address",
          "name": "payee",
          "type": "address"
        }
      ],
      "name": "releaseAllSplittersTokens",
      "outputs": [],
      "stateMutability": "nonpayable",
      "type": "function"
    },
    {
      "inputs": [
        {
          "internalType": "address",
          "name": "token",
          "type": "address"
        },
        {
          "internalType": "address",
          "name": "splitter",
          "type": "address"
        }
      ],
      "name": "releaseAllTokens",
      "outputs": [],
      "stateMutability": "nonpayable",
      "type": "function"
    },
    {
      "inputs": [
        {
          "internalType": "address",
          "name": "token",
          "type": "address"
        },
        {
          "internalType": "address",
          "name": "payee",
          "type": "address"
        },
        {
          "internalType": "address",
          "name": "splitter",
          "type": "address"
        }
      ],
      "name": "releaseTokens",
      "outputs": [],
      "stateMutability": "nonpayable",
      "type": "function"
    },
    {
      "inputs": [],
      "name": "renounceOwnership",
      "outputs": [],
      "stateMutability": "nonpayable",
      "type": "function"
    },
    {
      "inputs": [
        {
          "internalType": "uint256",
          "name": "tax",
          "type": "uint256"
        }
      ],
      "name": "setTax",
      "outputs": [],
      "stateMutability": "nonpayable",
      "type": "function"
    },
    {
      "inputs": [
        {
          "internalType": "address",
          "name": "newOwner",
          "type": "address"
        }
      ],
      "name": "transferOwnership",
      "outputs": [],
      "stateMutability": "nonpayable",
      "type": "function"
    },
    {
      "inputs": [
        {
          "internalType": "address",
          "name": "account",
          "type": "address"
        }
      ],
      "name": "withdraw",
      "outputs": [],
      "stateMutability": "nonpayable",
      "type": "function"
    }
  ],
  "bytecode": {
    "object": "0x6080604052670de0b6b3a76400006001553480156200001d57600080fd5b5062000029336200022c565b600060405162000039906200027c565b604051809103906000f08015801562000056573d6000803e3d6000fd5b50604080516001808252818301909252919250600091906020808301908036833701905050905030816000815181106200009457620000946200028a565b6001600160a01b039290921660209283029190910190910152604080516001808252818301909252600091816020016020820280368337019050509050600181600081518110620000e957620000e96200028a565b6020908102919091010152604051637fbbe46f60e01b81526001600160a01b03841690637fbbe46f90620001249085908590600401620002a0565b600060405180830381600087803b1580156200013f57600080fd5b505af115801562000154573d6000803e3d6000fd5b5050600280546001808201835560008390527f405787fa12a823e0f2b7631cc41b3ba8828b3321ca811111fa75cd3aa3bb5ace90910180546001600160a01b0319166001600160a01b0389161790559054620001b4935090915062000328565b6001600160a01b0390931660008181526003602090815260408083209690965530808352600482528683208054600181810183559185528385200180546001600160a01b03199081168717909155918452600583529683208054978801815583529120909401805490941617909255506200034e9050565b600080546001600160a01b038381166001600160a01b0319831681178455604051919092169283917f8be0079c531659141344cd1fd0a4f28419497f9722a3daafe3b4186f6b6457e09190a35050565b611473806200373183390190565b634e487b7160e01b600052603260045260246000fd5b604080825283519082018190526000906020906060840190828701845b82811015620002e45781516001600160a01b031684529284019290840190600101620002bd565b5050508381038285015284518082528583019183019060005b818110156200031b57835183529284019291840191600101620002fd565b5090979650505050505050565b6000828210156200034957634e487b7160e01b600052601160045260246000fd5b500390565b6133d3806200035e6000396000f3fe60806040526004361061019c5760003560e01c80637e1daef9116100ec578063dae299061161008a578063f20d863411610064578063f20d863414610492578063f2fde38b146104b2578063f3d57954146104d2578063f9f22c23146104f257600080fd5b8063dae2990614610447578063e751d5081461045c578063f04da65b1461047257600080fd5b8063a8d69f30116100c6578063a8d69f30146103ba578063b632b3cb146103da578063c729e4fb146103fa578063c84aae171461042757600080fd5b80637e1daef91461035c5780638da5cb5b1461037c5780638fe8c3e31461039a57600080fd5b806351cff8d911610159578063580fc80a11610133578063580fc80a146102dc578063715018a6146102fc578063739046f31461031157806379815a9a1461033c57600080fd5b806351cff8d91461028757806353290b44146102a757806354b762a6146102c757600080fd5b80631830f9cf146101a15780632b0f73af146101d75780632e5bb6ff146102055780634402c81414610227578063478f447c1461024757806348b7504414610267575b600080fd5b3480156101ad57600080fd5b506101c16101bc3660046119bc565b610512565b6040516101ce9190611a1d565b60405180910390f35b3480156101e357600080fd5b506101f76101f2366004611a30565b6105bd565b6040519081526020016101ce565b34801561021157600080fd5b50610225610220366004611a7b565b610672565b005b34801561023357600080fd5b506101f76102423660046119bc565b6106aa565b34801561025357600080fd5b506101c16102623660046119bc565b61071f565b34801561027357600080fd5b50610225610282366004611a94565b610795565b34801561029357600080fd5b506102256102a23660046119bc565b61082f565b3480156102b357600080fd5b506101f76102c2366004611a94565b610889565b3480156102d357600080fd5b506001546101f7565b3480156102e857600080fd5b506102256102f73660046119bc565b61092f565b34801561030857600080fd5b50610225610add565b61032461031f366004611ba3565b610b13565b6040516001600160a01b0390911681526020016101ce565b34801561034857600080fd5b506102256103573660046119bc565b610c70565b34801561036857600080fd5b506101f7610377366004611a94565b610d75565b34801561038857600080fd5b506000546001600160a01b0316610324565b3480156103a657600080fd5b506101c16103b53660046119bc565b610dde565b3480156103c657600080fd5b506103246103d5366004611c65565b610e52565b3480156103e657600080fd5b506102256103f5366004611a94565b610ef6565b34801561040657600080fd5b5061041a610415366004611a94565b611003565b6040516101ce9190611cc1565b34801561043357600080fd5b5061041a6104423660046119bc565b6110ad565b34801561045357600080fd5b50610324611156565b34801561046857600080fd5b506101f760015481565b34801561047e57600080fd5b5061041a61048d3660046119bc565b61118f565b34801561049e57600080fd5b506101f76104ad3660046119bc565b6113f5565b3480156104be57600080fd5b506102256104cd3660046119bc565b611495565b3480156104de57600080fd5b506102256104ed366004611a30565b611530565b3480156104fe57600080fd5b5061022561050d366004611a94565b6115d3565b6001600160a01b038116600090815260036020526040812054600280546060939290811061054257610542611cd4565b6000918252602082200154604080516327f3811360e01b815290516001600160a01b03909216926327f38113926004808401938290030181865afa15801561058e573d6000803e3d6000fd5b505050506040513d6000823e601f3d908101601f191682016040526105b69190810190611cea565b9392505050565b6001600160a01b0383166000908152600360205260408120546002805490919081106105eb576105eb611cd4565b6000918252602090912001546040516339669c1d60e11b81526001600160a01b0385811660048301528481166024830152909116906372cd383a90604401602060405180830381865afa158015610646573d6000803e3d6000fd5b505050506040513d601f19601f8201168201806040525081019061066a9190611d84565b949350505050565b6000546001600160a01b031633146106a55760405162461bcd60e51b815260040161069c90611d9d565b60405180910390fd5b600155565b6001600160a01b03811660009081526005602090815260408083208054825181850281018501909352808352849383018282801561071157602002820191906000526020600020905b81546001600160a01b031681526001909101906020018083116106f3575b505092519695505050505050565b6001600160a01b03811660009081526004602090815260409182902080548351818402810184019094528084526060939283018282801561078957602002820191906000526020600020905b81546001600160a01b0316815260019091019060200180831161076b575b50505050509050919050565b6001600160a01b0381166000908152600360205260409020546002805490919081106107c3576107c3611cd4565b600091825260209091200154604051631916558760e01b81526001600160a01b03848116600483015290911690631916558790602401600060405180830381600087803b15801561081357600080fd5b505af1158015610827573d6000803e3d6000fd5b505050505050565b6000546001600160a01b031633146108595760405162461bcd60e51b815260040161069c90611d9d565b60405133904780156108fc02916000818181858888f19350505050158015610885573d6000803e3d6000fd5b5050565b6001600160a01b0382166000908152600360205260408120546002805490919081106108b7576108b7611cd4565b6000918252602090912001546040516370a0823160e01b81526001600160a01b038481166004830152909116906370a08231906024015b602060405180830381865afa15801561090b573d6000803e3d6000fd5b505050506040513d601f19601f820116820180604052508101906105b69190611d84565b6001600160a01b03811660009081526003602052604081205460028054909190811061095d5761095d611cd4565b6000918252602082200154604080516327f3811360e01b815290516001600160a01b03909216926327f38113926004808401938290030181865afa1580156109a9573d6000803e3d6000fd5b505050506040513d6000823e601f3d908101601f191682016040526109d19190810190611cea565b905060008151116109f45760405162461bcd60e51b815260040161069c90611dd2565b60005b8151811015610ad8576001600160a01b038316600090815260036020526040902054600280549091908110610a2e57610a2e611cd4565b60009182526020909120015482516001600160a01b0390911690631916558790849084908110610a6057610a60611cd4565b60200260200101516040518263ffffffff1660e01b8152600401610a9391906001600160a01b0391909116815260200190565b600060405180830381600087803b158015610aad57600080fd5b505af1158015610ac1573d6000803e3d6000fd5b505050508080610ad090611e29565b9150506109f7565b505050565b6000546001600160a01b03163314610b075760405162461bcd60e51b815260040161069c90611d9d565b610b116000611796565b565b60008151835114610b8c5760405162461bcd60e51b815260206004820152603960248201527f5061796d656e7453706c6974746572466163746f72793a20706179656573206160448201527f6e6420736861726573206c656e677468206d69736d6174636800000000000000606482015260840161069c565b6000835111610bad5760405162461bcd60e51b815260040161069c90611dd2565b600154341015610c1e5760405162461bcd60e51b815260206004820152603660248201527f5061796d656e7453706c6974746572466163746f72793a206d73672e76616c756044820152750ca40daeae6e840c4ca40cae2eac2d840e8de40e8c2f60531b606482015260840161069c565b6000610c2a84846117e6565b6040516001600160a01b03821681529091507f30af7bdf04bd12c43e1faf8f5ac72234cf440fd5c945a61362ad54a1cd568de39060200160405180910390a19392505050565b60005b6001600160a01b038216600090815260056020526040902054811015610885576001600160a01b03821660009081526005602052604081208054600292600392909185908110610cc557610cc5611cd4565b60009182526020808320909101546001600160a01b0316835282019290925260400190205481548110610cfa57610cfa611cd4565b600091825260209091200154604051631916558760e01b81526001600160a01b03848116600483015290911690631916558790602401600060405180830381600087803b158015610d4a57600080fd5b505af1158015610d5e573d6000803e3d6000fd5b505050508080610d6d90611e29565b915050610c73565b6001600160a01b038216600090815260036020526040812054600280549091908110610da357610da3611cd4565b60009182526020909120015460405163673e156160e11b81526001600160a01b0384811660048301529091169063ce7c2ac2906024016108ee565b6001600160a01b038116600090815260056020908152604091829020805483518184028101840190945280845260609392830182828015610789576020028201919060005260206000209081546001600160a01b0316815260019091019060200180831161076b5750505050509050919050565b6001600160a01b038216600090815260036020526040812054600280549091908110610e8057610e80611cd4565b6000918252602090912001546040516326b0538f60e21b8152600481018490526001600160a01b0390911690639ac14e3c90602401602060405180830381865afa158015610ed2573d6000803e3d6000fd5b505050506040513d601f19601f820116820180604052508101906105b69190611e42565b60005b6001600160a01b038216600090815260056020526040902054811015610ad8576001600160a01b03821660009081526005602052604081208054600292600392909185908110610f4b57610f4b611cd4565b60009182526020808320909101546001600160a01b0316835282019290925260400190205481548110610f8057610f80611cd4565b600091825260209091200154604051633a189da560e11b81526001600160a01b0385811660048301528481166024830152909116906374313b4a90604401600060405180830381600087803b158015610fd857600080fd5b505af1158015610fec573d6000803e3d6000fd5b505050508080610ffb90611e29565b915050610ef9565b6001600160a01b0382166000908152600360205260409020546002805460609290811061103257611032611cd4565b600091825260209091200154604051633a42d7a560e01b81526001600160a01b03848116600483015290911690633a42d7a590602401600060405180830381865afa158015611085573d6000803e3d6000fd5b505050506040513d6000823e601f3d908101601f191682016040526105b69190810190611e5f565b6001600160a01b038116600090815260036020526040902054600280546060929081106110dc576110dc611cd4565b600091825260208220015460408051630f77314d60e31b815290516001600160a01b0390921692637bb98a68926004808401938290030181865afa158015611128573d6000803e3d6000fd5b505050506040513d6000823e601f3d908101601f191682016040526111509190810190611e5f565b92915050565b3060009081526004602052604081208054829061117557611175611cd4565b6000918252602090912001546001600160a01b0316919050565b6001600160a01b03811660009081526003602052604081205460028054606093929081106111bf576111bf611cd4565b60009182526020808320909101546040805163e919ecad60e01b815290516001600160a01b039092169450849263e919ecad926004808401938290030181865afa158015611211573d6000803e3d6000fd5b505050506040513d601f19601f820116820180604052508101906112359190611d84565b67ffffffffffffffff81111561124d5761124d611acd565b604051908082528060200260200182016040528015611276578160200160208202803683370190505b50905060005b826001600160a01b031663e919ecad6040518163ffffffff1660e01b8152600401602060405180830381865afa1580156112ba573d6000803e3d6000fd5b505050506040513d601f19601f820116820180604052508101906112de9190611d84565b8110156113ed576040516326b0538f60e21b8152600481018290526001600160a01b0384169063ce7c2ac2908290639ac14e3c90602401602060405180830381865afa158015611332573d6000803e3d6000fd5b505050506040513d601f19601f820116820180604052508101906113569190611e42565b6040516001600160e01b031960e084901b1681526001600160a01b039091166004820152602401602060405180830381865afa15801561139a573d6000803e3d6000fd5b505050506040513d601f19601f820116820180604052508101906113be9190611d84565b8282815181106113d0576113d0611cd4565b6020908102919091010152806113e581611e29565b91505061127c565b509392505050565b6001600160a01b03811660009081526003602052604081205460028054909190811061142357611423611cd4565b6000918252602091829020015460408051633a98ef3960e01b815290516001600160a01b0390921692633a98ef39926004808401938290030181865afa158015611471573d6000803e3d6000fd5b505050506040513d601f19601f820116820180604052508101906111509190611d84565b6000546001600160a01b031633146114bf5760405162461bcd60e51b815260040161069c90611d9d565b6001600160a01b0381166115245760405162461bcd60e51b815260206004820152602660248201527f4f776e61626c653a206e6577206f776e657220697320746865207a65726f206160448201526564647265737360d01b606482015260840161069c565b61152d81611796565b50565b6001600160a01b03811660009081526003602052604090205460028054909190811061155e5761155e611cd4565b600091825260209091200154604051633a189da560e11b81526001600160a01b0385811660048301528481166024830152909116906374313b4a90604401600060405180830381600087803b1580156115b657600080fd5b505af11580156115ca573d6000803e3d6000fd5b50505050505050565b6001600160a01b03811660009081526003602052604081205460028054909190811061160157611601611cd4565b6000918252602082200154604080516327f3811360e01b815290516001600160a01b03909216926327f38113926004808401938290030181865afa15801561164d573d6000803e3d6000fd5b505050506040513d6000823e601f3d908101601f191682016040526116759190810190611cea565b905060008151116116985760405162461bcd60e51b815260040161069c90611dd2565b60005b8151811015611790576001600160a01b0383166000908152600360205260409020546002805490919081106116d2576116d2611cd4565b9060005260206000200160009054906101000a90046001600160a01b03166001600160a01b03166374313b4a8584848151811061171157611711611cd4565b60200260200101516040518363ffffffff1660e01b815260040161174b9291906001600160a01b0392831681529116602082015260400190565b600060405180830381600087803b15801561176557600080fd5b505af1158015611779573d6000803e3d6000fd5b50505050808061178890611e29565b91505061169b565b50505050565b600080546001600160a01b038381166001600160a01b0319831681178455604051919092169283917f8be0079c531659141344cd1fd0a4f28419497f9722a3daafe3b4186f6b6457e09190a35050565b6000806040516117f59061199a565b604051809103906000f080158015611811573d6000803e3d6000fd5b50604051637fbbe46f60e01b81529091506001600160a01b03821690637fbbe46f906118439087908790600401611ee5565b600060405180830381600087803b15801561185d57600080fd5b505af1158015611871573d6000803e3d6000fd5b5050600280546001808201835560008390527f405787fa12a823e0f2b7631cc41b3ba8828b3321ca811111fa75cd3aa3bb5ace90910180546001600160a01b0319166001600160a01b03871617905590546118cf9350909150611f13565b6001600160a01b03821660008181526003602090815260408083209490945533825260048152928120805460018101825590825292812090920180546001600160a01b03191690911790555b84518110156113ed576005600086838151811061193a5761193a611cd4565b6020908102919091018101516001600160a01b039081168352828201939093526040909101600090812080546001810182559082529190200180546001600160a01b0319169184169190911790558061199281611e29565b91505061191b565b61147380611f2b83390190565b6001600160a01b038116811461152d57600080fd5b6000602082840312156119ce57600080fd5b81356105b6816119a7565b600081518084526020808501945080840160005b83811015611a125781516001600160a01b0316875295820195908201906001016119ed565b509495945050505050565b6020815260006105b660208301846119d9565b600080600060608486031215611a4557600080fd5b8335611a50816119a7565b92506020840135611a60816119a7565b91506040840135611a70816119a7565b809150509250925092565b600060208284031215611a8d57600080fd5b5035919050565b60008060408385031215611aa757600080fd5b8235611ab2816119a7565b91506020830135611ac2816119a7565b809150509250929050565b634e487b7160e01b600052604160045260246000fd5b604051601f8201601f1916810167ffffffffffffffff81118282101715611b0c57611b0c611acd565b604052919050565b600067ffffffffffffffff821115611b2e57611b2e611acd565b5060051b60200190565b600082601f830112611b4957600080fd5b81356020611b5e611b5983611b14565b611ae3565b82815260059290921b84018101918181019086841115611b7d57600080fd5b8286015b84811015611b985780358352918301918301611b81565b509695505050505050565b60008060408385031215611bb657600080fd5b823567ffffffffffffffff80821115611bce57600080fd5b818501915085601f830112611be257600080fd5b81356020611bf2611b5983611b14565b82815260059290921b84018101918181019089841115611c1157600080fd5b948201945b83861015611c38578535611c29816119a7565b82529482019490820190611c16565b96505086013592505080821115611c4e57600080fd5b50611c5b85828601611b38565b9150509250929050565b60008060408385031215611c7857600080fd5b8235611c83816119a7565b946020939093013593505050565b600081518084526020808501945080840160005b83811015611a1257815187529582019590820190600101611ca5565b6020815260006105b66020830184611c91565b634e487b7160e01b600052603260045260246000fd5b60006020808385031215611cfd57600080fd5b825167ffffffffffffffff811115611d1457600080fd5b8301601f81018513611d2557600080fd5b8051611d33611b5982611b14565b81815260059190911b82018301908381019087831115611d5257600080fd5b928401925b82841015611d79578351611d6a816119a7565b82529284019290840190611d57565b979650505050505050565b600060208284031215611d9657600080fd5b5051919050565b6020808252818101527f4f776e61626c653a2063616c6c6572206973206e6f7420746865206f776e6572604082015260600190565b60208082526021908201527f5061796d656e7453706c6974746572466163746f72793a206e6f2070617965656040820152607360f81b606082015260800190565b634e487b7160e01b600052601160045260246000fd5b600060018201611e3b57611e3b611e13565b5060010190565b600060208284031215611e5457600080fd5b81516105b6816119a7565b60006020808385031215611e7257600080fd5b825167ffffffffffffffff811115611e8957600080fd5b8301601f81018513611e9a57600080fd5b8051611ea8611b5982611b14565b81815260059190911b82018301908381019087831115611ec757600080fd5b928401925b82841015611d7957835182529284019290840190611ecc565b604081526000611ef860408301856119d9565b8281036020840152611f0a8185611c91565b95945050505050565b600082821015611f2557611f25611e13565b50039056fe608060405234801561001057600080fd5b50611453806100206000396000f3fe6080604052600436106101025760003560e01c806374313b4a116100955780639852595c116100645780639852595c146102ff5780639ac14e3c14610335578063ce7c2ac214610355578063e33b7de31461038b578063e919ecad146103a057600080fd5b806374313b4a146102815780637bb98a68146102a15780637fbbe46f146102b6578063820be89e146102c957600080fd5b80633a98ef39116100d15780633a98ef39146102025780636625889f1461022157806370a082311461024157806372cd383a1461026157600080fd5b8063191655871461015057806327f3811314610172578063283248be1461019d5780633a42d7a5146101d557600080fd5b3661014b577f6ef95f06320e7a25a04a175ca677b7052bdd97131872c2192525a629f51be77033604080516001600160a01b0390921682523460208301520160405180910390a1005b600080fd5b34801561015c57600080fd5b5061017061016b366004610f7c565b6103b5565b005b34801561017e57600080fd5b5061018761051b565b6040516101949190610f97565b60405180910390f35b3480156101a957600080fd5b506101bd6101b8366004610fe4565b61057d565b6040516001600160a01b039091168152602001610194565b3480156101e157600080fd5b506101f56101f0366004610f7c565b6105a7565b6040516101949190610ffd565b34801561020e57600080fd5b506000545b604051908152602001610194565b34801561022d57600080fd5b5061021361023c366004611035565b610671565b34801561024d57600080fd5b5061021361025c366004610f7c565b61069c565b34801561026d57600080fd5b5061021361027c366004611035565b610716565b34801561028d57600080fd5b5061017061029c366004611035565b6107f2565b3480156102ad57600080fd5b506101f56109a8565b6101706102c436600461113e565b610a70565b3480156102d557600080fd5b506102136102e4366004610f7c565b6001600160a01b031660009081526005602052604090205490565b34801561030b57600080fd5b5061021361031a366004610f7c565b6001600160a01b031660009081526003602052604090205490565b34801561034157600080fd5b506101bd610350366004610fe4565b610acf565b34801561036157600080fd5b50610213610370366004610f7c565b6001600160a01b031660009081526002602052604090205490565b34801561039757600080fd5b50600154610213565b3480156103ac57600080fd5b50600454610213565b6001600160a01b0381166000908152600260205260409020546103f35760405162461bcd60e51b81526004016103ea906111fe565b60405180910390fd5b60006103fe60015490565b610408904761125a565b905060006104358383610430866001600160a01b031660009081526003602052604090205490565b610aff565b9050806000036104575760405162461bcd60e51b81526004016103ea90611272565b6001600160a01b0383166000908152600360205260408120805483929061047f90849061125a565b925050819055508060016000828254610498919061125a565b90915550506040516001600160a01b0384169082156108fc029083906000818181858888f193505050501580156104d3573d6000803e3d6000fd5b50604080516001600160a01b0385168152602081018390527fdf20fd1e76bc69d672e4814fafb2c449bba3a5369d8359adf9e05e6fde87b056910160405180910390a1505050565b6060600480548060200260200160405190810160405280929190818152602001828054801561057357602002820191906000526020600020905b81546001600160a01b03168152600190910190602001808311610555575b5050505050905090565b6004818154811061058d57600080fd5b6000918252602090912001546001600160a01b0316905081565b60045460609060009067ffffffffffffffff8111156105c8576105c8611068565b6040519080825280602002602001820160405280156105f1578160200160208202803683370190505b50905060005b60045460ff8216101561066a576106388460048360ff168154811061061e5761061e6112bd565b6000918252602090912001546001600160a01b0316610716565b828260ff168151811061064d5761064d6112bd565b602090810291909101015280610662816112d3565b9150506105f7565b5092915050565b6001600160a01b03918216600090815260066020908152604080832093909416825291909152205490565b6001600160a01b0381166000908152600260205260408120546106d15760405162461bcd60e51b81526004016103ea906111fe565b60006106dc60015490565b6106e6904761125a565b9050600061070e8483610430876001600160a01b031660009081526003602052604090205490565b949350505050565b6001600160a01b03811660009081526002602052604081205461074b5760405162461bcd60e51b81526004016103ea906111fe565b6001600160a01b0383166000908152600560205260408120546040516370a0823160e01b81523060048201526001600160a01b038616906370a0823190602401602060405180830381865afa1580156107a8573d6000803e3d6000fd5b505050506040513d601f19601f820116820180604052508101906107cc91906112f2565b6107d6919061125a565b905060006107e984836104308888610671565b95945050505050565b6001600160a01b0381166000908152600260205260409020546108275760405162461bcd60e51b81526004016103ea906111fe565b6001600160a01b0382166000908152600560205260408120546040516370a0823160e01b81523060048201526001600160a01b038516906370a0823190602401602060405180830381865afa158015610884573d6000803e3d6000fd5b505050506040513d601f19601f820116820180604052508101906108a891906112f2565b6108b2919061125a565b905060006108c583836104308787610671565b9050806000036108e75760405162461bcd60e51b81526004016103ea90611272565b6001600160a01b0380851660009081526006602090815260408083209387168352929052908120805483929061091e90849061125a565b90915550506001600160a01b0384166000908152600560205260408120805483929061094b90849061125a565b9091555061095c9050848483610b44565b604080516001600160a01b038581168252602082018490528616917f3be5b7a71e84ed12875d241991c70855ac5817d847039e17a9d895c1ceb0f18a910160405180910390a250505050565b60045460609060009067ffffffffffffffff8111156109c9576109c9611068565b6040519080825280602002602001820160405280156109f2578160200160208202803683370190505b50905060005b60045460ff82161015610a6a57610a3860048260ff1681548110610a1e57610a1e6112bd565b6000918252602090912001546001600160a01b031661069c565b828260ff1681518110610a4d57610a4d6112bd565b602090810291909101015280610a62816112d3565b9150506109f8565b50919050565b60005b8251811015610aca57610ab8838281518110610a9157610a916112bd565b6020026020010151838381518110610aab57610aab6112bd565b6020026020010151610b96565b80610ac28161130b565b915050610a73565b505050565b600060048281548110610ae457610ae46112bd565b6000918252602090912001546001600160a01b031692915050565b600080546001600160a01b038516825260026020526040822054839190610b269086611324565b610b309190611343565b610b3a9190611365565b90505b9392505050565b604080516001600160a01b038416602482015260448082018490528251808303909101815260649091019091526020810180516001600160e01b031663a9059cbb60e01b179052610aca908490610d7a565b6001600160a01b038216610c015760405162461bcd60e51b815260206004820152602c60248201527f5061796d656e7453706c69747465723a206163636f756e74206973207468652060448201526b7a65726f206164647265737360a01b60648201526084016103ea565b60008111610c515760405162461bcd60e51b815260206004820152601d60248201527f5061796d656e7453706c69747465723a2073686172657320617265203000000060448201526064016103ea565b6001600160a01b03821660009081526002602052604090205415610ccb5760405162461bcd60e51b815260206004820152602b60248201527f5061796d656e7453706c69747465723a206163636f756e7420616c726561647960448201526a206861732073686172657360a81b60648201526084016103ea565b60048054600181019091557f8a35acfbc15ff81a39ae7d344fd709f28e8600b4aa8c65c6b64bfe7fe36bd19b0180546001600160a01b0319166001600160a01b038416908117909155600090815260026020526040812082905554610d3190829061125a565b600055604080516001600160a01b0384168152602081018390527f40c340f65e17194d14ddddb073d3c9f888e3cb52b5aae0c6c7706b4fbc905fac910160405180910390a15050565b6000610dcf826040518060400160405280602081526020017f5361666545524332303a206c6f772d6c6576656c2063616c6c206661696c6564815250856001600160a01b0316610e4c9092919063ffffffff16565b805190915015610aca5780806020019051810190610ded919061137c565b610aca5760405162461bcd60e51b815260206004820152602a60248201527f5361666545524332303a204552433230206f7065726174696f6e20646964206e6044820152691bdd081cdd58d8d9595960b21b60648201526084016103ea565b6060610b3a8484600085856001600160a01b0385163b610eae5760405162461bcd60e51b815260206004820152601d60248201527f416464726573733a2063616c6c20746f206e6f6e2d636f6e747261637400000060448201526064016103ea565b600080866001600160a01b03168587604051610eca91906113ce565b60006040518083038185875af1925050503d8060008114610f07576040519150601f19603f3d011682016040523d82523d6000602084013e610f0c565b606091505b5091509150610f1c828286610f27565b979650505050505050565b60608315610f36575081610b3d565b825115610f465782518084602001fd5b8160405162461bcd60e51b81526004016103ea91906113ea565b80356001600160a01b0381168114610f7757600080fd5b919050565b600060208284031215610f8e57600080fd5b610b3d82610f60565b6020808252825182820181905260009190848201906040850190845b81811015610fd85783516001600160a01b031683529284019291840191600101610fb3565b50909695505050505050565b600060208284031215610ff657600080fd5b5035919050565b6020808252825182820181905260009190848201906040850190845b81811015610fd857835183529284019291840191600101611019565b6000806040838503121561104857600080fd5b61105183610f60565b915061105f60208401610f60565b90509250929050565b634e487b7160e01b600052604160045260246000fd5b604051601f8201601f1916810167ffffffffffffffff811182821017156110a7576110a7611068565b604052919050565b600067ffffffffffffffff8211156110c9576110c9611068565b5060051b60200190565b600082601f8301126110e457600080fd5b813560206110f96110f4836110af565b61107e565b82815260059290921b8401810191818101908684111561111857600080fd5b8286015b84811015611133578035835291830191830161111c565b509695505050505050565b6000806040838503121561115157600080fd5b823567ffffffffffffffff8082111561116957600080fd5b818501915085601f83011261117d57600080fd5b8135602061118d6110f4836110af565b82815260059290921b840181019181810190898411156111ac57600080fd5b948201945b838610156111d1576111c286610f60565b825294820194908201906111b1565b965050860135925050808211156111e757600080fd5b506111f4858286016110d3565b9150509250929050565b60208082526026908201527f5061796d656e7453706c69747465723a206163636f756e7420686173206e6f2060408201526573686172657360d01b606082015260800190565b634e487b7160e01b600052601160045260246000fd5b6000821982111561126d5761126d611244565b500190565b6020808252602b908201527f5061796d656e7453706c69747465723a206163636f756e74206973206e6f742060408201526a191d59481c185e5b595b9d60aa1b606082015260800190565b634e487b7160e01b600052603260045260246000fd5b600060ff821660ff81036112e9576112e9611244565b60010192915050565b60006020828403121561130457600080fd5b5051919050565b60006001820161131d5761131d611244565b5060010190565b600081600019048311821515161561133e5761133e611244565b500290565b60008261136057634e487b7160e01b600052601260045260246000fd5b500490565b60008282101561137757611377611244565b500390565b60006020828403121561138e57600080fd5b81518015158114610b3d57600080fd5b60005b838110156113b95781810151838201526020016113a1565b838111156113c8576000848401525b50505050565b600082516113e081846020870161139e565b9190910192915050565b602081526000825180602084015261140981604085016020870161139e565b601f01601f1916919091016040019291505056fea264697066735822122047dfb072f6cbdd376feba7e4c0ad4ac3af8e1bf7787306a58e3d96eef8d8e75364736f6c634300080e0033a2646970667358221220b195f66a342d19deec5fe056833e6c6af247a4fac4f0f323a22b504349c9248a64736f6c634300080e0033608060405234801561001057600080fd5b50611453806100206000396000f3fe6080604052600436106101025760003560e01c806374313b4a116100955780639852595c116100645780639852595c146102ff5780639ac14e3c14610335578063ce7c2ac214610355578063e33b7de31461038b578063e919ecad146103a057600080fd5b806374313b4a146102815780637bb98a68146102a15780637fbbe46f146102b6578063820be89e146102c957600080fd5b80633a98ef39116100d15780633a98ef39146102025780636625889f1461022157806370a082311461024157806372cd383a1461026157600080fd5b8063191655871461015057806327f3811314610172578063283248be1461019d5780633a42d7a5146101d557600080fd5b3661014b577f6ef95f06320e7a25a04a175ca677b7052bdd97131872c2192525a629f51be77033604080516001600160a01b0390921682523460208301520160405180910390a1005b600080fd5b34801561015c57600080fd5b5061017061016b366004610f7c565b6103b5565b005b34801561017e57600080fd5b5061018761051b565b6040516101949190610f97565b60405180910390f35b3480156101a957600080fd5b506101bd6101b8366004610fe4565b61057d565b6040516001600160a01b039091168152602001610194565b3480156101e157600080fd5b506101f56101f0366004610f7c565b6105a7565b6040516101949190610ffd565b34801561020e57600080fd5b506000545b604051908152602001610194565b34801561022d57600080fd5b5061021361023c366004611035565b610671565b34801561024d57600080fd5b5061021361025c366004610f7c565b61069c565b34801561026d57600080fd5b5061021361027c366004611035565b610716565b34801561028d57600080fd5b5061017061029c366004611035565b6107f2565b3480156102ad57600080fd5b506101f56109a8565b6101706102c436600461113e565b610a70565b3480156102d557600080fd5b506102136102e4366004610f7c565b6001600160a01b031660009081526005602052604090205490565b34801561030b57600080fd5b5061021361031a366004610f7c565b6001600160a01b031660009081526003602052604090205490565b34801561034157600080fd5b506101bd610350366004610fe4565b610acf565b34801561036157600080fd5b50610213610370366004610f7c565b6001600160a01b031660009081526002602052604090205490565b34801561039757600080fd5b50600154610213565b3480156103ac57600080fd5b50600454610213565b6001600160a01b0381166000908152600260205260409020546103f35760405162461bcd60e51b81526004016103ea906111fe565b60405180910390fd5b60006103fe60015490565b610408904761125a565b905060006104358383610430866001600160a01b031660009081526003602052604090205490565b610aff565b9050806000036104575760405162461bcd60e51b81526004016103ea90611272565b6001600160a01b0383166000908152600360205260408120805483929061047f90849061125a565b925050819055508060016000828254610498919061125a565b90915550506040516001600160a01b0384169082156108fc029083906000818181858888f193505050501580156104d3573d6000803e3d6000fd5b50604080516001600160a01b0385168152602081018390527fdf20fd1e76bc69d672e4814fafb2c449bba3a5369d8359adf9e05e6fde87b056910160405180910390a1505050565b6060600480548060200260200160405190810160405280929190818152602001828054801561057357602002820191906000526020600020905b81546001600160a01b03168152600190910190602001808311610555575b5050505050905090565b6004818154811061058d57600080fd5b6000918252602090912001546001600160a01b0316905081565b60045460609060009067ffffffffffffffff8111156105c8576105c8611068565b6040519080825280602002602001820160405280156105f1578160200160208202803683370190505b50905060005b60045460ff8216101561066a576106388460048360ff168154811061061e5761061e6112bd565b6000918252602090912001546001600160a01b0316610716565b828260ff168151811061064d5761064d6112bd565b602090810291909101015280610662816112d3565b9150506105f7565b5092915050565b6001600160a01b03918216600090815260066020908152604080832093909416825291909152205490565b6001600160a01b0381166000908152600260205260408120546106d15760405162461bcd60e51b81526004016103ea906111fe565b60006106dc60015490565b6106e6904761125a565b9050600061070e8483610430876001600160a01b031660009081526003602052604090205490565b949350505050565b6001600160a01b03811660009081526002602052604081205461074b5760405162461bcd60e51b81526004016103ea906111fe565b6001600160a01b0383166000908152600560205260408120546040516370a0823160e01b81523060048201526001600160a01b038616906370a0823190602401602060405180830381865afa1580156107a8573d6000803e3d6000fd5b505050506040513d601f19601f820116820180604052508101906107cc91906112f2565b6107d6919061125a565b905060006107e984836104308888610671565b95945050505050565b6001600160a01b0381166000908152600260205260409020546108275760405162461bcd60e51b81526004016103ea906111fe565b6001600160a01b0382166000908152600560205260408120546040516370a0823160e01b81523060048201526001600160a01b038516906370a0823190602401602060405180830381865afa158015610884573d6000803e3d6000fd5b505050506040513d601f19601f820116820180604052508101906108a891906112f2565b6108b2919061125a565b905060006108c583836104308787610671565b9050806000036108e75760405162461bcd60e51b81526004016103ea90611272565b6001600160a01b0380851660009081526006602090815260408083209387168352929052908120805483929061091e90849061125a565b90915550506001600160a01b0384166000908152600560205260408120805483929061094b90849061125a565b9091555061095c9050848483610b44565b604080516001600160a01b038581168252602082018490528616917f3be5b7a71e84ed12875d241991c70855ac5817d847039e17a9d895c1ceb0f18a910160405180910390a250505050565b60045460609060009067ffffffffffffffff8111156109c9576109c9611068565b6040519080825280602002602001820160405280156109f2578160200160208202803683370190505b50905060005b60045460ff82161015610a6a57610a3860048260ff1681548110610a1e57610a1e6112bd565b6000918252602090912001546001600160a01b031661069c565b828260ff1681518110610a4d57610a4d6112bd565b602090810291909101015280610a62816112d3565b9150506109f8565b50919050565b60005b8251811015610aca57610ab8838281518110610a9157610a916112bd565b6020026020010151838381518110610aab57610aab6112bd565b6020026020010151610b96565b80610ac28161130b565b915050610a73565b505050565b600060048281548110610ae457610ae46112bd565b6000918252602090912001546001600160a01b031692915050565b600080546001600160a01b038516825260026020526040822054839190610b269086611324565b610b309190611343565b610b3a9190611365565b90505b9392505050565b604080516001600160a01b038416602482015260448082018490528251808303909101815260649091019091526020810180516001600160e01b031663a9059cbb60e01b179052610aca908490610d7a565b6001600160a01b038216610c015760405162461bcd60e51b815260206004820152602c60248201527f5061796d656e7453706c69747465723a206163636f756e74206973207468652060448201526b7a65726f206164647265737360a01b60648201526084016103ea565b60008111610c515760405162461bcd60e51b815260206004820152601d60248201527f5061796d656e7453706c69747465723a2073686172657320617265203000000060448201526064016103ea565b6001600160a01b03821660009081526002602052604090205415610ccb5760405162461bcd60e51b815260206004820152602b60248201527f5061796d656e7453706c69747465723a206163636f756e7420616c726561647960448201526a206861732073686172657360a81b60648201526084016103ea565b60048054600181019091557f8a35acfbc15ff81a39ae7d344fd709f28e8600b4aa8c65c6b64bfe7fe36bd19b0180546001600160a01b0319166001600160a01b038416908117909155600090815260026020526040812082905554610d3190829061125a565b600055604080516001600160a01b0384168152602081018390527f40c340f65e17194d14ddddb073d3c9f888e3cb52b5aae0c6c7706b4fbc905fac910160405180910390a15050565b6000610dcf826040518060400160405280602081526020017f5361666545524332303a206c6f772d6c6576656c2063616c6c206661696c6564815250856001600160a01b0316610e4c9092919063ffffffff16565b805190915015610aca5780806020019051810190610ded919061137c565b610aca5760405162461bcd60e51b815260206004820152602a60248201527f5361666545524332303a204552433230206f7065726174696f6e20646964206e6044820152691bdd081cdd58d8d9595960b21b60648201526084016103ea565b6060610b3a8484600085856001600160a01b0385163b610eae5760405162461bcd60e51b815260206004820152601d60248201527f416464726573733a2063616c6c20746f206e6f6e2d636f6e747261637400000060448201526064016103ea565b600080866001600160a01b03168587604051610eca91906113ce565b60006040518083038185875af1925050503d8060008114610f07576040519150601f19603f3d011682016040523d82523d6000602084013e610f0c565b606091505b5091509150610f1c828286610f27565b979650505050505050565b60608315610f36575081610b3d565b825115610f465782518084602001fd5b8160405162461bcd60e51b81526004016103ea91906113ea565b80356001600160a01b0381168114610f7757600080fd5b919050565b600060208284031215610f8e57600080fd5b610b3d82610f60565b6020808252825182820181905260009190848201906040850190845b81811015610fd85783516001600160a01b031683529284019291840191600101610fb3565b50909695505050505050565b600060208284031215610ff657600080fd5b5035919050565b6020808252825182820181905260009190848201906040850190845b81811015610fd857835183529284019291840191600101611019565b6000806040838503121561104857600080fd5b61105183610f60565b915061105f60208401610f60565b90509250929050565b634e487b7160e01b600052604160045260246000fd5b604051601f8201601f1916810167ffffffffffffffff811182821017156110a7576110a7611068565b604052919050565b600067ffffffffffffffff8211156110c9576110c9611068565b5060051b60200190565b600082601f8301126110e457600080fd5b813560206110f96110f4836110af565b61107e565b82815260059290921b8401810191818101908684111561111857600080fd5b8286015b84811015611133578035835291830191830161111c565b509695505050505050565b6000806040838503121561115157600080fd5b823567ffffffffffffffff8082111561116957600080fd5b818501915085601f83011261117d57600080fd5b8135602061118d6110f4836110af565b82815260059290921b840181019181810190898411156111ac57600080fd5b948201945b838610156111d1576111c286610f60565b825294820194908201906111b1565b965050860135925050808211156111e757600080fd5b506111f4858286016110d3565b9150509250929050565b60208082526026908201527f5061796d656e7453706c69747465723a206163636f756e7420686173206e6f2060408201526573686172657360d01b606082015260800190565b634e487b7160e01b600052601160045260246000fd5b6000821982111561126d5761126d611244565b500190565b6020808252602b908201527f5061796d656e7453706c69747465723a206163636f756e74206973206e6f742060408201526a191d59481c185e5b595b9d60aa1b606082015260800190565b634e487b7160e01b600052603260045260246000fd5b600060ff821660ff81036112e9576112e9611244565b60010192915050565b60006020828403121561130457600080fd5b5051919050565b60006001820161131d5761131d611244565b5060010190565b600081600019048311821515161561133e5761133e611244565b500290565b60008261136057634e487b7160e01b600052601260045260246000fd5b500490565b60008282101561137757611377611244565b500390565b60006020828403121561138e57600080fd5b81518015158114610b3d57600080fd5b60005b838110156113b95781810151838201526020016113a1565b838111156113c8576000848401525b50505050565b600082516113e081846020870161139e565b9190910192915050565b602081526000825180602084015261140981604085016020870161139e565b601f01601f1916919091016040019291505056fea264697066735822122047dfb072f6cbdd376feba7e4c0ad4ac3af8e1bf7787306a58e3d96eef8d8e75364736f6c634300080e0033",
    "linkReferences": {}
  },
  "methodIdentifiers": {
    "_tax()": "e751d508",
    "getBalanceOf(address,address)": "53290b44",
    "getBalanceOfTokens(address,address,address)": "2b0f73af",
    "getBalances(address)": "c84aae17",
    "getBalancesTokens(address,address)": "c729e4fb",
    "getCreatedSplittersOf(address)": "478f447c",
    "getPayeeIndex(address,uint256)": "a8d69f30",
    "getPayees(address)": "1830f9cf",
    "getRegisteredCountOf(address)": "4402c814",
    "getRegisteredSplittersOf(address)": "8fe8c3e3",
    "getShares(address)": "f04da65b",
    "getSharesOfAccount(address,address)": "7e1daef9",
    "getSplitterImplementation()": "dae29906",
    "getTax()": "54b762a6",
    "getTotalShares(address)": "f20d8634",
    "newSplitter(address[],uint256[])": "739046f3",
    "owner()": "8da5cb5b",
    "release(address,address)": "48b75044",
    "releaseAll(address)": "580fc80a",
    "releaseAllSplitters(address)": "79815a9a",
    "releaseAllSplittersTokens(address,address)": "b632b3cb",
    "releaseAllTokens(address,address)": "f9f22c23",
    "releaseTokens(address,address,address)": "f3d57954",
    "renounceOwnership()": "715018a6",
    "setTax(uint256)": "2e5bb6ff",
    "transferOwnership(address)": "f2fde38b",
    "withdraw(address)": "51cff8d9"
  },
  "id": 16
}