{
  "abi": [
    {
      "inputs": [],
      "stateMutability": "nonpayable",
      "type": "constructor"
    },
    {
      "anonymous": false,
      "inputs": [
        {
          "indexed": true,
          "internalType": "address",
          "name": "previousOwner",
          "type": "address"
        },
        {
          "indexed": true,
          "internalType": "address",
          "name": "newOwner",
          "type": "address"
        }
      ],
      "name": "OwnershipTransferred",
      "type": "event"
    },
    {
      "anonymous": false,
      "inputs": [
        {
          "indexed": false,
          "internalType": "address",
          "name": "newSplitter",
          "type": "address"
        }
      ],
      "name": "PaymentSplitterCreated",
      "type": "event"
    },
    {
      "inputs": [],
      "name": "_tax",
      "outputs": [
        {
          "internalType": "uint256",
          "name": "",
          "type": "uint256"
        }
      ],
      "stateMutability": "view",
      "type": "function"
    },
    {
      "inputs": [
        {
          "internalType": "address",
          "name": "splitter",
          "type": "address"
        },
        {
          "internalType": "address",
          "name": "account",
          "type": "address"
        }
      ],
      "name": "balanceOf",
      "outputs": [
        {
          "internalType": "uint256",
          "name": "",
          "type": "uint256"
        }
      ],
      "stateMutability": "view",
      "type": "function"
    },
    {
      "inputs": [
        {
          "internalType": "address",
          "name": "splitter",
          "type": "address"
        },
        {
          "internalType": "address",
          "name": "token",
          "type": "address"
        },
        {
          "internalType": "address",
          "name": "account",
          "type": "address"
        }
      ],
      "name": "balanceOfTokens",
      "outputs": [
        {
          "internalType": "uint256",
          "name": "",
          "type": "uint256"
        }
      ],
      "stateMutability": "view",
      "type": "function"
    },
    {
      "inputs": [
        {
          "internalType": "address",
          "name": "splitter",
          "type": "address"
        }
      ],
      "name": "balances",
      "outputs": [
        {
          "internalType": "uint256[]",
          "name": "",
          "type": "uint256[]"
        }
      ],
      "stateMutability": "view",
      "type": "function"
    },
    {
      "inputs": [
        {
          "internalType": "address",
          "name": "splitter",
          "type": "address"
        },
        {
          "internalType": "address",
          "name": "token",
          "type": "address"
        }
      ],
      "name": "balancesTokens",
      "outputs": [
        {
          "internalType": "uint256[]",
          "name": "",
          "type": "uint256[]"
        }
      ],
      "stateMutability": "view",
      "type": "function"
    },
    {
      "inputs": [
        {
          "internalType": "address",
          "name": "target",
          "type": "address"
        }
      ],
      "name": "createdSplittersOf",
      "outputs": [
        {
          "internalType": "address[]",
          "name": "",
          "type": "address[]"
        }
      ],
      "stateMutability": "view",
      "type": "function"
    },
    {
      "inputs": [],
      "name": "getTax",
      "outputs": [
        {
          "internalType": "uint256",
          "name": "",
          "type": "uint256"
        }
      ],
      "stateMutability": "view",
      "type": "function"
    },
    {
      "inputs": [
        {
          "internalType": "address[]",
          "name": "payees",
          "type": "address[]"
        },
        {
          "internalType": "uint256[]",
          "name": "shares",
          "type": "uint256[]"
        }
      ],
      "name": "newSplitter",
      "outputs": [
        {
          "internalType": "address",
          "name": "",
          "type": "address"
        }
      ],
      "stateMutability": "payable",
      "type": "function"
    },
    {
      "inputs": [],
      "name": "owner",
      "outputs": [
        {
          "internalType": "address",
          "name": "",
          "type": "address"
        }
      ],
      "stateMutability": "view",
      "type": "function"
    },
    {
      "inputs": [
        {
          "internalType": "address",
          "name": "splitter",
          "type": "address"
        },
        {
          "internalType": "uint256",
          "name": "index",
          "type": "uint256"
        }
      ],
      "name": "payeeIndex",
      "outputs": [
        {
          "internalType": "address",
          "name": "",
          "type": "address"
        }
      ],
      "stateMutability": "view",
      "type": "function"
    },
    {
      "inputs": [
        {
          "internalType": "address",
          "name": "splitter",
          "type": "address"
        }
      ],
      "name": "payees",
      "outputs": [
        {
          "internalType": "address[]",
          "name": "",
          "type": "address[]"
        }
      ],
      "stateMutability": "view",
      "type": "function"
    },
    {
      "inputs": [
        {
          "internalType": "address",
          "name": "target",
          "type": "address"
        }
      ],
      "name": "registeredCountOf",
      "outputs": [
        {
          "internalType": "uint256",
          "name": "",
          "type": "uint256"
        }
      ],
      "stateMutability": "view",
      "type": "function"
    },
    {
      "inputs": [
        {
          "internalType": "address",
          "name": "target",
          "type": "address"
        }
      ],
      "name": "registeredSplittersOf",
      "outputs": [
        {
          "internalType": "address[]",
          "name": "",
          "type": "address[]"
        }
      ],
      "stateMutability": "view",
      "type": "function"
    },
    {
      "inputs": [
        {
          "internalType": "address",
          "name": "receiver",
          "type": "address"
        },
        {
          "internalType": "address",
          "name": "splitter",
          "type": "address"
        }
      ],
      "name": "release",
      "outputs": [],
      "stateMutability": "nonpayable",
      "type": "function"
    },
    {
      "inputs": [
        {
          "internalType": "address",
          "name": "splitter",
          "type": "address"
        }
      ],
      "name": "releaseAll",
      "outputs": [],
      "stateMutability": "nonpayable",
      "type": "function"
    },
    {
      "inputs": [
        {
          "internalType": "address",
          "name": "token",
          "type": "address"
        },
        {
          "internalType": "address",
          "name": "splitter",
          "type": "address"
        }
      ],
      "name": "releaseAllTokens",
      "outputs": [],
      "stateMutability": "nonpayable",
      "type": "function"
    },
    {
      "inputs": [
        {
          "internalType": "address payable",
          "name": "receiver",
          "type": "address"
        },
        {
          "internalType": "uint256",
          "name": "start",
          "type": "uint256"
        },
        {
          "internalType": "uint256",
          "name": "end",
          "type": "uint256"
        }
      ],
      "name": "releaseInRange",
      "outputs": [],
      "stateMutability": "nonpayable",
      "type": "function"
    },
    {
      "inputs": [
        {
          "internalType": "address",
          "name": "token",
          "type": "address"
        },
        {
          "internalType": "address",
          "name": "receiver",
          "type": "address"
        },
        {
          "internalType": "uint256",
          "name": "start",
          "type": "uint256"
        },
        {
          "internalType": "uint256",
          "name": "end",
          "type": "uint256"
        }
      ],
      "name": "releaseInRangeTokens",
      "outputs": [],
      "stateMutability": "nonpayable",
      "type": "function"
    },
    {
      "inputs": [
        {
          "internalType": "address",
          "name": "token",
          "type": "address"
        },
        {
          "internalType": "address",
          "name": "receiver",
          "type": "address"
        },
        {
          "internalType": "address",
          "name": "splitter",
          "type": "address"
        }
      ],
      "name": "releaseTokens",
      "outputs": [],
      "stateMutability": "nonpayable",
      "type": "function"
    },
    {
      "inputs": [],
      "name": "renounceOwnership",
      "outputs": [],
      "stateMutability": "nonpayable",
      "type": "function"
    },
    {
      "inputs": [
        {
          "internalType": "uint256",
          "name": "tax",
          "type": "uint256"
        }
      ],
      "name": "setTax",
      "outputs": [],
      "stateMutability": "nonpayable",
      "type": "function"
    },
    {
      "inputs": [
        {
          "internalType": "address",
          "name": "splitter",
          "type": "address"
        }
      ],
      "name": "shares",
      "outputs": [
        {
          "internalType": "uint256[]",
          "name": "",
          "type": "uint256[]"
        }
      ],
      "stateMutability": "view",
      "type": "function"
    },
    {
      "inputs": [
        {
          "internalType": "address",
          "name": "splitter",
          "type": "address"
        },
        {
          "internalType": "address",
          "name": "account",
          "type": "address"
        }
      ],
      "name": "sharesOfAccount",
      "outputs": [
        {
          "internalType": "uint256",
          "name": "",
          "type": "uint256"
        }
      ],
      "stateMutability": "view",
      "type": "function"
    },
    {
      "inputs": [],
      "name": "splitterImplementation",
      "outputs": [
        {
          "internalType": "address",
          "name": "",
          "type": "address"
        }
      ],
      "stateMutability": "view",
      "type": "function"
    },
    {
      "inputs": [
        {
          "internalType": "address",
          "name": "splitter",
          "type": "address"
        }
      ],
      "name": "totalShares",
      "outputs": [
        {
          "internalType": "uint256",
          "name": "",
          "type": "uint256"
        }
      ],
      "stateMutability": "view",
      "type": "function"
    },
    {
      "inputs": [
        {
          "internalType": "address",
          "name": "newOwner",
          "type": "address"
        }
      ],
      "name": "transferOwnership",
      "outputs": [],
      "stateMutability": "nonpayable",
      "type": "function"
    },
    {
      "inputs": [
        {
          "internalType": "uint256",
          "name": "_amount",
          "type": "uint256"
        }
      ],
      "name": "withdraw",
      "outputs": [],
      "stateMutability": "nonpayable",
      "type": "function"
    },
    {
      "inputs": [],
      "name": "withdrawAll",
      "outputs": [],
      "stateMutability": "nonpayable",
      "type": "function"
    }
  ],
  "bytecode": {
    "object": "0x6080604052600180553480156200001557600080fd5b506200002133620001cf565b600060405162000031906200021f565b604051809103906000f0801580156200004e573d6000803e3d6000fd5b50604080516001808252818301909252919250600091906020808301908036833701905050905030816000815181106200008c576200008c6200022d565b6001600160a01b039290921660209283029190910190910152604080516001808252818301909252600091816020016020820280368337019050509050600181600081518110620000e157620000e16200022d565b6020908102919091010152604051637fbbe46f60e01b81526001600160a01b03841690637fbbe46f906200011c908590859060040162000243565b600060405180830381600087803b1580156200013757600080fd5b505af11580156200014c573d6000803e3d6000fd5b5050506001600160a01b03909316600081815260026020908152604080832080546001600160a01b03199081168617909155308085526003845282852080546001818101835591875285872001805484168817905590855260048452918420805492830181558452919092209091018054909116909117905550620002cb915050565b600080546001600160a01b038381166001600160a01b0319831681178455604051919092169283917f8be0079c531659141344cd1fd0a4f28419497f9722a3daafe3b4186f6b6457e09190a35050565b6113de806200231383390190565b634e487b7160e01b600052603260045260246000fd5b604080825283519082018190526000906020906060840190828701845b82811015620002875781516001600160a01b03168452928401929084019060010162000260565b5050508381038285015284518082528583019183019060005b81811015620002be57835183529284019291840191600101620002a0565b5090979650505050505050565b61203880620002db6000396000f3fe6080604052600436106101b65760003560e01c8063853828b6116100ec578063e751d5081161008a578063f54fc10c11610064578063f54fc10c146104d3578063f7888aec146104f3578063f93d378814610513578063f9f22c231461053357600080fd5b8063e751d5081461047d578063f2fde38b14610493578063f3d57954146104b357600080fd5b8063aeb55cd4116100c6578063aeb55cd414610408578063bf6b874e14610428578063ce7c2ac214610448578063e63db9b21461046857600080fd5b8063853828b6146103b55780638da5cb5b146103ca57806393ba837f146103e857600080fd5b806354b762a6116101595780636fc06875116101335780636fc0687514610335578063715018a61461036d578063739046f3146103825780637e3b6d9e1461039557600080fd5b806354b762a6146102e0578063580fc80a146102f55780636892e0f81461031557600080fd5b80632e1a7d4d116101955780632e1a7d4d146102515780632e5bb6ff14610273578063310441fa1461029357806348b75044146102c057600080fd5b8062415024146101bb5780630b4c455a146101ee57806327e235e314610224575b600080fd5b3480156101c757600080fd5b506101db6101d6366004611ab8565b610553565b6040519081526020015b60405180910390f35b3480156101fa57600080fd5b506101db610209366004611af1565b6001600160a01b031660009081526004602052604090205490565b34801561023057600080fd5b5061024461023f366004611af1565b6105d8565b6040516101e59190611b49565b34801561025d57600080fd5b5061027161026c366004611b5c565b610818565b005b34801561027f57600080fd5b5061027161028e366004611b5c565b610889565b34801561029f57600080fd5b506102b36102ae366004611af1565b6108b8565b6040516101e59190611bae565b3480156102cc57600080fd5b506102716102db366004611ab8565b61093d565b3480156102ec57600080fd5b506001546101db565b34801561030157600080fd5b50610271610310366004611af1565b6109af565b34801561032157600080fd5b506102b3610330366004611af1565b610b11565b34801561034157600080fd5b50610355610350366004611bc1565b610b87565b6040516001600160a01b0390911681526020016101e5565b34801561037957600080fd5b50610271610c03565b610355610390366004611cc3565b610c39565b3480156103a157600080fd5b506102716103b0366004611d85565b610d9c565b3480156103c157600080fd5b50610271610e74565b3480156103d657600080fd5b506000546001600160a01b0316610355565b3480156103f457600080fd5b50610244610403366004611ab8565b610ecd565b34801561041457600080fd5b506102b3610423366004611af1565b611117565b34801561043457600080fd5b506101db610443366004611af1565b61118b565b34801561045457600080fd5b50610244610463366004611af1565b611206565b34801561047457600080fd5b5061035561143e565b34801561048957600080fd5b506101db60015481565b34801561049f57600080fd5b506102716104ae366004611af1565b611477565b3480156104bf57600080fd5b506102716104ce366004611dcb565b61150f565b3480156104df57600080fd5b506101db6104ee366004611dcb565b61158a565b3480156104ff57600080fd5b506101db61050e366004611ab8565b611617565b34801561051f57600080fd5b5061027161052e366004611e16565b611658565b34801561053f57600080fd5b5061027161054e366004611ab8565b611727565b6001600160a01b0382811660009081526002602052604080822054905163673e156160e11b815284841660048201529192169063ce7c2ac2906024015b602060405180830381865afa1580156105ad573d6000803e3d6000fd5b505050506040513d601f19601f820116820180604052508101906105d19190611e4b565b9392505050565b6001600160a01b03808216600090815260026020908152604080832054815163e919ecad60e01b81529151606095919091169392849263e919ecad92600480830193928290030181865afa158015610634573d6000803e3d6000fd5b505050506040513d601f19601f820116820180604052508101906106589190611e4b565b67ffffffffffffffff81111561067057610670611bed565b604051908082528060200260200182016040528015610699578160200160208202803683370190505b50905060005b826001600160a01b031663e919ecad6040518163ffffffff1660e01b8152600401602060405180830381865afa1580156106dd573d6000803e3d6000fd5b505050506040513d601f19601f820116820180604052508101906107019190611e4b565b811015610810576040516326b0538f60e21b8152600481018290526001600160a01b038416906370a08231908290639ac14e3c90602401602060405180830381865afa158015610755573d6000803e3d6000fd5b505050506040513d601f19601f820116820180604052508101906107799190611e64565b6040516001600160e01b031960e084901b1681526001600160a01b039091166004820152602401602060405180830381865afa1580156107bd573d6000803e3d6000fd5b505050506040513d601f19601f820116820180604052508101906107e19190611e4b565b8282815181106107f3576107f3611e81565b60209081029190910101528061080881611e97565b91505061069f565b509392505050565b6000546001600160a01b0316331461084b5760405162461bcd60e51b815260040161084290611ebe565b60405180910390fd5b8047101561085857600080fd5b604051339082156108fc029083906000818181858888f19350505050158015610885573d6000803e3d6000fd5b5050565b6000546001600160a01b031633146108b35760405162461bcd60e51b815260040161084290611ebe565b600155565b6001600160a01b03808216600090815260026020526040808220548151632740435560e11b815291516060949190911692634e8086aa92600480820193918290030181865afa15801561090f573d6000803e3d6000fd5b505050506040513d6000823e601f3d908101601f191682016040526109379190810190611ef3565b92915050565b6001600160a01b0381811660009081526002602052604090819020549051631916558760e01b81528483166004820152911690631916558790602401600060405180830381600087803b15801561099357600080fd5b505af11580156109a7573d6000803e3d6000fd5b505050505050565b6001600160a01b03808216600090815260026020526040808220548151632740435560e11b8152915192931691634e8086aa9160048082019286929091908290030181865afa158015610a06573d6000803e3d6000fd5b505050506040513d6000823e601f3d908101601f19168201604052610a2e9190810190611ef3565b90506000815111610a515760405162461bcd60e51b815260040161084290611f8d565b60005b8151811015610b0c576001600160a01b038084166000908152600260205260409020548351911690631916558790849084908110610a9457610a94611e81565b60200260200101516040518263ffffffff1660e01b8152600401610ac791906001600160a01b0391909116815260200190565b600060405180830381600087803b158015610ae157600080fd5b505af1158015610af5573d6000803e3d6000fd5b505050508080610b0490611e97565b915050610a54565b505050565b6001600160a01b038116600090815260036020908152604091829020805483518184028101840190945280845260609392830182828015610b7b57602002820191906000526020600020905b81546001600160a01b03168152600190910190602001808311610b5d575b50505050509050919050565b6001600160a01b038281166000908152600260205260408082205490516326b0538f60e21b81526004810185905291921690639ac14e3c90602401602060405180830381865afa158015610bdf573d6000803e3d6000fd5b505050506040513d601f19601f820116820180604052508101906105d19190611e64565b6000546001600160a01b03163314610c2d5760405162461bcd60e51b815260040161084290611ebe565b610c37600061186c565b565b60008151835114610cb25760405162461bcd60e51b815260206004820152603f60248201527f5061796d656e7453706c69747465724d616e61676572436c6f6e65733a20706160448201527f7965657320616e6420736861726573206c656e677468206d69736d61746368006064820152608401610842565b6000835111610cd35760405162461bcd60e51b815260040161084290611f8d565b6001543414610d4a5760405162461bcd60e51b815260206004820152603c60248201527f5061796d656e7453706c69747465724d616e61676572436c6f6e65733a206d7360448201527f672e76616c7565206d75737420626520657175616c20746f20746178000000006064820152608401610842565b6000610d5684846118bc565b6040516001600160a01b03821681529091507f30af7bdf04bd12c43e1faf8f5ac72234cf440fd5c945a61362ad54a1cd568de39060200160405180910390a19392505050565b815b81811015610e6d576001600160a01b03841660009081526004602052604081208054600292919084908110610dd557610dd5611e81565b6000918252602080832091909101546001600160a01b0390811684529083019390935260409182019020549051633a189da560e11b8152878316600482015286831660248201529116906374313b4a90604401600060405180830381600087803b158015610e4257600080fd5b505af1158015610e56573d6000803e3d6000fd5b505050508080610e6590611e97565b915050610d9e565b5050505050565b6000546001600160a01b03163314610e9e5760405162461bcd60e51b815260040161084290611ebe565b60405133904780156108fc02916000818181858888f19350505050158015610eca573d6000803e3d6000fd5b50565b6001600160a01b03808316600090815260026020908152604080832054815163e919ecad60e01b81529151606095919091169392849263e919ecad92600480830193928290030181865afa158015610f29573d6000803e3d6000fd5b505050506040513d601f19601f82011682018060405250810190610f4d9190611e4b565b67ffffffffffffffff811115610f6557610f65611bed565b604051908082528060200260200182016040528015610f8e578160200160208202803683370190505b50905060005b826001600160a01b031663e919ecad6040518163ffffffff1660e01b8152600401602060405180830381865afa158015610fd2573d6000803e3d6000fd5b505050506040513d601f19601f82011682018060405250810190610ff69190611e4b565b81101561110e576040516326b0538f60e21b8152600481018290526001600160a01b038416906372cd383a9087908390639ac14e3c90602401602060405180830381865afa15801561104c573d6000803e3d6000fd5b505050506040513d601f19601f820116820180604052508101906110709190611e64565b6040516001600160e01b031960e085901b1681526001600160a01b03928316600482015291166024820152604401602060405180830381865afa1580156110bb573d6000803e3d6000fd5b505050506040513d601f19601f820116820180604052508101906110df9190611e4b565b8282815181106110f1576110f1611e81565b60209081029190910101528061110681611e97565b915050610f94565b50949350505050565b6001600160a01b038116600090815260046020908152604091829020805483518184028101840190945280845260609392830182828015610b7b576020028201919060005260206000209081546001600160a01b03168152600190910190602001808311610b5d5750505050509050919050565b6001600160a01b038082166000908152600260209081526040808320548151633a98ef3960e01b8152915193941692633a98ef39926004808401939192918290030181865afa1580156111e2573d6000803e3d6000fd5b505050506040513d601f19601f820116820180604052508101906109379190611e4b565b6001600160a01b03808216600090815260026020908152604080832054815163e919ecad60e01b81529151606095919091169392849263e919ecad92600480830193928290030181865afa158015611262573d6000803e3d6000fd5b505050506040513d601f19601f820116820180604052508101906112869190611e4b565b67ffffffffffffffff81111561129e5761129e611bed565b6040519080825280602002602001820160405280156112c7578160200160208202803683370190505b50905060005b826001600160a01b031663e919ecad6040518163ffffffff1660e01b8152600401602060405180830381865afa15801561130b573d6000803e3d6000fd5b505050506040513d601f19601f8201168201806040525081019061132f9190611e4b565b811015610810576040516326b0538f60e21b8152600481018290526001600160a01b0384169063ce7c2ac2908290639ac14e3c90602401602060405180830381865afa158015611383573d6000803e3d6000fd5b505050506040513d601f19601f820116820180604052508101906113a79190611e64565b6040516001600160e01b031960e084901b1681526001600160a01b039091166004820152602401602060405180830381865afa1580156113eb573d6000803e3d6000fd5b505050506040513d601f19601f8201168201806040525081019061140f9190611e4b565b82828151811061142157611421611e81565b60209081029190910101528061143681611e97565b9150506112cd565b3060009081526003602052604081208054829061145d5761145d611e81565b6000918252602090912001546001600160a01b0316919050565b6000546001600160a01b031633146114a15760405162461bcd60e51b815260040161084290611ebe565b6001600160a01b0381166115065760405162461bcd60e51b815260206004820152602660248201527f4f776e61626c653a206e6577206f776e657220697320746865207a65726f206160448201526564647265737360d01b6064820152608401610842565b610eca8161186c565b6001600160a01b0381811660009081526002602052604090819020549051633a189da560e11b8152858316600482015284831660248201529116906374313b4a90604401600060405180830381600087803b15801561156d57600080fd5b505af1158015611581573d6000803e3d6000fd5b50505050505050565b6001600160a01b038381166000908152600260205260408082205490516339669c1d60e11b815285841660048201528484166024820152919216906372cd383a90604401602060405180830381865afa1580156115eb573d6000803e3d6000fd5b505050506040513d601f19601f8201168201806040525081019061160f9190611e4b565b949350505050565b6001600160a01b038281166000908152600260205260408082205490516370a0823160e01b81528484166004820152919216906370a0823190602401610590565b815b81811015611721576001600160a01b0384166000908152600460205260408120805460029291908490811061169157611691611e81565b6000918252602080832091909101546001600160a01b0390811684529083019390935260409182019020549051631916558760e01b81528683166004820152911690631916558790602401600060405180830381600087803b1580156116f657600080fd5b505af115801561170a573d6000803e3d6000fd5b50505050808061171990611e97565b91505061165a565b50505050565b6001600160a01b03808216600090815260026020526040808220548151632740435560e11b8152915192931691634e8086aa9160048082019286929091908290030181865afa15801561177e573d6000803e3d6000fd5b505050506040513d6000823e601f3d908101601f191682016040526117a69190810190611ef3565b905060005b8151811015611721576001600160a01b0380841660009081526002602052604090205483519116906374313b4a9086908590859081106117ed576117ed611e81565b60200260200101516040518363ffffffff1660e01b81526004016118279291906001600160a01b0392831681529116602082015260400190565b600060405180830381600087803b15801561184157600080fd5b505af1158015611855573d6000803e3d6000fd5b50505050808061186490611e97565b9150506117ab565b600080546001600160a01b038381166001600160a01b0319831681178455604051919092169283917f8be0079c531659141344cd1fd0a4f28419497f9722a3daafe3b4186f6b6457e09190a35050565b6000806118cf6118ca61143e565b611a06565b604051637fbbe46f60e01b81529091506001600160a01b03821690637fbbe46f906119009087908790600401611fd4565b600060405180830381600087803b15801561191a57600080fd5b505af115801561192e573d6000803e3d6000fd5b505050506001600160a01b038116600081815260026020908152604080832080546001600160a01b0319908116861790915533845260038352908320805460018101825590845291832090910180549091169092179091555b845181101561081057600460008683815181106119a6576119a6611e81565b6020908102919091018101516001600160a01b039081168352828201939093526040909101600090812080546001810182559082529190200180546001600160a01b031916918416919091179055806119fe81611e97565b915050611987565b6000604051733d602d80600a3d3981f3363d3d373d3d3d363d7360601b81528260601b60148201526e5af43d82803e903d91602b57fd5bf360881b60288201526037816000f09150506001600160a01b038116611a9e5760405162461bcd60e51b8152602060048201526016602482015275115490cc4c4d8dce8818dc99585d194819985a5b195960521b6044820152606401610842565b919050565b6001600160a01b0381168114610eca57600080fd5b60008060408385031215611acb57600080fd5b8235611ad681611aa3565b91506020830135611ae681611aa3565b809150509250929050565b600060208284031215611b0357600080fd5b81356105d181611aa3565b600081518084526020808501945080840160005b83811015611b3e57815187529582019590820190600101611b22565b509495945050505050565b6020815260006105d16020830184611b0e565b600060208284031215611b6e57600080fd5b5035919050565b600081518084526020808501945080840160005b83811015611b3e5781516001600160a01b031687529582019590820190600101611b89565b6020815260006105d16020830184611b75565b60008060408385031215611bd457600080fd5b8235611bdf81611aa3565b946020939093013593505050565b634e487b7160e01b600052604160045260246000fd5b604051601f8201601f1916810167ffffffffffffffff81118282101715611c2c57611c2c611bed565b604052919050565b600067ffffffffffffffff821115611c4e57611c4e611bed565b5060051b60200190565b600082601f830112611c6957600080fd5b81356020611c7e611c7983611c34565b611c03565b82815260059290921b84018101918181019086841115611c9d57600080fd5b8286015b84811015611cb85780358352918301918301611ca1565b509695505050505050565b60008060408385031215611cd657600080fd5b823567ffffffffffffffff80821115611cee57600080fd5b818501915085601f830112611d0257600080fd5b81356020611d12611c7983611c34565b82815260059290921b84018101918181019089841115611d3157600080fd5b948201945b83861015611d58578535611d4981611aa3565b82529482019490820190611d36565b96505086013592505080821115611d6e57600080fd5b50611d7b85828601611c58565b9150509250929050565b60008060008060808587031215611d9b57600080fd5b8435611da681611aa3565b93506020850135611db681611aa3565b93969395505050506040820135916060013590565b600080600060608486031215611de057600080fd5b8335611deb81611aa3565b92506020840135611dfb81611aa3565b91506040840135611e0b81611aa3565b809150509250925092565b600080600060608486031215611e2b57600080fd5b8335611e3681611aa3565b95602085013595506040909401359392505050565b600060208284031215611e5d57600080fd5b5051919050565b600060208284031215611e7657600080fd5b81516105d181611aa3565b634e487b7160e01b600052603260045260246000fd5b600060018201611eb757634e487b7160e01b600052601160045260246000fd5b5060010190565b6020808252818101527f4f776e61626c653a2063616c6c6572206973206e6f7420746865206f776e6572604082015260600190565b60006020808385031215611f0657600080fd5b825167ffffffffffffffff811115611f1d57600080fd5b8301601f81018513611f2e57600080fd5b8051611f3c611c7982611c34565b81815260059190911b82018301908381019087831115611f5b57600080fd5b928401925b82841015611f82578351611f7381611aa3565b82529284019290840190611f60565b979650505050505050565b60208082526027908201527f5061796d656e7453706c69747465724d616e61676572436c6f6e65733a206e6f6040820152662070617965657360c81b606082015260800190565b604081526000611fe76040830185611b75565b8281036020840152611ff98185611b0e565b9594505050505056fea264697066735822122026519dc79e6095eb66b66399a85af58c8eb2d2bbe2113855a18155178849847e64736f6c634300080e0033608060405234801561001057600080fd5b506113be806100206000396000f3fe6080604052600436106100ec5760003560e01c806374313b4a1161008a5780639ac14e3c116100595780639ac14e3c146102d9578063ce7c2ac2146102f9578063e33b7de31461032f578063e919ecad1461034457600080fd5b806374313b4a1461023a5780637fbbe46f1461025a578063820be89e1461026d5780639852595c146102a357600080fd5b80634e8086aa116100c65780634e8086aa146101b85780636625889f146101da57806370a08231146101fa57806372cd383a1461021a57600080fd5b8063191655871461013a578063283248be1461015c5780633a98ef391461019957600080fd5b36610135577f6ef95f06320e7a25a04a175ca677b7052bdd97131872c2192525a629f51be77033604080516001600160a01b0390921682523460208301520160405180910390a1005b600080fd5b34801561014657600080fd5b5061015a610155366004610f34565b610359565b005b34801561016857600080fd5b5061017c610177366004610f51565b610493565b6040516001600160a01b0390911681526020015b60405180910390f35b3480156101a557600080fd5b506000545b604051908152602001610190565b3480156101c457600080fd5b506101cd6104bd565b6040516101909190610f6a565b3480156101e657600080fd5b506101aa6101f5366004610fb7565b61051f565b34801561020657600080fd5b506101aa610215366004610f34565b61054a565b34801561022657600080fd5b506101aa610235366004610fb7565b6105c4565b34801561024657600080fd5b5061015a610255366004610fb7565b6106a0565b61015a6102683660046110c6565b610856565b34801561027957600080fd5b506101aa610288366004610f34565b6001600160a01b031660009081526005602052604090205490565b3480156102af57600080fd5b506101aa6102be366004610f34565b6001600160a01b031660009081526003602052604090205490565b3480156102e557600080fd5b5061017c6102f4366004610f51565b610972565b34801561030557600080fd5b506101aa610314366004610f34565b6001600160a01b031660009081526002602052604090205490565b34801561033b57600080fd5b506001546101aa565b34801561035057600080fd5b506004546101aa565b6001600160a01b0381166000908152600260205260409020546103975760405162461bcd60e51b815260040161038e90611188565b60405180910390fd5b60006103a260015490565b6103ac90476111e4565b905060006103d983836103d4866001600160a01b031660009081526003602052604090205490565b6109a2565b9050806000036103fb5760405162461bcd60e51b815260040161038e906111fc565b6001600160a01b038316600090815260036020526040812080548392906104239084906111e4565b92505081905550806001600082825461043c91906111e4565b9091555061044c905083826109e7565b604080516001600160a01b0385168152602081018390527fdf20fd1e76bc69d672e4814fafb2c449bba3a5369d8359adf9e05e6fde87b056910160405180910390a1505050565b600481815481106104a357600080fd5b6000918252602090912001546001600160a01b0316905081565b6060600480548060200260200160405190810160405280929190818152602001828054801561051557602002820191906000526020600020905b81546001600160a01b031681526001909101906020018083116104f7575b5050505050905090565b6001600160a01b03918216600090815260066020908152604080832093909416825291909152205490565b6001600160a01b03811660009081526002602052604081205461057f5760405162461bcd60e51b815260040161038e90611188565b600061058a60015490565b61059490476111e4565b905060006105bc84836103d4876001600160a01b031660009081526003602052604090205490565b949350505050565b6001600160a01b0381166000908152600260205260408120546105f95760405162461bcd60e51b815260040161038e90611188565b6001600160a01b0383166000908152600560205260408120546040516370a0823160e01b81523060048201526001600160a01b038616906370a0823190602401602060405180830381865afa158015610656573d6000803e3d6000fd5b505050506040513d601f19601f8201168201806040525081019061067a9190611247565b61068491906111e4565b9050600061069784836103d4888861051f565b95945050505050565b6001600160a01b0381166000908152600260205260409020546106d55760405162461bcd60e51b815260040161038e90611188565b6001600160a01b0382166000908152600560205260408120546040516370a0823160e01b81523060048201526001600160a01b038516906370a0823190602401602060405180830381865afa158015610732573d6000803e3d6000fd5b505050506040513d601f19601f820116820180604052508101906107569190611247565b61076091906111e4565b9050600061077383836103d4878761051f565b9050806000036107955760405162461bcd60e51b815260040161038e906111fc565b6001600160a01b038085166000908152600660209081526040808320938716835292905290812080548392906107cc9084906111e4565b90915550506001600160a01b038416600090815260056020526040812080548392906107f99084906111e4565b9091555061080a9050848483610b00565b604080516001600160a01b038581168252602082018490528616917f3be5b7a71e84ed12875d241991c70855ac5817d847039e17a9d895c1ceb0f18a910160405180910390a250505050565b80518251146108c25760405162461bcd60e51b815260206004820152603260248201527f5061796d656e7453706c69747465723a2070617965657320616e6420736861726044820152710cae640d8cadccee8d040dad2e6dac2e8c6d60731b606482015260840161038e565b60008251116109135760405162461bcd60e51b815260206004820152601a60248201527f5061796d656e7453706c69747465723a206e6f20706179656573000000000000604482015260640161038e565b60005b825181101561096d5761095b83828151811061093457610934611260565b602002602001015183838151811061094e5761094e611260565b6020026020010151610b52565b8061096581611276565b915050610916565b505050565b60006004828154811061098757610987611260565b6000918252602090912001546001600160a01b031692915050565b600080546001600160a01b0385168252600260205260408220548391906109c9908661128f565b6109d391906112ae565b6109dd91906112d0565b90505b9392505050565b80471015610a375760405162461bcd60e51b815260206004820152601d60248201527f416464726573733a20696e73756666696369656e742062616c616e6365000000604482015260640161038e565b6000826001600160a01b03168260405160006040518083038185875af1925050503d8060008114610a84576040519150601f19603f3d011682016040523d82523d6000602084013e610a89565b606091505b505090508061096d5760405162461bcd60e51b815260206004820152603a60248201527f416464726573733a20756e61626c6520746f2073656e642076616c75652c207260448201527f6563697069656e74206d61792068617665207265766572746564000000000000606482015260840161038e565b604080516001600160a01b038416602482015260448082018490528251808303909101815260649091019091526020810180516001600160e01b031663a9059cbb60e01b17905261096d908490610d36565b6001600160a01b038216610bbd5760405162461bcd60e51b815260206004820152602c60248201527f5061796d656e7453706c69747465723a206163636f756e74206973207468652060448201526b7a65726f206164647265737360a01b606482015260840161038e565b60008111610c0d5760405162461bcd60e51b815260206004820152601d60248201527f5061796d656e7453706c69747465723a20736861726573206172652030000000604482015260640161038e565b6001600160a01b03821660009081526002602052604090205415610c875760405162461bcd60e51b815260206004820152602b60248201527f5061796d656e7453706c69747465723a206163636f756e7420616c726561647960448201526a206861732073686172657360a81b606482015260840161038e565b60048054600181019091557f8a35acfbc15ff81a39ae7d344fd709f28e8600b4aa8c65c6b64bfe7fe36bd19b0180546001600160a01b0319166001600160a01b038416908117909155600090815260026020526040812082905554610ced9082906111e4565b600055604080516001600160a01b0384168152602081018390527f40c340f65e17194d14ddddb073d3c9f888e3cb52b5aae0c6c7706b4fbc905fac910160405180910390a15050565b6000610d8b826040518060400160405280602081526020017f5361666545524332303a206c6f772d6c6576656c2063616c6c206661696c6564815250856001600160a01b0316610e089092919063ffffffff16565b80519091501561096d5780806020019051810190610da991906112e7565b61096d5760405162461bcd60e51b815260206004820152602a60248201527f5361666545524332303a204552433230206f7065726174696f6e20646964206e6044820152691bdd081cdd58d8d9595960b21b606482015260840161038e565b60606109dd8484600085856001600160a01b0385163b610e6a5760405162461bcd60e51b815260206004820152601d60248201527f416464726573733a2063616c6c20746f206e6f6e2d636f6e7472616374000000604482015260640161038e565b600080866001600160a01b03168587604051610e869190611339565b60006040518083038185875af1925050503d8060008114610ec3576040519150601f19603f3d011682016040523d82523d6000602084013e610ec8565b606091505b5091509150610ed8828286610ee3565b979650505050505050565b60608315610ef25750816109e0565b825115610f025782518084602001fd5b8160405162461bcd60e51b815260040161038e9190611355565b6001600160a01b0381168114610f3157600080fd5b50565b600060208284031215610f4657600080fd5b81356109e081610f1c565b600060208284031215610f6357600080fd5b5035919050565b6020808252825182820181905260009190848201906040850190845b81811015610fab5783516001600160a01b031683529284019291840191600101610f86565b50909695505050505050565b60008060408385031215610fca57600080fd5b8235610fd581610f1c565b91506020830135610fe581610f1c565b809150509250929050565b634e487b7160e01b600052604160045260246000fd5b604051601f8201601f1916810167ffffffffffffffff8111828210171561102f5761102f610ff0565b604052919050565b600067ffffffffffffffff82111561105157611051610ff0565b5060051b60200190565b600082601f83011261106c57600080fd5b8135602061108161107c83611037565b611006565b82815260059290921b840181019181810190868411156110a057600080fd5b8286015b848110156110bb57803583529183019183016110a4565b509695505050505050565b600080604083850312156110d957600080fd5b823567ffffffffffffffff808211156110f157600080fd5b818501915085601f83011261110557600080fd5b8135602061111561107c83611037565b82815260059290921b8401810191818101908984111561113457600080fd5b948201945b8386101561115b57853561114c81610f1c565b82529482019490820190611139565b9650508601359250508082111561117157600080fd5b5061117e8582860161105b565b9150509250929050565b60208082526026908201527f5061796d656e7453706c69747465723a206163636f756e7420686173206e6f2060408201526573686172657360d01b606082015260800190565b634e487b7160e01b600052601160045260246000fd5b600082198211156111f7576111f76111ce565b500190565b6020808252602b908201527f5061796d656e7453706c69747465723a206163636f756e74206973206e6f742060408201526a191d59481c185e5b595b9d60aa1b606082015260800190565b60006020828403121561125957600080fd5b5051919050565b634e487b7160e01b600052603260045260246000fd5b600060018201611288576112886111ce565b5060010190565b60008160001904831182151516156112a9576112a96111ce565b500290565b6000826112cb57634e487b7160e01b600052601260045260246000fd5b500490565b6000828210156112e2576112e26111ce565b500390565b6000602082840312156112f957600080fd5b815180151581146109e057600080fd5b60005b8381101561132457818101518382015260200161130c565b83811115611333576000848401525b50505050565b6000825161134b818460208701611309565b9190910192915050565b6020815260008251806020840152611374816040850160208701611309565b601f01601f1916919091016040019291505056fea26469706673582212202910044538b310faee57975514929e628ed865e234f2bfdc60129e2ce5eaff4964736f6c634300080e0033",
    "linkReferences": {}
  },
  "methodIdentifiers": {
    "_tax()": "e751d508",
    "balanceOf(address,address)": "f7888aec",
    "balanceOfTokens(address,address,address)": "f54fc10c",
    "balances(address)": "27e235e3",
    "balancesTokens(address,address)": "93ba837f",
    "createdSplittersOf(address)": "6892e0f8",
    "getTax()": "54b762a6",
    "newSplitter(address[],uint256[])": "739046f3",
    "owner()": "8da5cb5b",
    "payeeIndex(address,uint256)": "6fc06875",
    "payees(address)": "310441fa",
    "registeredCountOf(address)": "0b4c455a",
    "registeredSplittersOf(address)": "aeb55cd4",
    "release(address,address)": "48b75044",
    "releaseAll(address)": "580fc80a",
    "releaseAllTokens(address,address)": "f9f22c23",
    "releaseInRange(address,uint256,uint256)": "f93d3788",
    "releaseInRangeTokens(address,address,uint256,uint256)": "7e3b6d9e",
    "releaseTokens(address,address,address)": "f3d57954",
    "renounceOwnership()": "715018a6",
    "setTax(uint256)": "2e5bb6ff",
    "shares(address)": "ce7c2ac2",
    "sharesOfAccount(address,address)": "00415024",
    "splitterImplementation()": "e63db9b2",
    "totalShares(address)": "bf6b874e",
    "transferOwnership(address)": "f2fde38b",
    "withdraw(uint256)": "2e1a7d4d",
    "withdrawAll()": "853828b6"
  },
  "id": 17
}