{
  "abi": [
    {
      "inputs": [
        {
          "internalType": "address",
          "name": "_token",
          "type": "address"
        }
      ],
      "stateMutability": "nonpayable",
      "type": "constructor"
    },
    {
      "anonymous": false,
      "inputs": [
        {
          "indexed": true,
          "internalType": "address",
          "name": "previousOwner",
          "type": "address"
        },
        {
          "indexed": true,
          "internalType": "address",
          "name": "newOwner",
          "type": "address"
        }
      ],
      "name": "OwnershipTransferred",
      "type": "event"
    },
    {
      "anonymous": false,
      "inputs": [
        {
          "indexed": true,
          "internalType": "address",
          "name": "_agent",
          "type": "address"
        },
        {
          "indexed": false,
          "internalType": "string",
          "name": "_role",
          "type": "string"
        }
      ],
      "name": "RoleAdded",
      "type": "event"
    },
    {
      "anonymous": false,
      "inputs": [
        {
          "indexed": true,
          "internalType": "address",
          "name": "_agent",
          "type": "address"
        },
        {
          "indexed": false,
          "internalType": "string",
          "name": "_role",
          "type": "string"
        }
      ],
      "name": "RoleRemoved",
      "type": "event"
    },
    {
      "inputs": [
        {
          "internalType": "address",
          "name": "_agent",
          "type": "address"
        }
      ],
      "name": "addAgentAdmin",
      "outputs": [],
      "stateMutability": "nonpayable",
      "type": "function"
    },
    {
      "inputs": [
        {
          "internalType": "address",
          "name": "_agent",
          "type": "address"
        }
      ],
      "name": "addComplianceAgent",
      "outputs": [],
      "stateMutability": "nonpayable",
      "type": "function"
    },
    {
      "inputs": [
        {
          "internalType": "address",
          "name": "_agent",
          "type": "address"
        }
      ],
      "name": "addFreezer",
      "outputs": [],
      "stateMutability": "nonpayable",
      "type": "function"
    },
    {
      "inputs": [
        {
          "internalType": "address",
          "name": "_agent",
          "type": "address"
        }
      ],
      "name": "addRecoveryAgent",
      "outputs": [],
      "stateMutability": "nonpayable",
      "type": "function"
    },
    {
      "inputs": [
        {
          "internalType": "address",
          "name": "_agent",
          "type": "address"
        }
      ],
      "name": "addSupplyModifier",
      "outputs": [],
      "stateMutability": "nonpayable",
      "type": "function"
    },
    {
      "inputs": [
        {
          "internalType": "address",
          "name": "_agent",
          "type": "address"
        }
      ],
      "name": "addTransferManager",
      "outputs": [],
      "stateMutability": "nonpayable",
      "type": "function"
    },
    {
      "inputs": [
        {
          "internalType": "address",
          "name": "_agent",
          "type": "address"
        }
      ],
      "name": "addWhiteListManager",
      "outputs": [],
      "stateMutability": "nonpayable",
      "type": "function"
    },
    {
      "inputs": [
        {
          "internalType": "address[]",
          "name": "_userAddresses",
          "type": "address[]"
        },
        {
          "internalType": "uint256[]",
          "name": "_amounts",
          "type": "uint256[]"
        },
        {
          "internalType": "contract IIdentity",
          "name": "_onchainID",
          "type": "address"
        }
      ],
      "name": "callBatchBurn",
      "outputs": [],
      "stateMutability": "nonpayable",
      "type": "function"
    },
    {
      "inputs": [
        {
          "internalType": "address[]",
          "name": "_fromList",
          "type": "address[]"
        },
        {
          "internalType": "address[]",
          "name": "_toList",
          "type": "address[]"
        },
        {
          "internalType": "uint256[]",
          "name": "_amounts",
          "type": "uint256[]"
        },
        {
          "internalType": "contract IIdentity",
          "name": "_onchainID",
          "type": "address"
        }
      ],
      "name": "callBatchForcedTransfer",
      "outputs": [],
      "stateMutability": "nonpayable",
      "type": "function"
    },
    {
      "inputs": [
        {
          "internalType": "address[]",
          "name": "_userAddresses",
          "type": "address[]"
        },
        {
          "internalType": "uint256[]",
          "name": "_amounts",
          "type": "uint256[]"
        },
        {
          "internalType": "contract IIdentity",
          "name": "_onchainID",
          "type": "address"
        }
      ],
      "name": "callBatchFreezePartialTokens",
      "outputs": [],
      "stateMutability": "nonpayable",
      "type": "function"
    },
    {
      "inputs": [
        {
          "internalType": "address[]",
          "name": "_toList",
          "type": "address[]"
        },
        {
          "internalType": "uint256[]",
          "name": "_amounts",
          "type": "uint256[]"
        },
        {
          "internalType": "contract IIdentity",
          "name": "_onchainID",
          "type": "address"
        }
      ],
      "name": "callBatchMint",
      "outputs": [],
      "stateMutability": "nonpayable",
      "type": "function"
    },
    {
      "inputs": [
        {
          "internalType": "address[]",
          "name": "_userAddresses",
          "type": "address[]"
        },
        {
          "internalType": "bool[]",
          "name": "_freeze",
          "type": "bool[]"
        },
        {
          "internalType": "contract IIdentity",
          "name": "_onchainID",
          "type": "address"
        }
      ],
      "name": "callBatchSetAddressFrozen",
      "outputs": [],
      "stateMutability": "nonpayable",
      "type": "function"
    },
    {
      "inputs": [
        {
          "internalType": "address[]",
          "name": "_userAddresses",
          "type": "address[]"
        },
        {
          "internalType": "uint256[]",
          "name": "_amounts",
          "type": "uint256[]"
        },
        {
          "internalType": "contract IIdentity",
          "name": "_onchainID",
          "type": "address"
        }
      ],
      "name": "callBatchUnfreezePartialTokens",
      "outputs": [],
      "stateMutability": "nonpayable",
      "type": "function"
    },
    {
      "inputs": [
        {
          "internalType": "address",
          "name": "_userAddress",
          "type": "address"
        },
        {
          "internalType": "uint256",
          "name": "_amount",
          "type": "uint256"
        },
        {
          "internalType": "contract IIdentity",
          "name": "_onchainID",
          "type": "address"
        }
      ],
      "name": "callBurn",
      "outputs": [],
      "stateMutability": "nonpayable",
      "type": "function"
    },
    {
      "inputs": [
        {
          "internalType": "address",
          "name": "_userAddress",
          "type": "address"
        },
        {
          "internalType": "contract IIdentity",
          "name": "_onchainID",
          "type": "address"
        }
      ],
      "name": "callDeleteIdentity",
      "outputs": [],
      "stateMutability": "nonpayable",
      "type": "function"
    },
    {
      "inputs": [
        {
          "internalType": "address",
          "name": "_from",
          "type": "address"
        },
        {
          "internalType": "address",
          "name": "_to",
          "type": "address"
        },
        {
          "internalType": "uint256",
          "name": "_amount",
          "type": "uint256"
        },
        {
          "internalType": "contract IIdentity",
          "name": "_onchainID",
          "type": "address"
        }
      ],
      "name": "callForcedTransfer",
      "outputs": [],
      "stateMutability": "nonpayable",
      "type": "function"
    },
    {
      "inputs": [
        {
          "internalType": "address",
          "name": "_userAddress",
          "type": "address"
        },
        {
          "internalType": "uint256",
          "name": "_amount",
          "type": "uint256"
        },
        {
          "internalType": "contract IIdentity",
          "name": "_onchainID",
          "type": "address"
        }
      ],
      "name": "callFreezePartialTokens",
      "outputs": [],
      "stateMutability": "nonpayable",
      "type": "function"
    },
    {
      "inputs": [
        {
          "internalType": "address",
          "name": "_to",
          "type": "address"
        },
        {
          "internalType": "uint256",
          "name": "_amount",
          "type": "uint256"
        },
        {
          "internalType": "contract IIdentity",
          "name": "_onchainID",
          "type": "address"
        }
      ],
      "name": "callMint",
      "outputs": [],
      "stateMutability": "nonpayable",
      "type": "function"
    },
    {
      "inputs": [
        {
          "internalType": "contract IIdentity",
          "name": "_onchainID",
          "type": "address"
        }
      ],
      "name": "callPause",
      "outputs": [],
      "stateMutability": "nonpayable",
      "type": "function"
    },
    {
      "inputs": [
        {
          "internalType": "address",
          "name": "_lostWallet",
          "type": "address"
        },
        {
          "internalType": "address",
          "name": "_newWallet",
          "type": "address"
        },
        {
          "internalType": "address",
          "name": "_onchainID",
          "type": "address"
        },
        {
          "internalType": "contract IIdentity",
          "name": "_managerOnchainID",
          "type": "address"
        }
      ],
      "name": "callRecoveryAddress",
      "outputs": [],
      "stateMutability": "nonpayable",
      "type": "function"
    },
    {
      "inputs": [
        {
          "internalType": "address",
          "name": "_userAddress",
          "type": "address"
        },
        {
          "internalType": "contract IIdentity",
          "name": "_onchainID",
          "type": "address"
        },
        {
          "internalType": "uint16",
          "name": "_country",
          "type": "uint16"
        },
        {
          "internalType": "contract IIdentity",
          "name": "_managerOnchainID",
          "type": "address"
        }
      ],
      "name": "callRegisterIdentity",
      "outputs": [],
      "stateMutability": "nonpayable",
      "type": "function"
    },
    {
      "inputs": [
        {
          "internalType": "address",
          "name": "_userAddress",
          "type": "address"
        },
        {
          "internalType": "bool",
          "name": "_freeze",
          "type": "bool"
        },
        {
          "internalType": "contract IIdentity",
          "name": "_onchainID",
          "type": "address"
        }
      ],
      "name": "callSetAddressFrozen",
      "outputs": [],
      "stateMutability": "nonpayable",
      "type": "function"
    },
    {
      "inputs": [
        {
          "internalType": "address",
          "name": "_userAddress",
          "type": "address"
        },
        {
          "internalType": "uint256",
          "name": "_amount",
          "type": "uint256"
        },
        {
          "internalType": "contract IIdentity",
          "name": "_onchainID",
          "type": "address"
        }
      ],
      "name": "callUnfreezePartialTokens",
      "outputs": [],
      "stateMutability": "nonpayable",
      "type": "function"
    },
    {
      "inputs": [
        {
          "internalType": "contract IIdentity",
          "name": "_onchainID",
          "type": "address"
        }
      ],
      "name": "callUnpause",
      "outputs": [],
      "stateMutability": "nonpayable",
      "type": "function"
    },
    {
      "inputs": [
        {
          "internalType": "address",
          "name": "_userAddress",
          "type": "address"
        },
        {
          "internalType": "uint16",
          "name": "_country",
          "type": "uint16"
        },
        {
          "internalType": "contract IIdentity",
          "name": "_onchainID",
          "type": "address"
        }
      ],
      "name": "callUpdateCountry",
      "outputs": [],
      "stateMutability": "nonpayable",
      "type": "function"
    },
    {
      "inputs": [
        {
          "internalType": "address",
          "name": "_userAddress",
          "type": "address"
        },
        {
          "internalType": "contract IIdentity",
          "name": "_identity",
          "type": "address"
        },
        {
          "internalType": "contract IIdentity",
          "name": "_onchainID",
          "type": "address"
        }
      ],
      "name": "callUpdateIdentity",
      "outputs": [],
      "stateMutability": "nonpayable",
      "type": "function"
    },
    {
      "inputs": [
        {
          "internalType": "address",
          "name": "_agent",
          "type": "address"
        }
      ],
      "name": "isAgentAdmin",
      "outputs": [
        {
          "internalType": "bool",
          "name": "",
          "type": "bool"
        }
      ],
      "stateMutability": "view",
      "type": "function"
    },
    {
      "inputs": [
        {
          "internalType": "address",
          "name": "_agent",
          "type": "address"
        }
      ],
      "name": "isComplianceAgent",
      "outputs": [
        {
          "internalType": "bool",
          "name": "",
          "type": "bool"
        }
      ],
      "stateMutability": "view",
      "type": "function"
    },
    {
      "inputs": [
        {
          "internalType": "address",
          "name": "_agent",
          "type": "address"
        }
      ],
      "name": "isFreezer",
      "outputs": [
        {
          "internalType": "bool",
          "name": "",
          "type": "bool"
        }
      ],
      "stateMutability": "view",
      "type": "function"
    },
    {
      "inputs": [
        {
          "internalType": "address",
          "name": "_agent",
          "type": "address"
        }
      ],
      "name": "isRecoveryAgent",
      "outputs": [
        {
          "internalType": "bool",
          "name": "",
          "type": "bool"
        }
      ],
      "stateMutability": "view",
      "type": "function"
    },
    {
      "inputs": [
        {
          "internalType": "address",
          "name": "_agent",
          "type": "address"
        }
      ],
      "name": "isSupplyModifier",
      "outputs": [
        {
          "internalType": "bool",
          "name": "",
          "type": "bool"
        }
      ],
      "stateMutability": "view",
      "type": "function"
    },
    {
      "inputs": [
        {
          "internalType": "address",
          "name": "_agent",
          "type": "address"
        }
      ],
      "name": "isTransferManager",
      "outputs": [
        {
          "internalType": "bool",
          "name": "",
          "type": "bool"
        }
      ],
      "stateMutability": "view",
      "type": "function"
    },
    {
      "inputs": [
        {
          "internalType": "address",
          "name": "_agent",
          "type": "address"
        }
      ],
      "name": "isWhiteListManager",
      "outputs": [
        {
          "internalType": "bool",
          "name": "",
          "type": "bool"
        }
      ],
      "stateMutability": "view",
      "type": "function"
    },
    {
      "inputs": [],
      "name": "owner",
      "outputs": [
        {
          "internalType": "address",
          "name": "",
          "type": "address"
        }
      ],
      "stateMutability": "view",
      "type": "function"
    },
    {
      "inputs": [
        {
          "internalType": "address",
          "name": "_agent",
          "type": "address"
        }
      ],
      "name": "removeAgentAdmin",
      "outputs": [],
      "stateMutability": "nonpayable",
      "type": "function"
    },
    {
      "inputs": [
        {
          "internalType": "address",
          "name": "_agent",
          "type": "address"
        }
      ],
      "name": "removeComplianceAgent",
      "outputs": [],
      "stateMutability": "nonpayable",
      "type": "function"
    },
    {
      "inputs": [
        {
          "internalType": "address",
          "name": "_agent",
          "type": "address"
        }
      ],
      "name": "removeFreezer",
      "outputs": [],
      "stateMutability": "nonpayable",
      "type": "function"
    },
    {
      "inputs": [
        {
          "internalType": "address",
          "name": "_agent",
          "type": "address"
        }
      ],
      "name": "removeRecoveryAgent",
      "outputs": [],
      "stateMutability": "nonpayable",
      "type": "function"
    },
    {
      "inputs": [
        {
          "internalType": "address",
          "name": "_agent",
          "type": "address"
        }
      ],
      "name": "removeSupplyModifier",
      "outputs": [],
      "stateMutability": "nonpayable",
      "type": "function"
    },
    {
      "inputs": [
        {
          "internalType": "address",
          "name": "_agent",
          "type": "address"
        }
      ],
      "name": "removeTransferManager",
      "outputs": [],
      "stateMutability": "nonpayable",
      "type": "function"
    },
    {
      "inputs": [
        {
          "internalType": "address",
          "name": "_agent",
          "type": "address"
        }
      ],
      "name": "removeWhiteListManager",
      "outputs": [],
      "stateMutability": "nonpayable",
      "type": "function"
    },
    {
      "inputs": [],
      "name": "renounceOwnership",
      "outputs": [],
      "stateMutability": "nonpayable",
      "type": "function"
    },
    {
      "inputs": [],
      "name": "token",
      "outputs": [
        {
          "internalType": "contract IToken",
          "name": "",
          "type": "address"
        }
      ],
      "stateMutability": "view",
      "type": "function"
    },
    {
      "inputs": [
        {
          "internalType": "address",
          "name": "newOwner",
          "type": "address"
        }
      ],
      "name": "transferOwnership",
      "outputs": [],
      "stateMutability": "nonpayable",
      "type": "function"
    }
  ],
  "bytecode": {
    "object": "0x60806040523480156200001157600080fd5b50604051620030aa380380620030aa8339810160408190526200003491620000b5565b6200003f3362000065565b600880546001600160a01b0319166001600160a01b0392909216919091179055620000e7565b600080546001600160a01b038381166001600160a01b0319831681178455604051919092169283917f8be0079c531659141344cd1fd0a4f28419497f9722a3daafe3b4186f6b6457e09190a35050565b600060208284031215620000c857600080fd5b81516001600160a01b0381168114620000e057600080fd5b9392505050565b612fb380620000f76000396000f3fe608060405234801561001057600080fd5b50600436106102745760003560e01c8063715018a611610151578063b673266a116100c3578063cdf1b69311610087578063cdf1b69314610569578063d5451e521461057c578063e86c64311461058f578063f1e92173146105a2578063f2fde38b146105b5578063fc0c546a146105c857600080fd5b8063b673266a1461050a578063bd92fcfe1461051d578063bea0790a14610530578063c6006c9a14610543578063c8777b501461055657600080fd5b80638da5cb5b116101155780638da5cb5b1461048657806394452821146104ab578063965e61ea146104be57806396df6f27146104d1578063a6a7d4e2146104e4578063aca277e1146104f757600080fd5b8063715018a6146104325780637489453d1461043a5780637ad78a461461044d5780637d684ff714610460578063860a2bcf1461047357600080fd5b806339cc8d90116101ea5780634599fb7b116101ae5780634599fb7b146103c05780634aff432c146103d3578063526606c9146103e657806365d07b2e146103f95780636b8c82b51461040c5780636c65fd6a1461041f57600080fd5b806339cc8d901461036157806339ed7a40146103745780633cdf8000146103875780633dc1c1761461039a57806341e6aa5d146103ad57600080fd5b80632001c3501161023c5780632001c350146102ef5780632228a6cf1461030257806324fdc360146103155780632acd200014610328578063393694a71461033b5780633966904d1461034e57600080fd5b80630102acff14610279578063042a36061461028e5780630878c410146102b657806314f2d276146102c957806315d8ca62146102dc575b600080fd5b61028c610287366004612859565b6105db565b005b6102a161029c36600461289b565b610712565b60405190151581526020015b60405180910390f35b61028c6102c436600461290b565b610725565b61028c6102d736600461289b565b610856565b61028c6102ea36600461289b565b610902565b6102a16102fd36600461289b565b6109a1565b61028c6103103660046129a6565b6109ae565b61028c61032336600461289b565b610b21565b61028c61033636600461289b565b610c4e565b61028c610349366004612859565b610ce6565b61028c61035c36600461289b565b610de1565b61028c61036f36600461289b565b610e82565b61028c610382366004612859565b610f94565b61028c61039536600461289b565b61108f565b61028c6103a836600461290b565b61112f565b61028c6103bb366004612859565b611227565b6102a16103ce36600461289b565b611322565b61028c6103e136600461289b565b61132f565b61028c6103f436600461289b565b6113d0565b61028c61040736600461289b565b611468565b61028c61041a36600461290b565b611503565b6102a161042d36600461289b565b6115fb565b61028c611608565b61028c61044836600461289b565b61166e565b6102a161045b36600461289b565b61170c565b61028c61046e36600461290b565b611719565b61028c61048136600461289b565b611811565b6000546001600160a01b03165b6040516001600160a01b0390911681526020016102ad565b61028c6104b936600461290b565b6118b0565b61028c6104cc36600461289b565b6119a8565b61028c6104df3660046129f2565b611a48565b61028c6104f2366004612a22565b611b44565b61028c610505366004612a7e565b611cc2565b61028c610518366004612ab7565b611e5c565b6102a161052b36600461289b565b611f93565b61028c61053e366004612b65565b611fa0565b61028c61055136600461289b565b61214e565b61028c61056436600461289b565b6121ee565b61028c61057736600461289b565b61228c565b61028c61058a366004612ba4565b612327565b6102a161059d36600461289b565b612498565b61028c6105b0366004612bd4565b6124a5565b61028c6105c336600461289b565b6125a8565b600854610493906001600160a01b031681565b6105e481610712565b80156106815750604080513360208201526001600160a01b0383169163d202158d910160408051601f198184030181529082905280516020909101206001600160e01b031960e084901b168252600482015260026024820152604401602060405180830381865afa15801561065d573d6000803e3d6000fd5b505050506040513d601f19601f820116820180604052508101906106819190612c1c565b6106a65760405162461bcd60e51b815260040161069d90612c39565b60405180910390fd5b6008546040516340c10f1960e01b81526001600160a01b03858116600483015260248201859052909116906340c10f19906044015b600060405180830381600087803b1580156106f557600080fd5b505af1158015610709573d6000803e3d6000fd5b50505050505050565b600061071f600183612673565b92915050565b61072e816115fb565b80156107cb5750604080513360208201526001600160a01b0383169163d202158d910160408051601f198184030181529082905280516020909101206001600160e01b031960e084901b168252600482015260026024820152604401602060405180830381865afa1580156107a7573d6000803e3d6000fd5b505050506040513d601f19601f820116820180604052508101906107cb9190612c1c565b6107e75760405162461bcd60e51b815260040161069d90612c7c565b600854604051634710362d60e01b81526001600160a01b0390911690634710362d9061081d908890889088908890600401612d32565b600060405180830381600087803b15801561083757600080fd5b505af115801561084b573d6000803e3d6000fd5b505050505050505050565b336108696000546001600160a01b031690565b6001600160a01b03161480610882575061088233611322565b61089e5760405162461bcd60e51b815260040161069d90612d64565b6108a96003826126f6565b604080518082018252600f81526e2a3930b739b332b926b0b730b3b2b960891b602082015290516001600160a01b03831690600080516020612f5e833981519152906108f6908490612d9b565b60405180910390a25050565b336109156000546001600160a01b031690565b6001600160a01b0316148061092e575061092e33611322565b61094a5760405162461bcd60e51b815260040161069d90612d64565b6109556001826126f6565b604080518082018252600e81526d29bab838363ca6b7b234b334b2b960911b602082015290516001600160a01b03831690600080516020612f5e833981519152906108f6908490612d9b565b600061071f600583612673565b6109b781611f93565b8015610a545750604080513360208201526001600160a01b0383169163d202158d910160408051601f198184030181529082905280516020909101206001600160e01b031960e084901b168252600482015260026024820152604401602060405180830381865afa158015610a30573d6000803e3d6000fd5b505050506040513d601f19601f82011682018060405250810190610a549190612c1c565b610a705760405162461bcd60e51b815260040161069d90612df0565b600860009054906101000a90046001600160a01b03166001600160a01b031663134e18f46040518163ffffffff1660e01b8152600401602060405180830381865afa158015610ac3573d6000803e3d6000fd5b505050506040513d601f19601f82011682018060405250810190610ae79190612e35565b604051633b239a7f60e01b81526001600160a01b03858116600483015261ffff851660248301529190911690633b239a7f906044016106db565b610b2a816115fb565b8015610bc75750604080513360208201526001600160a01b0383169163d202158d910160408051601f198184030181529082905280516020909101206001600160e01b031960e084901b168252600482015260026024820152604401602060405180830381865afa158015610ba3573d6000803e3d6000fd5b505050506040513d601f19601f82011682018060405250810190610bc79190612c1c565b610be35760405162461bcd60e51b815260040161069d90612c7c565b600860009054906101000a90046001600160a01b03166001600160a01b0316638456cb596040518163ffffffff1660e01b8152600401600060405180830381600087803b158015610c3357600080fd5b505af1158015610c47573d6000803e3d6000fd5b5050505050565b33610c616000546001600160a01b031690565b6001600160a01b03161480610c7a5750610c7a33611322565b610c965760405162461bcd60e51b815260040161069d90612d64565b610ca1600282612772565b6040805180820182526007815266233932b2bd32b960c91b602082015290516001600160a01b03831690600080516020612f3e833981519152906108f6908490612d9b565b610cef816115fb565b8015610d8c5750604080513360208201526001600160a01b0383169163d202158d910160408051601f198184030181529082905280516020909101206001600160e01b031960e084901b168252600482015260026024820152604401602060405180830381865afa158015610d68573d6000803e3d6000fd5b505050506040513d601f19601f82011682018060405250810190610d8c9190612c1c565b610da85760405162461bcd60e51b815260040161069d90612c7c565b600854604051631fe56f7d60e01b81526001600160a01b0385811660048301526024820185905290911690631fe56f7d906044016106db565b33610df46000546001600160a01b031690565b6001600160a01b03161480610e0d5750610e0d33611322565b610e295760405162461bcd60e51b815260040161069d90612d64565b610e346006826126f6565b604080518082018252601081526f2bb434ba32a634b9ba26b0b730b3b2b960811b602082015290516001600160a01b03831690600080516020612f5e833981519152906108f6908490612d9b565b610e8b816115fb565b8015610f285750604080513360208201526001600160a01b0383169163d202158d910160408051601f198184030181529082905280516020909101206001600160e01b031960e084901b168252600482015260026024820152604401602060405180830381865afa158015610f04573d6000803e3d6000fd5b505050506040513d601f19601f82011682018060405250810190610f289190612c1c565b610f445760405162461bcd60e51b815260040161069d90612c7c565b600860009054906101000a90046001600160a01b03166001600160a01b0316633f4ba83a6040518163ffffffff1660e01b8152600401600060405180830381600087803b158015610c3357600080fd5b610f9d816115fb565b801561103a5750604080513360208201526001600160a01b0383169163d202158d910160408051601f198184030181529082905280516020909101206001600160e01b031960e084901b168252600482015260026024820152604401602060405180830381865afa158015611016573d6000803e3d6000fd5b505050506040513d601f19601f8201168201806040525081019061103a9190612c1c565b6110565760405162461bcd60e51b815260040161069d90612c7c565b60085460405163125c4a3360e01b81526001600160a01b038581166004830152602482018590529091169063125c4a33906044016106db565b336110a26000546001600160a01b031690565b6001600160a01b031614806110bb57506110bb33611322565b6110d75760405162461bcd60e51b815260040161069d90612d64565b6110e26005826126f6565b604080518082018252600f81526e10dbdb5c1b1a585b98d95059d95b9d608a1b602082015290516001600160a01b03831690600080516020612f5e833981519152906108f6908490612d9b565b61113881610712565b80156111d55750604080513360208201526001600160a01b0383169163d202158d910160408051601f198184030181529082905280516020909101206001600160e01b031960e084901b168252600482015260026024820152604401602060405180830381865afa1580156111b1573d6000803e3d6000fd5b505050506040513d601f19601f820116820180604052508101906111d59190612c1c565b6111f15760405162461bcd60e51b815260040161069d90612c39565b600854604051636857310760e01b81526001600160a01b039091169063685731079061081d908890889088908890600401612d32565b61123081610712565b80156112cd5750604080513360208201526001600160a01b0383169163d202158d910160408051601f198184030181529082905280516020909101206001600160e01b031960e084901b168252600482015260026024820152604401602060405180830381865afa1580156112a9573d6000803e3d6000fd5b505050506040513d601f19601f820116820180604052508101906112cd9190612c1c565b6112e95760405162461bcd60e51b815260040161069d90612c39565b600854604051632770a7eb60e21b81526001600160a01b0385811660048301526024820185905290911690639dc29fac906044016106db565b600061071f600783612673565b336113426000546001600160a01b031690565b6001600160a01b0316148061135b575061135b33611322565b6113775760405162461bcd60e51b815260040161069d90612d64565b611382600682612772565b604080518082018252601081526f2bb434ba32a634b9ba26b0b730b3b2b960811b602082015290516001600160a01b03831690600080516020612f3e833981519152906108f6908490612d9b565b336113e36000546001600160a01b031690565b6001600160a01b031614806113fc57506113fc33611322565b6114185760405162461bcd60e51b815260040161069d90612d64565b6114236002826126f6565b6040805180820182526007815266233932b2bd32b960c91b602082015290516001600160a01b03831690600080516020612f5e833981519152906108f6908490612d9b565b3361147b6000546001600160a01b031690565b6001600160a01b03161480611494575061149433611322565b6114b05760405162461bcd60e51b815260040161069d90612d64565b6114bb600782612772565b604080518082018252600a81526920b3b2b73a20b236b4b760b11b602082015290516001600160a01b03831690600080516020612f3e833981519152906108f6908490612d9b565b61150c816115fb565b80156115a95750604080513360208201526001600160a01b0383169163d202158d910160408051601f198184030181529082905280516020909101206001600160e01b031960e084901b168252600482015260026024820152604401602060405180830381865afa158015611585573d6000803e3d6000fd5b505050506040513d601f19601f820116820180604052508101906115a99190612c1c565b6115c55760405162461bcd60e51b815260040161069d90612c7c565b600854604051631a7af37960e01b81526001600160a01b0390911690631a7af3799061081d908890889088908890600401612e52565b600061071f600283612673565b6000546001600160a01b031633146116625760405162461bcd60e51b815260206004820181905260248201527f4f776e61626c653a2063616c6c6572206973206e6f7420746865206f776e6572604482015260640161069d565b61166c60006127f4565b565b336116816000546001600160a01b031690565b6001600160a01b0316148061169a575061169a33611322565b6116b65760405162461bcd60e51b815260040161069d90612d64565b6116c16004826126f6565b604080518082018252600d81526c149958dbdd995c9e5059d95b9d609a1b602082015290516001600160a01b03831690600080516020612f5e833981519152906108f6908490612d9b565b600061071f600483612673565b611722816115fb565b80156117bf5750604080513360208201526001600160a01b0383169163d202158d910160408051601f198184030181529082905280516020909101206001600160e01b031960e084901b168252600482015260026024820152604401602060405180830381865afa15801561179b573d6000803e3d6000fd5b505050506040513d601f19601f820116820180604052508101906117bf9190612c1c565b6117db5760405162461bcd60e51b815260040161069d90612c7c565b600854604051631f8fcbf560e31b81526001600160a01b039091169063fc7e5fa89061081d908890889088908890600401612d32565b336118246000546001600160a01b031690565b6001600160a01b0316148061183d575061183d33611322565b6118595760405162461bcd60e51b815260040161069d90612d64565b611864600182612772565b604080518082018252600e81526d29bab838363ca6b7b234b334b2b960911b602082015290516001600160a01b03831690600080516020612f3e833981519152906108f6908490612d9b565b6118b981610712565b80156119565750604080513360208201526001600160a01b0383169163d202158d910160408051601f198184030181529082905280516020909101206001600160e01b031960e084901b168252600482015260026024820152604401602060405180830381865afa158015611932573d6000803e3d6000fd5b505050506040513d601f19601f820116820180604052508101906119569190612c1c565b6119725760405162461bcd60e51b815260040161069d90612c39565b600854604051634a6cc67760e01b81526001600160a01b0390911690634a6cc6779061081d908890889088908890600401612d32565b336119bb6000546001600160a01b031690565b6001600160a01b031614806119d457506119d433611322565b6119f05760405162461bcd60e51b815260040161069d90612d64565b6119fb600382612772565b604080518082018252600f81526e2a3930b739b332b926b0b730b3b2b960891b602082015290516001600160a01b03831690600080516020612f3e833981519152906108f6908490612d9b565b611a51816115fb565b8015611aee5750604080513360208201526001600160a01b0383169163d202158d910160408051601f198184030181529082905280516020909101206001600160e01b031960e084901b168252600482015260026024820152604401602060405180830381865afa158015611aca573d6000803e3d6000fd5b505050506040513d601f19601f82011682018060405250810190611aee9190612c1c565b611b0a5760405162461bcd60e51b815260040161069d90612c7c565b60085460405163c69c09cf60e01b81526001600160a01b03858116600483015284151560248301529091169063c69c09cf906044016106db565b611b4d8161170c565b8015611bea5750604080513360208201526001600160a01b0383169163d202158d910160408051601f198184030181529082905280516020909101206001600160e01b031960e084901b168252600482015260026024820152604401602060405180830381865afa158015611bc6573d6000803e3d6000fd5b505050506040513d601f19601f82011682018060405250810190611bea9190612c1c565b611c415760405162461bcd60e51b815260206004820152602260248201527f526f6c653a2053656e646572206973204e4f54205265636f76657279204167656044820152611b9d60f21b606482015260840161069d565b600854604051634942ca4560e11b81526001600160a01b0386811660048301528581166024830152848116604483015290911690639285948a906064015b6020604051808303816000875af1158015611c9e573d6000803e3d6000fd5b505050506040513d601f19601f82011682018060405250810190610c479190612c1c565b611ccb81611f93565b8015611d685750604080513360208201526001600160a01b0383169163d202158d910160408051601f198184030181529082905280516020909101206001600160e01b031960e084901b168252600482015260026024820152604401602060405180830381865afa158015611d44573d6000803e3d6000fd5b505050506040513d601f19601f82011682018060405250810190611d689190612c1c565b611d845760405162461bcd60e51b815260040161069d90612df0565b600860009054906101000a90046001600160a01b03166001600160a01b031663134e18f46040518163ffffffff1660e01b8152600401602060405180830381865afa158015611dd7573d6000803e3d6000fd5b505050506040513d601f19601f82011682018060405250810190611dfb9190612e35565b60405163a8d29d1d60e01b81526001600160a01b038481166004830152919091169063a8d29d1d90602401600060405180830381600087803b158015611e4057600080fd5b505af1158015611e54573d6000803e3d6000fd5b505050505050565b611e6581612498565b8015611f025750604080513360208201526001600160a01b0383169163d202158d910160408051601f198184030181529082905280516020909101206001600160e01b031960e084901b168252600482015260026024820152604401602060405180830381865afa158015611ede573d6000803e3d6000fd5b505050506040513d601f19601f82011682018060405250810190611f029190612c1c565b611f1e5760405162461bcd60e51b815260040161069d90612eb0565b6008546040516310a91eaf60e21b81526001600160a01b03909116906342a47abc90611f58908a908a908a908a908a908a90600401612ef4565b600060405180830381600087803b158015611f7257600080fd5b505af1158015611f86573d6000803e3d6000fd5b5050505050505050505050565b600061071f600683612673565b611fa981611f93565b80156120465750604080513360208201526001600160a01b0383169163d202158d910160408051601f198184030181529082905280516020909101206001600160e01b031960e084901b168252600482015260026024820152604401602060405180830381865afa158015612022573d6000803e3d6000fd5b505050506040513d601f19601f820116820180604052508101906120469190612c1c565b6120625760405162461bcd60e51b815260040161069d90612df0565b600860009054906101000a90046001600160a01b03166001600160a01b031663134e18f46040518163ffffffff1660e01b8152600401602060405180830381865afa1580156120b5573d6000803e3d6000fd5b505050506040513d601f19601f820116820180604052508101906120d99190612e35565b60405163022a501f60e51b81526001600160a01b038681166004830152858116602483015261ffff85166044830152919091169063454a03e090606401600060405180830381600087803b15801561213057600080fd5b505af1158015612144573d6000803e3d6000fd5b5050505050505050565b336121616000546001600160a01b031690565b6001600160a01b0316148061217a575061217a33611322565b6121965760405162461bcd60e51b815260040161069d90612d64565b6121a1600582612772565b604080518082018252600f81526e10dbdb5c1b1a585b98d95059d95b9d608a1b602082015290516001600160a01b03831690600080516020612f3e833981519152906108f6908490612d9b565b336122016000546001600160a01b031690565b6001600160a01b0316148061221a575061221a33611322565b6122365760405162461bcd60e51b815260040161069d90612d64565b612241600482612772565b604080518082018252600d81526c149958dbdd995c9e5059d95b9d609a1b602082015290516001600160a01b03831690600080516020612f3e833981519152906108f6908490612d9b565b3361229f6000546001600160a01b031690565b6001600160a01b031614806122b857506122b833611322565b6122d45760405162461bcd60e51b815260040161069d90612d64565b6122df6007826126f6565b604080518082018252600a81526920b3b2b73a20b236b4b760b11b602082015290516001600160a01b03831690600080516020612f5e833981519152906108f6908490612d9b565b61233081611f93565b80156123cd5750604080513360208201526001600160a01b0383169163d202158d910160408051601f198184030181529082905280516020909101206001600160e01b031960e084901b168252600482015260026024820152604401602060405180830381865afa1580156123a9573d6000803e3d6000fd5b505050506040513d601f19601f820116820180604052508101906123cd9190612c1c565b6123e95760405162461bcd60e51b815260040161069d90612df0565b600860009054906101000a90046001600160a01b03166001600160a01b031663134e18f46040518163ffffffff1660e01b8152600401602060405180830381865afa15801561243c573d6000803e3d6000fd5b505050506040513d601f19601f820116820180604052508101906124609190612e35565b604051638e098ca160e01b81526001600160a01b03858116600483015284811660248301529190911690638e098ca1906044016106db565b600061071f600383612673565b6124ae81612498565b801561254b5750604080513360208201526001600160a01b0383169163d202158d910160408051601f198184030181529082905280516020909101206001600160e01b031960e084901b168252600482015260026024820152604401602060405180830381865afa158015612527573d6000803e3d6000fd5b505050506040513d601f19601f8201168201806040525081019061254b9190612c1c565b6125675760405162461bcd60e51b815260040161069d90612eb0565b600854604051639fc1d0e760e01b81526001600160a01b03868116600483015285811660248301526044820185905290911690639fc1d0e790606401611c7f565b6000546001600160a01b031633146126025760405162461bcd60e51b815260206004820181905260248201527f4f776e61626c653a2063616c6c6572206973206e6f7420746865206f776e6572604482015260640161069d565b6001600160a01b0381166126675760405162461bcd60e51b815260206004820152602660248201527f4f776e61626c653a206e6577206f776e657220697320746865207a65726f206160448201526564647265737360d01b606482015260840161069d565b612670816127f4565b50565b60006001600160a01b0382166126d65760405162461bcd60e51b815260206004820152602260248201527f526f6c65733a206163636f756e7420697320746865207a65726f206164647265604482015261737360f01b606482015260840161069d565b506001600160a01b03166000908152602091909152604090205460ff1690565b6127008282612673565b1561274d5760405162461bcd60e51b815260206004820152601f60248201527f526f6c65733a206163636f756e7420616c72656164792068617320726f6c6500604482015260640161069d565b6001600160a01b0316600090815260209190915260409020805460ff19166001179055565b61277c8282612673565b6127d25760405162461bcd60e51b815260206004820152602160248201527f526f6c65733a206163636f756e7420646f6573206e6f74206861766520726f6c6044820152606560f81b606482015260840161069d565b6001600160a01b0316600090815260209190915260409020805460ff19169055565b600080546001600160a01b038381166001600160a01b0319831681178455604051919092169283917f8be0079c531659141344cd1fd0a4f28419497f9722a3daafe3b4186f6b6457e09190a35050565b6001600160a01b038116811461267057600080fd5b60008060006060848603121561286e57600080fd5b833561287981612844565b925060208401359150604084013561289081612844565b809150509250925092565b6000602082840312156128ad57600080fd5b81356128b881612844565b9392505050565b60008083601f8401126128d157600080fd5b50813567ffffffffffffffff8111156128e957600080fd5b6020830191508360208260051b850101111561290457600080fd5b9250929050565b60008060008060006060868803121561292357600080fd5b853567ffffffffffffffff8082111561293b57600080fd5b61294789838a016128bf565b9097509550602088013591508082111561296057600080fd5b5061296d888289016128bf565b909450925050604086013561298181612844565b809150509295509295909350565b803561ffff811681146129a157600080fd5b919050565b6000806000606084860312156129bb57600080fd5b83356129c681612844565b92506129d46020850161298f565b9150604084013561289081612844565b801515811461267057600080fd5b600080600060608486031215612a0757600080fd5b8335612a1281612844565b925060208401356129d4816129e4565b60008060008060808587031215612a3857600080fd5b8435612a4381612844565b93506020850135612a5381612844565b92506040850135612a6381612844565b91506060850135612a7381612844565b939692955090935050565b60008060408385031215612a9157600080fd5b8235612a9c81612844565b91506020830135612aac81612844565b809150509250929050565b60008060008060008060006080888a031215612ad257600080fd5b873567ffffffffffffffff80821115612aea57600080fd5b612af68b838c016128bf565b909950975060208a0135915080821115612b0f57600080fd5b612b1b8b838c016128bf565b909750955060408a0135915080821115612b3457600080fd5b50612b418a828b016128bf565b9094509250506060880135612b5581612844565b8091505092959891949750929550565b60008060008060808587031215612b7b57600080fd5b8435612b8681612844565b93506020850135612b9681612844565b9250612a636040860161298f565b600080600060608486031215612bb957600080fd5b8335612bc481612844565b925060208401356129d481612844565b60008060008060808587031215612bea57600080fd5b8435612bf581612844565b93506020850135612c0581612844565b9250604085013591506060850135612a7381612844565b600060208284031215612c2e57600080fd5b81516128b8816129e4565b60208082526023908201527f526f6c653a2053656e646572206973204e4f5420537570706c79204d6f64696660408201526234b2b960e91b606082015260800190565b6020808252601b908201527f526f6c653a2053656e646572206973204e4f5420467265657a65720000000000604082015260600190565b8183526000602080850194508260005b85811015612cf1578135612cd681612844565b6001600160a01b031687529582019590820190600101612cc3565b509495945050505050565b81835260006001600160fb1b03831115612d1557600080fd5b8260051b8083602087013760009401602001938452509192915050565b604081526000612d46604083018688612cb3565b8281036020840152612d59818587612cfc565b979650505050505050565b60208082526019908201527f526f6c653a2053656e646572206973204e4f542041646d696e00000000000000604082015260600190565b600060208083528351808285015260005b81811015612dc857858101830151858201604001528201612dac565b81811115612dda576000604083870101525b50601f01601f1916929092016040019392505050565b60208082526025908201527f526f6c653a2053656e646572206973204e4f542057686974654c697374204d616040820152643730b3b2b960d91b606082015260800190565b600060208284031215612e4757600080fd5b81516128b881612844565b604081526000612e66604083018688612cb3565b8281036020848101919091528482528591810160005b86811015612ea3578335612e8f816129e4565b151582529282019290820190600101612e7c565b5098975050505050505050565b60208082526024908201527f526f6c653a2053656e646572206973204e4f54205472616e73666572204d616e60408201526330b3b2b960e11b606082015260800190565b606081526000612f0860608301888a612cb3565b8281036020840152612f1b818789612cb3565b90508281036040840152612f30818587612cfc565b999850505050505050505056fed211483f91fc6eff862467f8de606587a30c8fc9981056f051b897a418df803abfec83d64eaa953f2708271a023ab9ee82057f8f3578d548c1a4ba0b5b700489a264697066735822122033b2de704adc4d38e48b03978558866228e1b6f10590c819f6c49fca0651e3c364736f6c634300080e0033",
    "linkReferences": {}
  },
  "methodIdentifiers": {
    "addAgentAdmin(address)": "cdf1b693",
    "addComplianceAgent(address)": "3cdf8000",
    "addFreezer(address)": "526606c9",
    "addRecoveryAgent(address)": "7489453d",
    "addSupplyModifier(address)": "15d8ca62",
    "addTransferManager(address)": "14f2d276",
    "addWhiteListManager(address)": "3966904d",
    "callBatchBurn(address[],uint256[],address)": "94452821",
    "callBatchForcedTransfer(address[],address[],uint256[],address)": "b673266a",
    "callBatchFreezePartialTokens(address[],uint256[],address)": "7d684ff7",
    "callBatchMint(address[],uint256[],address)": "3dc1c176",
    "callBatchSetAddressFrozen(address[],bool[],address)": "6b8c82b5",
    "callBatchUnfreezePartialTokens(address[],uint256[],address)": "0878c410",
    "callBurn(address,uint256,address)": "41e6aa5d",
    "callDeleteIdentity(address,address)": "aca277e1",
    "callForcedTransfer(address,address,uint256,address)": "f1e92173",
    "callFreezePartialTokens(address,uint256,address)": "39ed7a40",
    "callMint(address,uint256,address)": "0102acff",
    "callPause(address)": "24fdc360",
    "callRecoveryAddress(address,address,address,address)": "a6a7d4e2",
    "callRegisterIdentity(address,address,uint16,address)": "bea0790a",
    "callSetAddressFrozen(address,bool,address)": "96df6f27",
    "callUnfreezePartialTokens(address,uint256,address)": "393694a7",
    "callUnpause(address)": "39cc8d90",
    "callUpdateCountry(address,uint16,address)": "2228a6cf",
    "callUpdateIdentity(address,address,address)": "d5451e52",
    "isAgentAdmin(address)": "4599fb7b",
    "isComplianceAgent(address)": "2001c350",
    "isFreezer(address)": "6c65fd6a",
    "isRecoveryAgent(address)": "7ad78a46",
    "isSupplyModifier(address)": "042a3606",
    "isTransferManager(address)": "e86c6431",
    "isWhiteListManager(address)": "bd92fcfe",
    "owner()": "8da5cb5b",
    "removeAgentAdmin(address)": "65d07b2e",
    "removeComplianceAgent(address)": "c6006c9a",
    "removeFreezer(address)": "2acd2000",
    "removeRecoveryAgent(address)": "c8777b50",
    "removeSupplyModifier(address)": "860a2bcf",
    "removeTransferManager(address)": "965e61ea",
    "removeWhiteListManager(address)": "4aff432c",
    "renounceOwnership()": "715018a6",
    "token()": "fc0c546a",
    "transferOwnership(address)": "f2fde38b"
  },
  "id": 16
}